{
  "_format": "hh-sol-artifact-1",
  "contractName": "SpotoGame",
  "sourceName": "contracts/SpotoGame.sol",
  "abi": [
    {
      "inputs": [
        {
          "internalType": "address",
          "name": "_coin_addr",
          "type": "address"
        },
        {
          "internalType": "address",
          "name": "AggregatorAddress",
          "type": "address"
        }
      ],
      "stateMutability": "nonpayable",
      "type": "constructor"
    },
    {
      "anonymous": false,
      "inputs": [
        {
          "indexed": false,
          "internalType": "address",
          "name": "player1",
          "type": "address"
        },
        {
          "indexed": false,
          "internalType": "uint256",
          "name": "betId",
          "type": "uint256"
        },
        {
          "indexed": false,
          "internalType": "uint256",
          "name": "deposit",
          "type": "uint256"
        },
        {
          "indexed": false,
          "internalType": "string",
          "name": "nft_id",
          "type": "string"
        }
      ],
      "name": "BetCreated",
      "type": "event"
    },
    {
      "anonymous": false,
      "inputs": [
        {
          "indexed": false,
          "internalType": "address",
          "name": "player2",
          "type": "address"
        },
        {
          "indexed": false,
          "internalType": "uint256",
          "name": "betId",
          "type": "uint256"
        },
        {
          "indexed": false,
          "internalType": "uint256",
          "name": "deposit",
          "type": "uint256"
        },
        {
          "indexed": false,
          "internalType": "string",
          "name": "nft_id",
          "type": "string"
        }
      ],
      "name": "Betjoined",
      "type": "event"
    },
    {
      "anonymous": false,
      "inputs": [
        {
          "indexed": false,
          "internalType": "uint256",
          "name": "bet_id",
          "type": "uint256"
        },
        {
          "indexed": false,
          "internalType": "address",
          "name": "winner",
          "type": "address"
        },
        {
          "indexed": false,
          "internalType": "uint256",
          "name": "gains",
          "type": "uint256"
        }
      ],
      "name": "Withdraw",
      "type": "event"
    },
    {
      "inputs": [],
      "name": "SetLatestEthPrice",
      "outputs": [],
      "stateMutability": "nonpayable",
      "type": "function"
    },
    {
      "inputs": [
        {
          "internalType": "uint256",
          "name": "matchId",
          "type": "uint256"
        }
      ],
      "name": "availablebets",
      "outputs": [
        {
          "internalType": "uint256[]",
          "name": "available_bet_id",
          "type": "uint256[]"
        }
      ],
      "stateMutability": "view",
      "type": "function"
    },
    {
      "inputs": [
        {
          "internalType": "address",
          "name": "a",
          "type": "address"
        }
      ],
      "name": "balanceOf",
      "outputs": [
        {
          "internalType": "uint256",
          "name": "",
          "type": "uint256"
        }
      ],
      "stateMutability": "view",
      "type": "function"
    },
    {
      "inputs": [],
      "name": "betCount",
      "outputs": [
        {
          "internalType": "uint256",
          "name": "",
          "type": "uint256"
        }
      ],
      "stateMutability": "view",
      "type": "function"
    },
    {
      "inputs": [
        {
          "internalType": "uint256",
          "name": "match_id",
          "type": "uint256"
        },
        {
          "internalType": "uint256",
          "name": "winner_prediction",
          "type": "uint256"
        },
        {
          "internalType": "string",
          "name": "nft_id",
          "type": "string"
        },
        {
          "internalType": "uint256",
          "name": "amount",
          "type": "uint256"
        }
      ],
      "name": "createBet",
      "outputs": [],
      "stateMutability": "nonpayable",
      "type": "function"
    },
    {
      "inputs": [],
      "name": "getActiveBets",
      "outputs": [
        {
          "components": [
            {
              "internalType": "uint256",
              "name": "bettingPairId",
              "type": "uint256"
            },
            {
              "internalType": "uint256",
              "name": "matchid",
              "type": "uint256"
            },
            {
              "internalType": "address",
              "name": "player1",
              "type": "address"
            },
            {
              "internalType": "address",
              "name": "player2",
              "type": "address"
            },
            {
              "internalType": "string",
              "name": "nftid_player1",
              "type": "string"
            },
            {
              "internalType": "string",
              "name": "nftid_player2",
              "type": "string"
            },
            {
              "internalType": "uint256",
              "name": "player1Deposit",
              "type": "uint256"
            },
            {
              "internalType": "uint256",
              "name": "player2Deposit",
              "type": "uint256"
            },
            {
              "internalType": "uint256",
              "name": "player1GamePrediction",
              "type": "uint256"
            },
            {
              "internalType": "uint256",
              "name": "player2GamePrediction",
              "type": "uint256"
            },
            {
              "internalType": "bool",
              "name": "isResolved",
              "type": "bool"
            },
            {
              "internalType": "bool",
              "name": "gameFinished",
              "type": "bool"
            },
            {
              "internalType": "bool",
              "name": "withdrawCompleted",
              "type": "bool"
            },
            {
              "internalType": "address",
              "name": "theWinner",
              "type": "address"
            },
            {
              "internalType": "address",
              "name": "refund_player1",
              "type": "address"
            },
            {
              "internalType": "address",
              "name": "refund_player2",
              "type": "address"
            },
            {
              "internalType": "uint256",
              "name": "gains",
              "type": "uint256"
            }
          ],
          "internalType": "struct SpotoGame.BettingEvent[]",
          "name": "",
          "type": "tuple[]"
        }
      ],
      "stateMutability": "view",
      "type": "function"
    },
    {
      "inputs": [
        {
          "internalType": "uint256",
          "name": "match_id",
          "type": "uint256"
        }
      ],
      "name": "getActiveBets_matchid",
      "outputs": [
        {
          "components": [
            {
              "internalType": "uint256",
              "name": "bettingPairId",
              "type": "uint256"
            },
            {
              "internalType": "uint256",
              "name": "matchid",
              "type": "uint256"
            },
            {
              "internalType": "address",
              "name": "player1",
              "type": "address"
            },
            {
              "internalType": "address",
              "name": "player2",
              "type": "address"
            },
            {
              "internalType": "string",
              "name": "nftid_player1",
              "type": "string"
            },
            {
              "internalType": "string",
              "name": "nftid_player2",
              "type": "string"
            },
            {
              "internalType": "uint256",
              "name": "player1Deposit",
              "type": "uint256"
            },
            {
              "internalType": "uint256",
              "name": "player2Deposit",
              "type": "uint256"
            },
            {
              "internalType": "uint256",
              "name": "player1GamePrediction",
              "type": "uint256"
            },
            {
              "internalType": "uint256",
              "name": "player2GamePrediction",
              "type": "uint256"
            },
            {
              "internalType": "bool",
              "name": "isResolved",
              "type": "bool"
            },
            {
              "internalType": "bool",
              "name": "gameFinished",
              "type": "bool"
            },
            {
              "internalType": "bool",
              "name": "withdrawCompleted",
              "type": "bool"
            },
            {
              "internalType": "address",
              "name": "theWinner",
              "type": "address"
            },
            {
              "internalType": "address",
              "name": "refund_player1",
              "type": "address"
            },
            {
              "internalType": "address",
              "name": "refund_player2",
              "type": "address"
            },
            {
              "internalType": "uint256",
              "name": "gains",
              "type": "uint256"
            }
          ],
          "internalType": "struct SpotoGame.BettingEvent[]",
          "name": "",
          "type": "tuple[]"
        }
      ],
      "stateMutability": "view",
      "type": "function"
    },
    {
      "inputs": [
        {
          "internalType": "uint256",
          "name": "interestedBet",
          "type": "uint256"
        }
      ],
      "name": "getBetDetails",
      "outputs": [
        {
          "internalType": "bool",
          "name": "gameFinished",
          "type": "bool"
        },
        {
          "internalType": "bool",
          "name": "withdrawCompleted",
          "type": "bool"
        },
        {
          "internalType": "address",
          "name": "theWinner",
          "type": "address"
        },
        {
          "internalType": "uint256",
          "name": "gains",
          "type": "uint256"
        },
        {
          "internalType": "address",
          "name": "player1",
          "type": "address"
        },
        {
          "internalType": "address",
          "name": "player2",
          "type": "address"
        },
        {
          "internalType": "string",
          "name": "nftid_player1",
          "type": "string"
        },
        {
          "internalType": "string",
          "name": "nftid_player2",
          "type": "string"
        },
        {
          "internalType": "uint256",
          "name": "player1Deposit",
          "type": "uint256"
        },
        {
          "internalType": "uint256",
          "name": "player2Deposit",
          "type": "uint256"
        },
        {
          "internalType": "uint256",
          "name": "player1GamePrediction",
          "type": "uint256"
        },
        {
          "internalType": "uint256",
          "name": "player2GamePrediction",
          "type": "uint256"
        }
      ],
      "stateMutability": "view",
      "type": "function"
    },
    {
      "inputs": [],
      "name": "getLatestEthPrice",
      "outputs": [
        {
          "internalType": "int256",
          "name": "",
          "type": "int256"
        }
      ],
      "stateMutability": "view",
      "type": "function"
    },
    {
      "inputs": [
        {
          "internalType": "string",
          "name": "nftid",
          "type": "string"
        }
      ],
      "name": "getNftDetails",
      "outputs": [
        {
          "internalType": "string",
          "name": "nft_token_id",
          "type": "string"
        },
        {
          "internalType": "uint256",
          "name": "bets_won",
          "type": "uint256"
        },
        {
          "internalType": "uint256",
          "name": "bets_lost",
          "type": "uint256"
        },
        {
          "internalType": "uint256",
          "name": "profile_level",
          "type": "uint256"
        }
      ],
      "stateMutability": "view",
      "type": "function"
    },
    {
      "inputs": [
        {
          "internalType": "uint256",
          "name": "interestedBet",
          "type": "uint256"
        }
      ],
      "name": "getPlayer1Details",
      "outputs": [
        {
          "internalType": "address",
          "name": "p1",
          "type": "address"
        },
        {
          "internalType": "uint256",
          "name": "player1Deposit",
          "type": "uint256"
        },
        {
          "internalType": "uint256",
          "name": "player1gamePrediction",
          "type": "uint256"
        },
        {
          "internalType": "string",
          "name": "player1nft",
          "type": "string"
        }
      ],
      "stateMutability": "view",
      "type": "function"
    },
    {
      "inputs": [
        {
          "internalType": "uint256",
          "name": "interestedBet",
          "type": "uint256"
        }
      ],
      "name": "getPlayer2Details",
      "outputs": [
        {
          "internalType": "address",
          "name": "p2",
          "type": "address"
        },
        {
          "internalType": "uint256",
          "name": "player2Deposit",
          "type": "uint256"
        },
        {
          "internalType": "uint256",
          "name": "player2gamePrediction",
          "type": "uint256"
        },
        {
          "internalType": "string",
          "name": "player2nft",
          "type": "string"
        }
      ],
      "stateMutability": "view",
      "type": "function"
    },
    {
      "inputs": [
        {
          "internalType": "uint256",
          "name": "interestedBet",
          "type": "uint256"
        },
        {
          "internalType": "uint256",
          "name": "winner_prediction",
          "type": "uint256"
        },
        {
          "internalType": "string",
          "name": "nft_id",
          "type": "string"
        },
        {
          "internalType": "uint256",
          "name": "amount",
          "type": "uint256"
        }
      ],
      "name": "joinBet",
      "outputs": [],
      "stateMutability": "nonpayable",
      "type": "function"
    },
    {
      "inputs": [
        {
          "internalType": "uint256",
          "name": "match_id",
          "type": "uint256"
        },
        {
          "internalType": "uint256",
          "name": "winner_team",
          "type": "uint256"
        },
        {
          "internalType": "bool",
          "name": "completed",
          "type": "bool"
        }
      ],
      "name": "update_winner",
      "outputs": [],
      "stateMutability": "nonpayable",
      "type": "function"
    },
    {
      "inputs": [
        {
          "internalType": "uint256",
          "name": "interestedBet",
          "type": "uint256"
        }
      ],
      "name": "withdraw",
      "outputs": [],
      "stateMutability": "nonpayable",
      "type": "function"
    }
  ],
  "bytecode": "0x60806040523480156200001157600080fd5b506040516200475538038062004755833981810160405281019062000037919062000120565b33600160006101000a81548173ffffffffffffffffffffffffffffffffffffffff021916908373ffffffffffffffffffffffffffffffffffffffff160217905550600060038190555081600260006101000a81548173ffffffffffffffffffffffffffffffffffffffff021916908373ffffffffffffffffffffffffffffffffffffffff160217905550806000806101000a81548173ffffffffffffffffffffffffffffffffffffffff021916908373ffffffffffffffffffffffffffffffffffffffff1602179055505050620001af565b6000815190506200011a8162000195565b92915050565b600080604083850312156200013457600080fd5b6000620001448582860162000109565b9250506020620001578582860162000109565b9150509250929050565b60006200016e8262000175565b9050919050565b600073ffffffffffffffffffffffffffffffffffffffff82169050919050565b620001a08162000161565b8114620001ac57600080fd5b50565b61459680620001bf6000396000f3fe608060405234801561001057600080fd5b50600436106100f55760003560e01c806370a0823111610097578063ae0ea67511610066578063ae0ea675146102ac578063b18dbb76146102c8578063cf094497146102e4578063f123b6c714610302576100f5565b806370a08231146101fb578063989f19ef1461022b578063a96ec6a21461025b578063ada730201461028e576100f5565b806330c0b9ec116100d357806330c0b9ec1461017c5780633df2967e1461019a57806341f00886146101d557806346dd8cc9146101f1576100f5565b8063023858c9146100fa5780630bdbd3ec1461012d5780632e1a7d4d14610160575b600080fd5b610114600480360381019061010f9190613355565b610332565b6040516101249493929190613afa565b60405180910390f35b61014760048036038101906101429190613314565b61044c565b6040516101579493929190613cb9565b60405180910390f35b61017a60048036038101906101759190613355565b610572565b005b610184610a42565b6040516101919190613c9e565b60405180910390f35b6101b460048036038101906101af9190613355565b610a4c565b6040516101cc9c9b9a99989796959493929190613bd6565b60405180910390f35b6101ef60048036038101906101ea91906133a7565b610d3c565b005b6101f9611a65565b005b610215600480360381019061021091906132c2565b611b24565b6040516102229190613e65565b60405180910390f35b61024560048036038101906102409190613355565b611bd8565b6040516102529190613b92565b60405180910390f35b61027560048036038101906102709190613355565b6120fc565b6040516102859493929190613afa565b60405180910390f35b610296612216565b6040516102a39190613b92565b60405180910390f35b6102c660048036038101906102c191906133f6565b612698565b005b6102e260048036038101906102dd91906133f6565b612a84565b005b6102ec612fbb565b6040516102f99190613e65565b60405180910390f35b61031c60048036038101906103179190613355565b612fc1565b6040516103299190613bb4565b60405180910390f35b600080600060606005600086815260200190815260200160002060020160009054906101000a900473ffffffffffffffffffffffffffffffffffffffff16935060056000868152602001908152602001600020600601549250600560008681526020019081526020016000206008015491506005600086815260200190815260200160002060040180546103c59061418b565b80601f01602080910402602001604051908101604052809291908181526020018280546103f19061418b565b801561043e5780601f106104135761010080835404028352916020019161043e565b820191906000526020600020905b81548152906001019060200180831161042157829003601f168201915b505050505090509193509193565b606060008060006009856040516104639190613a68565b90815260200160405180910390206001015492506009856040516104879190613a68565b90815260200160405180910390206002015491506009856040516104ab9190613a68565b90815260200160405180910390206003015490506009856040516104cf9190613a68565b908152602001604051809103902060000180546104eb9061418b565b80601f01602080910402602001604051908101604052809291908181526020018280546105179061418b565b80156105645780601f1061053957610100808354040283529160200191610564565b820191906000526020600020905b81548152906001019060200180831161054757829003601f168201915b505050505093509193509193565b60056000828152602001908152602001600020600a0160019054906101000a900460ff166105d5576040517f08c379a00000000000000000000000000000000000000000000000000000000081526004016105cc90613e45565b60405180910390fd5b60056000828152602001908152602001600020600a0160029054906101000a900460ff1615610639576040517f08c379a000000000000000000000000000000000000000000000000000000000815260040161063090613d85565b60405180910390fd5b3373ffffffffffffffffffffffffffffffffffffffff1660056000838152602001908152602001600020600a0160039054906101000a900473ffffffffffffffffffffffffffffffffffffffff1673ffffffffffffffffffffffffffffffffffffffff16148061070a57503373ffffffffffffffffffffffffffffffffffffffff1660056000838152602001908152602001600020600b0160009054906101000a900473ffffffffffffffffffffffffffffffffffffffff1673ffffffffffffffffffffffffffffffffffffffff16145b8061077657503373ffffffffffffffffffffffffffffffffffffffff1660056000838152602001908152602001600020600c0160009054906101000a900473ffffffffffffffffffffffffffffffffffffffff1673ffffffffffffffffffffffffffffffffffffffff16145b6107b5576040517f08c379a00000000000000000000000000000000000000000000000000000000081526004016107ac90613d45565b60405180910390fd5b60003373ffffffffffffffffffffffffffffffffffffffff1660056000848152602001908152602001600020600a0160039054906101000a900473ffffffffffffffffffffffffffffffffffffffff1673ffffffffffffffffffffffffffffffffffffffff16141561083f5760056000838152602001908152602001600020600d015490506108e2565b3373ffffffffffffffffffffffffffffffffffffffff1660056000848152602001908152602001600020600b0160009054906101000a900473ffffffffffffffffffffffffffffffffffffffff1673ffffffffffffffffffffffffffffffffffffffff1614156108c757600560008381526020019081526020016000206006015490506108e1565b600560008381526020019081526020016000206007015490505b5b600060056000848152602001908152602001600020600d0181905550600160056000848152602001908152602001600020600a0160026101000a81548160ff021916908315150217905550600260009054906101000a900473ffffffffffffffffffffffffffffffffffffffff1673ffffffffffffffffffffffffffffffffffffffff1663a9059cbb33670de0b6b3a7640000846109809190614053565b6040518363ffffffff1660e01b815260040161099d929190613ad1565b602060405180830381600087803b1580156109b757600080fd5b505af11580156109cb573d6000803e3d6000fd5b505050506040513d601f19601f820116820180604052508101906109ef91906132eb565b507f9da6493a92039daf47d1f2d7a782299c5994c6323eb1e972f69c432089ec52bf8233670de0b6b3a764000084610a279190614053565b604051610a3693929190613e80565b60405180910390a15050565b6000600454905090565b600080600080600080606080600080600080600560008e8152602001908152602001600020600a0160019054906101000a900460ff169b50600560008e8152602001908152602001600020600a0160029054906101000a900460ff169a50600560008e8152602001908152602001600020600a0160039054906101000a900473ffffffffffffffffffffffffffffffffffffffff169950600560008e8152602001908152602001600020600d01549850600560008e8152602001908152602001600020600d01549850600560008e815260200190815260200160002060020160009054906101000a900473ffffffffffffffffffffffffffffffffffffffff169750600560008e815260200190815260200160002060030160009054906101000a900473ffffffffffffffffffffffffffffffffffffffff169650600560008e81526020019081526020016000206004018054610ba89061418b565b80601f0160208091040260200160405190810160405280929190818152602001828054610bd49061418b565b8015610c215780601f10610bf657610100808354040283529160200191610c21565b820191906000526020600020905b815481529060010190602001808311610c0457829003601f168201915b50505050509550600560008e81526020019081526020016000206005018054610c499061418b565b80601f0160208091040260200160405190810160405280929190818152602001828054610c759061418b565b8015610cc25780601f10610c9757610100808354040283529160200191610cc2565b820191906000526020600020905b815481529060010190602001808311610ca557829003601f168201915b50505050509450600560008e8152602001908152602001600020600601549350600560008e8152602001908152602001600020600701549250600560008e8152602001908152602001600020600801549150600560008e815260200190815260200160002060090154905091939597999b5091939597999b565b600160009054906101000a900473ffffffffffffffffffffffffffffffffffffffff1673ffffffffffffffffffffffffffffffffffffffff163373ffffffffffffffffffffffffffffffffffffffff1614610dcc576040517f08c379a0000000000000000000000000000000000000000000000000000000008152600401610dc390613de5565b60405180910390fd5b80610e0c576040517f08c379a0000000000000000000000000000000000000000000000000000000008152600401610e0390613da5565b60405180910390fd5b600060086000858152602001908152602001600020805480602002602001604051908101604052809291908181526020018280548015610e6b57602002820191906000526020600020905b815481526020019060010190808311610e57575b5050505050905060005b8151811015611a5e576000828281518110610eb9577f4e487b7100000000000000000000000000000000000000000000000000000000600052603260045260246000fd5b602002602001015190506000600560008381526020019081526020016000206040518061022001604052908160008201548152602001600182015481526020016002820160009054906101000a900473ffffffffffffffffffffffffffffffffffffffff1673ffffffffffffffffffffffffffffffffffffffff1673ffffffffffffffffffffffffffffffffffffffff1681526020016003820160009054906101000a900473ffffffffffffffffffffffffffffffffffffffff1673ffffffffffffffffffffffffffffffffffffffff1673ffffffffffffffffffffffffffffffffffffffff168152602001600482018054610fb49061418b565b80601f0160208091040260200160405190810160405280929190818152602001828054610fe09061418b565b801561102d5780601f106110025761010080835404028352916020019161102d565b820191906000526020600020905b81548152906001019060200180831161101057829003601f168201915b505050505081526020016005820180546110469061418b565b80601f01602080910402602001604051908101604052809291908181526020018280546110729061418b565b80156110bf5780601f10611094576101008083540402835291602001916110bf565b820191906000526020600020905b8154815290600101906020018083116110a257829003601f168201915b5050505050815260200160068201548152602001600782015481526020016008820154815260200160098201548152602001600a820160009054906101000a900460ff16151515158152602001600a820160019054906101000a900460ff16151515158152602001600a820160029054906101000a900460ff16151515158152602001600a820160039054906101000a900473ffffffffffffffffffffffffffffffffffffffff1673ffffffffffffffffffffffffffffffffffffffff1673ffffffffffffffffffffffffffffffffffffffff168152602001600b820160009054906101000a900473ffffffffffffffffffffffffffffffffffffffff1673ffffffffffffffffffffffffffffffffffffffff1673ffffffffffffffffffffffffffffffffffffffff168152602001600c820160009054906101000a900473ffffffffffffffffffffffffffffffffffffffff1673ffffffffffffffffffffffffffffffffffffffff1673ffffffffffffffffffffffffffffffffffffffff168152602001600d8201548152505090506001151581610140015115151415611268575050611a4b565b600073ffffffffffffffffffffffffffffffffffffffff16816060015173ffffffffffffffffffffffffffffffffffffffff161415611316576001816101600190151590811515815250508060c00151816102000181815250508060400151816101a0019073ffffffffffffffffffffffffffffffffffffffff16908173ffffffffffffffffffffffffffffffffffffffff1681525050600181610140019015159081151581525050611a48565b60018161016001901515908115158152505060648160c001518260c0015161133e9190613fcc565b600f61134a9190614053565b6113549190614022565b8160c001518260c001516113689190613fcc565b61137291906140ad565b8161020001818152505080610100015186141561156c578060400151816101a0019073ffffffffffffffffffffffffffffffffffffffff16908173ffffffffffffffffffffffffffffffffffffffff16815250506001600982608001516040516113dc9190613a68565b9081526020016040518091039020600101546113f89190613fcc565b6009826080015160405161140c9190613a68565b908152602001604051809103902060010181905550600160098260a001516040516114379190613a68565b9081526020016040518091039020600201546114539190613fcc565b60098260a001516040516114679190613a68565b908152602001604051809103902060020181905550600981608001516040516114909190613a68565b908152602001604051809103902060020154600982608001516040516114b69190613a68565b9081526020016040518091039020600101546114d29190613fcc565b600982608001516040516114e69190613a68565b9081526020016040518091039020600101546115029190614022565b600a61150e9190614053565b600982608001516040516115229190613a68565b90815260200160405180910390206003015461153e9190613fcc565b600982608001516040516115529190613a68565b9081526020016040518091039020600301819055506117d8565b80610120015186141561175c578060600151816101a0019073ffffffffffffffffffffffffffffffffffffffff16908173ffffffffffffffffffffffffffffffffffffffff1681525050600160098260a001516040516115cc9190613a68565b9081526020016040518091039020600101546115e89190613fcc565b60098260a001516040516115fc9190613a68565b9081526020016040518091039020600101819055506001600982608001516040516116279190613a68565b9081526020016040518091039020600201546116439190613fcc565b600982608001516040516116579190613a68565b90815260200160405180910390206002018190555060098160a001516040516116809190613a68565b90815260200160405180910390206002015460098260a001516040516116a69190613a68565b9081526020016040518091039020600101546116c29190613fcc565b60098260a001516040516116d69190613a68565b9081526020016040518091039020600101546116f29190614022565b600a6116fe9190614053565b60098260a001516040516117129190613a68565b90815260200160405180910390206003015461172e9190613fcc565b60098260a001516040516117429190613a68565b9081526020016040518091039020600301819055506117d7565b8060400151816101c0019073ffffffffffffffffffffffffffffffffffffffff16908173ffffffffffffffffffffffffffffffffffffffff16815250508060600151816101e0019073ffffffffffffffffffffffffffffffffffffffff16908173ffffffffffffffffffffffffffffffffffffffff16815250505b5b8060056000848152602001908152602001600020600082015181600001556020820151816001015560408201518160020160006101000a81548173ffffffffffffffffffffffffffffffffffffffff021916908373ffffffffffffffffffffffffffffffffffffffff16021790555060608201518160030160006101000a81548173ffffffffffffffffffffffffffffffffffffffff021916908373ffffffffffffffffffffffffffffffffffffffff16021790555060808201518160040190805190602001906118aa92919061302c565b5060a08201518160050190805190602001906118c792919061302c565b5060c0820151816006015560e082015181600701556101008201518160080155610120820151816009015561014082015181600a0160006101000a81548160ff02191690831515021790555061016082015181600a0160016101000a81548160ff02191690831515021790555061018082015181600a0160026101000a81548160ff0219169083151502179055506101a082015181600a0160036101000a81548173ffffffffffffffffffffffffffffffffffffffff021916908373ffffffffffffffffffffffffffffffffffffffff1602179055506101c082015181600b0160006101000a81548173ffffffffffffffffffffffffffffffffffffffff021916908373ffffffffffffffffffffffffffffffffffffffff1602179055506101e082015181600c0160006101000a81548173ffffffffffffffffffffffffffffffffffffffff021916908373ffffffffffffffffffffffffffffffffffffffff16021790555061020082015181600d01559050506001151581610140015150505b50505b8080611a56906141ee565b915050610e75565b5050505050565b60008060008060008060009054906101000a900473ffffffffffffffffffffffffffffffffffffffff1673ffffffffffffffffffffffffffffffffffffffff1663feaf968c6040518163ffffffff1660e01b815260040160a06040518083038186803b158015611ad457600080fd5b505afa158015611ae8573d6000803e3d6000fd5b505050506040513d601f19601f82011682018060405250810190611b0c9190613471565b94509450945094509450836004819055505050505050565b6000600260009054906101000a900473ffffffffffffffffffffffffffffffffffffffff1673ffffffffffffffffffffffffffffffffffffffff166370a08231836040518263ffffffff1660e01b8152600401611b819190613a7f565b60206040518083038186803b158015611b9957600080fd5b505afa158015611bad573d6000803e3d6000fd5b505050506040513d601f19601f82011682018060405250810190611bd1919061337e565b9050919050565b6060600060086000848152602001908152602001600020805480602002602001604051908101604052809291908181526020018280548015611c3957602002820191906000526020600020905b815481526020019060010190808311611c25575b50505050509050600060035467ffffffffffffffff811115611c84577f4e487b7100000000000000000000000000000000000000000000000000000000600052604160045260246000fd5b604051908082528060200260200182016040528015611cbd57816020015b611caa6130b2565b815260200190600190039081611ca25790505b50905060005b82518110156120f1576000838281518110611d07577f4e487b7100000000000000000000000000000000000000000000000000000000600052603260045260246000fd5b60200260200101519050600560008281526020019081526020016000206040518061022001604052908160008201548152602001600182015481526020016002820160009054906101000a900473ffffffffffffffffffffffffffffffffffffffff1673ffffffffffffffffffffffffffffffffffffffff1673ffffffffffffffffffffffffffffffffffffffff1681526020016003820160009054906101000a900473ffffffffffffffffffffffffffffffffffffffff1673ffffffffffffffffffffffffffffffffffffffff1673ffffffffffffffffffffffffffffffffffffffff168152602001600482018054611e009061418b565b80601f0160208091040260200160405190810160405280929190818152602001828054611e2c9061418b565b8015611e795780601f10611e4e57610100808354040283529160200191611e79565b820191906000526020600020905b815481529060010190602001808311611e5c57829003601f168201915b50505050508152602001600582018054611e929061418b565b80601f0160208091040260200160405190810160405280929190818152602001828054611ebe9061418b565b8015611f0b5780601f10611ee057610100808354040283529160200191611f0b565b820191906000526020600020905b815481529060010190602001808311611eee57829003601f168201915b5050505050815260200160068201548152602001600782015481526020016008820154815260200160098201548152602001600a820160009054906101000a900460ff16151515158152602001600a820160019054906101000a900460ff16151515158152602001600a820160029054906101000a900460ff16151515158152602001600a820160039054906101000a900473ffffffffffffffffffffffffffffffffffffffff1673ffffffffffffffffffffffffffffffffffffffff1673ffffffffffffffffffffffffffffffffffffffff168152602001600b820160009054906101000a900473ffffffffffffffffffffffffffffffffffffffff1673ffffffffffffffffffffffffffffffffffffffff1673ffffffffffffffffffffffffffffffffffffffff168152602001600c820160009054906101000a900473ffffffffffffffffffffffffffffffffffffffff1673ffffffffffffffffffffffffffffffffffffffff1673ffffffffffffffffffffffffffffffffffffffff168152602001600d820154815250508383815181106120d2577f4e487b7100000000000000000000000000000000000000000000000000000000600052603260045260246000fd5b60200260200101819052505080806120e9906141ee565b915050611cc3565b819350505050919050565b600080600060606005600086815260200190815260200160002060030160009054906101000a900473ffffffffffffffffffffffffffffffffffffffff169350600560008681526020019081526020016000206007015492506005600086815260200190815260200160002060080154915060056000868152602001908152602001600020600501805461218f9061418b565b80601f01602080910402602001604051908101604052809291908181526020018280546121bb9061418b565b80156122085780601f106121dd57610100808354040283529160200191612208565b820191906000526020600020905b8154815290600101906020018083116121eb57829003601f168201915b505050505090509193509193565b6060600060035467ffffffffffffffff81111561225c577f4e487b7100000000000000000000000000000000000000000000000000000000600052604160045260246000fd5b60405190808252806020026020018201604052801561229557816020015b6122826130b2565b81526020019060019003908161227a5790505b50905060005b60035481101561269057600560006001836122b69190613fcc565b81526020019081526020016000206040518061022001604052908160008201548152602001600182015481526020016002820160009054906101000a900473ffffffffffffffffffffffffffffffffffffffff1673ffffffffffffffffffffffffffffffffffffffff1673ffffffffffffffffffffffffffffffffffffffff1681526020016003820160009054906101000a900473ffffffffffffffffffffffffffffffffffffffff1673ffffffffffffffffffffffffffffffffffffffff1673ffffffffffffffffffffffffffffffffffffffff1681526020016004820180546123a09061418b565b80601f01602080910402602001604051908101604052809291908181526020018280546123cc9061418b565b80156124195780601f106123ee57610100808354040283529160200191612419565b820191906000526020600020905b8154815290600101906020018083116123fc57829003601f168201915b505050505081526020016005820180546124329061418b565b80601f016020809104026020016040519081016040528092919081815260200182805461245e9061418b565b80156124ab5780601f10612480576101008083540402835291602001916124ab565b820191906000526020600020905b81548152906001019060200180831161248e57829003601f168201915b5050505050815260200160068201548152602001600782015481526020016008820154815260200160098201548152602001600a820160009054906101000a900460ff16151515158152602001600a820160019054906101000a900460ff16151515158152602001600a820160029054906101000a900460ff16151515158152602001600a820160039054906101000a900473ffffffffffffffffffffffffffffffffffffffff1673ffffffffffffffffffffffffffffffffffffffff1673ffffffffffffffffffffffffffffffffffffffff168152602001600b820160009054906101000a900473ffffffffffffffffffffffffffffffffffffffff1673ffffffffffffffffffffffffffffffffffffffff1673ffffffffffffffffffffffffffffffffffffffff168152602001600c820160009054906101000a900473ffffffffffffffffffffffffffffffffffffffff1673ffffffffffffffffffffffffffffffffffffffff1673ffffffffffffffffffffffffffffffffffffffff168152602001600d82015481525050828281518110612672577f4e487b7100000000000000000000000000000000000000000000000000000000600052603260045260246000fd5b60200260200101819052508080612688906141ee565b91505061229b565b819250505090565b60008114156126dc576040517f08c379a00000000000000000000000000000000000000000000000000000000081526004016126d390613e05565b60405180910390fd5b600360008154809291906126ef906141ee565b9190505550600260009054906101000a900473ffffffffffffffffffffffffffffffffffffffff1673ffffffffffffffffffffffffffffffffffffffff1663095ea7b333670de0b6b3a7640000846127479190614053565b6040518363ffffffff1660e01b8152600401612764929190613ad1565b602060405180830381600087803b15801561277e57600080fd5b505af1158015612792573d6000803e3d6000fd5b505050506040513d601f19601f820116820180604052508101906127b691906132eb565b50600260009054906101000a900473ffffffffffffffffffffffffffffffffffffffff1673ffffffffffffffffffffffffffffffffffffffff166323b872dd3330670de0b6b3a76400008561280b9190614053565b6040518463ffffffff1660e01b815260040161282993929190613a9a565b602060405180830381600087803b15801561284357600080fd5b505af1158015612857573d6000803e3d6000fd5b505050506040513d601f19601f8201168201806040525081019061287b91906132eb565b50600354600560006003548152602001908152602001600020600001819055503360056000600354815260200190815260200160002060020160006101000a81548173ffffffffffffffffffffffffffffffffffffffff021916908373ffffffffffffffffffffffffffffffffffffffff160217905550670de0b6b3a7640000816129069190614053565b60056000600354815260200190815260200160002060060181905550826005600060035481526020019081526020016000206008018190555081600560006003548152602001908152602001600020600401908051906020019061296b92919061302c565b506000600560006003548152602001908152602001600020600a0160006101000a81548160ff021916908315150217905550836005600060035481526020019081526020016000206001018190555083600660006003548152602001908152602001600020819055506008600085815260200190815260200160002060035490806001815401808255809150506001900390600052602060002001600090919091909150557f1fdb2b57514e40d9bd4eac67cd2a1204ae80e55cb39f0c7814e949a7e5a1c4063360035460056000600354815260200190815260200160002060060154600560006003548152602001908152602001600020600401604051612a769493929190613b46565b60405180910390a150505050565b60056000858152602001908152602001600020600a0160019054906101000a900460ff1615612ae8576040517f08c379a0000000000000000000000000000000000000000000000000000000008152600401612adf90613d25565b60405180910390fd5b600073ffffffffffffffffffffffffffffffffffffffff166005600086815260200190815260200160002060030160009054906101000a900473ffffffffffffffffffffffffffffffffffffffff1673ffffffffffffffffffffffffffffffffffffffff1614612b8d576040517f08c379a0000000000000000000000000000000000000000000000000000000008152600401612b8490613d65565b60405180910390fd5b6005600085815260200190815260200160002060020160009054906101000a900473ffffffffffffffffffffffffffffffffffffffff1673ffffffffffffffffffffffffffffffffffffffff163373ffffffffffffffffffffffffffffffffffffffff161415612c32576040517f08c379a0000000000000000000000000000000000000000000000000000000008152600401612c2990613e25565b60405180910390fd5b8260056000868152602001908152602001600020600801541415612c8b576040517f08c379a0000000000000000000000000000000000000000000000000000000008152600401612c8290613dc5565b60405180910390fd5b6005600085815260200190815260200160002060060154670de0b6b3a764000082612cb69190614053565b14612cf6576040517f08c379a0000000000000000000000000000000000000000000000000000000008152600401612ced90613d05565b60405180910390fd5b600260009054906101000a900473ffffffffffffffffffffffffffffffffffffffff1673ffffffffffffffffffffffffffffffffffffffff1663095ea7b333670de0b6b3a764000084612d499190614053565b6040518363ffffffff1660e01b8152600401612d66929190613ad1565b602060405180830381600087803b158015612d8057600080fd5b505af1158015612d94573d6000803e3d6000fd5b505050506040513d601f19601f82011682018060405250810190612db891906132eb565b50600260009054906101000a900473ffffffffffffffffffffffffffffffffffffffff1673ffffffffffffffffffffffffffffffffffffffff166323b872dd3330670de0b6b3a764000085612e0d9190614053565b6040518463ffffffff1660e01b8152600401612e2b93929190613a9a565b602060405180830381600087803b158015612e4557600080fd5b505af1158015612e59573d6000803e3d6000fd5b505050506040513d601f19601f82011682018060405250810190612e7d91906132eb565b50336005600086815260200190815260200160002060030160006101000a81548173ffffffffffffffffffffffffffffffffffffffff021916908373ffffffffffffffffffffffffffffffffffffffff160217905550670de0b6b3a764000081612ee79190614053565b600560008681526020019081526020016000206007018190555082600560008681526020019081526020016000206009018190555081600560008681526020019081526020016000206005019080519060200190612f4692919061302c565b507f37b69c1fe2df6754f17b0f6813b2db0ddcd96330dc1193ce3a0345131f855bf33360035460056000600354815260200190815260200160002060070154600560006003548152602001908152602001600020600501604051612fad9493929190613b46565b60405180910390a150505050565b60035481565b60606008600083815260200190815260200160002080548060200260200160405190810160405280929190818152602001828054801561302057602002820191906000526020600020905b81548152602001906001019080831161300c575b50505050509050919050565b8280546130389061418b565b90600052602060002090601f01602090048101928261305a57600085556130a1565b82601f1061307357805160ff19168380011785556130a1565b828001600101855582156130a1579182015b828111156130a0578251825591602001919060010190613085565b5b5090506130ae91906131aa565b5090565b6040518061022001604052806000815260200160008152602001600073ffffffffffffffffffffffffffffffffffffffff168152602001600073ffffffffffffffffffffffffffffffffffffffff168152602001606081526020016060815260200160008152602001600081526020016000815260200160008152602001600015158152602001600015158152602001600015158152602001600073ffffffffffffffffffffffffffffffffffffffff168152602001600073ffffffffffffffffffffffffffffffffffffffff168152602001600073ffffffffffffffffffffffffffffffffffffffff168152602001600081525090565b5b808211156131c35760008160009055506001016131ab565b5090565b60006131da6131d584613edc565b613eb7565b9050828152602081018484840111156131f257600080fd5b6131fd848285614149565b509392505050565b600081359050613214816144ed565b92915050565b60008135905061322981614504565b92915050565b60008151905061323e81614504565b92915050565b6000815190506132538161451b565b92915050565b600082601f83011261326a57600080fd5b813561327a8482602086016131c7565b91505092915050565b60008135905061329281614532565b92915050565b6000815190506132a781614532565b92915050565b6000815190506132bc81614549565b92915050565b6000602082840312156132d457600080fd5b60006132e284828501613205565b91505092915050565b6000602082840312156132fd57600080fd5b600061330b8482850161322f565b91505092915050565b60006020828403121561332657600080fd5b600082013567ffffffffffffffff81111561334057600080fd5b61334c84828501613259565b91505092915050565b60006020828403121561336757600080fd5b600061337584828501613283565b91505092915050565b60006020828403121561339057600080fd5b600061339e84828501613298565b91505092915050565b6000806000606084860312156133bc57600080fd5b60006133ca86828701613283565b93505060206133db86828701613283565b92505060406133ec8682870161321a565b9150509250925092565b6000806000806080858703121561340c57600080fd5b600061341a87828801613283565b945050602061342b87828801613283565b935050604085013567ffffffffffffffff81111561344857600080fd5b61345487828801613259565b925050606061346587828801613283565b91505092959194509250565b600080600080600060a0868803121561348957600080fd5b6000613497888289016132ad565b95505060206134a888828901613244565b94505060406134b988828901613298565b93505060606134ca88828901613298565b92505060806134db888289016132ad565b9150509295509295909350565b60006134f483836138d6565b905092915050565b60006135088383613a4a565b60208301905092915050565b61351d816140e1565b82525050565b61352c816140e1565b82525050565b600061353d82613f42565b6135478185613f7d565b93508360208202850161355985613f0d565b8060005b85811015613595578484038952815161357685826134e8565b945061358183613f63565b925060208a0199505060018101905061355d565b50829750879550505050505092915050565b60006135b282613f4d565b6135bc8185613f8e565b93506135c783613f1d565b8060005b838110156135f85781516135df88826134fc565b97506135ea83613f70565b9250506001810190506135cb565b5085935050505092915050565b61360e816140f3565b82525050565b61361d816140f3565b82525050565b61362c816140ff565b82525050565b600061363d82613f58565b6136478185613f9f565b9350613657818560208601614158565b613660816142f3565b840191505092915050565b600061367682613f58565b6136808185613fb0565b9350613690818560208601614158565b613699816142f3565b840191505092915050565b60006136af82613f58565b6136b98185613fc1565b93506136c9818560208601614158565b80840191505092915050565b600081546136e28161418b565b6136ec8186613fb0565b9450600182166000811461370757600181146137195761374c565b60ff198316865260208601935061374c565b61372285613f2d565b60005b8381101561374457815481890152600182019150602081019050613725565b808801955050505b50505092915050565b6000613762602683613fb0565b915061376d82614304565b604082019050919050565b6000613785600e83613fb0565b915061379082614353565b602082019050919050565b60006137a8601683613fb0565b91506137b38261437c565b602082019050919050565b60006137cb601783613fb0565b91506137d6826143a5565b602082019050919050565b60006137ee601883613fb0565b91506137f9826143ce565b602082019050919050565b6000613811601383613fb0565b915061381c826143f7565b602082019050919050565b6000613834601a83613fb0565b915061383f82614420565b602082019050919050565b6000613857600c83613fb0565b915061386282614449565b602082019050919050565b600061387a601b83613fb0565b915061388582614472565b602082019050919050565b600061389d601883613fb0565b91506138a88261449b565b602082019050919050565b60006138c0601183613fb0565b91506138cb826144c4565b602082019050919050565b6000610220830160008301516138ef6000860182613a4a565b5060208301516139026020860182613a4a565b5060408301516139156040860182613514565b5060608301516139286060860182613514565b50608083015184820360808601526139408282613632565b91505060a083015184820360a086015261395a8282613632565b91505060c083015161396f60c0860182613a4a565b5060e083015161398260e0860182613a4a565b50610100830151613997610100860182613a4a565b506101208301516139ac610120860182613a4a565b506101408301516139c1610140860182613605565b506101608301516139d6610160860182613605565b506101808301516139eb610180860182613605565b506101a0830151613a006101a0860182613514565b506101c0830151613a156101c0860182613514565b506101e0830151613a2a6101e0860182613514565b50610200830151613a3f610200860182613a4a565b508091505092915050565b613a5381614129565b82525050565b613a6281614129565b82525050565b6000613a7482846136a4565b915081905092915050565b6000602082019050613a946000830184613523565b92915050565b6000606082019050613aaf6000830186613523565b613abc6020830185613523565b613ac96040830184613a59565b949350505050565b6000604082019050613ae66000830185613523565b613af36020830184613a59565b9392505050565b6000608082019050613b0f6000830187613523565b613b1c6020830186613a59565b613b296040830185613a59565b8181036060830152613b3b818461366b565b905095945050505050565b6000608082019050613b5b6000830187613523565b613b686020830186613a59565b613b756040830185613a59565b8181036060830152613b8781846136d5565b905095945050505050565b60006020820190508181036000830152613bac8184613532565b905092915050565b60006020820190508181036000830152613bce81846135a7565b905092915050565b600061018082019050613bec600083018f613614565b613bf9602083018e613614565b613c06604083018d613523565b613c13606083018c613a59565b613c20608083018b613523565b613c2d60a083018a613523565b81810360c0830152613c3f818961366b565b905081810360e0830152613c53818861366b565b9050613c63610100830187613a59565b613c71610120830186613a59565b613c7f610140830185613a59565b613c8d610160830184613a59565b9d9c50505050505050505050505050565b6000602082019050613cb36000830184613623565b92915050565b60006080820190508181036000830152613cd3818761366b565b9050613ce26020830186613a59565b613cef6040830185613a59565b613cfc6060830184613a59565b95945050505050565b60006020820190508181036000830152613d1e81613755565b9050919050565b60006020820190508181036000830152613d3e81613778565b9050919050565b60006020820190508181036000830152613d5e8161379b565b9050919050565b60006020820190508181036000830152613d7e816137be565b9050919050565b60006020820190508181036000830152613d9e816137e1565b9050919050565b60006020820190508181036000830152613dbe81613804565b9050919050565b60006020820190508181036000830152613dde81613827565b9050919050565b60006020820190508181036000830152613dfe8161384a565b9050919050565b60006020820190508181036000830152613e1e8161386d565b9050919050565b60006020820190508181036000830152613e3e81613890565b9050919050565b60006020820190508181036000830152613e5e816138b3565b9050919050565b6000602082019050613e7a6000830184613a59565b92915050565b6000606082019050613e956000830186613a59565b613ea26020830185613523565b613eaf6040830184613a59565b949350505050565b6000613ec1613ed2565b9050613ecd82826141bd565b919050565b6000604051905090565b600067ffffffffffffffff821115613ef757613ef66142c4565b5b613f00826142f3565b9050602081019050919050565b6000819050602082019050919050565b6000819050602082019050919050565b60008190508160005260206000209050919050565b600081519050919050565b600081519050919050565b600081519050919050565b6000602082019050919050565b6000602082019050919050565b600082825260208201905092915050565b600082825260208201905092915050565b600082825260208201905092915050565b600082825260208201905092915050565b600081905092915050565b6000613fd782614129565b9150613fe283614129565b9250827fffffffffffffffffffffffffffffffffffffffffffffffffffffffffffffffff0382111561401757614016614237565b5b828201905092915050565b600061402d82614129565b915061403883614129565b92508261404857614047614266565b5b828204905092915050565b600061405e82614129565b915061406983614129565b9250817fffffffffffffffffffffffffffffffffffffffffffffffffffffffffffffffff04831182151516156140a2576140a1614237565b5b828202905092915050565b60006140b882614129565b91506140c383614129565b9250828210156140d6576140d5614237565b5b828203905092915050565b60006140ec82614109565b9050919050565b60008115159050919050565b6000819050919050565b600073ffffffffffffffffffffffffffffffffffffffff82169050919050565b6000819050919050565b600069ffffffffffffffffffff82169050919050565b82818337600083830152505050565b60005b8381101561417657808201518184015260208101905061415b565b83811115614185576000848401525b50505050565b600060028204905060018216806141a357607f821691505b602082108114156141b7576141b6614295565b5b50919050565b6141c6826142f3565b810181811067ffffffffffffffff821117156141e5576141e46142c4565b5b80604052505050565b60006141f982614129565b91507fffffffffffffffffffffffffffffffffffffffffffffffffffffffffffffffff82141561422c5761422b614237565b5b600182019050919050565b7f4e487b7100000000000000000000000000000000000000000000000000000000600052601160045260246000fd5b7f4e487b7100000000000000000000000000000000000000000000000000000000600052601260045260246000fd5b7f4e487b7100000000000000000000000000000000000000000000000000000000600052602260045260246000fd5b7f4e487b7100000000000000000000000000000000000000000000000000000000600052604160045260246000fd5b6000601f19601f8301169050919050565b7f416d6f756e742073686f756c6420626520746865206d61746368696e6720626560008201527f74206f6e6c790000000000000000000000000000000000000000000000000000602082015250565b7f4d617463682066696e6973686564000000000000000000000000000000000000600082015250565b7f556e617574686f72697a65642057697468647261776c00000000000000000000600082015250565b7f42657420736c6f7420616c726561647920626f6f6b6564000000000000000000600082015250565b7f416d6f756e7420616c72656164792077697468647261776e0000000000000000600082015250565b7f6d617463685f6e6f745f636f6d706c6574656400000000000000000000000000600082015250565b7f63616e6e6f7420626574206f6e2073616d65206f7574636f6d65000000000000600082015250565b7f756e617574686f72697a65640000000000000000000000000000000000000000600082015250565b7f43616e6e6f742068617665207a65726f2062657420616d6f756e740000000000600082015250565b7f43616e6e6f74206a6f696e20776974682073616d652049440000000000000000600082015250565b7f47616d65206e6f742046696e6973686564000000000000000000000000000000600082015250565b6144f6816140e1565b811461450157600080fd5b50565b61450d816140f3565b811461451857600080fd5b50565b614524816140ff565b811461452f57600080fd5b50565b61453b81614129565b811461454657600080fd5b50565b61455281614133565b811461455d57600080fd5b5056fea26469706673582212202ce7688a095b42138a525a2721fcfb9afe24c9f1df2c87b601e61d3f537bf54664736f6c63430008040033",
  "linkReferences": {},
  "deployedLinkReferences": {}
}