{
  "_format": "hh-sol-artifact-1",
  "contractName": "faucet",
  "sourceName": "contracts/Faucet.sol",
  "abi": [
    {
      "inputs": [
        {
          "internalType": "address",
          "name": "_coin_addr",
          "type": "address"
        }
      ],
      "stateMutability": "nonpayable",
      "type": "constructor"
    },
    {
      "anonymous": false,
      "inputs": [
        {
          "indexed": false,
          "internalType": "address",
          "name": "recipient",
          "type": "address"
        },
        {
          "indexed": false,
          "internalType": "uint256",
          "name": "test_tokens",
          "type": "uint256"
        }
      ],
      "name": "Faucet",
      "type": "event"
    },
    {
      "inputs": [],
      "name": "balanceOf",
      "outputs": [
        {
          "internalType": "uint256",
          "name": "",
          "type": "uint256"
        }
      ],
      "stateMutability": "view",
      "type": "function"
    },
    {
      "inputs": [],
      "name": "receive_test_token",
      "outputs": [],
      "stateMutability": "nonpayable",
      "type": "function"
    }
  ],
  "bytecode": "0x608060405234801561001057600080fd5b506040516106df3803806106df833981810160405281019061003291906100ce565b33600160006101000a81548173ffffffffffffffffffffffffffffffffffffffff021916908373ffffffffffffffffffffffffffffffffffffffff160217905550806000806101000a81548173ffffffffffffffffffffffffffffffffffffffff021916908373ffffffffffffffffffffffffffffffffffffffff16021790555050610140565b6000815190506100c881610129565b92915050565b6000602082840312156100e057600080fd5b60006100ee848285016100b9565b91505092915050565b600061010282610109565b9050919050565b600073ffffffffffffffffffffffffffffffffffffffff82169050919050565b610132816100f7565b811461013d57600080fd5b50565b6105908061014f6000396000f3fe608060405234801561001057600080fd5b50600436106100365760003560e01c8063722713f71461003b578063ad38244814610059575b600080fd5b610043610063565b60405161005091906104a5565b60405180910390f35b610061610114565b005b60008060009054906101000a900473ffffffffffffffffffffffffffffffffffffffff1673ffffffffffffffffffffffffffffffffffffffff166370a08231306040518263ffffffff1660e01b81526004016100bf9190610438565b60206040518083038186803b1580156100d757600080fd5b505afa1580156100eb573d6000803e3d6000fd5b505050506040513d601f19601f8201168201806040525081019061010f91906103d3565b905090565b678ac7230489e8000060008054906101000a900473ffffffffffffffffffffffffffffffffffffffff1673ffffffffffffffffffffffffffffffffffffffff166370a08231306040518263ffffffff1660e01b81526004016101769190610438565b60206040518083038186803b15801561018e57600080fd5b505afa1580156101a2573d6000803e3d6000fd5b505050506040513d601f19601f820116820180604052508101906101c691906103d3565b116101d057600080fd5b60008054906101000a900473ffffffffffffffffffffffffffffffffffffffff1673ffffffffffffffffffffffffffffffffffffffff1663095ea7b33068056bc75e2d631000006040518363ffffffff1660e01b8152600401610234929190610453565b602060405180830381600087803b15801561024e57600080fd5b505af1158015610262573d6000803e3d6000fd5b505050506040513d601f19601f8201168201806040525081019061028691906103aa565b5060008054906101000a900473ffffffffffffffffffffffffffffffffffffffff1673ffffffffffffffffffffffffffffffffffffffff1663a9059cbb33678ac7230489e800006040518363ffffffff1660e01b81526004016102ea92919061047c565b602060405180830381600087803b15801561030457600080fd5b505af1158015610318573d6000803e3d6000fd5b505050506040513d601f19601f8201168201806040525081019061033c91906103aa565b507f1c5347d1e37925b93058518c26d7daabe45f0a3227e8d058aaf3682960eb2b9433678ac7230489e8000060405161037692919061047c565b60405180910390a1565b60008151905061038f8161052c565b92915050565b6000815190506103a481610543565b92915050565b6000602082840312156103bc57600080fd5b60006103ca84828501610380565b91505092915050565b6000602082840312156103e557600080fd5b60006103f384828501610395565b91505092915050565b610405816104c0565b82525050565b61041481610508565b82525050565b6104238161051a565b82525050565b610432816104fe565b82525050565b600060208201905061044d60008301846103fc565b92915050565b600060408201905061046860008301856103fc565b610475602083018461040b565b9392505050565b600060408201905061049160008301856103fc565b61049e602083018461041a565b9392505050565b60006020820190506104ba6000830184610429565b92915050565b60006104cb826104de565b9050919050565b60008115159050919050565b600073ffffffffffffffffffffffffffffffffffffffff82169050919050565b6000819050919050565b6000610513826104fe565b9050919050565b6000610525826104fe565b9050919050565b610535816104d2565b811461054057600080fd5b50565b61054c816104fe565b811461055757600080fd5b5056fea26469706673582212200feff26649397a613110dbd225038be364d9b7b35989a27fa3f9f694c95173c664736f6c63430008040033",
  "linkReferences": {},
  "deployedLinkReferences": {}
}