{
  "_format": "hh-sol-artifact-1",
  "contractName": "SpotoRouter",
  "sourceName": "contracts/SpotoRouter.sol",
  "abi": [
    {
      "inputs": [
        {
          "internalType": "contract LiquidityPool",
          "name": "_liquidityPool",
          "type": "address"
        },
        {
          "internalType": "contract SpotoCoin",
          "name": "_spotoCoin",
          "type": "address"
        }
      ],
      "stateMutability": "nonpayable",
      "type": "constructor"
    },
    {
      "inputs": [
        {
          "internalType": "uint256",
          "name": "_sptAmount",
          "type": "uint256"
        }
      ],
      "name": "addLiquidity",
      "outputs": [],
      "stateMutability": "payable",
      "type": "function"
    },
    {
      "inputs": [],
      "name": "pullLiquidity",
      "outputs": [],
      "stateMutability": "nonpayable",
      "type": "function"
    },
    {
      "inputs": [
        {
          "internalType": "uint256",
          "name": "_sptAmount",
          "type": "uint256"
        }
      ],
      "name": "swapTokens",
      "outputs": [],
      "stateMutability": "payable",
      "type": "function"
    }
  ],
  "bytecode": "0x608060405234801561001057600080fd5b50604051610aa0380380610aa0833981810160405281019061003291906100e4565b816000806101000a81548173ffffffffffffffffffffffffffffffffffffffff021916908373ffffffffffffffffffffffffffffffffffffffff16021790555080600160006101000a81548173ffffffffffffffffffffffffffffffffffffffff021916908373ffffffffffffffffffffffffffffffffffffffff16021790555050506101a4565b6000815190506100c981610176565b92915050565b6000815190506100de8161018d565b92915050565b600080604083850312156100f757600080fd5b6000610105858286016100ba565b9250506020610116858286016100cf565b9150509250929050565b600061012b82610156565b9050919050565b600061013d82610120565b9050919050565b600061014f82610120565b9050919050565b600073ffffffffffffffffffffffffffffffffffffffff82169050919050565b61017f81610132565b811461018a57600080fd5b50565b61019681610144565b81146101a157600080fd5b50565b6108ed806101b36000396000f3fe6080604052600436106100345760003560e01c806351c6590a14610039578063f8e35be714610055578063fe784eaa1461006c575b600080fd5b610053600480360381019061004e91906106b0565b610088565b005b34801561006157600080fd5b5061006a610398565b005b610086600480360381019061008191906106b0565b610425565b005b6000600160009054906101000a900473ffffffffffffffffffffffffffffffffffffffff1673ffffffffffffffffffffffffffffffffffffffff166370a08231336040518263ffffffff1660e01b81526004016100e59190610743565b60206040518083038186803b1580156100fd57600080fd5b505afa158015610111573d6000803e3d6000fd5b505050506040513d601f19601f8201168201806040525081019061013591906106d9565b11610175576040517f08c379a000000000000000000000000000000000000000000000000000000000815260040161016c906107be565b60405180910390fd5b6000600160009054906101000a900473ffffffffffffffffffffffffffffffffffffffff1673ffffffffffffffffffffffffffffffffffffffff1663d83a2bf33330856040518463ffffffff1660e01b81526004016101d69392919061075e565b602060405180830381600087803b1580156101f057600080fd5b505af1158015610204573d6000803e3d6000fd5b505050506040513d601f19601f820116820180604052508101906102289190610687565b90508061023457600080fd5b600160009054906101000a900473ffffffffffffffffffffffffffffffffffffffff1673ffffffffffffffffffffffffffffffffffffffff166323b872dd3360008054906101000a900473ffffffffffffffffffffffffffffffffffffffff16856040518463ffffffff1660e01b81526004016102b39392919061075e565b602060405180830381600087803b1580156102cd57600080fd5b505af11580156102e1573d6000803e3d6000fd5b505050506040513d601f19601f820116820180604052508101906103059190610687565b5060008054906101000a900473ffffffffffffffffffffffffffffffffffffffff1673ffffffffffffffffffffffffffffffffffffffff16636e553f653484336040518463ffffffff1660e01b81526004016103629291906107de565b6000604051808303818588803b15801561037b57600080fd5b505af115801561038f573d6000803e3d6000fd5b50505050505050565b60008054906101000a900473ffffffffffffffffffffffffffffffffffffffff1673ffffffffffffffffffffffffffffffffffffffff166351cff8d9336040518263ffffffff1660e01b81526004016103f19190610743565b600060405180830381600087803b15801561040b57600080fd5b505af115801561041f573d6000803e3d6000fd5b50505050565b6000600160009054906101000a900473ffffffffffffffffffffffffffffffffffffffff1673ffffffffffffffffffffffffffffffffffffffff1663d83a2bf33330856040518463ffffffff1660e01b81526004016104869392919061075e565b602060405180830381600087803b1580156104a057600080fd5b505af11580156104b4573d6000803e3d6000fd5b505050506040513d601f19601f820116820180604052508101906104d89190610687565b9050806104e457600080fd5b600160009054906101000a900473ffffffffffffffffffffffffffffffffffffffff1673ffffffffffffffffffffffffffffffffffffffff166323b872dd3360008054906101000a900473ffffffffffffffffffffffffffffffffffffffff16856040518463ffffffff1660e01b81526004016105639392919061075e565b602060405180830381600087803b15801561057d57600080fd5b505af1158015610591573d6000803e3d6000fd5b505050506040513d601f19601f820116820180604052508101906105b59190610687565b5060008054906101000a900473ffffffffffffffffffffffffffffffffffffffff1673ffffffffffffffffffffffffffffffffffffffff1663d004f0f73433856040518463ffffffff1660e01b8152600401610612929190610795565b6000604051808303818588803b15801561062b57600080fd5b505af115801561063f573d6000803e3d6000fd5b50505050505050565b60008151905061065781610889565b92915050565b60008135905061066c816108a0565b92915050565b600081519050610681816108a0565b92915050565b60006020828403121561069957600080fd5b60006106a784828501610648565b91505092915050565b6000602082840312156106c257600080fd5b60006106d08482850161065d565b91505092915050565b6000602082840312156106eb57600080fd5b60006106f984828501610672565b91505092915050565b61070b81610818565b82525050565b600061071e601383610807565b915061072982610860565b602082019050919050565b61073d81610856565b82525050565b60006020820190506107586000830184610702565b92915050565b60006060820190506107736000830186610702565b6107806020830185610702565b61078d6040830184610734565b949350505050565b60006040820190506107aa6000830185610702565b6107b76020830184610734565b9392505050565b600060208201905081810360008301526107d781610711565b9050919050565b60006040820190506107f36000830185610734565b6108006020830184610702565b9392505050565b600082825260208201905092915050565b600061082382610836565b9050919050565b60008115159050919050565b600073ffffffffffffffffffffffffffffffffffffffff82169050919050565b6000819050919050565b7f4e4f5f415641494c41424c455f544f4b454e5300000000000000000000000000600082015250565b6108928161082a565b811461089d57600080fd5b50565b6108a981610856565b81146108b457600080fd5b5056fea26469706673582212209bd09c789064271bdeed6514b8ba40d1ac37d6ede8e987ebee5ae318801a74b064736f6c63430008040033",
  "linkReferences": {},
  "deployedLinkReferences": {}
}