{
  "_format": "hh-sol-artifact-1",
  "contractName": "SpotoGame",
  "sourceName": "contracts/SpotoGame.sol",
  "abi": [
    {
      "inputs": [
        {
          "internalType": "address",
          "name": "_coin_addr",
          "type": "address"
        },
        {
          "internalType": "address",
          "name": "AggregatorAddress",
          "type": "address"
        }
      ],
      "stateMutability": "nonpayable",
      "type": "constructor"
    },
    {
      "anonymous": false,
      "inputs": [
        {
          "indexed": false,
          "internalType": "address",
          "name": "player1",
          "type": "address"
        },
        {
          "indexed": false,
          "internalType": "uint256",
          "name": "betId",
          "type": "uint256"
        },
        {
          "indexed": false,
          "internalType": "uint256",
          "name": "deposit",
          "type": "uint256"
        },
        {
          "indexed": false,
          "internalType": "string",
          "name": "nft_id",
          "type": "string"
        }
      ],
      "name": "BetCreated",
      "type": "event"
    },
    {
      "anonymous": false,
      "inputs": [
        {
          "indexed": false,
          "internalType": "address",
          "name": "player2",
          "type": "address"
        },
        {
          "indexed": false,
          "internalType": "uint256",
          "name": "betId",
          "type": "uint256"
        },
        {
          "indexed": false,
          "internalType": "uint256",
          "name": "deposit",
          "type": "uint256"
        },
        {
          "indexed": false,
          "internalType": "string",
          "name": "nft_id",
          "type": "string"
        }
      ],
      "name": "Betjoined",
      "type": "event"
    },
    {
      "anonymous": false,
      "inputs": [
        {
          "indexed": false,
          "internalType": "uint256",
          "name": "bet_id",
          "type": "uint256"
        },
        {
          "indexed": false,
          "internalType": "address",
          "name": "winner",
          "type": "address"
        },
        {
          "indexed": false,
          "internalType": "uint256",
          "name": "gains",
          "type": "uint256"
        }
      ],
      "name": "Withdraw",
      "type": "event"
    },
    {
      "inputs": [],
      "name": "SetLatestEthPrice",
      "outputs": [],
      "stateMutability": "nonpayable",
      "type": "function"
    },
    {
      "inputs": [
        {
          "internalType": "uint256",
          "name": "matchId",
          "type": "uint256"
        }
      ],
      "name": "availablebets",
      "outputs": [
        {
          "internalType": "uint256[]",
          "name": "available_bet_id",
          "type": "uint256[]"
        }
      ],
      "stateMutability": "view",
      "type": "function"
    },
    {
      "inputs": [
        {
          "internalType": "address",
          "name": "a",
          "type": "address"
        }
      ],
      "name": "balanceOf",
      "outputs": [
        {
          "internalType": "uint256",
          "name": "",
          "type": "uint256"
        }
      ],
      "stateMutability": "view",
      "type": "function"
    },
    {
      "inputs": [],
      "name": "betCount",
      "outputs": [
        {
          "internalType": "uint256",
          "name": "",
          "type": "uint256"
        }
      ],
      "stateMutability": "view",
      "type": "function"
    },
    {
      "inputs": [
        {
          "internalType": "uint256",
          "name": "match_id",
          "type": "uint256"
        },
        {
          "internalType": "uint256",
          "name": "winner_prediction",
          "type": "uint256"
        },
        {
          "internalType": "string",
          "name": "nft_id",
          "type": "string"
        },
        {
          "internalType": "uint256",
          "name": "amount",
          "type": "uint256"
        }
      ],
      "name": "createBet",
      "outputs": [],
      "stateMutability": "nonpayable",
      "type": "function"
    },
    {
      "inputs": [],
      "name": "getActiveBets",
      "outputs": [
        {
          "components": [
            {
              "internalType": "uint256",
              "name": "bettingPairId",
              "type": "uint256"
            },
            {
              "internalType": "uint256",
              "name": "matchid",
              "type": "uint256"
            },
            {
              "internalType": "address",
              "name": "player1",
              "type": "address"
            },
            {
              "internalType": "address",
              "name": "player2",
              "type": "address"
            },
            {
              "internalType": "string",
              "name": "nftid_player1",
              "type": "string"
            },
            {
              "internalType": "string",
              "name": "nftid_player2",
              "type": "string"
            },
            {
              "internalType": "uint256",
              "name": "player1Deposit",
              "type": "uint256"
            },
            {
              "internalType": "uint256",
              "name": "player2Deposit",
              "type": "uint256"
            },
            {
              "internalType": "uint256",
              "name": "player1GamePrediction",
              "type": "uint256"
            },
            {
              "internalType": "uint256",
              "name": "player2GamePrediction",
              "type": "uint256"
            },
            {
              "internalType": "bool",
              "name": "gameFinished",
              "type": "bool"
            },
            {
              "internalType": "bool",
              "name": "withdrawCompleted",
              "type": "bool"
            },
            {
              "internalType": "address",
              "name": "theWinner",
              "type": "address"
            },
            {
              "internalType": "address",
              "name": "refund_player1",
              "type": "address"
            },
            {
              "internalType": "address",
              "name": "refund_player2",
              "type": "address"
            },
            {
              "internalType": "uint256",
              "name": "gains",
              "type": "uint256"
            }
          ],
          "internalType": "struct SpotoGame.BettingEvent[]",
          "name": "",
          "type": "tuple[]"
        }
      ],
      "stateMutability": "view",
      "type": "function"
    },
    {
      "inputs": [
        {
          "internalType": "uint256",
          "name": "match_id",
          "type": "uint256"
        }
      ],
      "name": "getActiveBets_matchid",
      "outputs": [
        {
          "components": [
            {
              "internalType": "uint256",
              "name": "bettingPairId",
              "type": "uint256"
            },
            {
              "internalType": "uint256",
              "name": "matchid",
              "type": "uint256"
            },
            {
              "internalType": "address",
              "name": "player1",
              "type": "address"
            },
            {
              "internalType": "address",
              "name": "player2",
              "type": "address"
            },
            {
              "internalType": "string",
              "name": "nftid_player1",
              "type": "string"
            },
            {
              "internalType": "string",
              "name": "nftid_player2",
              "type": "string"
            },
            {
              "internalType": "uint256",
              "name": "player1Deposit",
              "type": "uint256"
            },
            {
              "internalType": "uint256",
              "name": "player2Deposit",
              "type": "uint256"
            },
            {
              "internalType": "uint256",
              "name": "player1GamePrediction",
              "type": "uint256"
            },
            {
              "internalType": "uint256",
              "name": "player2GamePrediction",
              "type": "uint256"
            },
            {
              "internalType": "bool",
              "name": "gameFinished",
              "type": "bool"
            },
            {
              "internalType": "bool",
              "name": "withdrawCompleted",
              "type": "bool"
            },
            {
              "internalType": "address",
              "name": "theWinner",
              "type": "address"
            },
            {
              "internalType": "address",
              "name": "refund_player1",
              "type": "address"
            },
            {
              "internalType": "address",
              "name": "refund_player2",
              "type": "address"
            },
            {
              "internalType": "uint256",
              "name": "gains",
              "type": "uint256"
            }
          ],
          "internalType": "struct SpotoGame.BettingEvent[]",
          "name": "",
          "type": "tuple[]"
        }
      ],
      "stateMutability": "view",
      "type": "function"
    },
    {
      "inputs": [
        {
          "internalType": "uint256",
          "name": "interestedBet",
          "type": "uint256"
        }
      ],
      "name": "getBetDetails",
      "outputs": [
        {
          "internalType": "bool",
          "name": "gameFinished",
          "type": "bool"
        },
        {
          "internalType": "bool",
          "name": "withdrawCompleted",
          "type": "bool"
        },
        {
          "internalType": "address",
          "name": "theWinner",
          "type": "address"
        },
        {
          "internalType": "uint256",
          "name": "gains",
          "type": "uint256"
        },
        {
          "internalType": "address",
          "name": "player1",
          "type": "address"
        },
        {
          "internalType": "address",
          "name": "player2",
          "type": "address"
        },
        {
          "internalType": "string",
          "name": "nftid_player1",
          "type": "string"
        },
        {
          "internalType": "string",
          "name": "nftid_player2",
          "type": "string"
        },
        {
          "internalType": "uint256",
          "name": "player1Deposit",
          "type": "uint256"
        },
        {
          "internalType": "uint256",
          "name": "player2Deposit",
          "type": "uint256"
        },
        {
          "internalType": "uint256",
          "name": "player1GamePrediction",
          "type": "uint256"
        },
        {
          "internalType": "uint256",
          "name": "player2GamePrediction",
          "type": "uint256"
        }
      ],
      "stateMutability": "view",
      "type": "function"
    },
    {
      "inputs": [],
      "name": "getLatestEthPrice",
      "outputs": [
        {
          "internalType": "int256",
          "name": "",
          "type": "int256"
        }
      ],
      "stateMutability": "view",
      "type": "function"
    },
    {
      "inputs": [
        {
          "internalType": "string",
          "name": "nftid",
          "type": "string"
        }
      ],
      "name": "getNftDetails",
      "outputs": [
        {
          "internalType": "string",
          "name": "nft_token_id",
          "type": "string"
        },
        {
          "internalType": "uint256",
          "name": "bets_won",
          "type": "uint256"
        },
        {
          "internalType": "uint256",
          "name": "bets_lost",
          "type": "uint256"
        },
        {
          "internalType": "uint256",
          "name": "profile_level",
          "type": "uint256"
        }
      ],
      "stateMutability": "view",
      "type": "function"
    },
    {
      "inputs": [
        {
          "internalType": "uint256",
          "name": "interestedBet",
          "type": "uint256"
        }
      ],
      "name": "getPlayer1Details",
      "outputs": [
        {
          "internalType": "address",
          "name": "p1",
          "type": "address"
        },
        {
          "internalType": "uint256",
          "name": "player1Deposit",
          "type": "uint256"
        },
        {
          "internalType": "uint256",
          "name": "player1gamePrediction",
          "type": "uint256"
        },
        {
          "internalType": "string",
          "name": "player1nft",
          "type": "string"
        }
      ],
      "stateMutability": "view",
      "type": "function"
    },
    {
      "inputs": [
        {
          "internalType": "uint256",
          "name": "interestedBet",
          "type": "uint256"
        }
      ],
      "name": "getPlayer2Details",
      "outputs": [
        {
          "internalType": "address",
          "name": "p2",
          "type": "address"
        },
        {
          "internalType": "uint256",
          "name": "player2Deposit",
          "type": "uint256"
        },
        {
          "internalType": "uint256",
          "name": "player2gamePrediction",
          "type": "uint256"
        },
        {
          "internalType": "string",
          "name": "player2nft",
          "type": "string"
        }
      ],
      "stateMutability": "view",
      "type": "function"
    },
    {
      "inputs": [
        {
          "internalType": "uint256",
          "name": "interestedBet",
          "type": "uint256"
        },
        {
          "internalType": "uint256",
          "name": "winner_prediction",
          "type": "uint256"
        },
        {
          "internalType": "string",
          "name": "nft_id",
          "type": "string"
        },
        {
          "internalType": "uint256",
          "name": "amount",
          "type": "uint256"
        }
      ],
      "name": "joinBet",
      "outputs": [],
      "stateMutability": "nonpayable",
      "type": "function"
    },
    {
      "inputs": [
        {
          "internalType": "uint256",
          "name": "match_id",
          "type": "uint256"
        },
        {
          "internalType": "uint256",
          "name": "winner_team",
          "type": "uint256"
        },
        {
          "internalType": "bool",
          "name": "completed",
          "type": "bool"
        }
      ],
      "name": "update_winner",
      "outputs": [],
      "stateMutability": "nonpayable",
      "type": "function"
    },
    {
      "inputs": [
        {
          "internalType": "uint256",
          "name": "interestedBet",
          "type": "uint256"
        }
      ],
      "name": "withdraw",
      "outputs": [],
      "stateMutability": "nonpayable",
      "type": "function"
    }
  ],
  "bytecode": "0x60806040523480156200001157600080fd5b506040516200463f3803806200463f833981810160405281019062000037919062000120565b33600160006101000a81548173ffffffffffffffffffffffffffffffffffffffff021916908373ffffffffffffffffffffffffffffffffffffffff160217905550600060038190555081600260006101000a81548173ffffffffffffffffffffffffffffffffffffffff021916908373ffffffffffffffffffffffffffffffffffffffff160217905550806000806101000a81548173ffffffffffffffffffffffffffffffffffffffff021916908373ffffffffffffffffffffffffffffffffffffffff1602179055505050620001af565b6000815190506200011a8162000195565b92915050565b600080604083850312156200013457600080fd5b6000620001448582860162000109565b9250506020620001578582860162000109565b9150509250929050565b60006200016e8262000175565b9050919050565b600073ffffffffffffffffffffffffffffffffffffffff82169050919050565b620001a08162000161565b8114620001ac57600080fd5b50565b61448080620001bf6000396000f3fe608060405234801561001057600080fd5b50600436106100f55760003560e01c806370a0823111610097578063ae0ea67511610066578063ae0ea675146102ac578063b18dbb76146102c8578063cf094497146102e4578063f123b6c714610302576100f5565b806370a08231146101fb578063989f19ef1461022b578063a96ec6a21461025b578063ada730201461028e576100f5565b806330c0b9ec116100d357806330c0b9ec1461017c5780633df2967e1461019a57806341f00886146101d557806346dd8cc9146101f1576100f5565b8063023858c9146100fa5780630bdbd3ec1461012d5780632e1a7d4d14610160575b600080fd5b610114600480360381019061010f9190613254565b610332565b60405161012494939291906139e4565b60405180910390f35b61014760048036038101906101429190613213565b61044c565b6040516101579493929190613ba3565b60405180910390f35b61017a60048036038101906101759190613254565b610572565b005b610184610a42565b6040516101919190613b88565b60405180910390f35b6101b460048036038101906101af9190613254565b610a4c565b6040516101cc9c9b9a99989796959493929190613ac0565b60405180910390f35b6101ef60048036038101906101ea91906132a6565b610d3c565b005b6101f96119f1565b005b610215600480360381019061021091906131c1565b611ab0565b6040516102229190613d4f565b60405180910390f35b61024560048036038101906102409190613254565b611b64565b6040516102529190613a7c565b60405180910390f35b61027560048036038101906102709190613254565b61206d565b60405161028594939291906139e4565b60405180910390f35b610296612187565b6040516102a39190613a7c565b60405180910390f35b6102c660048036038101906102c191906132f5565b6125ee565b005b6102e260048036038101906102dd91906132f5565b61298c565b005b6102ec612ec3565b6040516102f99190613d4f565b60405180910390f35b61031c60048036038101906103179190613254565b612ec9565b6040516103299190613a9e565b60405180910390f35b600080600060606005600086815260200190815260200160002060020160009054906101000a900473ffffffffffffffffffffffffffffffffffffffff16935060056000868152602001908152602001600020600601549250600560008681526020019081526020016000206008015491506005600086815260200190815260200160002060040180546103c590614075565b80601f01602080910402602001604051908101604052809291908181526020018280546103f190614075565b801561043e5780601f106104135761010080835404028352916020019161043e565b820191906000526020600020905b81548152906001019060200180831161042157829003601f168201915b505050505090509193509193565b606060008060006009856040516104639190613952565b90815260200160405180910390206001015492506009856040516104879190613952565b90815260200160405180910390206002015491506009856040516104ab9190613952565b90815260200160405180910390206003015490506009856040516104cf9190613952565b908152602001604051809103902060000180546104eb90614075565b80601f016020809104026020016040519081016040528092919081815260200182805461051790614075565b80156105645780601f1061053957610100808354040283529160200191610564565b820191906000526020600020905b81548152906001019060200180831161054757829003601f168201915b505050505093509193509193565b60056000828152602001908152602001600020600a0160009054906101000a900460ff166105d5576040517f08c379a00000000000000000000000000000000000000000000000000000000081526004016105cc90613d2f565b60405180910390fd5b60056000828152602001908152602001600020600a0160019054906101000a900460ff1615610639576040517f08c379a000000000000000000000000000000000000000000000000000000000815260040161063090613c6f565b60405180910390fd5b3373ffffffffffffffffffffffffffffffffffffffff1660056000838152602001908152602001600020600a0160029054906101000a900473ffffffffffffffffffffffffffffffffffffffff1673ffffffffffffffffffffffffffffffffffffffff16148061070a57503373ffffffffffffffffffffffffffffffffffffffff1660056000838152602001908152602001600020600b0160009054906101000a900473ffffffffffffffffffffffffffffffffffffffff1673ffffffffffffffffffffffffffffffffffffffff16145b8061077657503373ffffffffffffffffffffffffffffffffffffffff1660056000838152602001908152602001600020600c0160009054906101000a900473ffffffffffffffffffffffffffffffffffffffff1673ffffffffffffffffffffffffffffffffffffffff16145b6107b5576040517f08c379a00000000000000000000000000000000000000000000000000000000081526004016107ac90613c2f565b60405180910390fd5b60003373ffffffffffffffffffffffffffffffffffffffff1660056000848152602001908152602001600020600a0160029054906101000a900473ffffffffffffffffffffffffffffffffffffffff1673ffffffffffffffffffffffffffffffffffffffff16141561083f5760056000838152602001908152602001600020600d015490506108e2565b3373ffffffffffffffffffffffffffffffffffffffff1660056000848152602001908152602001600020600b0160009054906101000a900473ffffffffffffffffffffffffffffffffffffffff1673ffffffffffffffffffffffffffffffffffffffff1614156108c757600560008381526020019081526020016000206006015490506108e1565b600560008381526020019081526020016000206007015490505b5b600060056000848152602001908152602001600020600d0181905550600160056000848152602001908152602001600020600a0160016101000a81548160ff021916908315150217905550600260009054906101000a900473ffffffffffffffffffffffffffffffffffffffff1673ffffffffffffffffffffffffffffffffffffffff1663a9059cbb33670de0b6b3a7640000846109809190613f3d565b6040518363ffffffff1660e01b815260040161099d9291906139bb565b602060405180830381600087803b1580156109b757600080fd5b505af11580156109cb573d6000803e3d6000fd5b505050506040513d601f19601f820116820180604052508101906109ef91906131ea565b507f9da6493a92039daf47d1f2d7a782299c5994c6323eb1e972f69c432089ec52bf8233670de0b6b3a764000084610a279190613f3d565b604051610a3693929190613d6a565b60405180910390a15050565b6000600454905090565b600080600080600080606080600080600080600560008e8152602001908152602001600020600a0160009054906101000a900460ff169b50600560008e8152602001908152602001600020600a0160019054906101000a900460ff169a50600560008e8152602001908152602001600020600a0160029054906101000a900473ffffffffffffffffffffffffffffffffffffffff169950600560008e8152602001908152602001600020600d01549850600560008e8152602001908152602001600020600d01549850600560008e815260200190815260200160002060020160009054906101000a900473ffffffffffffffffffffffffffffffffffffffff169750600560008e815260200190815260200160002060030160009054906101000a900473ffffffffffffffffffffffffffffffffffffffff169650600560008e81526020019081526020016000206004018054610ba890614075565b80601f0160208091040260200160405190810160405280929190818152602001828054610bd490614075565b8015610c215780601f10610bf657610100808354040283529160200191610c21565b820191906000526020600020905b815481529060010190602001808311610c0457829003601f168201915b50505050509550600560008e81526020019081526020016000206005018054610c4990614075565b80601f0160208091040260200160405190810160405280929190818152602001828054610c7590614075565b8015610cc25780601f10610c9757610100808354040283529160200191610cc2565b820191906000526020600020905b815481529060010190602001808311610ca557829003601f168201915b50505050509450600560008e8152602001908152602001600020600601549350600560008e8152602001908152602001600020600701549250600560008e8152602001908152602001600020600801549150600560008e815260200190815260200160002060090154905091939597999b5091939597999b565b600160009054906101000a900473ffffffffffffffffffffffffffffffffffffffff1673ffffffffffffffffffffffffffffffffffffffff163373ffffffffffffffffffffffffffffffffffffffff1614610dcc576040517f08c379a0000000000000000000000000000000000000000000000000000000008152600401610dc390613ccf565b60405180910390fd5b80610e0c576040517f08c379a0000000000000000000000000000000000000000000000000000000008152600401610e0390613c8f565b60405180910390fd5b600060086000858152602001908152602001600020805480602002602001604051908101604052809291908181526020018280548015610e6b57602002820191906000526020600020905b815481526020019060010190808311610e57575b5050505050905060005b81518110156119ea576000828281518110610eb9577f4e487b7100000000000000000000000000000000000000000000000000000000600052603260045260246000fd5b602002602001015190506000600560008381526020019081526020016000206040518061020001604052908160008201548152602001600182015481526020016002820160009054906101000a900473ffffffffffffffffffffffffffffffffffffffff1673ffffffffffffffffffffffffffffffffffffffff1673ffffffffffffffffffffffffffffffffffffffff1681526020016003820160009054906101000a900473ffffffffffffffffffffffffffffffffffffffff1673ffffffffffffffffffffffffffffffffffffffff1673ffffffffffffffffffffffffffffffffffffffff168152602001600482018054610fb490614075565b80601f0160208091040260200160405190810160405280929190818152602001828054610fe090614075565b801561102d5780601f106110025761010080835404028352916020019161102d565b820191906000526020600020905b81548152906001019060200180831161101057829003601f168201915b5050505050815260200160058201805461104690614075565b80601f016020809104026020016040519081016040528092919081815260200182805461107290614075565b80156110bf5780601f10611094576101008083540402835291602001916110bf565b820191906000526020600020905b8154815290600101906020018083116110a257829003601f168201915b5050505050815260200160068201548152602001600782015481526020016008820154815260200160098201548152602001600a820160009054906101000a900460ff16151515158152602001600a820160019054906101000a900460ff16151515158152602001600a820160029054906101000a900473ffffffffffffffffffffffffffffffffffffffff1673ffffffffffffffffffffffffffffffffffffffff1673ffffffffffffffffffffffffffffffffffffffff168152602001600b820160009054906101000a900473ffffffffffffffffffffffffffffffffffffffff1673ffffffffffffffffffffffffffffffffffffffff1673ffffffffffffffffffffffffffffffffffffffff168152602001600c820160009054906101000a900473ffffffffffffffffffffffffffffffffffffffff1673ffffffffffffffffffffffffffffffffffffffff1673ffffffffffffffffffffffffffffffffffffffff168152602001600d820154815250509050600073ffffffffffffffffffffffffffffffffffffffff16816060015173ffffffffffffffffffffffffffffffffffffffff1614156112d0576001816101400190151590811515815250508060c00151816101e0018181525050806040015181610180019073ffffffffffffffffffffffffffffffffffffffff16908173ffffffffffffffffffffffffffffffffffffffff16815250506119d5565b60018161014001901515908115158152505060648160c001518260c001516112f89190613eb6565b600f6113049190613f3d565b61130e9190613f0c565b8160c001518260c001516113229190613eb6565b61132c9190613f97565b816101e001818152505080610100015186141561152657806040015181610180019073ffffffffffffffffffffffffffffffffffffffff16908173ffffffffffffffffffffffffffffffffffffffff16815250506001600982608001516040516113969190613952565b9081526020016040518091039020600101546113b29190613eb6565b600982608001516040516113c69190613952565b908152602001604051809103902060010181905550600160098260a001516040516113f19190613952565b90815260200160405180910390206002015461140d9190613eb6565b60098260a001516040516114219190613952565b9081526020016040518091039020600201819055506009816080015160405161144a9190613952565b908152602001604051809103902060020154600982608001516040516114709190613952565b90815260200160405180910390206001015461148c9190613eb6565b600982608001516040516114a09190613952565b9081526020016040518091039020600101546114bc9190613f0c565b600a6114c89190613f3d565b600982608001516040516114dc9190613952565b9081526020016040518091039020600301546114f89190613eb6565b6009826080015160405161150c9190613952565b908152602001604051809103902060030181905550611792565b80610120015186141561171657806060015181610180019073ffffffffffffffffffffffffffffffffffffffff16908173ffffffffffffffffffffffffffffffffffffffff1681525050600160098260a001516040516115869190613952565b9081526020016040518091039020600101546115a29190613eb6565b60098260a001516040516115b69190613952565b9081526020016040518091039020600101819055506001600982608001516040516115e19190613952565b9081526020016040518091039020600201546115fd9190613eb6565b600982608001516040516116119190613952565b90815260200160405180910390206002018190555060098160a0015160405161163a9190613952565b90815260200160405180910390206002015460098260a001516040516116609190613952565b90815260200160405180910390206001015461167c9190613eb6565b60098260a001516040516116909190613952565b9081526020016040518091039020600101546116ac9190613f0c565b600a6116b89190613f3d565b60098260a001516040516116cc9190613952565b9081526020016040518091039020600301546116e89190613eb6565b60098260a001516040516116fc9190613952565b908152602001604051809103902060030181905550611791565b8060400151816101a0019073ffffffffffffffffffffffffffffffffffffffff16908173ffffffffffffffffffffffffffffffffffffffff16815250508060600151816101c0019073ffffffffffffffffffffffffffffffffffffffff16908173ffffffffffffffffffffffffffffffffffffffff16815250505b5b8060056000848152602001908152602001600020600082015181600001556020820151816001015560408201518160020160006101000a81548173ffffffffffffffffffffffffffffffffffffffff021916908373ffffffffffffffffffffffffffffffffffffffff16021790555060608201518160030160006101000a81548173ffffffffffffffffffffffffffffffffffffffff021916908373ffffffffffffffffffffffffffffffffffffffff1602179055506080820151816004019080519060200190611864929190612f34565b5060a0820151816005019080519060200190611881929190612f34565b5060c0820151816006015560e082015181600701556101008201518160080155610120820151816009015561014082015181600a0160006101000a81548160ff02191690831515021790555061016082015181600a0160016101000a81548160ff02191690831515021790555061018082015181600a0160026101000a81548173ffffffffffffffffffffffffffffffffffffffff021916908373ffffffffffffffffffffffffffffffffffffffff1602179055506101a082015181600b0160006101000a81548173ffffffffffffffffffffffffffffffffffffffff021916908373ffffffffffffffffffffffffffffffffffffffff1602179055506101c082015181600c0160006101000a81548173ffffffffffffffffffffffffffffffffffffffff021916908373ffffffffffffffffffffffffffffffffffffffff1602179055506101e082015181600d01559050505b505080806119e2906140d8565b915050610e75565b5050505050565b60008060008060008060009054906101000a900473ffffffffffffffffffffffffffffffffffffffff1673ffffffffffffffffffffffffffffffffffffffff1663feaf968c6040518163ffffffff1660e01b815260040160a06040518083038186803b158015611a6057600080fd5b505afa158015611a74573d6000803e3d6000fd5b505050506040513d601f19601f82011682018060405250810190611a989190613370565b94509450945094509450836004819055505050505050565b6000600260009054906101000a900473ffffffffffffffffffffffffffffffffffffffff1673ffffffffffffffffffffffffffffffffffffffff166370a08231836040518263ffffffff1660e01b8152600401611b0d9190613969565b60206040518083038186803b158015611b2557600080fd5b505afa158015611b39573d6000803e3d6000fd5b505050506040513d601f19601f82011682018060405250810190611b5d919061327d565b9050919050565b6060600060086000848152602001908152602001600020805480602002602001604051908101604052809291908181526020018280548015611bc557602002820191906000526020600020905b815481526020019060010190808311611bb1575b50505050509050600060035467ffffffffffffffff811115611c10577f4e487b7100000000000000000000000000000000000000000000000000000000600052604160045260246000fd5b604051908082528060200260200182016040528015611c4957816020015b611c36612fba565b815260200190600190039081611c2e5790505b50905060005b8251811015612062576000838281518110611c93577f4e487b7100000000000000000000000000000000000000000000000000000000600052603260045260246000fd5b60200260200101519050600560008281526020019081526020016000206040518061020001604052908160008201548152602001600182015481526020016002820160009054906101000a900473ffffffffffffffffffffffffffffffffffffffff1673ffffffffffffffffffffffffffffffffffffffff1673ffffffffffffffffffffffffffffffffffffffff1681526020016003820160009054906101000a900473ffffffffffffffffffffffffffffffffffffffff1673ffffffffffffffffffffffffffffffffffffffff1673ffffffffffffffffffffffffffffffffffffffff168152602001600482018054611d8c90614075565b80601f0160208091040260200160405190810160405280929190818152602001828054611db890614075565b8015611e055780601f10611dda57610100808354040283529160200191611e05565b820191906000526020600020905b815481529060010190602001808311611de857829003601f168201915b50505050508152602001600582018054611e1e90614075565b80601f0160208091040260200160405190810160405280929190818152602001828054611e4a90614075565b8015611e975780601f10611e6c57610100808354040283529160200191611e97565b820191906000526020600020905b815481529060010190602001808311611e7a57829003601f168201915b5050505050815260200160068201548152602001600782015481526020016008820154815260200160098201548152602001600a820160009054906101000a900460ff16151515158152602001600a820160019054906101000a900460ff16151515158152602001600a820160029054906101000a900473ffffffffffffffffffffffffffffffffffffffff1673ffffffffffffffffffffffffffffffffffffffff1673ffffffffffffffffffffffffffffffffffffffff168152602001600b820160009054906101000a900473ffffffffffffffffffffffffffffffffffffffff1673ffffffffffffffffffffffffffffffffffffffff1673ffffffffffffffffffffffffffffffffffffffff168152602001600c820160009054906101000a900473ffffffffffffffffffffffffffffffffffffffff1673ffffffffffffffffffffffffffffffffffffffff1673ffffffffffffffffffffffffffffffffffffffff168152602001600d82015481525050838381518110612043577f4e487b7100000000000000000000000000000000000000000000000000000000600052603260045260246000fd5b602002602001018190525050808061205a906140d8565b915050611c4f565b819350505050919050565b600080600060606005600086815260200190815260200160002060030160009054906101000a900473ffffffffffffffffffffffffffffffffffffffff169350600560008681526020019081526020016000206007015492506005600086815260200190815260200160002060080154915060056000868152602001908152602001600020600501805461210090614075565b80601f016020809104026020016040519081016040528092919081815260200182805461212c90614075565b80156121795780601f1061214e57610100808354040283529160200191612179565b820191906000526020600020905b81548152906001019060200180831161215c57829003601f168201915b505050505090509193509193565b6060600060035467ffffffffffffffff8111156121cd577f4e487b7100000000000000000000000000000000000000000000000000000000600052604160045260246000fd5b60405190808252806020026020018201604052801561220657816020015b6121f3612fba565b8152602001906001900390816121eb5790505b50905060005b6003548110156125e657600560006001836122279190613eb6565b81526020019081526020016000206040518061020001604052908160008201548152602001600182015481526020016002820160009054906101000a900473ffffffffffffffffffffffffffffffffffffffff1673ffffffffffffffffffffffffffffffffffffffff1673ffffffffffffffffffffffffffffffffffffffff1681526020016003820160009054906101000a900473ffffffffffffffffffffffffffffffffffffffff1673ffffffffffffffffffffffffffffffffffffffff1673ffffffffffffffffffffffffffffffffffffffff16815260200160048201805461231190614075565b80601f016020809104026020016040519081016040528092919081815260200182805461233d90614075565b801561238a5780601f1061235f5761010080835404028352916020019161238a565b820191906000526020600020905b81548152906001019060200180831161236d57829003601f168201915b505050505081526020016005820180546123a390614075565b80601f01602080910402602001604051908101604052809291908181526020018280546123cf90614075565b801561241c5780601f106123f15761010080835404028352916020019161241c565b820191906000526020600020905b8154815290600101906020018083116123ff57829003601f168201915b5050505050815260200160068201548152602001600782015481526020016008820154815260200160098201548152602001600a820160009054906101000a900460ff16151515158152602001600a820160019054906101000a900460ff16151515158152602001600a820160029054906101000a900473ffffffffffffffffffffffffffffffffffffffff1673ffffffffffffffffffffffffffffffffffffffff1673ffffffffffffffffffffffffffffffffffffffff168152602001600b820160009054906101000a900473ffffffffffffffffffffffffffffffffffffffff1673ffffffffffffffffffffffffffffffffffffffff1673ffffffffffffffffffffffffffffffffffffffff168152602001600c820160009054906101000a900473ffffffffffffffffffffffffffffffffffffffff1673ffffffffffffffffffffffffffffffffffffffff1673ffffffffffffffffffffffffffffffffffffffff168152602001600d820154815250508282815181106125c8577f4e487b7100000000000000000000000000000000000000000000000000000000600052603260045260246000fd5b602002602001018190525080806125de906140d8565b91505061220c565b819250505090565b6000811415612632576040517f08c379a000000000000000000000000000000000000000000000000000000000815260040161262990613cef565b60405180910390fd5b60036000815480929190612645906140d8565b9190505550600260009054906101000a900473ffffffffffffffffffffffffffffffffffffffff1673ffffffffffffffffffffffffffffffffffffffff1663095ea7b333670de0b6b3a76400008461269d9190613f3d565b6040518363ffffffff1660e01b81526004016126ba9291906139bb565b602060405180830381600087803b1580156126d457600080fd5b505af11580156126e8573d6000803e3d6000fd5b505050506040513d601f19601f8201168201806040525081019061270c91906131ea565b50600260009054906101000a900473ffffffffffffffffffffffffffffffffffffffff1673ffffffffffffffffffffffffffffffffffffffff166323b872dd3330670de0b6b3a7640000856127619190613f3d565b6040518463ffffffff1660e01b815260040161277f93929190613984565b602060405180830381600087803b15801561279957600080fd5b505af11580156127ad573d6000803e3d6000fd5b505050506040513d601f19601f820116820180604052508101906127d191906131ea565b50600354600560006003548152602001908152602001600020600001819055503360056000600354815260200190815260200160002060020160006101000a81548173ffffffffffffffffffffffffffffffffffffffff021916908373ffffffffffffffffffffffffffffffffffffffff160217905550670de0b6b3a76400008161285c9190613f3d565b6005600060035481526020019081526020016000206006018190555082600560006003548152602001908152602001600020600801819055508160056000600354815260200190815260200160002060040190805190602001906128c1929190612f34565b5083600660006003548152602001908152602001600020819055506008600085815260200190815260200160002060035490806001815401808255809150506001900390600052602060002001600090919091909150557f1fdb2b57514e40d9bd4eac67cd2a1204ae80e55cb39f0c7814e949a7e5a1c406336003546005600060035481526020019081526020016000206006015460056000600354815260200190815260200160002060040160405161297e9493929190613a30565b60405180910390a150505050565b60056000858152602001908152602001600020600a0160009054906101000a900460ff16156129f0576040517f08c379a00000000000000000000000000000000000000000000000000000000081526004016129e790613c0f565b60405180910390fd5b600073ffffffffffffffffffffffffffffffffffffffff166005600086815260200190815260200160002060030160009054906101000a900473ffffffffffffffffffffffffffffffffffffffff1673ffffffffffffffffffffffffffffffffffffffff1614612a95576040517f08c379a0000000000000000000000000000000000000000000000000000000008152600401612a8c90613c4f565b60405180910390fd5b6005600085815260200190815260200160002060020160009054906101000a900473ffffffffffffffffffffffffffffffffffffffff1673ffffffffffffffffffffffffffffffffffffffff163373ffffffffffffffffffffffffffffffffffffffff161415612b3a576040517f08c379a0000000000000000000000000000000000000000000000000000000008152600401612b3190613d0f565b60405180910390fd5b8260056000868152602001908152602001600020600801541415612b93576040517f08c379a0000000000000000000000000000000000000000000000000000000008152600401612b8a90613caf565b60405180910390fd5b6005600085815260200190815260200160002060060154670de0b6b3a764000082612bbe9190613f3d565b14612bfe576040517f08c379a0000000000000000000000000000000000000000000000000000000008152600401612bf590613bef565b60405180910390fd5b600260009054906101000a900473ffffffffffffffffffffffffffffffffffffffff1673ffffffffffffffffffffffffffffffffffffffff1663095ea7b333670de0b6b3a764000084612c519190613f3d565b6040518363ffffffff1660e01b8152600401612c6e9291906139bb565b602060405180830381600087803b158015612c8857600080fd5b505af1158015612c9c573d6000803e3d6000fd5b505050506040513d601f19601f82011682018060405250810190612cc091906131ea565b50600260009054906101000a900473ffffffffffffffffffffffffffffffffffffffff1673ffffffffffffffffffffffffffffffffffffffff166323b872dd3330670de0b6b3a764000085612d159190613f3d565b6040518463ffffffff1660e01b8152600401612d3393929190613984565b602060405180830381600087803b158015612d4d57600080fd5b505af1158015612d61573d6000803e3d6000fd5b505050506040513d601f19601f82011682018060405250810190612d8591906131ea565b50336005600086815260200190815260200160002060030160006101000a81548173ffffffffffffffffffffffffffffffffffffffff021916908373ffffffffffffffffffffffffffffffffffffffff160217905550670de0b6b3a764000081612def9190613f3d565b600560008681526020019081526020016000206007018190555082600560008681526020019081526020016000206009018190555081600560008681526020019081526020016000206005019080519060200190612e4e929190612f34565b507f37b69c1fe2df6754f17b0f6813b2db0ddcd96330dc1193ce3a0345131f855bf33360035460056000600354815260200190815260200160002060070154600560006003548152602001908152602001600020600501604051612eb59493929190613a30565b60405180910390a150505050565b60035481565b606060086000838152602001908152602001600020805480602002602001604051908101604052809291908181526020018280548015612f2857602002820191906000526020600020905b815481526020019060010190808311612f14575b50505050509050919050565b828054612f4090614075565b90600052602060002090601f016020900481019282612f625760008555612fa9565b82601f10612f7b57805160ff1916838001178555612fa9565b82800160010185558215612fa9579182015b82811115612fa8578251825591602001919060010190612f8d565b5b509050612fb691906130a9565b5090565b6040518061020001604052806000815260200160008152602001600073ffffffffffffffffffffffffffffffffffffffff168152602001600073ffffffffffffffffffffffffffffffffffffffff168152602001606081526020016060815260200160008152602001600081526020016000815260200160008152602001600015158152602001600015158152602001600073ffffffffffffffffffffffffffffffffffffffff168152602001600073ffffffffffffffffffffffffffffffffffffffff168152602001600073ffffffffffffffffffffffffffffffffffffffff168152602001600081525090565b5b808211156130c25760008160009055506001016130aa565b5090565b60006130d96130d484613dc6565b613da1565b9050828152602081018484840111156130f157600080fd5b6130fc848285614033565b509392505050565b600081359050613113816143d7565b92915050565b600081359050613128816143ee565b92915050565b60008151905061313d816143ee565b92915050565b60008151905061315281614405565b92915050565b600082601f83011261316957600080fd5b81356131798482602086016130c6565b91505092915050565b6000813590506131918161441c565b92915050565b6000815190506131a68161441c565b92915050565b6000815190506131bb81614433565b92915050565b6000602082840312156131d357600080fd5b60006131e184828501613104565b91505092915050565b6000602082840312156131fc57600080fd5b600061320a8482850161312e565b91505092915050565b60006020828403121561322557600080fd5b600082013567ffffffffffffffff81111561323f57600080fd5b61324b84828501613158565b91505092915050565b60006020828403121561326657600080fd5b600061327484828501613182565b91505092915050565b60006020828403121561328f57600080fd5b600061329d84828501613197565b91505092915050565b6000806000606084860312156132bb57600080fd5b60006132c986828701613182565b93505060206132da86828701613182565b92505060406132eb86828701613119565b9150509250925092565b6000806000806080858703121561330b57600080fd5b600061331987828801613182565b945050602061332a87828801613182565b935050604085013567ffffffffffffffff81111561334757600080fd5b61335387828801613158565b925050606061336487828801613182565b91505092959194509250565b600080600080600060a0868803121561338857600080fd5b6000613396888289016131ac565b95505060206133a788828901613143565b94505060406133b888828901613197565b93505060606133c988828901613197565b92505060806133da888289016131ac565b9150509295509295909350565b60006133f383836137d5565b905092915050565b60006134078383613934565b60208301905092915050565b61341c81613fcb565b82525050565b61342b81613fcb565b82525050565b600061343c82613e2c565b6134468185613e67565b93508360208202850161345885613df7565b8060005b85811015613494578484038952815161347585826133e7565b945061348083613e4d565b925060208a0199505060018101905061345c565b50829750879550505050505092915050565b60006134b182613e37565b6134bb8185613e78565b93506134c683613e07565b8060005b838110156134f75781516134de88826133fb565b97506134e983613e5a565b9250506001810190506134ca565b5085935050505092915050565b61350d81613fdd565b82525050565b61351c81613fdd565b82525050565b61352b81613fe9565b82525050565b600061353c82613e42565b6135468185613e89565b9350613556818560208601614042565b61355f816141dd565b840191505092915050565b600061357582613e42565b61357f8185613e9a565b935061358f818560208601614042565b613598816141dd565b840191505092915050565b60006135ae82613e42565b6135b88185613eab565b93506135c8818560208601614042565b80840191505092915050565b600081546135e181614075565b6135eb8186613e9a565b9450600182166000811461360657600181146136185761364b565b60ff198316865260208601935061364b565b61362185613e17565b60005b8381101561364357815481890152600182019150602081019050613624565b808801955050505b50505092915050565b6000613661602683613e9a565b915061366c826141ee565b604082019050919050565b6000613684600e83613e9a565b915061368f8261423d565b602082019050919050565b60006136a7601683613e9a565b91506136b282614266565b602082019050919050565b60006136ca601783613e9a565b91506136d58261428f565b602082019050919050565b60006136ed601883613e9a565b91506136f8826142b8565b602082019050919050565b6000613710601383613e9a565b915061371b826142e1565b602082019050919050565b6000613733601a83613e9a565b915061373e8261430a565b602082019050919050565b6000613756600c83613e9a565b915061376182614333565b602082019050919050565b6000613779601b83613e9a565b91506137848261435c565b602082019050919050565b600061379c601883613e9a565b91506137a782614385565b602082019050919050565b60006137bf601183613e9a565b91506137ca826143ae565b602082019050919050565b6000610200830160008301516137ee6000860182613934565b5060208301516138016020860182613934565b5060408301516138146040860182613413565b5060608301516138276060860182613413565b506080830151848203608086015261383f8282613531565b91505060a083015184820360a08601526138598282613531565b91505060c083015161386e60c0860182613934565b5060e083015161388160e0860182613934565b50610100830151613896610100860182613934565b506101208301516138ab610120860182613934565b506101408301516138c0610140860182613504565b506101608301516138d5610160860182613504565b506101808301516138ea610180860182613413565b506101a08301516138ff6101a0860182613413565b506101c08301516139146101c0860182613413565b506101e08301516139296101e0860182613934565b508091505092915050565b61393d81614013565b82525050565b61394c81614013565b82525050565b600061395e82846135a3565b915081905092915050565b600060208201905061397e6000830184613422565b92915050565b60006060820190506139996000830186613422565b6139a66020830185613422565b6139b36040830184613943565b949350505050565b60006040820190506139d06000830185613422565b6139dd6020830184613943565b9392505050565b60006080820190506139f96000830187613422565b613a066020830186613943565b613a136040830185613943565b8181036060830152613a25818461356a565b905095945050505050565b6000608082019050613a456000830187613422565b613a526020830186613943565b613a5f6040830185613943565b8181036060830152613a7181846135d4565b905095945050505050565b60006020820190508181036000830152613a968184613431565b905092915050565b60006020820190508181036000830152613ab881846134a6565b905092915050565b600061018082019050613ad6600083018f613513565b613ae3602083018e613513565b613af0604083018d613422565b613afd606083018c613943565b613b0a608083018b613422565b613b1760a083018a613422565b81810360c0830152613b29818961356a565b905081810360e0830152613b3d818861356a565b9050613b4d610100830187613943565b613b5b610120830186613943565b613b69610140830185613943565b613b77610160830184613943565b9d9c50505050505050505050505050565b6000602082019050613b9d6000830184613522565b92915050565b60006080820190508181036000830152613bbd818761356a565b9050613bcc6020830186613943565b613bd96040830185613943565b613be66060830184613943565b95945050505050565b60006020820190508181036000830152613c0881613654565b9050919050565b60006020820190508181036000830152613c2881613677565b9050919050565b60006020820190508181036000830152613c488161369a565b9050919050565b60006020820190508181036000830152613c68816136bd565b9050919050565b60006020820190508181036000830152613c88816136e0565b9050919050565b60006020820190508181036000830152613ca881613703565b9050919050565b60006020820190508181036000830152613cc881613726565b9050919050565b60006020820190508181036000830152613ce881613749565b9050919050565b60006020820190508181036000830152613d088161376c565b9050919050565b60006020820190508181036000830152613d288161378f565b9050919050565b60006020820190508181036000830152613d48816137b2565b9050919050565b6000602082019050613d646000830184613943565b92915050565b6000606082019050613d7f6000830186613943565b613d8c6020830185613422565b613d996040830184613943565b949350505050565b6000613dab613dbc565b9050613db782826140a7565b919050565b6000604051905090565b600067ffffffffffffffff821115613de157613de06141ae565b5b613dea826141dd565b9050602081019050919050565b6000819050602082019050919050565b6000819050602082019050919050565b60008190508160005260206000209050919050565b600081519050919050565b600081519050919050565b600081519050919050565b6000602082019050919050565b6000602082019050919050565b600082825260208201905092915050565b600082825260208201905092915050565b600082825260208201905092915050565b600082825260208201905092915050565b600081905092915050565b6000613ec182614013565b9150613ecc83614013565b9250827fffffffffffffffffffffffffffffffffffffffffffffffffffffffffffffffff03821115613f0157613f00614121565b5b828201905092915050565b6000613f1782614013565b9150613f2283614013565b925082613f3257613f31614150565b5b828204905092915050565b6000613f4882614013565b9150613f5383614013565b9250817fffffffffffffffffffffffffffffffffffffffffffffffffffffffffffffffff0483118215151615613f8c57613f8b614121565b5b828202905092915050565b6000613fa282614013565b9150613fad83614013565b925082821015613fc057613fbf614121565b5b828203905092915050565b6000613fd682613ff3565b9050919050565b60008115159050919050565b6000819050919050565b600073ffffffffffffffffffffffffffffffffffffffff82169050919050565b6000819050919050565b600069ffffffffffffffffffff82169050919050565b82818337600083830152505050565b60005b83811015614060578082015181840152602081019050614045565b8381111561406f576000848401525b50505050565b6000600282049050600182168061408d57607f821691505b602082108114156140a1576140a061417f565b5b50919050565b6140b0826141dd565b810181811067ffffffffffffffff821117156140cf576140ce6141ae565b5b80604052505050565b60006140e382614013565b91507fffffffffffffffffffffffffffffffffffffffffffffffffffffffffffffffff82141561411657614115614121565b5b600182019050919050565b7f4e487b7100000000000000000000000000000000000000000000000000000000600052601160045260246000fd5b7f4e487b7100000000000000000000000000000000000000000000000000000000600052601260045260246000fd5b7f4e487b7100000000000000000000000000000000000000000000000000000000600052602260045260246000fd5b7f4e487b7100000000000000000000000000000000000000000000000000000000600052604160045260246000fd5b6000601f19601f8301169050919050565b7f416d6f756e742073686f756c6420626520746865206d61746368696e6720626560008201527f74206f6e6c790000000000000000000000000000000000000000000000000000602082015250565b7f4d617463682066696e6973686564000000000000000000000000000000000000600082015250565b7f556e617574686f72697a65642057697468647261776c00000000000000000000600082015250565b7f42657420736c6f7420616c726561647920626f6f6b6564000000000000000000600082015250565b7f416d6f756e7420616c72656164792077697468647261776e0000000000000000600082015250565b7f6d617463685f6e6f745f636f6d706c6574656400000000000000000000000000600082015250565b7f63616e6e6f7420626574206f6e2073616d65206f7574636f6d65000000000000600082015250565b7f756e617574686f72697a65640000000000000000000000000000000000000000600082015250565b7f43616e6e6f742068617665207a65726f2062657420616d6f756e740000000000600082015250565b7f43616e6e6f74206a6f696e20776974682073616d652049440000000000000000600082015250565b7f47616d65206e6f742046696e6973686564000000000000000000000000000000600082015250565b6143e081613fcb565b81146143eb57600080fd5b50565b6143f781613fdd565b811461440257600080fd5b50565b61440e81613fe9565b811461441957600080fd5b50565b61442581614013565b811461443057600080fd5b50565b61443c8161401d565b811461444757600080fd5b5056fea2646970667358221220b7a907d16fe7da9a5885f074832df7dca51ae6ec69b33fa2d65fef350c68be2b64736f6c63430008040033",
  "linkReferences": {},
  "deployedLinkReferences": {}
}