{
  "_format": "hh-sol-artifact-1",
  "contractName": "SpotoCoin",
  "sourceName": "contracts/SpotoCoin.sol",
  "abi": [
    {
      "inputs": [
        {
          "internalType": "address payable",
          "name": "treasury",
          "type": "address"
        }
      ],
      "stateMutability": "nonpayable",
      "type": "constructor"
    },
    {
      "anonymous": false,
      "inputs": [
        {
          "indexed": true,
          "internalType": "address",
          "name": "owner",
          "type": "address"
        },
        {
          "indexed": true,
          "internalType": "address",
          "name": "spender",
          "type": "address"
        },
        {
          "indexed": false,
          "internalType": "uint256",
          "name": "value",
          "type": "uint256"
        }
      ],
      "name": "Approval",
      "type": "event"
    },
    {
      "anonymous": false,
      "inputs": [],
      "name": "FundsMoved",
      "type": "event"
    },
    {
      "anonymous": false,
      "inputs": [],
      "name": "OwnerAction",
      "type": "event"
    },
    {
      "anonymous": false,
      "inputs": [
        {
          "indexed": true,
          "internalType": "address",
          "name": "_account",
          "type": "address"
        },
        {
          "indexed": false,
          "internalType": "uint256",
          "name": "amount",
          "type": "uint256"
        }
      ],
      "name": "TokensBought",
      "type": "event"
    },
    {
      "anonymous": false,
      "inputs": [
        {
          "indexed": true,
          "internalType": "address",
          "name": "from",
          "type": "address"
        },
        {
          "indexed": true,
          "internalType": "address",
          "name": "to",
          "type": "address"
        },
        {
          "indexed": false,
          "internalType": "uint256",
          "name": "value",
          "type": "uint256"
        }
      ],
      "name": "Transfer",
      "type": "event"
    },
    {
      "inputs": [],
      "name": "MAX_SUPPLY",
      "outputs": [
        {
          "internalType": "uint256",
          "name": "",
          "type": "uint256"
        }
      ],
      "stateMutability": "view",
      "type": "function"
    },
    {
      "inputs": [],
      "name": "TAX",
      "outputs": [
        {
          "internalType": "uint256",
          "name": "",
          "type": "uint256"
        }
      ],
      "stateMutability": "view",
      "type": "function"
    },
    {
      "inputs": [
        {
          "internalType": "address",
          "name": "account",
          "type": "address"
        }
      ],
      "name": "addToWhitelist",
      "outputs": [],
      "stateMutability": "nonpayable",
      "type": "function"
    },
    {
      "inputs": [],
      "name": "advancePhase",
      "outputs": [],
      "stateMutability": "nonpayable",
      "type": "function"
    },
    {
      "inputs": [
        {
          "internalType": "address",
          "name": "owner",
          "type": "address"
        },
        {
          "internalType": "address",
          "name": "spender",
          "type": "address"
        }
      ],
      "name": "allowance",
      "outputs": [
        {
          "internalType": "uint256",
          "name": "",
          "type": "uint256"
        }
      ],
      "stateMutability": "view",
      "type": "function"
    },
    {
      "inputs": [
        {
          "internalType": "address",
          "name": "spender",
          "type": "address"
        },
        {
          "internalType": "uint256",
          "name": "amount",
          "type": "uint256"
        }
      ],
      "name": "approve",
      "outputs": [
        {
          "internalType": "bool",
          "name": "",
          "type": "bool"
        }
      ],
      "stateMutability": "nonpayable",
      "type": "function"
    },
    {
      "inputs": [
        {
          "internalType": "address",
          "name": "account",
          "type": "address"
        }
      ],
      "name": "balanceOf",
      "outputs": [
        {
          "internalType": "uint256",
          "name": "",
          "type": "uint256"
        }
      ],
      "stateMutability": "view",
      "type": "function"
    },
    {
      "inputs": [
        {
          "internalType": "address",
          "name": "",
          "type": "address"
        }
      ],
      "name": "balancesToClaim",
      "outputs": [
        {
          "internalType": "uint256",
          "name": "",
          "type": "uint256"
        }
      ],
      "stateMutability": "view",
      "type": "function"
    },
    {
      "inputs": [
        {
          "internalType": "address",
          "name": "account",
          "type": "address"
        },
        {
          "internalType": "uint256",
          "name": "amount",
          "type": "uint256"
        }
      ],
      "name": "burn",
      "outputs": [],
      "stateMutability": "nonpayable",
      "type": "function"
    },
    {
      "inputs": [
        {
          "internalType": "address",
          "name": "account",
          "type": "address"
        }
      ],
      "name": "canUserContribute",
      "outputs": [
        {
          "internalType": "bool",
          "name": "",
          "type": "bool"
        }
      ],
      "stateMutability": "view",
      "type": "function"
    },
    {
      "inputs": [],
      "name": "claimTokens",
      "outputs": [],
      "stateMutability": "nonpayable",
      "type": "function"
    },
    {
      "inputs": [],
      "name": "contribute",
      "outputs": [],
      "stateMutability": "payable",
      "type": "function"
    },
    {
      "inputs": [
        {
          "internalType": "address",
          "name": "",
          "type": "address"
        }
      ],
      "name": "contributionsOf",
      "outputs": [
        {
          "internalType": "uint256",
          "name": "",
          "type": "uint256"
        }
      ],
      "stateMutability": "view",
      "type": "function"
    },
    {
      "inputs": [],
      "name": "currentPhase",
      "outputs": [
        {
          "internalType": "enum SpotoCoin.Phase",
          "name": "",
          "type": "uint8"
        }
      ],
      "stateMutability": "view",
      "type": "function"
    },
    {
      "inputs": [],
      "name": "decimals",
      "outputs": [
        {
          "internalType": "uint8",
          "name": "",
          "type": "uint8"
        }
      ],
      "stateMutability": "view",
      "type": "function"
    },
    {
      "inputs": [
        {
          "internalType": "address",
          "name": "spender",
          "type": "address"
        },
        {
          "internalType": "uint256",
          "name": "subtractedValue",
          "type": "uint256"
        }
      ],
      "name": "decreaseAllowance",
      "outputs": [
        {
          "internalType": "bool",
          "name": "",
          "type": "bool"
        }
      ],
      "stateMutability": "nonpayable",
      "type": "function"
    },
    {
      "inputs": [],
      "name": "fundsAlreadyMoved",
      "outputs": [
        {
          "internalType": "bool",
          "name": "",
          "type": "bool"
        }
      ],
      "stateMutability": "view",
      "type": "function"
    },
    {
      "inputs": [
        {
          "internalType": "address",
          "name": "spender",
          "type": "address"
        },
        {
          "internalType": "uint256",
          "name": "addedValue",
          "type": "uint256"
        }
      ],
      "name": "increaseAllowance",
      "outputs": [
        {
          "internalType": "bool",
          "name": "",
          "type": "bool"
        }
      ],
      "stateMutability": "nonpayable",
      "type": "function"
    },
    {
      "inputs": [
        {
          "internalType": "address",
          "name": "_owner",
          "type": "address"
        },
        {
          "internalType": "address",
          "name": "_spender",
          "type": "address"
        },
        {
          "internalType": "uint256",
          "name": "_amount",
          "type": "uint256"
        }
      ],
      "name": "increaseContractAllowance",
      "outputs": [
        {
          "internalType": "bool",
          "name": "",
          "type": "bool"
        }
      ],
      "stateMutability": "nonpayable",
      "type": "function"
    },
    {
      "inputs": [],
      "name": "isContractPaused",
      "outputs": [
        {
          "internalType": "bool",
          "name": "",
          "type": "bool"
        }
      ],
      "stateMutability": "view",
      "type": "function"
    },
    {
      "inputs": [],
      "name": "isTaxOn",
      "outputs": [
        {
          "internalType": "bool",
          "name": "",
          "type": "bool"
        }
      ],
      "stateMutability": "view",
      "type": "function"
    },
    {
      "inputs": [
        {
          "internalType": "address",
          "name": "",
          "type": "address"
        }
      ],
      "name": "isWhitelisted",
      "outputs": [
        {
          "internalType": "bool",
          "name": "",
          "type": "bool"
        }
      ],
      "stateMutability": "view",
      "type": "function"
    },
    {
      "inputs": [
        {
          "internalType": "address",
          "name": "account",
          "type": "address"
        },
        {
          "internalType": "uint256",
          "name": "amount",
          "type": "uint256"
        }
      ],
      "name": "mint",
      "outputs": [],
      "stateMutability": "nonpayable",
      "type": "function"
    },
    {
      "inputs": [],
      "name": "name",
      "outputs": [
        {
          "internalType": "string",
          "name": "",
          "type": "string"
        }
      ],
      "stateMutability": "view",
      "type": "function"
    },
    {
      "inputs": [],
      "name": "owner",
      "outputs": [
        {
          "internalType": "address",
          "name": "",
          "type": "address"
        }
      ],
      "stateMutability": "view",
      "type": "function"
    },
    {
      "inputs": [
        {
          "internalType": "contract LiquidityPool",
          "name": "liquidityPool",
          "type": "address"
        }
      ],
      "name": "sendLiquidityToLPContract",
      "outputs": [],
      "stateMutability": "nonpayable",
      "type": "function"
    },
    {
      "inputs": [
        {
          "internalType": "address",
          "name": "_spotoRouter",
          "type": "address"
        }
      ],
      "name": "setRouterAddress",
      "outputs": [],
      "stateMutability": "nonpayable",
      "type": "function"
    },
    {
      "inputs": [],
      "name": "spotoRouter",
      "outputs": [
        {
          "internalType": "address",
          "name": "",
          "type": "address"
        }
      ],
      "stateMutability": "view",
      "type": "function"
    },
    {
      "inputs": [],
      "name": "symbol",
      "outputs": [
        {
          "internalType": "string",
          "name": "",
          "type": "string"
        }
      ],
      "stateMutability": "view",
      "type": "function"
    },
    {
      "inputs": [],
      "name": "togglePauseContract",
      "outputs": [],
      "stateMutability": "nonpayable",
      "type": "function"
    },
    {
      "inputs": [],
      "name": "toggleTax",
      "outputs": [],
      "stateMutability": "nonpayable",
      "type": "function"
    },
    {
      "inputs": [],
      "name": "totalContributed",
      "outputs": [
        {
          "internalType": "uint256",
          "name": "",
          "type": "uint256"
        }
      ],
      "stateMutability": "view",
      "type": "function"
    },
    {
      "inputs": [],
      "name": "totalSupply",
      "outputs": [
        {
          "internalType": "uint256",
          "name": "",
          "type": "uint256"
        }
      ],
      "stateMutability": "view",
      "type": "function"
    },
    {
      "inputs": [
        {
          "internalType": "address",
          "name": "recipient",
          "type": "address"
        },
        {
          "internalType": "uint256",
          "name": "amount",
          "type": "uint256"
        }
      ],
      "name": "transfer",
      "outputs": [
        {
          "internalType": "bool",
          "name": "",
          "type": "bool"
        }
      ],
      "stateMutability": "nonpayable",
      "type": "function"
    },
    {
      "inputs": [
        {
          "internalType": "address",
          "name": "sender",
          "type": "address"
        },
        {
          "internalType": "address",
          "name": "recipient",
          "type": "address"
        },
        {
          "internalType": "uint256",
          "name": "amount",
          "type": "uint256"
        }
      ],
      "name": "transferFrom",
      "outputs": [
        {
          "internalType": "bool",
          "name": "",
          "type": "bool"
        }
      ],
      "stateMutability": "nonpayable",
      "type": "function"
    },
    {
      "inputs": [],
      "name": "treasuryWallet",
      "outputs": [
        {
          "internalType": "address payable",
          "name": "",
          "type": "address"
        }
      ],
      "stateMutability": "view",
      "type": "function"
    }
  ],
  "bytecode": "0x60806040526000600560006101000a81548160ff0219169083600281111562000051577f4e487b7100000000000000000000000000000000000000000000000000000000600052602160045260246000fd5b02179055506001600860026101000a81548160ff0219169083151502179055503480156200007e57600080fd5b50604051620047db380380620047db8339818101604052810190620000a49190620004e2565b6040518060400160405280600a81526020017f53706f746f20436f696e000000000000000000000000000000000000000000008152506040518060400160405280600381526020017f53505400000000000000000000000000000000000000000000000000000000008152508160039080519060200190620001289291906200041b565b508060049080519060200190620001419291906200041b565b505050620001546200028f60201b60201c565b600a6200016291906200064e565b6207a1206200017291906200078b565b6006819055506200018c306006546200029860201b60201c565b33600860036101000a81548173ffffffffffffffffffffffffffffffffffffffff021916908373ffffffffffffffffffffffffffffffffffffffff16021790555080600960006101000a81548173ffffffffffffffffffffffffffffffffffffffff021916908373ffffffffffffffffffffffffffffffffffffffff1602179055506001600d6000600860039054906101000a900473ffffffffffffffffffffffffffffffffffffffff1673ffffffffffffffffffffffffffffffffffffffff1673ffffffffffffffffffffffffffffffffffffffff16815260200190815260200160002060006101000a81548160ff021916908315150217905550506200091b565b60006012905090565b600073ffffffffffffffffffffffffffffffffffffffff168273ffffffffffffffffffffffffffffffffffffffff1614156200030b576040517f08c379a0000000000000000000000000000000000000000000000000000000008152600401620003029062000546565b60405180910390fd5b6200031f600083836200041160201b60201c565b806002600082825462000333919062000596565b92505081905550806000808473ffffffffffffffffffffffffffffffffffffffff1673ffffffffffffffffffffffffffffffffffffffff16815260200190815260200160002060008282546200038a919062000596565b925050819055508173ffffffffffffffffffffffffffffffffffffffff16600073ffffffffffffffffffffffffffffffffffffffff167fddf252ad1be2c89b69c2b068fc378daa952ba7f163c4a11628f55a4df523b3ef83604051620003f1919062000568565b60405180910390a36200040d600083836200041660201b60201c565b5050565b505050565b505050565b828054620004299062000837565b90600052602060002090601f0160209004810192826200044d576000855562000499565b82601f106200046857805160ff191683800117855562000499565b8280016001018555821562000499579182015b82811115620004985782518255916020019190600101906200047b565b5b509050620004a89190620004ac565b5090565b5b80821115620004c7576000816000905550600101620004ad565b5090565b600081519050620004dc8162000901565b92915050565b600060208284031215620004f557600080fd5b60006200050584828501620004cb565b91505092915050565b60006200051d601f8362000585565b91506200052a82620008d8565b602082019050919050565b620005408162000820565b82525050565b6000602082019050818103600083015262000561816200050e565b9050919050565b60006020820190506200057f600083018462000535565b92915050565b600082825260208201905092915050565b6000620005a38262000820565b9150620005b08362000820565b9250827fffffffffffffffffffffffffffffffffffffffffffffffffffffffffffffffff03821115620005e857620005e76200086d565b5b828201905092915050565b6000808291508390505b600185111562000645578086048111156200061d576200061c6200086d565b5b60018516156200062d5780820291505b80810290506200063d85620008cb565b9450620005fd565b94509492505050565b60006200065b8262000820565b915062000668836200082a565b9250620006977fffffffffffffffffffffffffffffffffffffffffffffffffffffffffffffffff84846200069f565b905092915050565b600082620006b1576001905062000784565b81620006c1576000905062000784565b8160018114620006da5760028114620006e5576200071b565b600191505062000784565b60ff841115620006fa57620006f96200086d565b5b8360020a9150848211156200071457620007136200086d565b5b5062000784565b5060208310610133831016604e8410600b8410161715620007555782820a9050838111156200074f576200074e6200086d565b5b62000784565b620007648484846001620005f3565b925090508184048111156200077e576200077d6200086d565b5b81810290505b9392505050565b6000620007988262000820565b9150620007a58362000820565b9250817fffffffffffffffffffffffffffffffffffffffffffffffffffffffffffffffff0483118215151615620007e157620007e06200086d565b5b828202905092915050565b6000620007f98262000800565b9050919050565b600073ffffffffffffffffffffffffffffffffffffffff82169050919050565b6000819050919050565b600060ff82169050919050565b600060028204905060018216806200085057607f821691505b602082108114156200086757620008666200089c565b5b50919050565b7f4e487b7100000000000000000000000000000000000000000000000000000000600052601160045260246000fd5b7f4e487b7100000000000000000000000000000000000000000000000000000000600052602260045260246000fd5b60008160011c9050919050565b7f45524332303a206d696e7420746f20746865207a65726f206164647265737300600082015250565b6200090c81620007ec565b81146200091857600080fd5b50565b613eb0806200092b6000396000f3fe60806040526004361061020f5760003560e01c806365acacfe11610118578063be07d17d116100a0578063d7bb99ba1161006f578063d7bb99ba146107a5578063d83a2bf3146107af578063dd62ed3e146107ec578063e43252d714610829578063f4ab2928146108525761020f565b8063be07d17d14610721578063be25a7181461074c578063c7d4d15314610763578063d1cabc351461078e5761020f565b806395d89b41116100e757806395d89b41146106165780639dc29fac14610641578063a457c2d71461066a578063a9059cbb146106a7578063b70f21c7146106e45761020f565b806365acacfe1461055857806368f58b031461058357806370a08231146105ae5780638da5cb5b146105eb5761020f565b806332cb6b0c1161019b57806340c10f191161016a57806340c10f191461048757806341cb87fc146104b05780634626402b146104d957806348c54b9d1461050457806359357be11461051b5761020f565b806332cb6b0c146103a557806339509351146103d05780633af0dbc11461040d5780633af32abf1461044a5761020f565b806310bf6029116101e257806310bf6029146102d25780631690bb4e146102e957806318160ddd1461031257806323b872dd1461033d578063313ce5671461037a5761020f565b8063023f414714610214578063055ad42e1461023f57806306fdde031461026a578063095ea7b314610295575b600080fd5b34801561022057600080fd5b5061022961087d565b6040516102369190613441565b60405180910390f35b34801561024b57600080fd5b50610254610883565b6040516102619190613144565b60405180910390f35b34801561027657600080fd5b5061027f610896565b60405161028c919061315f565b60405180910390f35b3480156102a157600080fd5b506102bc60048036038101906102b79190612cf9565b610928565b6040516102c99190613129565b60405180910390f35b3480156102de57600080fd5b506102e7610946565b005b3480156102f557600080fd5b50610310600480360381019061030b9190612d35565b610a2e565b005b34801561031e57600080fd5b50610327610c84565b6040516103349190613441565b60405180910390f35b34801561034957600080fd5b50610364600480360381019061035f9190612caa565b610c8e565b6040516103719190613129565b60405180910390f35b34801561038657600080fd5b5061038f610d86565b60405161039c9190613485565b60405180910390f35b3480156103b157600080fd5b506103ba610d8f565b6040516103c79190613441565b60405180910390f35b3480156103dc57600080fd5b506103f760048036038101906103f29190612cf9565b610d95565b6040516104049190613129565b60405180910390f35b34801561041957600080fd5b50610434600480360381019061042f9190612c45565b610e41565b6040516104419190613441565b60405180910390f35b34801561045657600080fd5b50610471600480360381019061046c9190612c45565b610e59565b60405161047e9190613129565b60405180910390f35b34801561049357600080fd5b506104ae60048036038101906104a99190612cf9565b610e79565b005b3480156104bc57600080fd5b506104d760048036038101906104d29190612c45565b610ffc565b005b3480156104e557600080fd5b506104ee611161565b6040516104fb919061310e565b60405180910390f35b34801561051057600080fd5b50610519611187565b005b34801561052757600080fd5b50610542600480360381019061053d9190612c45565b611401565b60405161054f9190613129565b60405180910390f35b34801561056457600080fd5b5061056d6114e2565b60405161057a9190613129565b60405180910390f35b34801561058f57600080fd5b506105986114f5565b6040516105a59190613441565b60405180910390f35b3480156105ba57600080fd5b506105d560048036038101906105d09190612c45565b6114fa565b6040516105e29190613441565b60405180910390f35b3480156105f757600080fd5b50610600611542565b60405161060d91906130f3565b60405180910390f35b34801561062257600080fd5b5061062b611568565b604051610638919061315f565b60405180910390f35b34801561064d57600080fd5b5061066860048036038101906106639190612cf9565b6115fa565b005b34801561067657600080fd5b50610691600480360381019061068c9190612cf9565b6116b6565b60405161069e9190613129565b60405180910390f35b3480156106b357600080fd5b506106ce60048036038101906106c99190612cf9565b6117a1565b6040516106db9190613129565b60405180910390f35b3480156106f057600080fd5b5061070b60048036038101906107069190612c45565b6117bf565b6040516107189190613441565b60405180910390f35b34801561072d57600080fd5b506107366117d7565b6040516107439190613129565b60405180910390f35b34801561075857600080fd5b506107616117ea565b005b34801561076f57600080fd5b50610778611a45565b60405161078591906130f3565b60405180910390f35b34801561079a57600080fd5b506107a3611a6b565b005b6107ad611b53565b005b3480156107bb57600080fd5b506107d660048036038101906107d19190612caa565b611e4d565b6040516107e39190613129565b60405180910390f35b3480156107f857600080fd5b50610813600480360381019061080e9190612c6e565b611f09565b6040516108209190613441565b60405180910390f35b34801561083557600080fd5b50610850600480360381019061084b9190612c45565b611f90565b005b34801561085e57600080fd5b5061086761207b565b6040516108749190613129565b60405180910390f35b60075481565b600560009054906101000a900460ff1681565b6060600380546108a590613813565b80601f01602080910402602001604051908101604052809291908181526020018280546108d190613813565b801561091e5780601f106108f35761010080835404028352916020019161091e565b820191906000526020600020905b81548152906001019060200180831161090157829003601f168201915b5050505050905090565b600061093c61093561208e565b8484612096565b6001905092915050565b600860039054906101000a900473ffffffffffffffffffffffffffffffffffffffff1673ffffffffffffffffffffffffffffffffffffffff163373ffffffffffffffffffffffffffffffffffffffff16146109d6576040517f08c379a00000000000000000000000000000000000000000000000000000000081526004016109cd90613201565b60405180910390fd5b600860029054906101000a900460ff1615600860026101000a81548160ff0219169083151502179055507fe454716ccd4789e6869664dc631a651dcb83a4552bfdf7afda42167120c356d360405160405180910390a1565b600860039054906101000a900473ffffffffffffffffffffffffffffffffffffffff1673ffffffffffffffffffffffffffffffffffffffff163373ffffffffffffffffffffffffffffffffffffffff1614610abe576040517f08c379a0000000000000000000000000000000000000000000000000000000008152600401610ab590613201565b60405180910390fd5b600860019054906101000a900460ff1615610b0e576040517f08c379a0000000000000000000000000000000000000000000000000000000008152600401610b0590613261565b60405180910390fd5b600280811115610b47577f4e487b7100000000000000000000000000000000000000000000000000000000600052602160045260246000fd5b600560009054906101000a900460ff166002811115610b8f577f4e487b7100000000000000000000000000000000000000000000000000000000600052602160045260246000fd5b14610bcf576040517f08c379a0000000000000000000000000000000000000000000000000000000008152600401610bc6906132a1565b60405180910390fd5b6001600860016101000a81548160ff02191690831515021790555060006005600754610bfb91906136b4565b9050610c08308383612261565b8173ffffffffffffffffffffffffffffffffffffffff16636e553f6560075483306040518463ffffffff1660e01b8152600401610c4692919061345c565b6000604051808303818588803b158015610c5f57600080fd5b505af1158015610c73573d6000803e3d6000fd5b5050505050610c806124e2565b5050565b6000600254905090565b6000610c9b84848461254b565b6000600160008673ffffffffffffffffffffffffffffffffffffffff1673ffffffffffffffffffffffffffffffffffffffff1681526020019081526020016000206000610ce661208e565b73ffffffffffffffffffffffffffffffffffffffff1673ffffffffffffffffffffffffffffffffffffffff16815260200190815260200160002054905082811015610d66576040517f08c379a0000000000000000000000000000000000000000000000000000000008152600401610d5d90613301565b60405180910390fd5b610d7a85610d7261208e565b858403612096565b60019150509392505050565b60006012905090565b60065481565b6000610e37610da261208e565b848460016000610db061208e565b73ffffffffffffffffffffffffffffffffffffffff1673ffffffffffffffffffffffffffffffffffffffff16815260200190815260200160002060008873ffffffffffffffffffffffffffffffffffffffff1673ffffffffffffffffffffffffffffffffffffffff16815260200190815260200160002054610e3291906134bc565b612096565b6001905092915050565b600c6020528060005260406000206000915090505481565b600d6020528060005260406000206000915054906101000a900460ff1681565b600860039054906101000a900473ffffffffffffffffffffffffffffffffffffffff1673ffffffffffffffffffffffffffffffffffffffff163373ffffffffffffffffffffffffffffffffffffffff1614610f09576040517f08c379a0000000000000000000000000000000000000000000000000000000008152600401610f0090613201565b60405180910390fd5b600073ffffffffffffffffffffffffffffffffffffffff168273ffffffffffffffffffffffffffffffffffffffff161415610f79576040517f08c379a0000000000000000000000000000000000000000000000000000000008152600401610f7090613421565b60405180910390fd5b60065481610f85610c84565b610f8f91906134bc565b1115610fd0576040517f08c379a0000000000000000000000000000000000000000000000000000000008152600401610fc7906133e1565b60405180910390fd5b610ff882610fdc610d86565b600a610fe89190613596565b83610ff391906136b4565b6125cd565b5050565b600860039054906101000a900473ffffffffffffffffffffffffffffffffffffffff1673ffffffffffffffffffffffffffffffffffffffff163373ffffffffffffffffffffffffffffffffffffffff161461108c576040517f08c379a000000000000000000000000000000000000000000000000000000000815260040161108390613201565b60405180910390fd5b600073ffffffffffffffffffffffffffffffffffffffff16600a60009054906101000a900473ffffffffffffffffffffffffffffffffffffffff1673ffffffffffffffffffffffffffffffffffffffff161461111d576040517f08c379a000000000000000000000000000000000000000000000000000000000815260040161111490613361565b60405180910390fd5b80600a60006101000a81548173ffffffffffffffffffffffffffffffffffffffff021916908373ffffffffffffffffffffffffffffffffffffffff16021790555050565b600960009054906101000a900473ffffffffffffffffffffffffffffffffffffffff1681565b600860009054906101000a900460ff16156111d7576040517f08c379a00000000000000000000000000000000000000000000000000000000081526004016111ce906131a1565b60405180910390fd5b600860019054906101000a900460ff1615611227576040517f08c379a000000000000000000000000000000000000000000000000000000000815260040161121e90613261565b60405180910390fd5b600280811115611260577f4e487b7100000000000000000000000000000000000000000000000000000000600052602160045260246000fd5b600560009054906101000a900460ff1660028111156112a8577f4e487b7100000000000000000000000000000000000000000000000000000000600052602160045260246000fd5b146112e8576040517f08c379a00000000000000000000000000000000000000000000000000000000081526004016112df906132a1565b60405180910390fd5b6000600b60003373ffffffffffffffffffffffffffffffffffffffff1673ffffffffffffffffffffffffffffffffffffffff168152602001908152602001600020541161136a576040517f08c379a0000000000000000000000000000000000000000000000000000000008152600401611361906132e1565b60405180910390fd5b6000600b60003373ffffffffffffffffffffffffffffffffffffffff1673ffffffffffffffffffffffffffffffffffffffff1681526020019081526020016000205490506000600b60003373ffffffffffffffffffffffffffffffffffffffff1673ffffffffffffffffffffffffffffffffffffffff168152602001908152602001600020819055506113fe303383612261565b50565b6000600d60008373ffffffffffffffffffffffffffffffffffffffff1673ffffffffffffffffffffffffffffffffffffffff16815260200190815260200160002060009054906101000a900460ff16806114db575060006002811115611490577f4e487b7100000000000000000000000000000000000000000000000000000000600052602160045260246000fd5b600560009054906101000a900460ff1660028111156114d8577f4e487b7100000000000000000000000000000000000000000000000000000000600052602160045260246000fd5b14155b9050919050565b600860019054906101000a900460ff1681565b600281565b60008060008373ffffffffffffffffffffffffffffffffffffffff1673ffffffffffffffffffffffffffffffffffffffff168152602001908152602001600020549050919050565b600860039054906101000a900473ffffffffffffffffffffffffffffffffffffffff1681565b60606004805461157790613813565b80601f01602080910402602001604051908101604052809291908181526020018280546115a390613813565b80156115f05780601f106115c5576101008083540402835291602001916115f0565b820191906000526020600020905b8154815290600101906020018083116115d357829003601f168201915b5050505050905090565b600860039054906101000a900473ffffffffffffffffffffffffffffffffffffffff1673ffffffffffffffffffffffffffffffffffffffff163373ffffffffffffffffffffffffffffffffffffffff161461168a576040517f08c379a000000000000000000000000000000000000000000000000000000000815260040161168190613201565b60405180910390fd5b6116b282611696610d86565b600a6116a29190613596565b836116ad91906136b4565b61272d565b5050565b600080600160006116c561208e565b73ffffffffffffffffffffffffffffffffffffffff1673ffffffffffffffffffffffffffffffffffffffff16815260200190815260200160002060008573ffffffffffffffffffffffffffffffffffffffff1673ffffffffffffffffffffffffffffffffffffffff16815260200190815260200160002054905082811015611782576040517f08c379a000000000000000000000000000000000000000000000000000000000815260040161177990613401565b60405180910390fd5b61179661178d61208e565b85858403612096565b600191505092915050565b60006117b56117ae61208e565b848461254b565b6001905092915050565b600b6020528060005260406000206000915090505481565b600860029054906101000a900460ff1681565b600860039054906101000a900473ffffffffffffffffffffffffffffffffffffffff1673ffffffffffffffffffffffffffffffffffffffff163373ffffffffffffffffffffffffffffffffffffffff161461187a576040517f08c379a000000000000000000000000000000000000000000000000000000000815260040161187190613201565b60405180910390fd5b6002808111156118b3577f4e487b7100000000000000000000000000000000000000000000000000000000600052602160045260246000fd5b600560009054906101000a900460ff1660028111156118fb577f4e487b7100000000000000000000000000000000000000000000000000000000600052602160045260246000fd5b141561193c576040517f08c379a000000000000000000000000000000000000000000000000000000000815260040161193390613281565b60405180910390fd5b6001600560009054906101000a900460ff166002811115611986577f4e487b7100000000000000000000000000000000000000000000000000000000600052602160045260246000fd5b61199091906134bc565b60028111156119c8577f4e487b7100000000000000000000000000000000000000000000000000000000600052602160045260246000fd5b600560006101000a81548160ff02191690836002811115611a12577f4e487b7100000000000000000000000000000000000000000000000000000000600052602160045260246000fd5b02179055507fe454716ccd4789e6869664dc631a651dcb83a4552bfdf7afda42167120c356d360405160405180910390a1565b600a60009054906101000a900473ffffffffffffffffffffffffffffffffffffffff1681565b600860039054906101000a900473ffffffffffffffffffffffffffffffffffffffff1673ffffffffffffffffffffffffffffffffffffffff163373ffffffffffffffffffffffffffffffffffffffff1614611afb576040517f08c379a0000000000000000000000000000000000000000000000000000000008152600401611af290613201565b60405180910390fd5b600860009054906101000a900460ff1615600860006101000a81548160ff0219169083151502179055507fe454716ccd4789e6869664dc631a651dcb83a4552bfdf7afda42167120c356d360405160405180910390a1565b600860009054906101000a900460ff1615611ba3576040517f08c379a0000000000000000000000000000000000000000000000000000000008152600401611b9a906131a1565b60405180910390fd5b600860019054906101000a900460ff1615611bf3576040517f08c379a0000000000000000000000000000000000000000000000000000000008152600401611bea90613261565b60405180910390fd5b611bfc33611401565b611c3b576040517f08c379a0000000000000000000000000000000000000000000000000000000008152600401611c32906132c1565b60405180910390fd5b611c43612904565b34600c60003373ffffffffffffffffffffffffffffffffffffffff1673ffffffffffffffffffffffffffffffffffffffff16815260200190815260200160002054611c8e91906134bc565b1115611ccf576040517f08c379a0000000000000000000000000000000000000000000000000000000008152600401611cc6906133a1565b60405180910390fd5b611cd7612a3e565b34600754611ce591906134bc565b1115611d26576040517f08c379a0000000000000000000000000000000000000000000000000000000008152600401611d1d90613241565b60405180910390fd5b6000600534611d3591906136b4565b905080600b60003373ffffffffffffffffffffffffffffffffffffffff1673ffffffffffffffffffffffffffffffffffffffff1681526020019081526020016000206000828254611d8691906134bc565b9250508190555034600c60003373ffffffffffffffffffffffffffffffffffffffff1673ffffffffffffffffffffffffffffffffffffffff1681526020019081526020016000206000828254611ddc91906134bc565b925050819055503460076000828254611df591906134bc565b925050819055503373ffffffffffffffffffffffffffffffffffffffff167f745f661b8143944fb883f50694ebed3a871e43c451d9d4bf4648a9d551d7e47a82604051611e429190613441565b60405180910390a250565b6000600a60009054906101000a900473ffffffffffffffffffffffffffffffffffffffff1673ffffffffffffffffffffffffffffffffffffffff163373ffffffffffffffffffffffffffffffffffffffff1614611edf576040517f08c379a0000000000000000000000000000000000000000000000000000000008152600401611ed690613321565b60405180910390fd5b611efe848484611eef3330611f09565b611ef991906134bc565b612096565b600190509392505050565b6000600160008473ffffffffffffffffffffffffffffffffffffffff1673ffffffffffffffffffffffffffffffffffffffff16815260200190815260200160002060008373ffffffffffffffffffffffffffffffffffffffff1673ffffffffffffffffffffffffffffffffffffffff16815260200190815260200160002054905092915050565b600860039054906101000a900473ffffffffffffffffffffffffffffffffffffffff1673ffffffffffffffffffffffffffffffffffffffff163373ffffffffffffffffffffffffffffffffffffffff1614612020576040517f08c379a000000000000000000000000000000000000000000000000000000000815260040161201790613201565b60405180910390fd5b6001600d60008373ffffffffffffffffffffffffffffffffffffffff1673ffffffffffffffffffffffffffffffffffffffff16815260200190815260200160002060006101000a81548160ff02191690831515021790555050565b600860009054906101000a900460ff1681565b600033905090565b600073ffffffffffffffffffffffffffffffffffffffff168373ffffffffffffffffffffffffffffffffffffffff161415612106576040517f08c379a00000000000000000000000000000000000000000000000000000000081526004016120fd906133c1565b60405180910390fd5b600073ffffffffffffffffffffffffffffffffffffffff168273ffffffffffffffffffffffffffffffffffffffff161415612176576040517f08c379a000000000000000000000000000000000000000000000000000000000815260040161216d906131e1565b60405180910390fd5b80600160008573ffffffffffffffffffffffffffffffffffffffff1673ffffffffffffffffffffffffffffffffffffffff16815260200190815260200160002060008473ffffffffffffffffffffffffffffffffffffffff1673ffffffffffffffffffffffffffffffffffffffff168152602001908152602001600020819055508173ffffffffffffffffffffffffffffffffffffffff168373ffffffffffffffffffffffffffffffffffffffff167f8c5be1e5ebec7d5bd14f71427d1e84f3dd0314c0f7b2291e5b200ac8c7c3b925836040516122549190613441565b60405180910390a3505050565b600073ffffffffffffffffffffffffffffffffffffffff168373ffffffffffffffffffffffffffffffffffffffff1614156122d1576040517f08c379a00000000000000000000000000000000000000000000000000000000081526004016122c890613381565b60405180910390fd5b600073ffffffffffffffffffffffffffffffffffffffff168273ffffffffffffffffffffffffffffffffffffffff161415612341576040517f08c379a000000000000000000000000000000000000000000000000000000000815260040161233890613181565b60405180910390fd5b61234c838383612bfc565b60008060008573ffffffffffffffffffffffffffffffffffffffff1673ffffffffffffffffffffffffffffffffffffffff168152602001908152602001600020549050818110156123d2576040517f08c379a00000000000000000000000000000000000000000000000000000000081526004016123c990613221565b60405180910390fd5b8181036000808673ffffffffffffffffffffffffffffffffffffffff1673ffffffffffffffffffffffffffffffffffffffff16815260200190815260200160002081905550816000808573ffffffffffffffffffffffffffffffffffffffff1673ffffffffffffffffffffffffffffffffffffffff168152602001908152602001600020600082825461246591906134bc565b925050819055508273ffffffffffffffffffffffffffffffffffffffff168473ffffffffffffffffffffffffffffffffffffffff167fddf252ad1be2c89b69c2b068fc378daa952ba7f163c4a11628f55a4df523b3ef846040516124c99190613441565b60405180910390a36124dc848484612c01565b50505050565b60006124ed306114fa565b905061251c30600960009054906101000a900473ffffffffffffffffffffffffffffffffffffffff1683612261565b7fa01103220c31ee0c47e79a81104a3e82740390c1d918ad5638190cc185bd92e160405160405180910390a150565b6000600860029054906101000a900460ff161561257e57606482600261257191906136b4565b61257b9190613512565b90505b6000818361258c919061370e565b9050612599858583612261565b6125c685600960009054906101000a900473ffffffffffffffffffffffffffffffffffffffff1684612261565b5050505050565b600073ffffffffffffffffffffffffffffffffffffffff168273ffffffffffffffffffffffffffffffffffffffff16141561263d576040517f08c379a000000000000000000000000000000000000000000000000000000000815260040161263490613421565b60405180910390fd5b61264960008383612bfc565b806002600082825461265b91906134bc565b92505081905550806000808473ffffffffffffffffffffffffffffffffffffffff1673ffffffffffffffffffffffffffffffffffffffff16815260200190815260200160002060008282546126b091906134bc565b925050819055508173ffffffffffffffffffffffffffffffffffffffff16600073ffffffffffffffffffffffffffffffffffffffff167fddf252ad1be2c89b69c2b068fc378daa952ba7f163c4a11628f55a4df523b3ef836040516127159190613441565b60405180910390a361272960008383612c01565b5050565b600073ffffffffffffffffffffffffffffffffffffffff168273ffffffffffffffffffffffffffffffffffffffff16141561279d576040517f08c379a000000000000000000000000000000000000000000000000000000000815260040161279490613341565b60405180910390fd5b6127a982600083612bfc565b60008060008473ffffffffffffffffffffffffffffffffffffffff1673ffffffffffffffffffffffffffffffffffffffff1681526020019081526020016000205490508181101561282f576040517f08c379a0000000000000000000000000000000000000000000000000000000008152600401612826906131c1565b60405180910390fd5b8181036000808573ffffffffffffffffffffffffffffffffffffffff1673ffffffffffffffffffffffffffffffffffffffff168152602001908152602001600020819055508160026000828254612886919061370e565b92505081905550600073ffffffffffffffffffffffffffffffffffffffff168373ffffffffffffffffffffffffffffffffffffffff167fddf252ad1be2c89b69c2b068fc378daa952ba7f163c4a11628f55a4df523b3ef846040516128eb9190613441565b60405180910390a36128ff83600084612c01565b505050565b600080600281111561293f577f4e487b7100000000000000000000000000000000000000000000000000000000600052602160045260246000fd5b600560009054906101000a900460ff166002811115612987577f4e487b7100000000000000000000000000000000000000000000000000000000600052602160045260246000fd5b141561299e57685150ae84a8cdf000009050612a3b565b600160028111156129d8577f4e487b7100000000000000000000000000000000000000000000000000000000600052602160045260246000fd5b600560009054906101000a900460ff166002811115612a20577f4e487b7100000000000000000000000000000000000000000000000000000000600052602160045260246000fd5b1415612a3757683635c9adc5dea000009050612a3b565b3490505b90565b6000806002811115612a79577f4e487b7100000000000000000000000000000000000000000000000000000000600052602160045260246000fd5b600560009054906101000a900460ff166002811115612ac1577f4e487b7100000000000000000000000000000000000000000000000000000000600052602160045260246000fd5b1415612ad95769032d26d12e980b6000009050612bf9565b60016002811115612b13577f4e487b7100000000000000000000000000000000000000000000000000000000600052602160045260246000fd5b600560009054906101000a900460ff166002811115612b5b577f4e487b7100000000000000000000000000000000000000000000000000000000600052602160045260246000fd5b1480612be55750600280811115612b9b577f4e487b7100000000000000000000000000000000000000000000000000000000600052602160045260246000fd5b600560009054906101000a900460ff166002811115612be3577f4e487b7100000000000000000000000000000000000000000000000000000000600052602160045260246000fd5b145b15612bf85769065a4da25d3016c0000090505b5b90565b505050565b505050565b600081359050612c1581613e35565b92915050565b600081359050612c2a81613e4c565b92915050565b600081359050612c3f81613e63565b92915050565b600060208284031215612c5757600080fd5b6000612c6584828501612c06565b91505092915050565b60008060408385031215612c8157600080fd5b6000612c8f85828601612c06565b9250506020612ca085828601612c06565b9150509250929050565b600080600060608486031215612cbf57600080fd5b6000612ccd86828701612c06565b9350506020612cde86828701612c06565b9250506040612cef86828701612c30565b9150509250925092565b60008060408385031215612d0c57600080fd5b6000612d1a85828601612c06565b9250506020612d2b85828601612c30565b9150509250929050565b600060208284031215612d4757600080fd5b6000612d5584828501612c1b565b91505092915050565b612d6781613754565b82525050565b612d7681613742565b82525050565b612d8581613766565b82525050565b612d94816137ce565b82525050565b6000612da5826134a0565b612daf81856134ab565b9350612dbf8185602086016137e0565b612dc881613901565b840191505092915050565b6000612de06023836134ab565b9150612deb8261391f565b604082019050919050565b6000612e03600f836134ab565b9150612e0e8261396e565b602082019050919050565b6000612e266022836134ab565b9150612e3182613997565b604082019050919050565b6000612e496022836134ab565b9150612e54826139e6565b604082019050919050565b6000612e6c600a836134ab565b9150612e7782613a35565b602082019050919050565b6000612e8f6026836134ab565b9150612e9a82613a5e565b604082019050919050565b6000612eb26016836134ab565b9150612ebd82613aad565b602082019050919050565b6000612ed56011836134ab565b9150612ee082613ad6565b602082019050919050565b6000612ef8600a836134ab565b9150612f0382613aff565b602082019050919050565b6000612f1b600e836134ab565b9150612f2682613b28565b602082019050919050565b6000612f3e600b836134ab565b9150612f4982613b51565b602082019050919050565b6000612f616012836134ab565b9150612f6c82613b7a565b602082019050919050565b6000612f846028836134ab565b9150612f8f82613ba3565b604082019050919050565b6000612fa7600b836134ab565b9150612fb282613bf2565b602082019050919050565b6000612fca6021836134ab565b9150612fd582613c1b565b604082019050919050565b6000612fed600a836134ab565b9150612ff882613c6a565b602082019050919050565b60006130106025836134ab565b915061301b82613c93565b604082019050919050565b60006130336021836134ab565b915061303e82613ce2565b604082019050919050565b60006130566024836134ab565b915061306182613d31565b604082019050919050565b60006130796010836134ab565b915061308482613d80565b602082019050919050565b600061309c6025836134ab565b91506130a782613da9565b604082019050919050565b60006130bf601f836134ab565b91506130ca82613df8565b602082019050919050565b6130de816137b7565b82525050565b6130ed816137c1565b82525050565b60006020820190506131086000830184612d6d565b92915050565b60006020820190506131236000830184612d5e565b92915050565b600060208201905061313e6000830184612d7c565b92915050565b60006020820190506131596000830184612d8b565b92915050565b600060208201905081810360008301526131798184612d9a565b905092915050565b6000602082019050818103600083015261319a81612dd3565b9050919050565b600060208201905081810360008301526131ba81612df6565b9050919050565b600060208201905081810360008301526131da81612e19565b9050919050565b600060208201905081810360008301526131fa81612e3c565b9050919050565b6000602082019050818103600083015261321a81612e5f565b9050919050565b6000602082019050818103600083015261323a81612e82565b9050919050565b6000602082019050818103600083015261325a81612ea5565b9050919050565b6000602082019050818103600083015261327a81612ec8565b9050919050565b6000602082019050818103600083015261329a81612eeb565b9050919050565b600060208201905081810360008301526132ba81612f0e565b9050919050565b600060208201905081810360008301526132da81612f31565b9050919050565b600060208201905081810360008301526132fa81612f54565b9050919050565b6000602082019050818103600083015261331a81612f77565b9050919050565b6000602082019050818103600083015261333a81612f9a565b9050919050565b6000602082019050818103600083015261335a81612fbd565b9050919050565b6000602082019050818103600083015261337a81612fe0565b9050919050565b6000602082019050818103600083015261339a81613003565b9050919050565b600060208201905081810360008301526133ba81613026565b9050919050565b600060208201905081810360008301526133da81613049565b9050919050565b600060208201905081810360008301526133fa8161306c565b9050919050565b6000602082019050818103600083015261341a8161308f565b9050919050565b6000602082019050818103600083015261343a816130b2565b9050919050565b600060208201905061345660008301846130d5565b92915050565b600060408201905061347160008301856130d5565b61347e6020830184612d6d565b9392505050565b600060208201905061349a60008301846130e4565b92915050565b600081519050919050565b600082825260208201905092915050565b60006134c7826137b7565b91506134d2836137b7565b9250827fffffffffffffffffffffffffffffffffffffffffffffffffffffffffffffffff0382111561350757613506613845565b5b828201905092915050565b600061351d826137b7565b9150613528836137b7565b92508261353857613537613874565b5b828204905092915050565b6000808291508390505b600185111561358d5780860481111561356957613568613845565b5b60018516156135785780820291505b808102905061358685613912565b945061354d565b94509492505050565b60006135a1826137b7565b91506135ac836137c1565b92506135d97fffffffffffffffffffffffffffffffffffffffffffffffffffffffffffffffff84846135e1565b905092915050565b6000826135f157600190506136ad565b816135ff57600090506136ad565b8160018114613615576002811461361f5761364e565b60019150506136ad565b60ff84111561363157613630613845565b5b8360020a91508482111561364857613647613845565b5b506136ad565b5060208310610133831016604e8410600b84101617156136835782820a90508381111561367e5761367d613845565b5b6136ad565b6136908484846001613543565b925090508184048111156136a7576136a6613845565b5b81810290505b9392505050565b60006136bf826137b7565b91506136ca836137b7565b9250817fffffffffffffffffffffffffffffffffffffffffffffffffffffffffffffffff048311821515161561370357613702613845565b5b828202905092915050565b6000613719826137b7565b9150613724836137b7565b92508282101561373757613736613845565b5b828203905092915050565b600061374d82613797565b9050919050565b600061375f82613797565b9050919050565b60008115159050919050565b600061377d82613742565b9050919050565b600081905061379282613e21565b919050565b600073ffffffffffffffffffffffffffffffffffffffff82169050919050565b6000819050919050565b600060ff82169050919050565b60006137d982613784565b9050919050565b60005b838110156137fe5780820151818401526020810190506137e3565b8381111561380d576000848401525b50505050565b6000600282049050600182168061382b57607f821691505b6020821081141561383f5761383e6138d2565b5b50919050565b7f4e487b7100000000000000000000000000000000000000000000000000000000600052601160045260246000fd5b7f4e487b7100000000000000000000000000000000000000000000000000000000600052601260045260246000fd5b7f4e487b7100000000000000000000000000000000000000000000000000000000600052602160045260246000fd5b7f4e487b7100000000000000000000000000000000000000000000000000000000600052602260045260246000fd5b6000601f19601f8301169050919050565b60008160011c9050919050565b7f45524332303a207472616e7366657220746f20746865207a65726f206164647260008201527f6573730000000000000000000000000000000000000000000000000000000000602082015250565b7f434f4e54524143545f5041555345440000000000000000000000000000000000600082015250565b7f45524332303a206275726e20616d6f756e7420657863656564732062616c616e60008201527f6365000000000000000000000000000000000000000000000000000000000000602082015250565b7f45524332303a20617070726f766520746f20746865207a65726f20616464726560008201527f7373000000000000000000000000000000000000000000000000000000000000602082015250565b7f4f574e45525f4f4e4c5900000000000000000000000000000000000000000000600082015250565b7f45524332303a207472616e7366657220616d6f756e742065786365656473206260008201527f616c616e63650000000000000000000000000000000000000000000000000000602082015250565b7f41424f56455f4d41585f434f4e545249425554494f4e00000000000000000000600082015250565b7f46554e44535f4d4f5645445f544f5f4c50000000000000000000000000000000600082015250565b7f4c4153545f504841534500000000000000000000000000000000000000000000600082015250565b7f4e4f545f4c4153545f5048415345000000000000000000000000000000000000600082015250565b7f4e4f545f414c4c4f574544000000000000000000000000000000000000000000600082015250565b7f4e4f5f415641494c41424c455f46554e44530000000000000000000000000000600082015250565b7f45524332303a207472616e7366657220616d6f756e742065786365656473206160008201527f6c6c6f77616e6365000000000000000000000000000000000000000000000000602082015250565b7f524f555445525f4f4e4c59000000000000000000000000000000000000000000600082015250565b7f45524332303a206275726e2066726f6d20746865207a65726f2061646472657360008201527f7300000000000000000000000000000000000000000000000000000000000000602082015250565b7f57524954455f4f4e434500000000000000000000000000000000000000000000600082015250565b7f45524332303a207472616e736665722066726f6d20746865207a65726f20616460008201527f6472657373000000000000000000000000000000000000000000000000000000602082015250565b7f41424f56455f4d41585f494e444956494455414c5f434f4e545249425554494f60008201527f4e00000000000000000000000000000000000000000000000000000000000000602082015250565b7f45524332303a20617070726f76652066726f6d20746865207a65726f2061646460008201527f7265737300000000000000000000000000000000000000000000000000000000602082015250565b7f41424f56455f4d41585f535550504c5900000000000000000000000000000000600082015250565b7f45524332303a2064656372656173656420616c6c6f77616e63652062656c6f7760008201527f207a65726f000000000000000000000000000000000000000000000000000000602082015250565b7f45524332303a206d696e7420746f20746865207a65726f206164647265737300600082015250565b60038110613e3257613e316138a3565b5b50565b613e3e81613742565b8114613e4957600080fd5b50565b613e5581613772565b8114613e6057600080fd5b50565b613e6c816137b7565b8114613e7757600080fd5b5056fea2646970667358221220c4ce76a22924784efa028627719f98876265678b1ad1990954a69d1475c522c364736f6c63430008040033",
  "linkReferences": {},
  "deployedLinkReferences": {}
}