{
  "_format": "hh-sol-artifact-1",
  "contractName": "SpotoCoin",
  "sourceName": "contracts/SpotoCoin.sol",
  "abi": [
    {
      "inputs": [
        {
          "internalType": "address payable",
          "name": "treasury",
          "type": "address"
        }
      ],
      "stateMutability": "nonpayable",
      "type": "constructor"
    },
    {
      "anonymous": false,
      "inputs": [
        {
          "indexed": true,
          "internalType": "address",
          "name": "owner",
          "type": "address"
        },
        {
          "indexed": true,
          "internalType": "address",
          "name": "spender",
          "type": "address"
        },
        {
          "indexed": false,
          "internalType": "uint256",
          "name": "value",
          "type": "uint256"
        }
      ],
      "name": "Approval",
      "type": "event"
    },
    {
      "anonymous": false,
      "inputs": [],
      "name": "FundsMoved",
      "type": "event"
    },
    {
      "anonymous": false,
      "inputs": [],
      "name": "OwnerAction",
      "type": "event"
    },
    {
      "anonymous": false,
      "inputs": [
        {
          "indexed": true,
          "internalType": "address",
          "name": "_account",
          "type": "address"
        },
        {
          "indexed": false,
          "internalType": "uint256",
          "name": "amount",
          "type": "uint256"
        }
      ],
      "name": "TokensBought",
      "type": "event"
    },
    {
      "anonymous": false,
      "inputs": [
        {
          "indexed": true,
          "internalType": "address",
          "name": "from",
          "type": "address"
        },
        {
          "indexed": true,
          "internalType": "address",
          "name": "to",
          "type": "address"
        },
        {
          "indexed": false,
          "internalType": "uint256",
          "name": "value",
          "type": "uint256"
        }
      ],
      "name": "Transfer",
      "type": "event"
    },
    {
      "inputs": [],
      "name": "MAX_SUPPLY",
      "outputs": [
        {
          "internalType": "uint256",
          "name": "",
          "type": "uint256"
        }
      ],
      "stateMutability": "view",
      "type": "function"
    },
    {
      "inputs": [],
      "name": "TAX",
      "outputs": [
        {
          "internalType": "uint256",
          "name": "",
          "type": "uint256"
        }
      ],
      "stateMutability": "view",
      "type": "function"
    },
    {
      "inputs": [
        {
          "internalType": "address",
          "name": "owner",
          "type": "address"
        },
        {
          "internalType": "address",
          "name": "spender",
          "type": "address"
        }
      ],
      "name": "allowance",
      "outputs": [
        {
          "internalType": "uint256",
          "name": "",
          "type": "uint256"
        }
      ],
      "stateMutability": "view",
      "type": "function"
    },
    {
      "inputs": [
        {
          "internalType": "address",
          "name": "spender",
          "type": "address"
        },
        {
          "internalType": "uint256",
          "name": "amount",
          "type": "uint256"
        }
      ],
      "name": "approve",
      "outputs": [
        {
          "internalType": "bool",
          "name": "",
          "type": "bool"
        }
      ],
      "stateMutability": "nonpayable",
      "type": "function"
    },
    {
      "inputs": [
        {
          "internalType": "address",
          "name": "account",
          "type": "address"
        }
      ],
      "name": "balanceOf",
      "outputs": [
        {
          "internalType": "uint256",
          "name": "",
          "type": "uint256"
        }
      ],
      "stateMutability": "view",
      "type": "function"
    },
    {
      "inputs": [
        {
          "internalType": "address",
          "name": "",
          "type": "address"
        }
      ],
      "name": "balancesToClaim",
      "outputs": [
        {
          "internalType": "uint256",
          "name": "",
          "type": "uint256"
        }
      ],
      "stateMutability": "view",
      "type": "function"
    },
    {
      "inputs": [
        {
          "internalType": "address",
          "name": "account",
          "type": "address"
        },
        {
          "internalType": "uint256",
          "name": "amount",
          "type": "uint256"
        }
      ],
      "name": "burn",
      "outputs": [],
      "stateMutability": "nonpayable",
      "type": "function"
    },
    {
      "inputs": [],
      "name": "claimTokens",
      "outputs": [],
      "stateMutability": "nonpayable",
      "type": "function"
    },
    {
      "inputs": [],
      "name": "contribute",
      "outputs": [],
      "stateMutability": "payable",
      "type": "function"
    },
    {
      "inputs": [
        {
          "internalType": "address",
          "name": "",
          "type": "address"
        }
      ],
      "name": "contributionsOf",
      "outputs": [
        {
          "internalType": "uint256",
          "name": "",
          "type": "uint256"
        }
      ],
      "stateMutability": "view",
      "type": "function"
    },
    {
      "inputs": [],
      "name": "decimals",
      "outputs": [
        {
          "internalType": "uint8",
          "name": "",
          "type": "uint8"
        }
      ],
      "stateMutability": "view",
      "type": "function"
    },
    {
      "inputs": [
        {
          "internalType": "address",
          "name": "spender",
          "type": "address"
        },
        {
          "internalType": "uint256",
          "name": "subtractedValue",
          "type": "uint256"
        }
      ],
      "name": "decreaseAllowance",
      "outputs": [
        {
          "internalType": "bool",
          "name": "",
          "type": "bool"
        }
      ],
      "stateMutability": "nonpayable",
      "type": "function"
    },
    {
      "inputs": [
        {
          "internalType": "address",
          "name": "spender",
          "type": "address"
        },
        {
          "internalType": "uint256",
          "name": "addedValue",
          "type": "uint256"
        }
      ],
      "name": "increaseAllowance",
      "outputs": [
        {
          "internalType": "bool",
          "name": "",
          "type": "bool"
        }
      ],
      "stateMutability": "nonpayable",
      "type": "function"
    },
    {
      "inputs": [
        {
          "internalType": "address",
          "name": "_owner",
          "type": "address"
        },
        {
          "internalType": "address",
          "name": "_spender",
          "type": "address"
        },
        {
          "internalType": "uint256",
          "name": "_amount",
          "type": "uint256"
        }
      ],
      "name": "increaseContractAllowance",
      "outputs": [
        {
          "internalType": "bool",
          "name": "",
          "type": "bool"
        }
      ],
      "stateMutability": "nonpayable",
      "type": "function"
    },
    {
      "inputs": [],
      "name": "isContractPaused",
      "outputs": [
        {
          "internalType": "bool",
          "name": "",
          "type": "bool"
        }
      ],
      "stateMutability": "view",
      "type": "function"
    },
    {
      "inputs": [],
      "name": "isTaxOn",
      "outputs": [
        {
          "internalType": "bool",
          "name": "",
          "type": "bool"
        }
      ],
      "stateMutability": "view",
      "type": "function"
    },
    {
      "inputs": [
        {
          "internalType": "address",
          "name": "account",
          "type": "address"
        },
        {
          "internalType": "uint256",
          "name": "amount",
          "type": "uint256"
        }
      ],
      "name": "mint",
      "outputs": [],
      "stateMutability": "nonpayable",
      "type": "function"
    },
    {
      "inputs": [],
      "name": "name",
      "outputs": [
        {
          "internalType": "string",
          "name": "",
          "type": "string"
        }
      ],
      "stateMutability": "view",
      "type": "function"
    },
    {
      "inputs": [],
      "name": "owner",
      "outputs": [
        {
          "internalType": "address",
          "name": "",
          "type": "address"
        }
      ],
      "stateMutability": "view",
      "type": "function"
    },
    {
      "inputs": [
        {
          "internalType": "contract LiquidityPool",
          "name": "liquidityPool",
          "type": "address"
        }
      ],
      "name": "sendLiquidityToLPContract",
      "outputs": [],
      "stateMutability": "nonpayable",
      "type": "function"
    },
    {
      "inputs": [
        {
          "internalType": "address",
          "name": "_spotoRouter",
          "type": "address"
        }
      ],
      "name": "setRouterAddress",
      "outputs": [],
      "stateMutability": "nonpayable",
      "type": "function"
    },
    {
      "inputs": [],
      "name": "spotoRouter",
      "outputs": [
        {
          "internalType": "address",
          "name": "",
          "type": "address"
        }
      ],
      "stateMutability": "view",
      "type": "function"
    },
    {
      "inputs": [],
      "name": "symbol",
      "outputs": [
        {
          "internalType": "string",
          "name": "",
          "type": "string"
        }
      ],
      "stateMutability": "view",
      "type": "function"
    },
    {
      "inputs": [],
      "name": "togglePauseContract",
      "outputs": [],
      "stateMutability": "nonpayable",
      "type": "function"
    },
    {
      "inputs": [],
      "name": "toggleTax",
      "outputs": [],
      "stateMutability": "nonpayable",
      "type": "function"
    },
    {
      "inputs": [],
      "name": "totalContributed",
      "outputs": [
        {
          "internalType": "uint256",
          "name": "",
          "type": "uint256"
        }
      ],
      "stateMutability": "view",
      "type": "function"
    },
    {
      "inputs": [],
      "name": "totalSupply",
      "outputs": [
        {
          "internalType": "uint256",
          "name": "",
          "type": "uint256"
        }
      ],
      "stateMutability": "view",
      "type": "function"
    },
    {
      "inputs": [
        {
          "internalType": "address",
          "name": "recipient",
          "type": "address"
        },
        {
          "internalType": "uint256",
          "name": "amount",
          "type": "uint256"
        }
      ],
      "name": "transfer",
      "outputs": [
        {
          "internalType": "bool",
          "name": "",
          "type": "bool"
        }
      ],
      "stateMutability": "nonpayable",
      "type": "function"
    },
    {
      "inputs": [
        {
          "internalType": "address",
          "name": "sender",
          "type": "address"
        },
        {
          "internalType": "address",
          "name": "recipient",
          "type": "address"
        },
        {
          "internalType": "uint256",
          "name": "amount",
          "type": "uint256"
        }
      ],
      "name": "transferFrom",
      "outputs": [
        {
          "internalType": "bool",
          "name": "",
          "type": "bool"
        }
      ],
      "stateMutability": "nonpayable",
      "type": "function"
    },
    {
      "inputs": [],
      "name": "treasuryWallet",
      "outputs": [
        {
          "internalType": "address payable",
          "name": "",
          "type": "address"
        }
      ],
      "stateMutability": "view",
      "type": "function"
    }
  ],
  "bytecode": "0x60806040526001600760016101000a81548160ff0219169083151502179055503480156200002c57600080fd5b50604051620036c8380380620036c8833981810160405281019062000052919062000416565b6040518060400160405280600a81526020017f53706f746f20436f696e000000000000000000000000000000000000000000008152506040518060400160405280600381526020017f53505400000000000000000000000000000000000000000000000000000000008152508160039080519060200190620000d69291906200034f565b508060049080519060200190620000ef9291906200034f565b50505062000102620001c360201b60201c565b600a62000110919062000582565b6207a120620001209190620006bf565b6005819055506200013a30600554620001cc60201b60201c565b33600760026101000a81548173ffffffffffffffffffffffffffffffffffffffff021916908373ffffffffffffffffffffffffffffffffffffffff16021790555080600860006101000a81548173ffffffffffffffffffffffffffffffffffffffff021916908373ffffffffffffffffffffffffffffffffffffffff160217905550506200084f565b60006012905090565b600073ffffffffffffffffffffffffffffffffffffffff168273ffffffffffffffffffffffffffffffffffffffff1614156200023f576040517f08c379a000000000000000000000000000000000000000000000000000000000815260040162000236906200047a565b60405180910390fd5b62000253600083836200034560201b60201c565b8060026000828254620002679190620004ca565b92505081905550806000808473ffffffffffffffffffffffffffffffffffffffff1673ffffffffffffffffffffffffffffffffffffffff1681526020019081526020016000206000828254620002be9190620004ca565b925050819055508173ffffffffffffffffffffffffffffffffffffffff16600073ffffffffffffffffffffffffffffffffffffffff167fddf252ad1be2c89b69c2b068fc378daa952ba7f163c4a11628f55a4df523b3ef836040516200032591906200049c565b60405180910390a362000341600083836200034a60201b60201c565b5050565b505050565b505050565b8280546200035d906200076b565b90600052602060002090601f016020900481019282620003815760008555620003cd565b82601f106200039c57805160ff1916838001178555620003cd565b82800160010185558215620003cd579182015b82811115620003cc578251825591602001919060010190620003af565b5b509050620003dc9190620003e0565b5090565b5b80821115620003fb576000816000905550600101620003e1565b5090565b600081519050620004108162000835565b92915050565b6000602082840312156200042957600080fd5b60006200043984828501620003ff565b91505092915050565b600062000451601f83620004b9565b91506200045e826200080c565b602082019050919050565b620004748162000754565b82525050565b60006020820190508181036000830152620004958162000442565b9050919050565b6000602082019050620004b3600083018462000469565b92915050565b600082825260208201905092915050565b6000620004d78262000754565b9150620004e48362000754565b9250827fffffffffffffffffffffffffffffffffffffffffffffffffffffffffffffffff038211156200051c576200051b620007a1565b5b828201905092915050565b6000808291508390505b60018511156200057957808604811115620005515762000550620007a1565b5b6001851615620005615780820291505b80810290506200057185620007ff565b945062000531565b94509492505050565b60006200058f8262000754565b91506200059c836200075e565b9250620005cb7fffffffffffffffffffffffffffffffffffffffffffffffffffffffffffffffff8484620005d3565b905092915050565b600082620005e55760019050620006b8565b81620005f55760009050620006b8565b81600181146200060e576002811462000619576200064f565b6001915050620006b8565b60ff8411156200062e576200062d620007a1565b5b8360020a915084821115620006485762000647620007a1565b5b50620006b8565b5060208310610133831016604e8410600b8410161715620006895782820a905083811115620006835762000682620007a1565b5b620006b8565b62000698848484600162000527565b92509050818404811115620006b257620006b1620007a1565b5b81810290505b9392505050565b6000620006cc8262000754565b9150620006d98362000754565b9250817fffffffffffffffffffffffffffffffffffffffffffffffffffffffffffffffff0483118215151615620007155762000714620007a1565b5b828202905092915050565b60006200072d8262000734565b9050919050565b600073ffffffffffffffffffffffffffffffffffffffff82169050919050565b6000819050919050565b600060ff82169050919050565b600060028204905060018216806200078457607f821691505b602082108114156200079b576200079a620007d0565b5b50919050565b7f4e487b7100000000000000000000000000000000000000000000000000000000600052601160045260246000fd5b7f4e487b7100000000000000000000000000000000000000000000000000000000600052602260045260246000fd5b60008160011c9050919050565b7f45524332303a206d696e7420746f20746865207a65726f206164647265737300600082015250565b620008408162000720565b81146200084c57600080fd5b50565b612e69806200085f6000396000f3fe6080604052600436106101cd5760003560e01c806368f58b03116100f7578063b70f21c711610095578063d7bb99ba11610064578063d7bb99ba1461067c578063d83a2bf314610686578063dd62ed3e146106c3578063f4ab292814610700576101cd565b8063b70f21c7146105d2578063be07d17d1461060f578063c7d4d1531461063a578063d1cabc3514610665576101cd565b806395d89b41116100d157806395d89b41146105045780639dc29fac1461052f578063a457c2d714610558578063a9059cbb14610595576101cd565b806368f58b031461047157806370a082311461049c5780638da5cb5b146104d9576101cd565b8063313ce5671161016f57806340c10f191161013e57806340c10f19146103dd57806341cb87fc146104065780634626402b1461042f57806348c54b9d1461045a576101cd565b8063313ce5671461030d57806332cb6b0c1461033857806339509351146103635780633af0dbc1146103a0576101cd565b806310bf6029116101ab57806310bf6029146102655780631690bb4e1461027c57806318160ddd146102a557806323b872dd146102d0576101cd565b8063023f4147146101d257806306fdde03146101fd578063095ea7b314610228575b600080fd5b3480156101de57600080fd5b506101e761072b565b6040516101f4919061257e565b60405180910390f35b34801561020957600080fd5b50610212610731565b60405161021f919061235c565b60405180910390f35b34801561023457600080fd5b5061024f600480360381019061024a9190611ff2565b6107c3565b60405161025c9190612341565b60405180910390f35b34801561027157600080fd5b5061027a6107e1565b005b34801561028857600080fd5b506102a3600480360381019061029e919061202e565b6108c9565b005b3480156102b157600080fd5b506102ba610963565b6040516102c7919061257e565b60405180910390f35b3480156102dc57600080fd5b506102f760048036038101906102f29190611fa3565b61096d565b6040516103049190612341565b60405180910390f35b34801561031957600080fd5b50610322610a65565b60405161032f91906125c2565b60405180910390f35b34801561034457600080fd5b5061034d610a6e565b60405161035a919061257e565b60405180910390f35b34801561036f57600080fd5b5061038a60048036038101906103859190611ff2565b610a74565b6040516103979190612341565b60405180910390f35b3480156103ac57600080fd5b506103c760048036038101906103c29190611f3e565b610b20565b6040516103d4919061257e565b60405180910390f35b3480156103e957600080fd5b5061040460048036038101906103ff9190611ff2565b610b38565b005b34801561041257600080fd5b5061042d60048036038101906104289190611f3e565b610cbb565b005b34801561043b57600080fd5b50610444610e20565b6040516104519190612326565b60405180910390f35b34801561046657600080fd5b5061046f610e46565b005b34801561047d57600080fd5b50610486610faf565b604051610493919061257e565b60405180910390f35b3480156104a857600080fd5b506104c360048036038101906104be9190611f3e565b610fb4565b6040516104d0919061257e565b60405180910390f35b3480156104e557600080fd5b506104ee610ffc565b6040516104fb919061230b565b60405180910390f35b34801561051057600080fd5b50610519611022565b604051610526919061235c565b60405180910390f35b34801561053b57600080fd5b5061055660048036038101906105519190611ff2565b6110b4565b005b34801561056457600080fd5b5061057f600480360381019061057a9190611ff2565b611170565b60405161058c9190612341565b60405180910390f35b3480156105a157600080fd5b506105bc60048036038101906105b79190611ff2565b61125b565b6040516105c99190612341565b60405180910390f35b3480156105de57600080fd5b506105f960048036038101906105f49190611f3e565b611279565b604051610606919061257e565b60405180910390f35b34801561061b57600080fd5b50610624611291565b6040516106319190612341565b60405180910390f35b34801561064657600080fd5b5061064f6112a4565b60405161065c919061230b565b60405180910390f35b34801561067157600080fd5b5061067a6112ca565b005b6106846113b2565b005b34801561069257600080fd5b506106ad60048036038101906106a89190611fa3565b611529565b6040516106ba9190612341565b60405180910390f35b3480156106cf57600080fd5b506106ea60048036038101906106e59190611f67565b6115e5565b6040516106f7919061257e565b60405180910390f35b34801561070c57600080fd5b5061071561166c565b6040516107229190612341565b60405180910390f35b60065481565b6060600380546107409061292b565b80601f016020809104026020016040519081016040528092919081815260200182805461076c9061292b565b80156107b95780601f1061078e576101008083540402835291602001916107b9565b820191906000526020600020905b81548152906001019060200180831161079c57829003601f168201915b5050505050905090565b60006107d76107d061167f565b8484611687565b6001905092915050565b600760029054906101000a900473ffffffffffffffffffffffffffffffffffffffff1673ffffffffffffffffffffffffffffffffffffffff163373ffffffffffffffffffffffffffffffffffffffff1614610871576040517f08c379a0000000000000000000000000000000000000000000000000000000008152600401610868906123fe565b60405180910390fd5b600760019054906101000a900460ff1615600760016101000a81548160ff0219169083151502179055507fe454716ccd4789e6869664dc631a651dcb83a4552bfdf7afda42167120c356d360405160405180910390a1565b600060056006546108da91906127f1565b90506108e7308383611852565b8173ffffffffffffffffffffffffffffffffffffffff16636e553f6560065483306040518463ffffffff1660e01b8152600401610925929190612599565b6000604051808303818588803b15801561093e57600080fd5b505af1158015610952573d6000803e3d6000fd5b505050505061095f611ad3565b5050565b6000600254905090565b600061097a848484611b3c565b6000600160008673ffffffffffffffffffffffffffffffffffffffff1673ffffffffffffffffffffffffffffffffffffffff16815260200190815260200160002060006109c561167f565b73ffffffffffffffffffffffffffffffffffffffff1673ffffffffffffffffffffffffffffffffffffffff16815260200190815260200160002054905082811015610a45576040517f08c379a0000000000000000000000000000000000000000000000000000000008152600401610a3c9061245e565b60405180910390fd5b610a5985610a5161167f565b858403611687565b60019150509392505050565b60006012905090565b60055481565b6000610b16610a8161167f565b848460016000610a8f61167f565b73ffffffffffffffffffffffffffffffffffffffff1673ffffffffffffffffffffffffffffffffffffffff16815260200190815260200160002060008873ffffffffffffffffffffffffffffffffffffffff1673ffffffffffffffffffffffffffffffffffffffff16815260200190815260200160002054610b1191906125f9565b611687565b6001905092915050565b600b6020528060005260406000206000915090505481565b600760029054906101000a900473ffffffffffffffffffffffffffffffffffffffff1673ffffffffffffffffffffffffffffffffffffffff163373ffffffffffffffffffffffffffffffffffffffff1614610bc8576040517f08c379a0000000000000000000000000000000000000000000000000000000008152600401610bbf906123fe565b60405180910390fd5b600073ffffffffffffffffffffffffffffffffffffffff168273ffffffffffffffffffffffffffffffffffffffff161415610c38576040517f08c379a0000000000000000000000000000000000000000000000000000000008152600401610c2f9061255e565b60405180910390fd5b60055481610c44610963565b610c4e91906125f9565b1115610c8f576040517f08c379a0000000000000000000000000000000000000000000000000000000008152600401610c869061251e565b60405180910390fd5b610cb782610c9b610a65565b600a610ca791906126d3565b83610cb291906127f1565b611bbe565b5050565b600760029054906101000a900473ffffffffffffffffffffffffffffffffffffffff1673ffffffffffffffffffffffffffffffffffffffff163373ffffffffffffffffffffffffffffffffffffffff1614610d4b576040517f08c379a0000000000000000000000000000000000000000000000000000000008152600401610d42906123fe565b60405180910390fd5b600073ffffffffffffffffffffffffffffffffffffffff16600960009054906101000a900473ffffffffffffffffffffffffffffffffffffffff1673ffffffffffffffffffffffffffffffffffffffff1614610ddc576040517f08c379a0000000000000000000000000000000000000000000000000000000008152600401610dd3906124be565b60405180910390fd5b80600960006101000a81548173ffffffffffffffffffffffffffffffffffffffff021916908373ffffffffffffffffffffffffffffffffffffffff16021790555050565b600860009054906101000a900473ffffffffffffffffffffffffffffffffffffffff1681565b600760009054906101000a900460ff1615610e96576040517f08c379a0000000000000000000000000000000000000000000000000000000008152600401610e8d9061239e565b60405180910390fd5b6000600a60003373ffffffffffffffffffffffffffffffffffffffff1673ffffffffffffffffffffffffffffffffffffffff1681526020019081526020016000205411610f18576040517f08c379a0000000000000000000000000000000000000000000000000000000008152600401610f0f9061243e565b60405180910390fd5b6000600a60003373ffffffffffffffffffffffffffffffffffffffff1673ffffffffffffffffffffffffffffffffffffffff1681526020019081526020016000205490506000600a60003373ffffffffffffffffffffffffffffffffffffffff1673ffffffffffffffffffffffffffffffffffffffff16815260200190815260200160002081905550610fac303383611852565b50565b600281565b60008060008373ffffffffffffffffffffffffffffffffffffffff1673ffffffffffffffffffffffffffffffffffffffff168152602001908152602001600020549050919050565b600760029054906101000a900473ffffffffffffffffffffffffffffffffffffffff1681565b6060600480546110319061292b565b80601f016020809104026020016040519081016040528092919081815260200182805461105d9061292b565b80156110aa5780601f1061107f576101008083540402835291602001916110aa565b820191906000526020600020905b81548152906001019060200180831161108d57829003601f168201915b5050505050905090565b600760029054906101000a900473ffffffffffffffffffffffffffffffffffffffff1673ffffffffffffffffffffffffffffffffffffffff163373ffffffffffffffffffffffffffffffffffffffff1614611144576040517f08c379a000000000000000000000000000000000000000000000000000000000815260040161113b906123fe565b60405180910390fd5b61116c82611150610a65565b600a61115c91906126d3565b8361116791906127f1565b611d1e565b5050565b6000806001600061117f61167f565b73ffffffffffffffffffffffffffffffffffffffff1673ffffffffffffffffffffffffffffffffffffffff16815260200190815260200160002060008573ffffffffffffffffffffffffffffffffffffffff1673ffffffffffffffffffffffffffffffffffffffff1681526020019081526020016000205490508281101561123c576040517f08c379a00000000000000000000000000000000000000000000000000000000081526004016112339061253e565b60405180910390fd5b61125061124761167f565b85858403611687565b600191505092915050565b600061126f61126861167f565b8484611b3c565b6001905092915050565b600a6020528060005260406000206000915090505481565b600760019054906101000a900460ff1681565b600960009054906101000a900473ffffffffffffffffffffffffffffffffffffffff1681565b600760029054906101000a900473ffffffffffffffffffffffffffffffffffffffff1673ffffffffffffffffffffffffffffffffffffffff163373ffffffffffffffffffffffffffffffffffffffff161461135a576040517f08c379a0000000000000000000000000000000000000000000000000000000008152600401611351906123fe565b60405180910390fd5b600760009054906101000a900460ff1615600760006101000a81548160ff0219169083151502179055507fe454716ccd4789e6869664dc631a651dcb83a4552bfdf7afda42167120c356d360405160405180910390a1565b600760009054906101000a900460ff1615611402576040517f08c379a00000000000000000000000000000000000000000000000000000000081526004016113f99061239e565b60405180910390fd5b600060053461141191906127f1565b905080600a60003373ffffffffffffffffffffffffffffffffffffffff1673ffffffffffffffffffffffffffffffffffffffff168152602001908152602001600020600082825461146291906125f9565b9250508190555034600b60003373ffffffffffffffffffffffffffffffffffffffff1673ffffffffffffffffffffffffffffffffffffffff16815260200190815260200160002060008282546114b891906125f9565b9250508190555034600660008282546114d191906125f9565b925050819055503373ffffffffffffffffffffffffffffffffffffffff167f745f661b8143944fb883f50694ebed3a871e43c451d9d4bf4648a9d551d7e47a8260405161151e919061257e565b60405180910390a250565b6000600960009054906101000a900473ffffffffffffffffffffffffffffffffffffffff1673ffffffffffffffffffffffffffffffffffffffff163373ffffffffffffffffffffffffffffffffffffffff16146115bb576040517f08c379a00000000000000000000000000000000000000000000000000000000081526004016115b29061247e565b60405180910390fd5b6115da8484846115cb33306115e5565b6115d591906125f9565b611687565b600190509392505050565b6000600160008473ffffffffffffffffffffffffffffffffffffffff1673ffffffffffffffffffffffffffffffffffffffff16815260200190815260200160002060008373ffffffffffffffffffffffffffffffffffffffff1673ffffffffffffffffffffffffffffffffffffffff16815260200190815260200160002054905092915050565b600760009054906101000a900460ff1681565b600033905090565b600073ffffffffffffffffffffffffffffffffffffffff168373ffffffffffffffffffffffffffffffffffffffff1614156116f7576040517f08c379a00000000000000000000000000000000000000000000000000000000081526004016116ee906124fe565b60405180910390fd5b600073ffffffffffffffffffffffffffffffffffffffff168273ffffffffffffffffffffffffffffffffffffffff161415611767576040517f08c379a000000000000000000000000000000000000000000000000000000000815260040161175e906123de565b60405180910390fd5b80600160008573ffffffffffffffffffffffffffffffffffffffff1673ffffffffffffffffffffffffffffffffffffffff16815260200190815260200160002060008473ffffffffffffffffffffffffffffffffffffffff1673ffffffffffffffffffffffffffffffffffffffff168152602001908152602001600020819055508173ffffffffffffffffffffffffffffffffffffffff168373ffffffffffffffffffffffffffffffffffffffff167f8c5be1e5ebec7d5bd14f71427d1e84f3dd0314c0f7b2291e5b200ac8c7c3b92583604051611845919061257e565b60405180910390a3505050565b600073ffffffffffffffffffffffffffffffffffffffff168373ffffffffffffffffffffffffffffffffffffffff1614156118c2576040517f08c379a00000000000000000000000000000000000000000000000000000000081526004016118b9906124de565b60405180910390fd5b600073ffffffffffffffffffffffffffffffffffffffff168273ffffffffffffffffffffffffffffffffffffffff161415611932576040517f08c379a00000000000000000000000000000000000000000000000000000000081526004016119299061237e565b60405180910390fd5b61193d838383611ef5565b60008060008573ffffffffffffffffffffffffffffffffffffffff1673ffffffffffffffffffffffffffffffffffffffff168152602001908152602001600020549050818110156119c3576040517f08c379a00000000000000000000000000000000000000000000000000000000081526004016119ba9061241e565b60405180910390fd5b8181036000808673ffffffffffffffffffffffffffffffffffffffff1673ffffffffffffffffffffffffffffffffffffffff16815260200190815260200160002081905550816000808573ffffffffffffffffffffffffffffffffffffffff1673ffffffffffffffffffffffffffffffffffffffff1681526020019081526020016000206000828254611a5691906125f9565b925050819055508273ffffffffffffffffffffffffffffffffffffffff168473ffffffffffffffffffffffffffffffffffffffff167fddf252ad1be2c89b69c2b068fc378daa952ba7f163c4a11628f55a4df523b3ef84604051611aba919061257e565b60405180910390a3611acd848484611efa565b50505050565b6000611ade30610fb4565b9050611b0d30600860009054906101000a900473ffffffffffffffffffffffffffffffffffffffff1683611852565b7fa01103220c31ee0c47e79a81104a3e82740390c1d918ad5638190cc185bd92e160405160405180910390a150565b6000600760019054906101000a900460ff1615611b6f576064826002611b6291906127f1565b611b6c919061264f565b90505b60008183611b7d919061284b565b9050611b8a858583611852565b611bb785600860009054906101000a900473ffffffffffffffffffffffffffffffffffffffff1684611852565b5050505050565b600073ffffffffffffffffffffffffffffffffffffffff168273ffffffffffffffffffffffffffffffffffffffff161415611c2e576040517f08c379a0000000000000000000000000000000000000000000000000000000008152600401611c259061255e565b60405180910390fd5b611c3a60008383611ef5565b8060026000828254611c4c91906125f9565b92505081905550806000808473ffffffffffffffffffffffffffffffffffffffff1673ffffffffffffffffffffffffffffffffffffffff1681526020019081526020016000206000828254611ca191906125f9565b925050819055508173ffffffffffffffffffffffffffffffffffffffff16600073ffffffffffffffffffffffffffffffffffffffff167fddf252ad1be2c89b69c2b068fc378daa952ba7f163c4a11628f55a4df523b3ef83604051611d06919061257e565b60405180910390a3611d1a60008383611efa565b5050565b600073ffffffffffffffffffffffffffffffffffffffff168273ffffffffffffffffffffffffffffffffffffffff161415611d8e576040517f08c379a0000000000000000000000000000000000000000000000000000000008152600401611d859061249e565b60405180910390fd5b611d9a82600083611ef5565b60008060008473ffffffffffffffffffffffffffffffffffffffff1673ffffffffffffffffffffffffffffffffffffffff16815260200190815260200160002054905081811015611e20576040517f08c379a0000000000000000000000000000000000000000000000000000000008152600401611e17906123be565b60405180910390fd5b8181036000808573ffffffffffffffffffffffffffffffffffffffff1673ffffffffffffffffffffffffffffffffffffffff168152602001908152602001600020819055508160026000828254611e77919061284b565b92505081905550600073ffffffffffffffffffffffffffffffffffffffff168373ffffffffffffffffffffffffffffffffffffffff167fddf252ad1be2c89b69c2b068fc378daa952ba7f163c4a11628f55a4df523b3ef84604051611edc919061257e565b60405180910390a3611ef083600084611efa565b505050565b505050565b505050565b600081359050611f0e81612dee565b92915050565b600081359050611f2381612e05565b92915050565b600081359050611f3881612e1c565b92915050565b600060208284031215611f5057600080fd5b6000611f5e84828501611eff565b91505092915050565b60008060408385031215611f7a57600080fd5b6000611f8885828601611eff565b9250506020611f9985828601611eff565b9150509250929050565b600080600060608486031215611fb857600080fd5b6000611fc686828701611eff565b9350506020611fd786828701611eff565b9250506040611fe886828701611f29565b9150509250925092565b6000806040838503121561200557600080fd5b600061201385828601611eff565b925050602061202485828601611f29565b9150509250929050565b60006020828403121561204057600080fd5b600061204e84828501611f14565b91505092915050565b61206081612891565b82525050565b61206f8161287f565b82525050565b61207e816128a3565b82525050565b600061208f826125dd565b61209981856125e8565b93506120a98185602086016128f8565b6120b2816129ea565b840191505092915050565b60006120ca6023836125e8565b91506120d582612a08565b604082019050919050565b60006120ed600f836125e8565b91506120f882612a57565b602082019050919050565b60006121106022836125e8565b915061211b82612a80565b604082019050919050565b60006121336022836125e8565b915061213e82612acf565b604082019050919050565b6000612156600a836125e8565b915061216182612b1e565b602082019050919050565b60006121796026836125e8565b915061218482612b47565b604082019050919050565b600061219c6012836125e8565b91506121a782612b96565b602082019050919050565b60006121bf6028836125e8565b91506121ca82612bbf565b604082019050919050565b60006121e2600b836125e8565b91506121ed82612c0e565b602082019050919050565b60006122056021836125e8565b915061221082612c37565b604082019050919050565b6000612228600a836125e8565b915061223382612c86565b602082019050919050565b600061224b6025836125e8565b915061225682612caf565b604082019050919050565b600061226e6024836125e8565b915061227982612cfe565b604082019050919050565b60006122916010836125e8565b915061229c82612d4d565b602082019050919050565b60006122b46025836125e8565b91506122bf82612d76565b604082019050919050565b60006122d7601f836125e8565b91506122e282612dc5565b602082019050919050565b6122f6816128e1565b82525050565b612305816128eb565b82525050565b60006020820190506123206000830184612066565b92915050565b600060208201905061233b6000830184612057565b92915050565b60006020820190506123566000830184612075565b92915050565b600060208201905081810360008301526123768184612084565b905092915050565b60006020820190508181036000830152612397816120bd565b9050919050565b600060208201905081810360008301526123b7816120e0565b9050919050565b600060208201905081810360008301526123d781612103565b9050919050565b600060208201905081810360008301526123f781612126565b9050919050565b6000602082019050818103600083015261241781612149565b9050919050565b600060208201905081810360008301526124378161216c565b9050919050565b600060208201905081810360008301526124578161218f565b9050919050565b60006020820190508181036000830152612477816121b2565b9050919050565b60006020820190508181036000830152612497816121d5565b9050919050565b600060208201905081810360008301526124b7816121f8565b9050919050565b600060208201905081810360008301526124d78161221b565b9050919050565b600060208201905081810360008301526124f78161223e565b9050919050565b6000602082019050818103600083015261251781612261565b9050919050565b6000602082019050818103600083015261253781612284565b9050919050565b60006020820190508181036000830152612557816122a7565b9050919050565b60006020820190508181036000830152612577816122ca565b9050919050565b600060208201905061259360008301846122ed565b92915050565b60006040820190506125ae60008301856122ed565b6125bb6020830184612066565b9392505050565b60006020820190506125d760008301846122fc565b92915050565b600081519050919050565b600082825260208201905092915050565b6000612604826128e1565b915061260f836128e1565b9250827fffffffffffffffffffffffffffffffffffffffffffffffffffffffffffffffff038211156126445761264361295d565b5b828201905092915050565b600061265a826128e1565b9150612665836128e1565b9250826126755761267461298c565b5b828204905092915050565b6000808291508390505b60018511156126ca578086048111156126a6576126a561295d565b5b60018516156126b55780820291505b80810290506126c3856129fb565b945061268a565b94509492505050565b60006126de826128e1565b91506126e9836128eb565b92506127167fffffffffffffffffffffffffffffffffffffffffffffffffffffffffffffffff848461271e565b905092915050565b60008261272e57600190506127ea565b8161273c57600090506127ea565b8160018114612752576002811461275c5761278b565b60019150506127ea565b60ff84111561276e5761276d61295d565b5b8360020a9150848211156127855761278461295d565b5b506127ea565b5060208310610133831016604e8410600b84101617156127c05782820a9050838111156127bb576127ba61295d565b5b6127ea565b6127cd8484846001612680565b925090508184048111156127e4576127e361295d565b5b81810290505b9392505050565b60006127fc826128e1565b9150612807836128e1565b9250817fffffffffffffffffffffffffffffffffffffffffffffffffffffffffffffffff04831182151516156128405761283f61295d565b5b828202905092915050565b6000612856826128e1565b9150612861836128e1565b9250828210156128745761287361295d565b5b828203905092915050565b600061288a826128c1565b9050919050565b600061289c826128c1565b9050919050565b60008115159050919050565b60006128ba8261287f565b9050919050565b600073ffffffffffffffffffffffffffffffffffffffff82169050919050565b6000819050919050565b600060ff82169050919050565b60005b838110156129165780820151818401526020810190506128fb565b83811115612925576000848401525b50505050565b6000600282049050600182168061294357607f821691505b60208210811415612957576129566129bb565b5b50919050565b7f4e487b7100000000000000000000000000000000000000000000000000000000600052601160045260246000fd5b7f4e487b7100000000000000000000000000000000000000000000000000000000600052601260045260246000fd5b7f4e487b7100000000000000000000000000000000000000000000000000000000600052602260045260246000fd5b6000601f19601f8301169050919050565b60008160011c9050919050565b7f45524332303a207472616e7366657220746f20746865207a65726f206164647260008201527f6573730000000000000000000000000000000000000000000000000000000000602082015250565b7f434f4e54524143545f5041555345440000000000000000000000000000000000600082015250565b7f45524332303a206275726e20616d6f756e7420657863656564732062616c616e60008201527f6365000000000000000000000000000000000000000000000000000000000000602082015250565b7f45524332303a20617070726f766520746f20746865207a65726f20616464726560008201527f7373000000000000000000000000000000000000000000000000000000000000602082015250565b7f4f574e45525f4f4e4c5900000000000000000000000000000000000000000000600082015250565b7f45524332303a207472616e7366657220616d6f756e742065786365656473206260008201527f616c616e63650000000000000000000000000000000000000000000000000000602082015250565b7f4e4f5f415641494c41424c455f46554e44530000000000000000000000000000600082015250565b7f45524332303a207472616e7366657220616d6f756e742065786365656473206160008201527f6c6c6f77616e6365000000000000000000000000000000000000000000000000602082015250565b7f524f555445525f4f4e4c59000000000000000000000000000000000000000000600082015250565b7f45524332303a206275726e2066726f6d20746865207a65726f2061646472657360008201527f7300000000000000000000000000000000000000000000000000000000000000602082015250565b7f57524954455f4f4e434500000000000000000000000000000000000000000000600082015250565b7f45524332303a207472616e736665722066726f6d20746865207a65726f20616460008201527f6472657373000000000000000000000000000000000000000000000000000000602082015250565b7f45524332303a20617070726f76652066726f6d20746865207a65726f2061646460008201527f7265737300000000000000000000000000000000000000000000000000000000602082015250565b7f41424f56455f4d41585f535550504c5900000000000000000000000000000000600082015250565b7f45524332303a2064656372656173656420616c6c6f77616e63652062656c6f7760008201527f207a65726f000000000000000000000000000000000000000000000000000000602082015250565b7f45524332303a206d696e7420746f20746865207a65726f206164647265737300600082015250565b612df78161287f565b8114612e0257600080fd5b50565b612e0e816128af565b8114612e1957600080fd5b50565b612e25816128e1565b8114612e3057600080fd5b5056fea2646970667358221220e20ec893fb27cf6940dc7ba9e9220e40529a70944308999c42b0bac1b7643a6664736f6c63430008040033",
  "linkReferences": {},
  "deployedLinkReferences": {}
}