{
  "_format": "hh-sol-artifact-1",
  "contractName": "NFTProfile",
  "sourceName": "contracts/NFTProfile.sol",
  "abi": [
    {
      "inputs": [],
      "stateMutability": "nonpayable",
      "type": "constructor"
    },
    {
      "anonymous": false,
      "inputs": [
        {
          "indexed": true,
          "internalType": "address",
          "name": "owner",
          "type": "address"
        },
        {
          "indexed": true,
          "internalType": "address",
          "name": "approved",
          "type": "address"
        },
        {
          "indexed": true,
          "internalType": "uint256",
          "name": "tokenId",
          "type": "uint256"
        }
      ],
      "name": "Approval",
      "type": "event"
    },
    {
      "anonymous": false,
      "inputs": [
        {
          "indexed": true,
          "internalType": "address",
          "name": "owner",
          "type": "address"
        },
        {
          "indexed": true,
          "internalType": "address",
          "name": "operator",
          "type": "address"
        },
        {
          "indexed": false,
          "internalType": "bool",
          "name": "approved",
          "type": "bool"
        }
      ],
      "name": "ApprovalForAll",
      "type": "event"
    },
    {
      "anonymous": false,
      "inputs": [
        {
          "indexed": true,
          "internalType": "address",
          "name": "previousOwner",
          "type": "address"
        },
        {
          "indexed": true,
          "internalType": "address",
          "name": "newOwner",
          "type": "address"
        }
      ],
      "name": "OwnershipTransferred",
      "type": "event"
    },
    {
      "anonymous": false,
      "inputs": [
        {
          "indexed": true,
          "internalType": "address",
          "name": "from",
          "type": "address"
        },
        {
          "indexed": true,
          "internalType": "address",
          "name": "to",
          "type": "address"
        },
        {
          "indexed": true,
          "internalType": "uint256",
          "name": "tokenId",
          "type": "uint256"
        }
      ],
      "name": "Transfer",
      "type": "event"
    },
    {
      "inputs": [
        {
          "internalType": "address",
          "name": "to",
          "type": "address"
        },
        {
          "internalType": "uint256",
          "name": "tokenId",
          "type": "uint256"
        }
      ],
      "name": "approve",
      "outputs": [],
      "stateMutability": "nonpayable",
      "type": "function"
    },
    {
      "inputs": [
        {
          "internalType": "address",
          "name": "owner",
          "type": "address"
        }
      ],
      "name": "balanceOf",
      "outputs": [
        {
          "internalType": "uint256",
          "name": "",
          "type": "uint256"
        }
      ],
      "stateMutability": "view",
      "type": "function"
    },
    {
      "inputs": [
        {
          "internalType": "uint256",
          "name": "tokenId",
          "type": "uint256"
        }
      ],
      "name": "burn",
      "outputs": [],
      "stateMutability": "nonpayable",
      "type": "function"
    },
    {
      "inputs": [
        {
          "internalType": "uint256",
          "name": "tokenId",
          "type": "uint256"
        }
      ],
      "name": "getApproved",
      "outputs": [
        {
          "internalType": "address",
          "name": "",
          "type": "address"
        }
      ],
      "stateMutability": "view",
      "type": "function"
    },
    {
      "inputs": [
        {
          "internalType": "address",
          "name": "owner",
          "type": "address"
        },
        {
          "internalType": "address",
          "name": "operator",
          "type": "address"
        }
      ],
      "name": "isApprovedForAll",
      "outputs": [
        {
          "internalType": "bool",
          "name": "",
          "type": "bool"
        }
      ],
      "stateMutability": "view",
      "type": "function"
    },
    {
      "inputs": [],
      "name": "name",
      "outputs": [
        {
          "internalType": "string",
          "name": "",
          "type": "string"
        }
      ],
      "stateMutability": "view",
      "type": "function"
    },
    {
      "inputs": [],
      "name": "owner",
      "outputs": [
        {
          "internalType": "address",
          "name": "",
          "type": "address"
        }
      ],
      "stateMutability": "view",
      "type": "function"
    },
    {
      "inputs": [
        {
          "internalType": "uint256",
          "name": "tokenId",
          "type": "uint256"
        }
      ],
      "name": "ownerOf",
      "outputs": [
        {
          "internalType": "address",
          "name": "",
          "type": "address"
        }
      ],
      "stateMutability": "view",
      "type": "function"
    },
    {
      "inputs": [],
      "name": "renounceOwnership",
      "outputs": [],
      "stateMutability": "nonpayable",
      "type": "function"
    },
    {
      "inputs": [
        {
          "internalType": "string",
          "name": "uri",
          "type": "string"
        }
      ],
      "name": "safeMint",
      "outputs": [],
      "stateMutability": "nonpayable",
      "type": "function"
    },
    {
      "inputs": [
        {
          "internalType": "address",
          "name": "from",
          "type": "address"
        },
        {
          "internalType": "address",
          "name": "to",
          "type": "address"
        },
        {
          "internalType": "uint256",
          "name": "tokenId",
          "type": "uint256"
        }
      ],
      "name": "safeTransferFrom",
      "outputs": [],
      "stateMutability": "nonpayable",
      "type": "function"
    },
    {
      "inputs": [
        {
          "internalType": "address",
          "name": "from",
          "type": "address"
        },
        {
          "internalType": "address",
          "name": "to",
          "type": "address"
        },
        {
          "internalType": "uint256",
          "name": "tokenId",
          "type": "uint256"
        },
        {
          "internalType": "bytes",
          "name": "_data",
          "type": "bytes"
        }
      ],
      "name": "safeTransferFrom",
      "outputs": [],
      "stateMutability": "nonpayable",
      "type": "function"
    },
    {
      "inputs": [
        {
          "internalType": "address",
          "name": "operator",
          "type": "address"
        },
        {
          "internalType": "bool",
          "name": "approved",
          "type": "bool"
        }
      ],
      "name": "setApprovalForAll",
      "outputs": [],
      "stateMutability": "nonpayable",
      "type": "function"
    },
    {
      "inputs": [
        {
          "internalType": "bytes4",
          "name": "interfaceId",
          "type": "bytes4"
        }
      ],
      "name": "supportsInterface",
      "outputs": [
        {
          "internalType": "bool",
          "name": "",
          "type": "bool"
        }
      ],
      "stateMutability": "view",
      "type": "function"
    },
    {
      "inputs": [],
      "name": "symbol",
      "outputs": [
        {
          "internalType": "string",
          "name": "",
          "type": "string"
        }
      ],
      "stateMutability": "view",
      "type": "function"
    },
    {
      "inputs": [
        {
          "internalType": "uint256",
          "name": "index",
          "type": "uint256"
        }
      ],
      "name": "tokenByIndex",
      "outputs": [
        {
          "internalType": "uint256",
          "name": "",
          "type": "uint256"
        }
      ],
      "stateMutability": "view",
      "type": "function"
    },
    {
      "inputs": [
        {
          "internalType": "address",
          "name": "owner",
          "type": "address"
        },
        {
          "internalType": "uint256",
          "name": "index",
          "type": "uint256"
        }
      ],
      "name": "tokenOfOwnerByIndex",
      "outputs": [
        {
          "internalType": "uint256",
          "name": "",
          "type": "uint256"
        }
      ],
      "stateMutability": "view",
      "type": "function"
    },
    {
      "inputs": [
        {
          "internalType": "uint256",
          "name": "tokenId",
          "type": "uint256"
        }
      ],
      "name": "tokenURI",
      "outputs": [
        {
          "internalType": "string",
          "name": "",
          "type": "string"
        }
      ],
      "stateMutability": "view",
      "type": "function"
    },
    {
      "inputs": [],
      "name": "totalSupply",
      "outputs": [
        {
          "internalType": "uint256",
          "name": "",
          "type": "uint256"
        }
      ],
      "stateMutability": "view",
      "type": "function"
    },
    {
      "inputs": [
        {
          "internalType": "address",
          "name": "from",
          "type": "address"
        },
        {
          "internalType": "address",
          "name": "to",
          "type": "address"
        },
        {
          "internalType": "uint256",
          "name": "tokenId",
          "type": "uint256"
        }
      ],
      "name": "transferFrom",
      "outputs": [],
      "stateMutability": "nonpayable",
      "type": "function"
    },
    {
      "inputs": [
        {
          "internalType": "address",
          "name": "newOwner",
          "type": "address"
        }
      ],
      "name": "transferOwnership",
      "outputs": [],
      "stateMutability": "nonpayable",
      "type": "function"
    },
    {
      "inputs": [
        {
          "internalType": "address",
          "name": "_owner",
          "type": "address"
        }
      ],
      "name": "walletOfOwner",
      "outputs": [
        {
          "internalType": "uint256[]",
          "name": "",
          "type": "uint256[]"
        },
        {
          "internalType": "string[]",
          "name": "",
          "type": "string[]"
        }
      ],
      "stateMutability": "view",
      "type": "function"
    }
  ],
  "bytecode": "0x60806040523480156200001157600080fd5b506040518060400160405280600981526020017f53706f746f204e465400000000000000000000000000000000000000000000008152506040518060400160405280600481526020017f5350544e00000000000000000000000000000000000000000000000000000000815250816000908051906020019062000096929190620001a6565b508060019080519060200190620000af929190620001a6565b505050620000d2620000c6620000d860201b60201c565b620000e060201b60201c565b620002bb565b600033905090565b6000600b60009054906101000a900473ffffffffffffffffffffffffffffffffffffffff16905081600b60006101000a81548173ffffffffffffffffffffffffffffffffffffffff021916908373ffffffffffffffffffffffffffffffffffffffff1602179055508173ffffffffffffffffffffffffffffffffffffffff168173ffffffffffffffffffffffffffffffffffffffff167f8be0079c531659141344cd1fd0a4f28419497f9722a3daafe3b4186f6b6457e060405160405180910390a35050565b828054620001b49062000256565b90600052602060002090601f016020900481019282620001d8576000855562000224565b82601f10620001f357805160ff191683800117855562000224565b8280016001018555821562000224579182015b828111156200022357825182559160200191906001019062000206565b5b50905062000233919062000237565b5090565b5b808211156200025257600081600090555060010162000238565b5090565b600060028204905060018216806200026f57607f821691505b602082108114156200028657620002856200028c565b5b50919050565b7f4e487b7100000000000000000000000000000000000000000000000000000000600052602260045260246000fd5b613ed580620002cb6000396000f3fe608060405234801561001057600080fd5b50600436106101425760003560e01c80636352211e116100b857806395d89b411161007c57806395d89b4114610388578063a22cb465146103a6578063b88d4fde146103c2578063c87b56dd146103de578063e985e9c51461040e578063f2fde38b1461043e57610142565b80636352211e146102e4578063695850fb1461031457806370a0823114610330578063715018a6146103605780638da5cb5b1461036a57610142565b806323b872dd1161010a57806323b872dd146101ff5780632f745c591461021b57806342842e0e1461024b57806342966c6814610267578063438b6300146102835780634f6ccce7146102b457610142565b806301ffc9a71461014757806306fdde0314610177578063081812fc14610195578063095ea7b3146101c557806318160ddd146101e1575b600080fd5b610161600480360381019061015c9190612a8c565b61045a565b60405161016e9190613100565b60405180910390f35b61017f61046c565b60405161018c919061311b565b60405180910390f35b6101af60048036038101906101aa9190612b1f565b6104fe565b6040516101bc9190613062565b60405180910390f35b6101df60048036038101906101da9190612a50565b610583565b005b6101e961069b565b6040516101f691906133dd565b60405180910390f35b6102196004803603810190610214919061294a565b6106a8565b005b61023560048036038101906102309190612a50565b610708565b60405161024291906133dd565b60405180910390f35b6102656004803603810190610260919061294a565b6107ad565b005b610281600480360381019061027c9190612b1f565b6107cd565b005b61029d600480360381019061029891906128e5565b610829565b6040516102ab9291906130c9565b60405180910390f35b6102ce60048036038101906102c99190612b1f565b610a2d565b6040516102db91906133dd565b60405180910390f35b6102fe60048036038101906102f99190612b1f565b610ac4565b60405161030b9190613062565b60405180910390f35b61032e60048036038101906103299190612ade565b610b76565b005b61034a600480360381019061034591906128e5565b610ba6565b60405161035791906133dd565b60405180910390f35b610368610c5e565b005b610372610ce6565b60405161037f9190613062565b60405180910390f35b610390610d10565b60405161039d919061311b565b60405180910390f35b6103c060048036038101906103bb9190612a14565b610da2565b005b6103dc60048036038101906103d79190612999565b610f23565b005b6103f860048036038101906103f39190612b1f565b610f85565b604051610405919061311b565b60405180910390f35b6104286004803603810190610423919061290e565b610f97565b6040516104359190613100565b60405180910390f35b610458600480360381019061045391906128e5565b61102b565b005b600061046582611123565b9050919050565b60606000805461047b906136b6565b80601f01602080910402602001604051908101604052809291908181526020018280546104a7906136b6565b80156104f45780601f106104c9576101008083540402835291602001916104f4565b820191906000526020600020905b8154815290600101906020018083116104d757829003601f168201915b5050505050905090565b60006105098261119d565b610548576040517f08c379a000000000000000000000000000000000000000000000000000000000815260040161053f906132dd565b60405180910390fd5b6004600083815260200190815260200160002060009054906101000a900473ffffffffffffffffffffffffffffffffffffffff169050919050565b600061058e82610ac4565b90508073ffffffffffffffffffffffffffffffffffffffff168373ffffffffffffffffffffffffffffffffffffffff1614156105ff576040517f08c379a00000000000000000000000000000000000000000000000000000000081526004016105f69061335d565b60405180910390fd5b8073ffffffffffffffffffffffffffffffffffffffff1661061e611209565b73ffffffffffffffffffffffffffffffffffffffff16148061064d575061064c81610647611209565b610f97565b5b61068c576040517f08c379a00000000000000000000000000000000000000000000000000000000081526004016106839061321d565b60405180910390fd5b6106968383611211565b505050565b6000600880549050905090565b6106b96106b3611209565b826112ca565b6106f8576040517f08c379a00000000000000000000000000000000000000000000000000000000081526004016106ef9061337d565b60405180910390fd5b6107038383836113a8565b505050565b600061071383610ba6565b8210610754576040517f08c379a000000000000000000000000000000000000000000000000000000000815260040161074b9061313d565b60405180910390fd5b600660008473ffffffffffffffffffffffffffffffffffffffff1673ffffffffffffffffffffffffffffffffffffffff168152602001908152602001600020600083815260200190815260200160002054905092915050565b6107c883838360405180602001604052806000815250610f23565b505050565b6107de6107d8611209565b826112ca565b61081d576040517f08c379a0000000000000000000000000000000000000000000000000000000008152600401610814906133bd565b60405180910390fd5b61082681611604565b50565b606080600061083784610ba6565b905060008167ffffffffffffffff81111561087b577f4e487b7100000000000000000000000000000000000000000000000000000000600052604160045260246000fd5b6040519080825280602002602001820160405280156108a95781602001602082028036833780820191505090505b50905060008267ffffffffffffffff8111156108ee577f4e487b7100000000000000000000000000000000000000000000000000000000600052604160045260246000fd5b60405190808252806020026020018201604052801561092157816020015b606081526020019060019003908161090c5790505b50905060005b83811015610a1e576109398782610708565b838281518110610972577f4e487b7100000000000000000000000000000000000000000000000000000000600052603260045260246000fd5b6020026020010181815250506109c78382815181106109ba577f4e487b7100000000000000000000000000000000000000000000000000000000600052603260045260246000fd5b6020026020010151610f85565b828281518110610a00577f4e487b7100000000000000000000000000000000000000000000000000000000600052603260045260246000fd5b60200260200101819052508080610a1690613719565b915050610927565b50818194509450505050915091565b6000610a3761069b565b8210610a78576040517f08c379a0000000000000000000000000000000000000000000000000000000008152600401610a6f9061339d565b60405180910390fd5b60088281548110610ab2577f4e487b7100000000000000000000000000000000000000000000000000000000600052603260045260246000fd5b90600052602060002001549050919050565b6000806002600084815260200190815260200160002060009054906101000a900473ffffffffffffffffffffffffffffffffffffffff169050600073ffffffffffffffffffffffffffffffffffffffff168173ffffffffffffffffffffffffffffffffffffffff161415610b6d576040517f08c379a0000000000000000000000000000000000000000000000000000000008152600401610b649061325d565b60405180910390fd5b80915050919050565b6000610b82600c611610565b9050610b8e600c61161e565b610b983382611634565b610ba28183611652565b5050565b60008073ffffffffffffffffffffffffffffffffffffffff168273ffffffffffffffffffffffffffffffffffffffff161415610c17576040517f08c379a0000000000000000000000000000000000000000000000000000000008152600401610c0e9061323d565b60405180910390fd5b600360008373ffffffffffffffffffffffffffffffffffffffff1673ffffffffffffffffffffffffffffffffffffffff168152602001908152602001600020549050919050565b610c66611209565b73ffffffffffffffffffffffffffffffffffffffff16610c84610ce6565b73ffffffffffffffffffffffffffffffffffffffff1614610cda576040517f08c379a0000000000000000000000000000000000000000000000000000000008152600401610cd1906132fd565b60405180910390fd5b610ce460006116c6565b565b6000600b60009054906101000a900473ffffffffffffffffffffffffffffffffffffffff16905090565b606060018054610d1f906136b6565b80601f0160208091040260200160405190810160405280929190818152602001828054610d4b906136b6565b8015610d985780601f10610d6d57610100808354040283529160200191610d98565b820191906000526020600020905b815481529060010190602001808311610d7b57829003601f168201915b5050505050905090565b610daa611209565b73ffffffffffffffffffffffffffffffffffffffff168273ffffffffffffffffffffffffffffffffffffffff161415610e18576040517f08c379a0000000000000000000000000000000000000000000000000000000008152600401610e0f906131dd565b60405180910390fd5b8060056000610e25611209565b73ffffffffffffffffffffffffffffffffffffffff1673ffffffffffffffffffffffffffffffffffffffff16815260200190815260200160002060008473ffffffffffffffffffffffffffffffffffffffff1673ffffffffffffffffffffffffffffffffffffffff16815260200190815260200160002060006101000a81548160ff0219169083151502179055508173ffffffffffffffffffffffffffffffffffffffff16610ed2611209565b73ffffffffffffffffffffffffffffffffffffffff167f17307eab39ab6107e8899845ad3d59bd9653f200f220920489ca2b5937696c3183604051610f179190613100565b60405180910390a35050565b610f34610f2e611209565b836112ca565b610f73576040517f08c379a0000000000000000000000000000000000000000000000000000000008152600401610f6a9061337d565b60405180910390fd5b610f7f8484848461178c565b50505050565b6060610f90826117e8565b9050919050565b6000600560008473ffffffffffffffffffffffffffffffffffffffff1673ffffffffffffffffffffffffffffffffffffffff16815260200190815260200160002060008373ffffffffffffffffffffffffffffffffffffffff1673ffffffffffffffffffffffffffffffffffffffff16815260200190815260200160002060009054906101000a900460ff16905092915050565b611033611209565b73ffffffffffffffffffffffffffffffffffffffff16611051610ce6565b73ffffffffffffffffffffffffffffffffffffffff16146110a7576040517f08c379a000000000000000000000000000000000000000000000000000000000815260040161109e906132fd565b60405180910390fd5b600073ffffffffffffffffffffffffffffffffffffffff168173ffffffffffffffffffffffffffffffffffffffff161415611117576040517f08c379a000000000000000000000000000000000000000000000000000000000815260040161110e9061317d565b60405180910390fd5b611120816116c6565b50565b60007f780e9d63000000000000000000000000000000000000000000000000000000007bffffffffffffffffffffffffffffffffffffffffffffffffffffffff1916827bffffffffffffffffffffffffffffffffffffffffffffffffffffffff1916148061119657506111958261193a565b5b9050919050565b60008073ffffffffffffffffffffffffffffffffffffffff166002600084815260200190815260200160002060009054906101000a900473ffffffffffffffffffffffffffffffffffffffff1673ffffffffffffffffffffffffffffffffffffffff1614159050919050565b600033905090565b816004600083815260200190815260200160002060006101000a81548173ffffffffffffffffffffffffffffffffffffffff021916908373ffffffffffffffffffffffffffffffffffffffff160217905550808273ffffffffffffffffffffffffffffffffffffffff1661128483610ac4565b73ffffffffffffffffffffffffffffffffffffffff167f8c5be1e5ebec7d5bd14f71427d1e84f3dd0314c0f7b2291e5b200ac8c7c3b92560405160405180910390a45050565b60006112d58261119d565b611314576040517f08c379a000000000000000000000000000000000000000000000000000000000815260040161130b906131fd565b60405180910390fd5b600061131f83610ac4565b90508073ffffffffffffffffffffffffffffffffffffffff168473ffffffffffffffffffffffffffffffffffffffff16148061138e57508373ffffffffffffffffffffffffffffffffffffffff16611376846104fe565b73ffffffffffffffffffffffffffffffffffffffff16145b8061139f575061139e8185610f97565b5b91505092915050565b8273ffffffffffffffffffffffffffffffffffffffff166113c882610ac4565b73ffffffffffffffffffffffffffffffffffffffff161461141e576040517f08c379a00000000000000000000000000000000000000000000000000000000081526004016114159061331d565b60405180910390fd5b600073ffffffffffffffffffffffffffffffffffffffff168273ffffffffffffffffffffffffffffffffffffffff16141561148e576040517f08c379a0000000000000000000000000000000000000000000000000000000008152600401611485906131bd565b60405180910390fd5b611499838383611a1c565b6114a4600082611211565b6001600360008573ffffffffffffffffffffffffffffffffffffffff1673ffffffffffffffffffffffffffffffffffffffff16815260200190815260200160002060008282546114f491906135cc565b925050819055506001600360008473ffffffffffffffffffffffffffffffffffffffff1673ffffffffffffffffffffffffffffffffffffffff168152602001908152602001600020600082825461154b9190613545565b92505081905550816002600083815260200190815260200160002060006101000a81548173ffffffffffffffffffffffffffffffffffffffff021916908373ffffffffffffffffffffffffffffffffffffffff160217905550808273ffffffffffffffffffffffffffffffffffffffff168473ffffffffffffffffffffffffffffffffffffffff167fddf252ad1be2c89b69c2b068fc378daa952ba7f163c4a11628f55a4df523b3ef60405160405180910390a4505050565b61160d81611a2c565b50565b600081600001549050919050565b6001816000016000828254019250508190555050565b61164e828260405180602001604052806000815250611a7f565b5050565b61165b8261119d565b61169a576040517f08c379a00000000000000000000000000000000000000000000000000000000081526004016116919061327d565b60405180910390fd5b80600a600084815260200190815260200160002090805190602001906116c19291906126c9565b505050565b6000600b60009054906101000a900473ffffffffffffffffffffffffffffffffffffffff16905081600b60006101000a81548173ffffffffffffffffffffffffffffffffffffffff021916908373ffffffffffffffffffffffffffffffffffffffff1602179055508173ffffffffffffffffffffffffffffffffffffffff168173ffffffffffffffffffffffffffffffffffffffff167f8be0079c531659141344cd1fd0a4f28419497f9722a3daafe3b4186f6b6457e060405160405180910390a35050565b6117978484846113a8565b6117a384848484611ada565b6117e2576040517f08c379a00000000000000000000000000000000000000000000000000000000081526004016117d99061315d565b60405180910390fd5b50505050565b60606117f38261119d565b611832576040517f08c379a0000000000000000000000000000000000000000000000000000000008152600401611829906132bd565b60405180910390fd5b6000600a60008481526020019081526020016000208054611852906136b6565b80601f016020809104026020016040519081016040528092919081815260200182805461187e906136b6565b80156118cb5780601f106118a0576101008083540402835291602001916118cb565b820191906000526020600020905b8154815290600101906020018083116118ae57829003601f168201915b5050505050905060006118dc611c71565b90506000815114156118f2578192505050611935565b60008251111561192757808260405160200161190f92919061303e565b60405160208183030381529060405292505050611935565b61193084611c88565b925050505b919050565b60007f80ac58cd000000000000000000000000000000000000000000000000000000007bffffffffffffffffffffffffffffffffffffffffffffffffffffffff1916827bffffffffffffffffffffffffffffffffffffffffffffffffffffffff19161480611a0557507f5b5e139f000000000000000000000000000000000000000000000000000000007bffffffffffffffffffffffffffffffffffffffffffffffffffffffff1916827bffffffffffffffffffffffffffffffffffffffffffffffffffffffff1916145b80611a155750611a1482611d2f565b5b9050919050565b611a27838383611d99565b505050565b611a3581611ead565b6000600a60008381526020019081526020016000208054611a55906136b6565b905014611a7c57600a60008281526020019081526020016000206000611a7b919061274f565b5b50565b611a898383611fbe565b611a966000848484611ada565b611ad5576040517f08c379a0000000000000000000000000000000000000000000000000000000008152600401611acc9061315d565b60405180910390fd5b505050565b6000611afb8473ffffffffffffffffffffffffffffffffffffffff1661218c565b15611c64578373ffffffffffffffffffffffffffffffffffffffff1663150b7a02611b24611209565b8786866040518563ffffffff1660e01b8152600401611b46949392919061307d565b602060405180830381600087803b158015611b6057600080fd5b505af1925050508015611b9157506040513d601f19601f82011682018060405250810190611b8e9190612ab5565b60015b611c14573d8060008114611bc1576040519150601f19603f3d011682016040523d82523d6000602084013e611bc6565b606091505b50600081511415611c0c576040517f08c379a0000000000000000000000000000000000000000000000000000000008152600401611c039061315d565b60405180910390fd5b805181602001fd5b63150b7a0260e01b7bffffffffffffffffffffffffffffffffffffffffffffffffffffffff1916817bffffffffffffffffffffffffffffffffffffffffffffffffffffffff191614915050611c69565b600190505b949350505050565b606060405180602001604052806000815250905090565b6060611c938261119d565b611cd2576040517f08c379a0000000000000000000000000000000000000000000000000000000008152600401611cc99061333d565b60405180910390fd5b6000611cdc611c71565b90506000815111611cfc5760405180602001604052806000815250611d27565b80611d068461219f565b604051602001611d1792919061303e565b6040516020818303038152906040525b915050919050565b60007f01ffc9a7000000000000000000000000000000000000000000000000000000007bffffffffffffffffffffffffffffffffffffffffffffffffffffffff1916827bffffffffffffffffffffffffffffffffffffffffffffffffffffffff1916149050919050565b611da483838361234c565b600073ffffffffffffffffffffffffffffffffffffffff168373ffffffffffffffffffffffffffffffffffffffff161415611de757611de281612351565b611e26565b8173ffffffffffffffffffffffffffffffffffffffff168373ffffffffffffffffffffffffffffffffffffffff1614611e2557611e24838261239a565b5b5b600073ffffffffffffffffffffffffffffffffffffffff168273ffffffffffffffffffffffffffffffffffffffff161415611e6957611e6481612507565b611ea8565b8273ffffffffffffffffffffffffffffffffffffffff168273ffffffffffffffffffffffffffffffffffffffff1614611ea757611ea6828261264a565b5b5b505050565b6000611eb882610ac4565b9050611ec681600084611a1c565b611ed1600083611211565b6001600360008373ffffffffffffffffffffffffffffffffffffffff1673ffffffffffffffffffffffffffffffffffffffff1681526020019081526020016000206000828254611f2191906135cc565b925050819055506002600083815260200190815260200160002060006101000a81549073ffffffffffffffffffffffffffffffffffffffff021916905581600073ffffffffffffffffffffffffffffffffffffffff168273ffffffffffffffffffffffffffffffffffffffff167fddf252ad1be2c89b69c2b068fc378daa952ba7f163c4a11628f55a4df523b3ef60405160405180910390a45050565b600073ffffffffffffffffffffffffffffffffffffffff168273ffffffffffffffffffffffffffffffffffffffff16141561202e576040517f08c379a00000000000000000000000000000000000000000000000000000000081526004016120259061329d565b60405180910390fd5b6120378161119d565b15612077576040517f08c379a000000000000000000000000000000000000000000000000000000000815260040161206e9061319d565b60405180910390fd5b61208360008383611a1c565b6001600360008473ffffffffffffffffffffffffffffffffffffffff1673ffffffffffffffffffffffffffffffffffffffff16815260200190815260200160002060008282546120d39190613545565b92505081905550816002600083815260200190815260200160002060006101000a81548173ffffffffffffffffffffffffffffffffffffffff021916908373ffffffffffffffffffffffffffffffffffffffff160217905550808273ffffffffffffffffffffffffffffffffffffffff16600073ffffffffffffffffffffffffffffffffffffffff167fddf252ad1be2c89b69c2b068fc378daa952ba7f163c4a11628f55a4df523b3ef60405160405180910390a45050565b600080823b905060008111915050919050565b606060008214156121e7576040518060400160405280600181526020017f30000000000000000000000000000000000000000000000000000000000000008152509050612347565b600082905060005b6000821461221957808061220290613719565b915050600a82612212919061359b565b91506121ef565b60008167ffffffffffffffff81111561225b577f4e487b7100000000000000000000000000000000000000000000000000000000600052604160045260246000fd5b6040519080825280601f01601f19166020018201604052801561228d5781602001600182028036833780820191505090505b5090505b60008514612340576001826122a691906135cc565b9150600a856122b59190613762565b60306122c19190613545565b60f81b8183815181106122fd577f4e487b7100000000000000000000000000000000000000000000000000000000600052603260045260246000fd5b60200101907effffffffffffffffffffffffffffffffffffffffffffffffffffffffffffff1916908160001a905350600a85612339919061359b565b9450612291565b8093505050505b919050565b505050565b6008805490506009600083815260200190815260200160002081905550600881908060018154018082558091505060019003906000526020600020016000909190919091505550565b600060016123a784610ba6565b6123b191906135cc565b9050600060076000848152602001908152602001600020549050818114612496576000600660008673ffffffffffffffffffffffffffffffffffffffff1673ffffffffffffffffffffffffffffffffffffffff168152602001908152602001600020600084815260200190815260200160002054905080600660008773ffffffffffffffffffffffffffffffffffffffff1673ffffffffffffffffffffffffffffffffffffffff168152602001908152602001600020600084815260200190815260200160002081905550816007600083815260200190815260200160002081905550505b6007600084815260200190815260200160002060009055600660008573ffffffffffffffffffffffffffffffffffffffff1673ffffffffffffffffffffffffffffffffffffffff16815260200190815260200160002060008381526020019081526020016000206000905550505050565b6000600160088054905061251b91906135cc565b9050600060096000848152602001908152602001600020549050600060088381548110612571577f4e487b7100000000000000000000000000000000000000000000000000000000600052603260045260246000fd5b9060005260206000200154905080600883815481106125b9577f4e487b7100000000000000000000000000000000000000000000000000000000600052603260045260246000fd5b90600052602060002001819055508160096000838152602001908152602001600020819055506009600085815260200190815260200160002060009055600880548061262e577f4e487b7100000000000000000000000000000000000000000000000000000000600052603160045260246000fd5b6001900381819060005260206000200160009055905550505050565b600061265583610ba6565b905081600660008573ffffffffffffffffffffffffffffffffffffffff1673ffffffffffffffffffffffffffffffffffffffff168152602001908152602001600020600083815260200190815260200160002081905550806007600084815260200190815260200160002081905550505050565b8280546126d5906136b6565b90600052602060002090601f0160209004810192826126f7576000855561273e565b82601f1061271057805160ff191683800117855561273e565b8280016001018555821561273e579182015b8281111561273d578251825591602001919060010190612722565b5b50905061274b919061278f565b5090565b50805461275b906136b6565b6000825580601f1061276d575061278c565b601f01602090049060005260206000209081019061278b919061278f565b5b50565b5b808211156127a8576000816000905550600101612790565b5090565b60006127bf6127ba8461341d565b6133f8565b9050828152602081018484840111156127d757600080fd5b6127e2848285613674565b509392505050565b60006127fd6127f88461344e565b6133f8565b90508281526020810184848401111561281557600080fd5b612820848285613674565b509392505050565b60008135905061283781613e43565b92915050565b60008135905061284c81613e5a565b92915050565b60008135905061286181613e71565b92915050565b60008151905061287681613e71565b92915050565b600082601f83011261288d57600080fd5b813561289d8482602086016127ac565b91505092915050565b600082601f8301126128b757600080fd5b81356128c78482602086016127ea565b91505092915050565b6000813590506128df81613e88565b92915050565b6000602082840312156128f757600080fd5b600061290584828501612828565b91505092915050565b6000806040838503121561292157600080fd5b600061292f85828601612828565b925050602061294085828601612828565b9150509250929050565b60008060006060848603121561295f57600080fd5b600061296d86828701612828565b935050602061297e86828701612828565b925050604061298f868287016128d0565b9150509250925092565b600080600080608085870312156129af57600080fd5b60006129bd87828801612828565b94505060206129ce87828801612828565b93505060406129df878288016128d0565b925050606085013567ffffffffffffffff8111156129fc57600080fd5b612a088782880161287c565b91505092959194509250565b60008060408385031215612a2757600080fd5b6000612a3585828601612828565b9250506020612a468582860161283d565b9150509250929050565b60008060408385031215612a6357600080fd5b6000612a7185828601612828565b9250506020612a82858286016128d0565b9150509250929050565b600060208284031215612a9e57600080fd5b6000612aac84828501612852565b91505092915050565b600060208284031215612ac757600080fd5b6000612ad584828501612867565b91505092915050565b600060208284031215612af057600080fd5b600082013567ffffffffffffffff811115612b0a57600080fd5b612b16848285016128a6565b91505092915050565b600060208284031215612b3157600080fd5b6000612b3f848285016128d0565b91505092915050565b6000612b548383612c9e565b905092915050565b6000612b688383613020565b60208301905092915050565b612b7d81613600565b82525050565b6000612b8e8261349f565b612b9881856134e5565b935083602082028501612baa8561347f565b8060005b85811015612be65784840389528151612bc78582612b48565b9450612bd2836134cb565b925060208a01995050600181019050612bae565b50829750879550505050505092915050565b6000612c03826134aa565b612c0d81856134f6565b9350612c188361348f565b8060005b83811015612c49578151612c308882612b5c565b9750612c3b836134d8565b925050600181019050612c1c565b5085935050505092915050565b612c5f81613612565b82525050565b6000612c70826134b5565b612c7a8185613507565b9350612c8a818560208601613683565b612c938161384f565b840191505092915050565b6000612ca9826134c0565b612cb38185613518565b9350612cc3818560208601613683565b612ccc8161384f565b840191505092915050565b6000612ce2826134c0565b612cec8185613529565b9350612cfc818560208601613683565b612d058161384f565b840191505092915050565b6000612d1b826134c0565b612d25818561353a565b9350612d35818560208601613683565b80840191505092915050565b6000612d4e602b83613529565b9150612d5982613860565b604082019050919050565b6000612d71603283613529565b9150612d7c826138af565b604082019050919050565b6000612d94602683613529565b9150612d9f826138fe565b604082019050919050565b6000612db7601c83613529565b9150612dc28261394d565b602082019050919050565b6000612dda602483613529565b9150612de582613976565b604082019050919050565b6000612dfd601983613529565b9150612e08826139c5565b602082019050919050565b6000612e20602c83613529565b9150612e2b826139ee565b604082019050919050565b6000612e43603883613529565b9150612e4e82613a3d565b604082019050919050565b6000612e66602a83613529565b9150612e7182613a8c565b604082019050919050565b6000612e89602983613529565b9150612e9482613adb565b604082019050919050565b6000612eac602e83613529565b9150612eb782613b2a565b604082019050919050565b6000612ecf602083613529565b9150612eda82613b79565b602082019050919050565b6000612ef2603183613529565b9150612efd82613ba2565b604082019050919050565b6000612f15602c83613529565b9150612f2082613bf1565b604082019050919050565b6000612f38602083613529565b9150612f4382613c40565b602082019050919050565b6000612f5b602983613529565b9150612f6682613c69565b604082019050919050565b6000612f7e602f83613529565b9150612f8982613cb8565b604082019050919050565b6000612fa1602183613529565b9150612fac82613d07565b604082019050919050565b6000612fc4603183613529565b9150612fcf82613d56565b604082019050919050565b6000612fe7602c83613529565b9150612ff282613da5565b604082019050919050565b600061300a603083613529565b915061301582613df4565b604082019050919050565b6130298161366a565b82525050565b6130388161366a565b82525050565b600061304a8285612d10565b91506130568284612d10565b91508190509392505050565b60006020820190506130776000830184612b74565b92915050565b60006080820190506130926000830187612b74565b61309f6020830186612b74565b6130ac604083018561302f565b81810360608301526130be8184612c65565b905095945050505050565b600060408201905081810360008301526130e38185612bf8565b905081810360208301526130f78184612b83565b90509392505050565b60006020820190506131156000830184612c56565b92915050565b600060208201905081810360008301526131358184612cd7565b905092915050565b6000602082019050818103600083015261315681612d41565b9050919050565b6000602082019050818103600083015261317681612d64565b9050919050565b6000602082019050818103600083015261319681612d87565b9050919050565b600060208201905081810360008301526131b681612daa565b9050919050565b600060208201905081810360008301526131d681612dcd565b9050919050565b600060208201905081810360008301526131f681612df0565b9050919050565b6000602082019050818103600083015261321681612e13565b9050919050565b6000602082019050818103600083015261323681612e36565b9050919050565b6000602082019050818103600083015261325681612e59565b9050919050565b6000602082019050818103600083015261327681612e7c565b9050919050565b6000602082019050818103600083015261329681612e9f565b9050919050565b600060208201905081810360008301526132b681612ec2565b9050919050565b600060208201905081810360008301526132d681612ee5565b9050919050565b600060208201905081810360008301526132f681612f08565b9050919050565b6000602082019050818103600083015261331681612f2b565b9050919050565b6000602082019050818103600083015261333681612f4e565b9050919050565b6000602082019050818103600083015261335681612f71565b9050919050565b6000602082019050818103600083015261337681612f94565b9050919050565b6000602082019050818103600083015261339681612fb7565b9050919050565b600060208201905081810360008301526133b681612fda565b9050919050565b600060208201905081810360008301526133d681612ffd565b9050919050565b60006020820190506133f2600083018461302f565b92915050565b6000613402613413565b905061340e82826136e8565b919050565b6000604051905090565b600067ffffffffffffffff82111561343857613437613820565b5b6134418261384f565b9050602081019050919050565b600067ffffffffffffffff82111561346957613468613820565b5b6134728261384f565b9050602081019050919050565b6000819050602082019050919050565b6000819050602082019050919050565b600081519050919050565b600081519050919050565b600081519050919050565b600081519050919050565b6000602082019050919050565b6000602082019050919050565b600082825260208201905092915050565b600082825260208201905092915050565b600082825260208201905092915050565b600082825260208201905092915050565b600082825260208201905092915050565b600081905092915050565b60006135508261366a565b915061355b8361366a565b9250827fffffffffffffffffffffffffffffffffffffffffffffffffffffffffffffffff038211156135905761358f613793565b5b828201905092915050565b60006135a68261366a565b91506135b18361366a565b9250826135c1576135c06137c2565b5b828204905092915050565b60006135d78261366a565b91506135e28361366a565b9250828210156135f5576135f4613793565b5b828203905092915050565b600061360b8261364a565b9050919050565b60008115159050919050565b60007fffffffff0000000000000000000000000000000000000000000000000000000082169050919050565b600073ffffffffffffffffffffffffffffffffffffffff82169050919050565b6000819050919050565b82818337600083830152505050565b60005b838110156136a1578082015181840152602081019050613686565b838111156136b0576000848401525b50505050565b600060028204905060018216806136ce57607f821691505b602082108114156136e2576136e16137f1565b5b50919050565b6136f18261384f565b810181811067ffffffffffffffff821117156137105761370f613820565b5b80604052505050565b60006137248261366a565b91507fffffffffffffffffffffffffffffffffffffffffffffffffffffffffffffffff82141561375757613756613793565b5b600182019050919050565b600061376d8261366a565b91506137788361366a565b925082613788576137876137c2565b5b828206905092915050565b7f4e487b7100000000000000000000000000000000000000000000000000000000600052601160045260246000fd5b7f4e487b7100000000000000000000000000000000000000000000000000000000600052601260045260246000fd5b7f4e487b7100000000000000000000000000000000000000000000000000000000600052602260045260246000fd5b7f4e487b7100000000000000000000000000000000000000000000000000000000600052604160045260246000fd5b6000601f19601f8301169050919050565b7f455243373231456e756d657261626c653a206f776e657220696e646578206f7560008201527f74206f6620626f756e6473000000000000000000000000000000000000000000602082015250565b7f4552433732313a207472616e7366657220746f206e6f6e20455243373231526560008201527f63656976657220696d706c656d656e7465720000000000000000000000000000602082015250565b7f4f776e61626c653a206e6577206f776e657220697320746865207a65726f206160008201527f6464726573730000000000000000000000000000000000000000000000000000602082015250565b7f4552433732313a20746f6b656e20616c7265616479206d696e74656400000000600082015250565b7f4552433732313a207472616e7366657220746f20746865207a65726f2061646460008201527f7265737300000000000000000000000000000000000000000000000000000000602082015250565b7f4552433732313a20617070726f766520746f2063616c6c657200000000000000600082015250565b7f4552433732313a206f70657261746f7220717565727920666f72206e6f6e657860008201527f697374656e7420746f6b656e0000000000000000000000000000000000000000602082015250565b7f4552433732313a20617070726f76652063616c6c6572206973206e6f74206f7760008201527f6e6572206e6f7220617070726f76656420666f7220616c6c0000000000000000602082015250565b7f4552433732313a2062616c616e636520717565727920666f7220746865207a6560008201527f726f206164647265737300000000000000000000000000000000000000000000602082015250565b7f4552433732313a206f776e657220717565727920666f72206e6f6e657869737460008201527f656e7420746f6b656e0000000000000000000000000000000000000000000000602082015250565b7f45524337323155524953746f726167653a2055524920736574206f66206e6f6e60008201527f6578697374656e7420746f6b656e000000000000000000000000000000000000602082015250565b7f4552433732313a206d696e7420746f20746865207a65726f2061646472657373600082015250565b7f45524337323155524953746f726167653a2055524920717565727920666f722060008201527f6e6f6e6578697374656e7420746f6b656e000000000000000000000000000000602082015250565b7f4552433732313a20617070726f76656420717565727920666f72206e6f6e657860008201527f697374656e7420746f6b656e0000000000000000000000000000000000000000602082015250565b7f4f776e61626c653a2063616c6c6572206973206e6f7420746865206f776e6572600082015250565b7f4552433732313a207472616e73666572206f6620746f6b656e2074686174206960008201527f73206e6f74206f776e0000000000000000000000000000000000000000000000602082015250565b7f4552433732314d657461646174613a2055524920717565727920666f72206e6f60008201527f6e6578697374656e7420746f6b656e0000000000000000000000000000000000602082015250565b7f4552433732313a20617070726f76616c20746f2063757272656e74206f776e6560008201527f7200000000000000000000000000000000000000000000000000000000000000602082015250565b7f4552433732313a207472616e736665722063616c6c6572206973206e6f74206f60008201527f776e6572206e6f7220617070726f766564000000000000000000000000000000602082015250565b7f455243373231456e756d657261626c653a20676c6f62616c20696e646578206f60008201527f7574206f6620626f756e64730000000000000000000000000000000000000000602082015250565b7f4552433732314275726e61626c653a2063616c6c6572206973206e6f74206f7760008201527f6e6572206e6f7220617070726f76656400000000000000000000000000000000602082015250565b613e4c81613600565b8114613e5757600080fd5b50565b613e6381613612565b8114613e6e57600080fd5b50565b613e7a8161361e565b8114613e8557600080fd5b50565b613e918161366a565b8114613e9c57600080fd5b5056fea2646970667358221220b7e31c3c30a68a7d5c1d80531d48c530575b89d7f63e9e7d339db096e2bd34c964736f6c63430008040033",
  "linkReferences": {},
  "deployedLinkReferences": {}
}