{
  "_format": "hh-sol-artifact-1",
  "contractName": "NFTProfile",
  "sourceName": "contracts/NFTProfile.sol",
  "abi": [
    {
      "inputs": [],
      "stateMutability": "nonpayable",
      "type": "constructor"
    },
    {
      "anonymous": false,
      "inputs": [
        {
          "indexed": true,
          "internalType": "address",
          "name": "owner",
          "type": "address"
        },
        {
          "indexed": true,
          "internalType": "address",
          "name": "approved",
          "type": "address"
        },
        {
          "indexed": true,
          "internalType": "uint256",
          "name": "tokenId",
          "type": "uint256"
        }
      ],
      "name": "Approval",
      "type": "event"
    },
    {
      "anonymous": false,
      "inputs": [
        {
          "indexed": true,
          "internalType": "address",
          "name": "owner",
          "type": "address"
        },
        {
          "indexed": true,
          "internalType": "address",
          "name": "operator",
          "type": "address"
        },
        {
          "indexed": false,
          "internalType": "bool",
          "name": "approved",
          "type": "bool"
        }
      ],
      "name": "ApprovalForAll",
      "type": "event"
    },
    {
      "anonymous": false,
      "inputs": [
        {
          "indexed": true,
          "internalType": "address",
          "name": "previousOwner",
          "type": "address"
        },
        {
          "indexed": true,
          "internalType": "address",
          "name": "newOwner",
          "type": "address"
        }
      ],
      "name": "OwnershipTransferred",
      "type": "event"
    },
    {
      "anonymous": false,
      "inputs": [
        {
          "indexed": true,
          "internalType": "address",
          "name": "from",
          "type": "address"
        },
        {
          "indexed": true,
          "internalType": "address",
          "name": "to",
          "type": "address"
        },
        {
          "indexed": true,
          "internalType": "uint256",
          "name": "tokenId",
          "type": "uint256"
        }
      ],
      "name": "Transfer",
      "type": "event"
    },
    {
      "inputs": [
        {
          "internalType": "address",
          "name": "to",
          "type": "address"
        },
        {
          "internalType": "uint256",
          "name": "tokenId",
          "type": "uint256"
        }
      ],
      "name": "approve",
      "outputs": [],
      "stateMutability": "nonpayable",
      "type": "function"
    },
    {
      "inputs": [
        {
          "internalType": "address",
          "name": "owner",
          "type": "address"
        }
      ],
      "name": "balanceOf",
      "outputs": [
        {
          "internalType": "uint256",
          "name": "",
          "type": "uint256"
        }
      ],
      "stateMutability": "view",
      "type": "function"
    },
    {
      "inputs": [
        {
          "internalType": "uint256",
          "name": "tokenId",
          "type": "uint256"
        }
      ],
      "name": "burn",
      "outputs": [],
      "stateMutability": "nonpayable",
      "type": "function"
    },
    {
      "inputs": [
        {
          "internalType": "uint256",
          "name": "tokenId",
          "type": "uint256"
        }
      ],
      "name": "getApproved",
      "outputs": [
        {
          "internalType": "address",
          "name": "",
          "type": "address"
        }
      ],
      "stateMutability": "view",
      "type": "function"
    },
    {
      "inputs": [
        {
          "internalType": "address",
          "name": "owner",
          "type": "address"
        },
        {
          "internalType": "address",
          "name": "operator",
          "type": "address"
        }
      ],
      "name": "isApprovedForAll",
      "outputs": [
        {
          "internalType": "bool",
          "name": "",
          "type": "bool"
        }
      ],
      "stateMutability": "view",
      "type": "function"
    },
    {
      "inputs": [],
      "name": "name",
      "outputs": [
        {
          "internalType": "string",
          "name": "",
          "type": "string"
        }
      ],
      "stateMutability": "view",
      "type": "function"
    },
    {
      "inputs": [],
      "name": "owner",
      "outputs": [
        {
          "internalType": "address",
          "name": "",
          "type": "address"
        }
      ],
      "stateMutability": "view",
      "type": "function"
    },
    {
      "inputs": [
        {
          "internalType": "uint256",
          "name": "tokenId",
          "type": "uint256"
        }
      ],
      "name": "ownerOf",
      "outputs": [
        {
          "internalType": "address",
          "name": "",
          "type": "address"
        }
      ],
      "stateMutability": "view",
      "type": "function"
    },
    {
      "inputs": [],
      "name": "renounceOwnership",
      "outputs": [],
      "stateMutability": "nonpayable",
      "type": "function"
    },
    {
      "inputs": [
        {
          "internalType": "string",
          "name": "uri",
          "type": "string"
        }
      ],
      "name": "safeMint",
      "outputs": [],
      "stateMutability": "nonpayable",
      "type": "function"
    },
    {
      "inputs": [
        {
          "internalType": "address",
          "name": "from",
          "type": "address"
        },
        {
          "internalType": "address",
          "name": "to",
          "type": "address"
        },
        {
          "internalType": "uint256",
          "name": "tokenId",
          "type": "uint256"
        }
      ],
      "name": "safeTransferFrom",
      "outputs": [],
      "stateMutability": "nonpayable",
      "type": "function"
    },
    {
      "inputs": [
        {
          "internalType": "address",
          "name": "from",
          "type": "address"
        },
        {
          "internalType": "address",
          "name": "to",
          "type": "address"
        },
        {
          "internalType": "uint256",
          "name": "tokenId",
          "type": "uint256"
        },
        {
          "internalType": "bytes",
          "name": "_data",
          "type": "bytes"
        }
      ],
      "name": "safeTransferFrom",
      "outputs": [],
      "stateMutability": "nonpayable",
      "type": "function"
    },
    {
      "inputs": [
        {
          "internalType": "address",
          "name": "operator",
          "type": "address"
        },
        {
          "internalType": "bool",
          "name": "approved",
          "type": "bool"
        }
      ],
      "name": "setApprovalForAll",
      "outputs": [],
      "stateMutability": "nonpayable",
      "type": "function"
    },
    {
      "inputs": [
        {
          "internalType": "bytes4",
          "name": "interfaceId",
          "type": "bytes4"
        }
      ],
      "name": "supportsInterface",
      "outputs": [
        {
          "internalType": "bool",
          "name": "",
          "type": "bool"
        }
      ],
      "stateMutability": "view",
      "type": "function"
    },
    {
      "inputs": [],
      "name": "symbol",
      "outputs": [
        {
          "internalType": "string",
          "name": "",
          "type": "string"
        }
      ],
      "stateMutability": "view",
      "type": "function"
    },
    {
      "inputs": [
        {
          "internalType": "uint256",
          "name": "index",
          "type": "uint256"
        }
      ],
      "name": "tokenByIndex",
      "outputs": [
        {
          "internalType": "uint256",
          "name": "",
          "type": "uint256"
        }
      ],
      "stateMutability": "view",
      "type": "function"
    },
    {
      "inputs": [
        {
          "internalType": "address",
          "name": "owner",
          "type": "address"
        },
        {
          "internalType": "uint256",
          "name": "index",
          "type": "uint256"
        }
      ],
      "name": "tokenOfOwnerByIndex",
      "outputs": [
        {
          "internalType": "uint256",
          "name": "",
          "type": "uint256"
        }
      ],
      "stateMutability": "view",
      "type": "function"
    },
    {
      "inputs": [
        {
          "internalType": "uint256",
          "name": "tokenId",
          "type": "uint256"
        }
      ],
      "name": "tokenURI",
      "outputs": [
        {
          "internalType": "string",
          "name": "",
          "type": "string"
        }
      ],
      "stateMutability": "view",
      "type": "function"
    },
    {
      "inputs": [],
      "name": "totalSupply",
      "outputs": [
        {
          "internalType": "uint256",
          "name": "",
          "type": "uint256"
        }
      ],
      "stateMutability": "view",
      "type": "function"
    },
    {
      "inputs": [
        {
          "internalType": "address",
          "name": "from",
          "type": "address"
        },
        {
          "internalType": "address",
          "name": "to",
          "type": "address"
        },
        {
          "internalType": "uint256",
          "name": "tokenId",
          "type": "uint256"
        }
      ],
      "name": "transferFrom",
      "outputs": [],
      "stateMutability": "nonpayable",
      "type": "function"
    },
    {
      "inputs": [
        {
          "internalType": "address",
          "name": "newOwner",
          "type": "address"
        }
      ],
      "name": "transferOwnership",
      "outputs": [],
      "stateMutability": "nonpayable",
      "type": "function"
    },
    {
      "inputs": [
        {
          "internalType": "address",
          "name": "_owner",
          "type": "address"
        }
      ],
      "name": "walletOfOwner",
      "outputs": [
        {
          "internalType": "uint256[]",
          "name": "",
          "type": "uint256[]"
        }
      ],
      "stateMutability": "view",
      "type": "function"
    }
  ],
  "bytecode": "0x60806040523480156200001157600080fd5b506040518060400160405280600981526020017f53706f746f204e465400000000000000000000000000000000000000000000008152506040518060400160405280600481526020017f5350544e00000000000000000000000000000000000000000000000000000000815250816000908051906020019062000096929190620001a6565b508060019080519060200190620000af929190620001a6565b505050620000d2620000c6620000d860201b60201c565b620000e060201b60201c565b620002bb565b600033905090565b6000600b60009054906101000a900473ffffffffffffffffffffffffffffffffffffffff16905081600b60006101000a81548173ffffffffffffffffffffffffffffffffffffffff021916908373ffffffffffffffffffffffffffffffffffffffff1602179055508173ffffffffffffffffffffffffffffffffffffffff168173ffffffffffffffffffffffffffffffffffffffff167f8be0079c531659141344cd1fd0a4f28419497f9722a3daafe3b4186f6b6457e060405160405180910390a35050565b828054620001b49062000256565b90600052602060002090601f016020900481019282620001d8576000855562000224565b82601f10620001f357805160ff191683800117855562000224565b8280016001018555821562000224579182015b828111156200022357825182559160200191906001019062000206565b5b50905062000233919062000237565b5090565b5b808211156200025257600081600090555060010162000238565b5090565b600060028204905060018216806200026f57607f821691505b602082108114156200028657620002856200028c565b5b50919050565b7f4e487b7100000000000000000000000000000000000000000000000000000000600052602260045260246000fd5b613ca980620002cb6000396000f3fe608060405234801561001057600080fd5b50600436106101425760003560e01c80636352211e116100b857806395d89b411161007c57806395d89b4114610387578063a22cb465146103a5578063b88d4fde146103c1578063c87b56dd146103dd578063e985e9c51461040d578063f2fde38b1461043d57610142565b80636352211e146102e3578063695850fb1461031357806370a082311461032f578063715018a61461035f5780638da5cb5b1461036957610142565b806323b872dd1161010a57806323b872dd146101ff5780632f745c591461021b57806342842e0e1461024b57806342966c6814610267578063438b6300146102835780634f6ccce7146102b357610142565b806301ffc9a71461014757806306fdde0314610177578063081812fc14610195578063095ea7b3146101c557806318160ddd146101e1575b600080fd5b610161600480360381019061015c9190612981565b610459565b60405161016e9190612f1e565b60405180910390f35b61017f61046b565b60405161018c9190612f39565b60405180910390f35b6101af60048036038101906101aa9190612a14565b6104fd565b6040516101bc9190612e95565b60405180910390f35b6101df60048036038101906101da9190612945565b610582565b005b6101e961069a565b6040516101f691906131fb565b60405180910390f35b6102196004803603810190610214919061283f565b6106a7565b005b61023560048036038101906102309190612945565b610707565b60405161024291906131fb565b60405180910390f35b6102656004803603810190610260919061283f565b6107ac565b005b610281600480360381019061027c9190612a14565b6107cc565b005b61029d600480360381019061029891906127da565b610828565b6040516102aa9190612efc565b60405180910390f35b6102cd60048036038101906102c89190612a14565b610922565b6040516102da91906131fb565b60405180910390f35b6102fd60048036038101906102f89190612a14565b6109b9565b60405161030a9190612e95565b60405180910390f35b61032d600480360381019061032891906129d3565b610a6b565b005b610349600480360381019061034491906127da565b610a9b565b60405161035691906131fb565b60405180910390f35b610367610b53565b005b610371610bdb565b60405161037e9190612e95565b60405180910390f35b61038f610c05565b60405161039c9190612f39565b60405180910390f35b6103bf60048036038101906103ba9190612909565b610c97565b005b6103db60048036038101906103d6919061288e565b610e18565b005b6103f760048036038101906103f29190612a14565b610e7a565b6040516104049190612f39565b60405180910390f35b61042760048036038101906104229190612803565b610e8c565b6040516104349190612f1e565b60405180910390f35b610457600480360381019061045291906127da565b610f20565b005b600061046482611018565b9050919050565b60606000805461047a9061348a565b80601f01602080910402602001604051908101604052809291908181526020018280546104a69061348a565b80156104f35780601f106104c8576101008083540402835291602001916104f3565b820191906000526020600020905b8154815290600101906020018083116104d657829003601f168201915b5050505050905090565b600061050882611092565b610547576040517f08c379a000000000000000000000000000000000000000000000000000000000815260040161053e906130fb565b60405180910390fd5b6004600083815260200190815260200160002060009054906101000a900473ffffffffffffffffffffffffffffffffffffffff169050919050565b600061058d826109b9565b90508073ffffffffffffffffffffffffffffffffffffffff168373ffffffffffffffffffffffffffffffffffffffff1614156105fe576040517f08c379a00000000000000000000000000000000000000000000000000000000081526004016105f59061317b565b60405180910390fd5b8073ffffffffffffffffffffffffffffffffffffffff1661061d6110fe565b73ffffffffffffffffffffffffffffffffffffffff16148061064c575061064b816106466110fe565b610e8c565b5b61068b576040517f08c379a00000000000000000000000000000000000000000000000000000000081526004016106829061303b565b60405180910390fd5b6106958383611106565b505050565b6000600880549050905090565b6106b86106b26110fe565b826111bf565b6106f7576040517f08c379a00000000000000000000000000000000000000000000000000000000081526004016106ee9061319b565b60405180910390fd5b61070283838361129d565b505050565b600061071283610a9b565b8210610753576040517f08c379a000000000000000000000000000000000000000000000000000000000815260040161074a90612f5b565b60405180910390fd5b600660008473ffffffffffffffffffffffffffffffffffffffff1673ffffffffffffffffffffffffffffffffffffffff168152602001908152602001600020600083815260200190815260200160002054905092915050565b6107c783838360405180602001604052806000815250610e18565b505050565b6107dd6107d76110fe565b826111bf565b61081c576040517f08c379a0000000000000000000000000000000000000000000000000000000008152600401610813906131db565b60405180910390fd5b610825816114f9565b50565b6060600061083583610a9b565b905060008167ffffffffffffffff811115610879577f4e487b7100000000000000000000000000000000000000000000000000000000600052604160045260246000fd5b6040519080825280602002602001820160405280156108a75781602001602082028036833780820191505090505b50905060005b82811015610917576108bf8582610707565b8282815181106108f8577f4e487b7100000000000000000000000000000000000000000000000000000000600052603260045260246000fd5b602002602001018181525050808061090f906134ed565b9150506108ad565b508092505050919050565b600061092c61069a565b821061096d576040517f08c379a0000000000000000000000000000000000000000000000000000000008152600401610964906131bb565b60405180910390fd5b600882815481106109a7577f4e487b7100000000000000000000000000000000000000000000000000000000600052603260045260246000fd5b90600052602060002001549050919050565b6000806002600084815260200190815260200160002060009054906101000a900473ffffffffffffffffffffffffffffffffffffffff169050600073ffffffffffffffffffffffffffffffffffffffff168173ffffffffffffffffffffffffffffffffffffffff161415610a62576040517f08c379a0000000000000000000000000000000000000000000000000000000008152600401610a599061307b565b60405180910390fd5b80915050919050565b6000610a77600c611505565b9050610a83600c611513565b610a8d3382611529565b610a978183611547565b5050565b60008073ffffffffffffffffffffffffffffffffffffffff168273ffffffffffffffffffffffffffffffffffffffff161415610b0c576040517f08c379a0000000000000000000000000000000000000000000000000000000008152600401610b039061305b565b60405180910390fd5b600360008373ffffffffffffffffffffffffffffffffffffffff1673ffffffffffffffffffffffffffffffffffffffff168152602001908152602001600020549050919050565b610b5b6110fe565b73ffffffffffffffffffffffffffffffffffffffff16610b79610bdb565b73ffffffffffffffffffffffffffffffffffffffff1614610bcf576040517f08c379a0000000000000000000000000000000000000000000000000000000008152600401610bc69061311b565b60405180910390fd5b610bd960006115bb565b565b6000600b60009054906101000a900473ffffffffffffffffffffffffffffffffffffffff16905090565b606060018054610c149061348a565b80601f0160208091040260200160405190810160405280929190818152602001828054610c409061348a565b8015610c8d5780601f10610c6257610100808354040283529160200191610c8d565b820191906000526020600020905b815481529060010190602001808311610c7057829003601f168201915b5050505050905090565b610c9f6110fe565b73ffffffffffffffffffffffffffffffffffffffff168273ffffffffffffffffffffffffffffffffffffffff161415610d0d576040517f08c379a0000000000000000000000000000000000000000000000000000000008152600401610d0490612ffb565b60405180910390fd5b8060056000610d1a6110fe565b73ffffffffffffffffffffffffffffffffffffffff1673ffffffffffffffffffffffffffffffffffffffff16815260200190815260200160002060008473ffffffffffffffffffffffffffffffffffffffff1673ffffffffffffffffffffffffffffffffffffffff16815260200190815260200160002060006101000a81548160ff0219169083151502179055508173ffffffffffffffffffffffffffffffffffffffff16610dc76110fe565b73ffffffffffffffffffffffffffffffffffffffff167f17307eab39ab6107e8899845ad3d59bd9653f200f220920489ca2b5937696c3183604051610e0c9190612f1e565b60405180910390a35050565b610e29610e236110fe565b836111bf565b610e68576040517f08c379a0000000000000000000000000000000000000000000000000000000008152600401610e5f9061319b565b60405180910390fd5b610e7484848484611681565b50505050565b6060610e85826116dd565b9050919050565b6000600560008473ffffffffffffffffffffffffffffffffffffffff1673ffffffffffffffffffffffffffffffffffffffff16815260200190815260200160002060008373ffffffffffffffffffffffffffffffffffffffff1673ffffffffffffffffffffffffffffffffffffffff16815260200190815260200160002060009054906101000a900460ff16905092915050565b610f286110fe565b73ffffffffffffffffffffffffffffffffffffffff16610f46610bdb565b73ffffffffffffffffffffffffffffffffffffffff1614610f9c576040517f08c379a0000000000000000000000000000000000000000000000000000000008152600401610f939061311b565b60405180910390fd5b600073ffffffffffffffffffffffffffffffffffffffff168173ffffffffffffffffffffffffffffffffffffffff16141561100c576040517f08c379a000000000000000000000000000000000000000000000000000000000815260040161100390612f9b565b60405180910390fd5b611015816115bb565b50565b60007f780e9d63000000000000000000000000000000000000000000000000000000007bffffffffffffffffffffffffffffffffffffffffffffffffffffffff1916827bffffffffffffffffffffffffffffffffffffffffffffffffffffffff1916148061108b575061108a8261182f565b5b9050919050565b60008073ffffffffffffffffffffffffffffffffffffffff166002600084815260200190815260200160002060009054906101000a900473ffffffffffffffffffffffffffffffffffffffff1673ffffffffffffffffffffffffffffffffffffffff1614159050919050565b600033905090565b816004600083815260200190815260200160002060006101000a81548173ffffffffffffffffffffffffffffffffffffffff021916908373ffffffffffffffffffffffffffffffffffffffff160217905550808273ffffffffffffffffffffffffffffffffffffffff16611179836109b9565b73ffffffffffffffffffffffffffffffffffffffff167f8c5be1e5ebec7d5bd14f71427d1e84f3dd0314c0f7b2291e5b200ac8c7c3b92560405160405180910390a45050565b60006111ca82611092565b611209576040517f08c379a00000000000000000000000000000000000000000000000000000000081526004016112009061301b565b60405180910390fd5b6000611214836109b9565b90508073ffffffffffffffffffffffffffffffffffffffff168473ffffffffffffffffffffffffffffffffffffffff16148061128357508373ffffffffffffffffffffffffffffffffffffffff1661126b846104fd565b73ffffffffffffffffffffffffffffffffffffffff16145b8061129457506112938185610e8c565b5b91505092915050565b8273ffffffffffffffffffffffffffffffffffffffff166112bd826109b9565b73ffffffffffffffffffffffffffffffffffffffff1614611313576040517f08c379a000000000000000000000000000000000000000000000000000000000815260040161130a9061313b565b60405180910390fd5b600073ffffffffffffffffffffffffffffffffffffffff168273ffffffffffffffffffffffffffffffffffffffff161415611383576040517f08c379a000000000000000000000000000000000000000000000000000000000815260040161137a90612fdb565b60405180910390fd5b61138e838383611911565b611399600082611106565b6001600360008573ffffffffffffffffffffffffffffffffffffffff1673ffffffffffffffffffffffffffffffffffffffff16815260200190815260200160002060008282546113e991906133a0565b925050819055506001600360008473ffffffffffffffffffffffffffffffffffffffff1673ffffffffffffffffffffffffffffffffffffffff16815260200190815260200160002060008282546114409190613319565b92505081905550816002600083815260200190815260200160002060006101000a81548173ffffffffffffffffffffffffffffffffffffffff021916908373ffffffffffffffffffffffffffffffffffffffff160217905550808273ffffffffffffffffffffffffffffffffffffffff168473ffffffffffffffffffffffffffffffffffffffff167fddf252ad1be2c89b69c2b068fc378daa952ba7f163c4a11628f55a4df523b3ef60405160405180910390a4505050565b61150281611921565b50565b600081600001549050919050565b6001816000016000828254019250508190555050565b611543828260405180602001604052806000815250611974565b5050565b61155082611092565b61158f576040517f08c379a00000000000000000000000000000000000000000000000000000000081526004016115869061309b565b60405180910390fd5b80600a600084815260200190815260200160002090805190602001906115b69291906125be565b505050565b6000600b60009054906101000a900473ffffffffffffffffffffffffffffffffffffffff16905081600b60006101000a81548173ffffffffffffffffffffffffffffffffffffffff021916908373ffffffffffffffffffffffffffffffffffffffff1602179055508173ffffffffffffffffffffffffffffffffffffffff168173ffffffffffffffffffffffffffffffffffffffff167f8be0079c531659141344cd1fd0a4f28419497f9722a3daafe3b4186f6b6457e060405160405180910390a35050565b61168c84848461129d565b611698848484846119cf565b6116d7576040517f08c379a00000000000000000000000000000000000000000000000000000000081526004016116ce90612f7b565b60405180910390fd5b50505050565b60606116e882611092565b611727576040517f08c379a000000000000000000000000000000000000000000000000000000000815260040161171e906130db565b60405180910390fd5b6000600a600084815260200190815260200160002080546117479061348a565b80601f01602080910402602001604051908101604052809291908181526020018280546117739061348a565b80156117c05780601f10611795576101008083540402835291602001916117c0565b820191906000526020600020905b8154815290600101906020018083116117a357829003601f168201915b5050505050905060006117d1611b66565b90506000815114156117e757819250505061182a565b60008251111561181c578082604051602001611804929190612e71565b6040516020818303038152906040529250505061182a565b61182584611b7d565b925050505b919050565b60007f80ac58cd000000000000000000000000000000000000000000000000000000007bffffffffffffffffffffffffffffffffffffffffffffffffffffffff1916827bffffffffffffffffffffffffffffffffffffffffffffffffffffffff191614806118fa57507f5b5e139f000000000000000000000000000000000000000000000000000000007bffffffffffffffffffffffffffffffffffffffffffffffffffffffff1916827bffffffffffffffffffffffffffffffffffffffffffffffffffffffff1916145b8061190a575061190982611c24565b5b9050919050565b61191c838383611c8e565b505050565b61192a81611da2565b6000600a6000838152602001908152602001600020805461194a9061348a565b90501461197157600a600082815260200190815260200160002060006119709190612644565b5b50565b61197e8383611eb3565b61198b60008484846119cf565b6119ca576040517f08c379a00000000000000000000000000000000000000000000000000000000081526004016119c190612f7b565b60405180910390fd5b505050565b60006119f08473ffffffffffffffffffffffffffffffffffffffff16612081565b15611b59578373ffffffffffffffffffffffffffffffffffffffff1663150b7a02611a196110fe565b8786866040518563ffffffff1660e01b8152600401611a3b9493929190612eb0565b602060405180830381600087803b158015611a5557600080fd5b505af1925050508015611a8657506040513d601f19601f82011682018060405250810190611a8391906129aa565b60015b611b09573d8060008114611ab6576040519150601f19603f3d011682016040523d82523d6000602084013e611abb565b606091505b50600081511415611b01576040517f08c379a0000000000000000000000000000000000000000000000000000000008152600401611af890612f7b565b60405180910390fd5b805181602001fd5b63150b7a0260e01b7bffffffffffffffffffffffffffffffffffffffffffffffffffffffff1916817bffffffffffffffffffffffffffffffffffffffffffffffffffffffff191614915050611b5e565b600190505b949350505050565b606060405180602001604052806000815250905090565b6060611b8882611092565b611bc7576040517f08c379a0000000000000000000000000000000000000000000000000000000008152600401611bbe9061315b565b60405180910390fd5b6000611bd1611b66565b90506000815111611bf15760405180602001604052806000815250611c1c565b80611bfb84612094565b604051602001611c0c929190612e71565b6040516020818303038152906040525b915050919050565b60007f01ffc9a7000000000000000000000000000000000000000000000000000000007bffffffffffffffffffffffffffffffffffffffffffffffffffffffff1916827bffffffffffffffffffffffffffffffffffffffffffffffffffffffff1916149050919050565b611c99838383612241565b600073ffffffffffffffffffffffffffffffffffffffff168373ffffffffffffffffffffffffffffffffffffffff161415611cdc57611cd781612246565b611d1b565b8173ffffffffffffffffffffffffffffffffffffffff168373ffffffffffffffffffffffffffffffffffffffff1614611d1a57611d19838261228f565b5b5b600073ffffffffffffffffffffffffffffffffffffffff168273ffffffffffffffffffffffffffffffffffffffff161415611d5e57611d59816123fc565b611d9d565b8273ffffffffffffffffffffffffffffffffffffffff168273ffffffffffffffffffffffffffffffffffffffff1614611d9c57611d9b828261253f565b5b5b505050565b6000611dad826109b9565b9050611dbb81600084611911565b611dc6600083611106565b6001600360008373ffffffffffffffffffffffffffffffffffffffff1673ffffffffffffffffffffffffffffffffffffffff1681526020019081526020016000206000828254611e1691906133a0565b925050819055506002600083815260200190815260200160002060006101000a81549073ffffffffffffffffffffffffffffffffffffffff021916905581600073ffffffffffffffffffffffffffffffffffffffff168273ffffffffffffffffffffffffffffffffffffffff167fddf252ad1be2c89b69c2b068fc378daa952ba7f163c4a11628f55a4df523b3ef60405160405180910390a45050565b600073ffffffffffffffffffffffffffffffffffffffff168273ffffffffffffffffffffffffffffffffffffffff161415611f23576040517f08c379a0000000000000000000000000000000000000000000000000000000008152600401611f1a906130bb565b60405180910390fd5b611f2c81611092565b15611f6c576040517f08c379a0000000000000000000000000000000000000000000000000000000008152600401611f6390612fbb565b60405180910390fd5b611f7860008383611911565b6001600360008473ffffffffffffffffffffffffffffffffffffffff1673ffffffffffffffffffffffffffffffffffffffff1681526020019081526020016000206000828254611fc89190613319565b92505081905550816002600083815260200190815260200160002060006101000a81548173ffffffffffffffffffffffffffffffffffffffff021916908373ffffffffffffffffffffffffffffffffffffffff160217905550808273ffffffffffffffffffffffffffffffffffffffff16600073ffffffffffffffffffffffffffffffffffffffff167fddf252ad1be2c89b69c2b068fc378daa952ba7f163c4a11628f55a4df523b3ef60405160405180910390a45050565b600080823b905060008111915050919050565b606060008214156120dc576040518060400160405280600181526020017f3000000000000000000000000000000000000000000000000000000000000000815250905061223c565b600082905060005b6000821461210e5780806120f7906134ed565b915050600a82612107919061336f565b91506120e4565b60008167ffffffffffffffff811115612150577f4e487b7100000000000000000000000000000000000000000000000000000000600052604160045260246000fd5b6040519080825280601f01601f1916602001820160405280156121825781602001600182028036833780820191505090505b5090505b600085146122355760018261219b91906133a0565b9150600a856121aa9190613536565b60306121b69190613319565b60f81b8183815181106121f2577f4e487b7100000000000000000000000000000000000000000000000000000000600052603260045260246000fd5b60200101907effffffffffffffffffffffffffffffffffffffffffffffffffffffffffffff1916908160001a905350600a8561222e919061336f565b9450612186565b8093505050505b919050565b505050565b6008805490506009600083815260200190815260200160002081905550600881908060018154018082558091505060019003906000526020600020016000909190919091505550565b6000600161229c84610a9b565b6122a691906133a0565b905060006007600084815260200190815260200160002054905081811461238b576000600660008673ffffffffffffffffffffffffffffffffffffffff1673ffffffffffffffffffffffffffffffffffffffff168152602001908152602001600020600084815260200190815260200160002054905080600660008773ffffffffffffffffffffffffffffffffffffffff1673ffffffffffffffffffffffffffffffffffffffff168152602001908152602001600020600084815260200190815260200160002081905550816007600083815260200190815260200160002081905550505b6007600084815260200190815260200160002060009055600660008573ffffffffffffffffffffffffffffffffffffffff1673ffffffffffffffffffffffffffffffffffffffff16815260200190815260200160002060008381526020019081526020016000206000905550505050565b6000600160088054905061241091906133a0565b9050600060096000848152602001908152602001600020549050600060088381548110612466577f4e487b7100000000000000000000000000000000000000000000000000000000600052603260045260246000fd5b9060005260206000200154905080600883815481106124ae577f4e487b7100000000000000000000000000000000000000000000000000000000600052603260045260246000fd5b906000526020600020018190555081600960008381526020019081526020016000208190555060096000858152602001908152602001600020600090556008805480612523577f4e487b7100000000000000000000000000000000000000000000000000000000600052603160045260246000fd5b6001900381819060005260206000200160009055905550505050565b600061254a83610a9b565b905081600660008573ffffffffffffffffffffffffffffffffffffffff1673ffffffffffffffffffffffffffffffffffffffff168152602001908152602001600020600083815260200190815260200160002081905550806007600084815260200190815260200160002081905550505050565b8280546125ca9061348a565b90600052602060002090601f0160209004810192826125ec5760008555612633565b82601f1061260557805160ff1916838001178555612633565b82800160010185558215612633579182015b82811115612632578251825591602001919060010190612617565b5b5090506126409190612684565b5090565b5080546126509061348a565b6000825580601f106126625750612681565b601f0160209004906000526020600020908101906126809190612684565b5b50565b5b8082111561269d576000816000905550600101612685565b5090565b60006126b46126af8461323b565b613216565b9050828152602081018484840111156126cc57600080fd5b6126d7848285613448565b509392505050565b60006126f26126ed8461326c565b613216565b90508281526020810184848401111561270a57600080fd5b612715848285613448565b509392505050565b60008135905061272c81613c17565b92915050565b60008135905061274181613c2e565b92915050565b60008135905061275681613c45565b92915050565b60008151905061276b81613c45565b92915050565b600082601f83011261278257600080fd5b81356127928482602086016126a1565b91505092915050565b600082601f8301126127ac57600080fd5b81356127bc8482602086016126df565b91505092915050565b6000813590506127d481613c5c565b92915050565b6000602082840312156127ec57600080fd5b60006127fa8482850161271d565b91505092915050565b6000806040838503121561281657600080fd5b60006128248582860161271d565b92505060206128358582860161271d565b9150509250929050565b60008060006060848603121561285457600080fd5b60006128628682870161271d565b93505060206128738682870161271d565b9250506040612884868287016127c5565b9150509250925092565b600080600080608085870312156128a457600080fd5b60006128b28782880161271d565b94505060206128c38782880161271d565b93505060406128d4878288016127c5565b925050606085013567ffffffffffffffff8111156128f157600080fd5b6128fd87828801612771565b91505092959194509250565b6000806040838503121561291c57600080fd5b600061292a8582860161271d565b925050602061293b85828601612732565b9150509250929050565b6000806040838503121561295857600080fd5b60006129668582860161271d565b9250506020612977858286016127c5565b9150509250929050565b60006020828403121561299357600080fd5b60006129a184828501612747565b91505092915050565b6000602082840312156129bc57600080fd5b60006129ca8482850161275c565b91505092915050565b6000602082840312156129e557600080fd5b600082013567ffffffffffffffff8111156129ff57600080fd5b612a0b8482850161279b565b91505092915050565b600060208284031215612a2657600080fd5b6000612a34848285016127c5565b91505092915050565b6000612a498383612e53565b60208301905092915050565b612a5e816133d4565b82525050565b6000612a6f826132ad565b612a7981856132db565b9350612a848361329d565b8060005b83811015612ab5578151612a9c8882612a3d565b9750612aa7836132ce565b925050600181019050612a88565b5085935050505092915050565b612acb816133e6565b82525050565b6000612adc826132b8565b612ae681856132ec565b9350612af6818560208601613457565b612aff81613623565b840191505092915050565b6000612b15826132c3565b612b1f81856132fd565b9350612b2f818560208601613457565b612b3881613623565b840191505092915050565b6000612b4e826132c3565b612b58818561330e565b9350612b68818560208601613457565b80840191505092915050565b6000612b81602b836132fd565b9150612b8c82613634565b604082019050919050565b6000612ba46032836132fd565b9150612baf82613683565b604082019050919050565b6000612bc76026836132fd565b9150612bd2826136d2565b604082019050919050565b6000612bea601c836132fd565b9150612bf582613721565b602082019050919050565b6000612c0d6024836132fd565b9150612c188261374a565b604082019050919050565b6000612c306019836132fd565b9150612c3b82613799565b602082019050919050565b6000612c53602c836132fd565b9150612c5e826137c2565b604082019050919050565b6000612c766038836132fd565b9150612c8182613811565b604082019050919050565b6000612c99602a836132fd565b9150612ca482613860565b604082019050919050565b6000612cbc6029836132fd565b9150612cc7826138af565b604082019050919050565b6000612cdf602e836132fd565b9150612cea826138fe565b604082019050919050565b6000612d026020836132fd565b9150612d0d8261394d565b602082019050919050565b6000612d256031836132fd565b9150612d3082613976565b604082019050919050565b6000612d48602c836132fd565b9150612d53826139c5565b604082019050919050565b6000612d6b6020836132fd565b9150612d7682613a14565b602082019050919050565b6000612d8e6029836132fd565b9150612d9982613a3d565b604082019050919050565b6000612db1602f836132fd565b9150612dbc82613a8c565b604082019050919050565b6000612dd46021836132fd565b9150612ddf82613adb565b604082019050919050565b6000612df76031836132fd565b9150612e0282613b2a565b604082019050919050565b6000612e1a602c836132fd565b9150612e2582613b79565b604082019050919050565b6000612e3d6030836132fd565b9150612e4882613bc8565b604082019050919050565b612e5c8161343e565b82525050565b612e6b8161343e565b82525050565b6000612e7d8285612b43565b9150612e898284612b43565b91508190509392505050565b6000602082019050612eaa6000830184612a55565b92915050565b6000608082019050612ec56000830187612a55565b612ed26020830186612a55565b612edf6040830185612e62565b8181036060830152612ef18184612ad1565b905095945050505050565b60006020820190508181036000830152612f168184612a64565b905092915050565b6000602082019050612f336000830184612ac2565b92915050565b60006020820190508181036000830152612f538184612b0a565b905092915050565b60006020820190508181036000830152612f7481612b74565b9050919050565b60006020820190508181036000830152612f9481612b97565b9050919050565b60006020820190508181036000830152612fb481612bba565b9050919050565b60006020820190508181036000830152612fd481612bdd565b9050919050565b60006020820190508181036000830152612ff481612c00565b9050919050565b6000602082019050818103600083015261301481612c23565b9050919050565b6000602082019050818103600083015261303481612c46565b9050919050565b6000602082019050818103600083015261305481612c69565b9050919050565b6000602082019050818103600083015261307481612c8c565b9050919050565b6000602082019050818103600083015261309481612caf565b9050919050565b600060208201905081810360008301526130b481612cd2565b9050919050565b600060208201905081810360008301526130d481612cf5565b9050919050565b600060208201905081810360008301526130f481612d18565b9050919050565b6000602082019050818103600083015261311481612d3b565b9050919050565b6000602082019050818103600083015261313481612d5e565b9050919050565b6000602082019050818103600083015261315481612d81565b9050919050565b6000602082019050818103600083015261317481612da4565b9050919050565b6000602082019050818103600083015261319481612dc7565b9050919050565b600060208201905081810360008301526131b481612dea565b9050919050565b600060208201905081810360008301526131d481612e0d565b9050919050565b600060208201905081810360008301526131f481612e30565b9050919050565b60006020820190506132106000830184612e62565b92915050565b6000613220613231565b905061322c82826134bc565b919050565b6000604051905090565b600067ffffffffffffffff821115613256576132556135f4565b5b61325f82613623565b9050602081019050919050565b600067ffffffffffffffff821115613287576132866135f4565b5b61329082613623565b9050602081019050919050565b6000819050602082019050919050565b600081519050919050565b600081519050919050565b600081519050919050565b6000602082019050919050565b600082825260208201905092915050565b600082825260208201905092915050565b600082825260208201905092915050565b600081905092915050565b60006133248261343e565b915061332f8361343e565b9250827fffffffffffffffffffffffffffffffffffffffffffffffffffffffffffffffff0382111561336457613363613567565b5b828201905092915050565b600061337a8261343e565b91506133858361343e565b92508261339557613394613596565b5b828204905092915050565b60006133ab8261343e565b91506133b68361343e565b9250828210156133c9576133c8613567565b5b828203905092915050565b60006133df8261341e565b9050919050565b60008115159050919050565b60007fffffffff0000000000000000000000000000000000000000000000000000000082169050919050565b600073ffffffffffffffffffffffffffffffffffffffff82169050919050565b6000819050919050565b82818337600083830152505050565b60005b8381101561347557808201518184015260208101905061345a565b83811115613484576000848401525b50505050565b600060028204905060018216806134a257607f821691505b602082108114156134b6576134b56135c5565b5b50919050565b6134c582613623565b810181811067ffffffffffffffff821117156134e4576134e36135f4565b5b80604052505050565b60006134f88261343e565b91507fffffffffffffffffffffffffffffffffffffffffffffffffffffffffffffffff82141561352b5761352a613567565b5b600182019050919050565b60006135418261343e565b915061354c8361343e565b92508261355c5761355b613596565b5b828206905092915050565b7f4e487b7100000000000000000000000000000000000000000000000000000000600052601160045260246000fd5b7f4e487b7100000000000000000000000000000000000000000000000000000000600052601260045260246000fd5b7f4e487b7100000000000000000000000000000000000000000000000000000000600052602260045260246000fd5b7f4e487b7100000000000000000000000000000000000000000000000000000000600052604160045260246000fd5b6000601f19601f8301169050919050565b7f455243373231456e756d657261626c653a206f776e657220696e646578206f7560008201527f74206f6620626f756e6473000000000000000000000000000000000000000000602082015250565b7f4552433732313a207472616e7366657220746f206e6f6e20455243373231526560008201527f63656976657220696d706c656d656e7465720000000000000000000000000000602082015250565b7f4f776e61626c653a206e6577206f776e657220697320746865207a65726f206160008201527f6464726573730000000000000000000000000000000000000000000000000000602082015250565b7f4552433732313a20746f6b656e20616c7265616479206d696e74656400000000600082015250565b7f4552433732313a207472616e7366657220746f20746865207a65726f2061646460008201527f7265737300000000000000000000000000000000000000000000000000000000602082015250565b7f4552433732313a20617070726f766520746f2063616c6c657200000000000000600082015250565b7f4552433732313a206f70657261746f7220717565727920666f72206e6f6e657860008201527f697374656e7420746f6b656e0000000000000000000000000000000000000000602082015250565b7f4552433732313a20617070726f76652063616c6c6572206973206e6f74206f7760008201527f6e6572206e6f7220617070726f76656420666f7220616c6c0000000000000000602082015250565b7f4552433732313a2062616c616e636520717565727920666f7220746865207a6560008201527f726f206164647265737300000000000000000000000000000000000000000000602082015250565b7f4552433732313a206f776e657220717565727920666f72206e6f6e657869737460008201527f656e7420746f6b656e0000000000000000000000000000000000000000000000602082015250565b7f45524337323155524953746f726167653a2055524920736574206f66206e6f6e60008201527f6578697374656e7420746f6b656e000000000000000000000000000000000000602082015250565b7f4552433732313a206d696e7420746f20746865207a65726f2061646472657373600082015250565b7f45524337323155524953746f726167653a2055524920717565727920666f722060008201527f6e6f6e6578697374656e7420746f6b656e000000000000000000000000000000602082015250565b7f4552433732313a20617070726f76656420717565727920666f72206e6f6e657860008201527f697374656e7420746f6b656e0000000000000000000000000000000000000000602082015250565b7f4f776e61626c653a2063616c6c6572206973206e6f7420746865206f776e6572600082015250565b7f4552433732313a207472616e73666572206f6620746f6b656e2074686174206960008201527f73206e6f74206f776e0000000000000000000000000000000000000000000000602082015250565b7f4552433732314d657461646174613a2055524920717565727920666f72206e6f60008201527f6e6578697374656e7420746f6b656e0000000000000000000000000000000000602082015250565b7f4552433732313a20617070726f76616c20746f2063757272656e74206f776e6560008201527f7200000000000000000000000000000000000000000000000000000000000000602082015250565b7f4552433732313a207472616e736665722063616c6c6572206973206e6f74206f60008201527f776e6572206e6f7220617070726f766564000000000000000000000000000000602082015250565b7f455243373231456e756d657261626c653a20676c6f62616c20696e646578206f60008201527f7574206f6620626f756e64730000000000000000000000000000000000000000602082015250565b7f4552433732314275726e61626c653a2063616c6c6572206973206e6f74206f7760008201527f6e6572206e6f7220617070726f76656400000000000000000000000000000000602082015250565b613c20816133d4565b8114613c2b57600080fd5b50565b613c37816133e6565b8114613c4257600080fd5b50565b613c4e816133f2565b8114613c5957600080fd5b50565b613c658161343e565b8114613c7057600080fd5b5056fea264697066735822122002b6fe437a4e21747ef1723f77bf7629e4f997a778a90c923e9144e7e3a0594a64736f6c63430008040033",
  "linkReferences": {},
  "deployedLinkReferences": {}
}