{
  "_format": "hh-sol-artifact-1",
  "contractName": "LiquidityPool",
  "sourceName": "contracts/LiquidityPool.sol",
  "abi": [
    {
      "anonymous": false,
      "inputs": [
        {
          "indexed": true,
          "internalType": "address",
          "name": "_account",
          "type": "address"
        }
      ],
      "name": "LiquidityAdded",
      "type": "event"
    },
    {
      "anonymous": false,
      "inputs": [
        {
          "indexed": true,
          "internalType": "address",
          "name": "_account",
          "type": "address"
        }
      ],
      "name": "LiquidityRemoved",
      "type": "event"
    },
    {
      "anonymous": false,
      "inputs": [
        {
          "indexed": true,
          "internalType": "address",
          "name": "previousOwner",
          "type": "address"
        },
        {
          "indexed": true,
          "internalType": "address",
          "name": "newOwner",
          "type": "address"
        }
      ],
      "name": "OwnershipTransferred",
      "type": "event"
    },
    {
      "anonymous": false,
      "inputs": [
        {
          "indexed": true,
          "internalType": "address",
          "name": "_account",
          "type": "address"
        },
        {
          "indexed": false,
          "internalType": "uint256",
          "name": "_ethTraded",
          "type": "uint256"
        },
        {
          "indexed": false,
          "internalType": "uint256",
          "name": "_sptTraded",
          "type": "uint256"
        }
      ],
      "name": "TradedTokens",
      "type": "event"
    },
    {
      "inputs": [
        {
          "internalType": "uint256",
          "name": "sptAmount",
          "type": "uint256"
        },
        {
          "internalType": "address",
          "name": "account",
          "type": "address"
        }
      ],
      "name": "deposit",
      "outputs": [],
      "stateMutability": "payable",
      "type": "function"
    },
    {
      "inputs": [],
      "name": "getReserves",
      "outputs": [
        {
          "internalType": "uint256",
          "name": "",
          "type": "uint256"
        },
        {
          "internalType": "uint256",
          "name": "",
          "type": "uint256"
        }
      ],
      "stateMutability": "view",
      "type": "function"
    },
    {
      "inputs": [],
      "name": "owner",
      "outputs": [
        {
          "internalType": "address",
          "name": "",
          "type": "address"
        }
      ],
      "stateMutability": "view",
      "type": "function"
    },
    {
      "inputs": [],
      "name": "renounceOwnership",
      "outputs": [],
      "stateMutability": "nonpayable",
      "type": "function"
    },
    {
      "inputs": [
        {
          "internalType": "contract LPT",
          "name": "_lpToken",
          "type": "address"
        }
      ],
      "name": "setLPTAddress",
      "outputs": [],
      "stateMutability": "nonpayable",
      "type": "function"
    },
    {
      "inputs": [
        {
          "internalType": "contract SpotoCoin",
          "name": "_spotoCoin",
          "type": "address"
        }
      ],
      "name": "setSpotoCoinAddress",
      "outputs": [],
      "stateMutability": "nonpayable",
      "type": "function"
    },
    {
      "inputs": [
        {
          "internalType": "address",
          "name": "account",
          "type": "address"
        },
        {
          "internalType": "uint256",
          "name": "_sptAmount",
          "type": "uint256"
        }
      ],
      "name": "swap",
      "outputs": [],
      "stateMutability": "payable",
      "type": "function"
    },
    {
      "inputs": [
        {
          "internalType": "address",
          "name": "newOwner",
          "type": "address"
        }
      ],
      "name": "transferOwnership",
      "outputs": [],
      "stateMutability": "nonpayable",
      "type": "function"
    },
    {
      "inputs": [
        {
          "internalType": "address",
          "name": "account",
          "type": "address"
        }
      ],
      "name": "withdraw",
      "outputs": [],
      "stateMutability": "nonpayable",
      "type": "function"
    }
  ],
  "bytecode": "0x608060405234801561001057600080fd5b5061002d61002261003260201b60201c565b61003a60201b60201c565b6100fe565b600033905090565b60008060009054906101000a900473ffffffffffffffffffffffffffffffffffffffff169050816000806101000a81548173ffffffffffffffffffffffffffffffffffffffff021916908373ffffffffffffffffffffffffffffffffffffffff1602179055508173ffffffffffffffffffffffffffffffffffffffff168173ffffffffffffffffffffffffffffffffffffffff167f8be0079c531659141344cd1fd0a4f28419497f9722a3daafe3b4186f6b6457e060405160405180910390a35050565b611c3d8061010d6000396000f3fe6080604052600436106100865760003560e01c80638da5cb5b116100595780638da5cb5b14610113578063a4436a321461013e578063d004f0f714610167578063f2fde38b14610183578063f63d19c5146101ac57610086565b80630902f1ac1461008b57806351cff8d9146100b75780636e553f65146100e0578063715018a6146100fc575b600080fd5b34801561009757600080fd5b506100a06101d5565b6040516100ae9291906117f7565b60405180910390f35b3480156100c357600080fd5b506100de60048036038101906100d99190611443565b6101e6565b005b6100fa60048036038101906100f5919061154c565b610602565b005b34801561010857600080fd5b506101116107ee565b005b34801561011f57600080fd5b50610128610876565b60405161013591906116d3565b60405180910390f35b34801561014a57600080fd5b50610165600480360381019061016091906114fa565b61089f565b005b610181600480360381019061017c919061146c565b6109f0565b005b34801561018f57600080fd5b506101aa60048036038101906101a59190611443565b610db0565b005b3480156101b857600080fd5b506101d360048036038101906101ce91906114d1565b610ea8565b005b600080600354600454915091509091565b6000600160009054906101000a900473ffffffffffffffffffffffffffffffffffffffff1673ffffffffffffffffffffffffffffffffffffffff166370a08231836040518263ffffffff1660e01b815260040161024391906116d3565b60206040518083038186803b15801561025b57600080fd5b505afa15801561026f573d6000803e3d6000fd5b505050506040513d601f19601f820116820180604052508101906102939190611523565b905060008114156102d9576040517f08c379a00000000000000000000000000000000000000000000000000000000081526004016102d0906117d7565b60405180910390fd5b6000600160009054906101000a900473ffffffffffffffffffffffffffffffffffffffff1673ffffffffffffffffffffffffffffffffffffffff166318160ddd6040518163ffffffff1660e01b815260040160206040518083038186803b15801561034357600080fd5b505afa158015610357573d6000803e3d6000fd5b505050506040513d601f19601f8201168201806040525081019061037b9190611523565b90506000818360035461038e91906118c3565b6103989190611892565b9050600082846004546103ab91906118c3565b6103b59190611892565b9050600160009054906101000a900473ffffffffffffffffffffffffffffffffffffffff1673ffffffffffffffffffffffffffffffffffffffff16639dc29fac86866040518363ffffffff1660e01b81526004016104149291906116ee565b600060405180830381600087803b15801561042e57600080fd5b505af1158015610442573d6000803e3d6000fd5b5050505060008573ffffffffffffffffffffffffffffffffffffffff168360405161046c906116be565b60006040518083038185875af1925050503d80600081146104a9576040519150601f19603f3d011682016040523d82523d6000602084013e6104ae565b606091505b505090506000600260009054906101000a900473ffffffffffffffffffffffffffffffffffffffff1673ffffffffffffffffffffffffffffffffffffffff1663a9059cbb88856040518363ffffffff1660e01b81526004016105119291906116ee565b602060405180830381600087803b15801561052b57600080fd5b505af115801561053f573d6000803e3d6000fd5b505050506040513d601f19601f8201168201806040525081019061056391906114a8565b905081801561056f5750805b6105ae576040517f08c379a00000000000000000000000000000000000000000000000000000000081526004016105a590611737565b60405180910390fd5b8673ffffffffffffffffffffffffffffffffffffffff167f5dab48db0770e220c3226a459b19d38e7438c27b1b8dac1fab1434686d2319cd60405160405180910390a26105f9610ff9565b50505050505050565b600080600160009054906101000a900473ffffffffffffffffffffffffffffffffffffffff1673ffffffffffffffffffffffffffffffffffffffff166318160ddd6040518163ffffffff1660e01b815260040160206040518083038186803b15801561066d57600080fd5b505afa158015610681573d6000803e3d6000fd5b505050506040513d601f19601f820116820180604052508101906106a59190611523565b9050600034905060008211156106f6576106ef60035483836106c791906118c3565b6106d19190611892565b60045484886106e091906118c3565b6106ea9190611892565b611114565b925061070d565b61070a858261070591906118c3565b61112d565b92505b600160009054906101000a900473ffffffffffffffffffffffffffffffffffffffff1673ffffffffffffffffffffffffffffffffffffffff166340c10f1985856040518363ffffffff1660e01b815260040161076a9291906116ee565b600060405180830381600087803b15801561078457600080fd5b505af1158015610798573d6000803e3d6000fd5b505050508373ffffffffffffffffffffffffffffffffffffffff167f88bbeecffcce070d5609ad08df49df93f0d53002ef3544dd5287e6b621eaff6f60405160405180910390a26107e7610ff9565b5050505050565b6107f66112f9565b73ffffffffffffffffffffffffffffffffffffffff16610814610876565b73ffffffffffffffffffffffffffffffffffffffff161461086a576040517f08c379a000000000000000000000000000000000000000000000000000000000815260040161086190611777565b60405180910390fd5b6108746000611301565b565b60008060009054906101000a900473ffffffffffffffffffffffffffffffffffffffff16905090565b6108a76112f9565b73ffffffffffffffffffffffffffffffffffffffff166108c5610876565b73ffffffffffffffffffffffffffffffffffffffff161461091b576040517f08c379a000000000000000000000000000000000000000000000000000000000815260040161091290611777565b60405180910390fd5b600073ffffffffffffffffffffffffffffffffffffffff16600260009054906101000a900473ffffffffffffffffffffffffffffffffffffffff1673ffffffffffffffffffffffffffffffffffffffff16146109ac576040517f08c379a00000000000000000000000000000000000000000000000000000000081526004016109a3906117b7565b60405180910390fd5b80600260006101000a81548173ffffffffffffffffffffffffffffffffffffffff021916908373ffffffffffffffffffffffffffffffffffffffff16021790555050565b6000600454600354610a0291906118c3565b9050600080600080341415610c48576000600260009054906101000a900473ffffffffffffffffffffffffffffffffffffffff1673ffffffffffffffffffffffffffffffffffffffff166370a08231306040518263ffffffff1660e01b8152600401610a6e91906116d3565b60206040518083038186803b158015610a8657600080fd5b505afa158015610a9a573d6000803e3d6000fd5b505050506040513d601f19601f82011682018060405250810190610abe9190611523565b905060006064876002610ad191906118c3565b610adb9190611892565b87610ae6919061191d565b9050600081600454610af8919061183c565b9050828114610b3c576040517f08c379a0000000000000000000000000000000000000000000000000000000008152600401610b3390611797565b60405180910390fd5b600082600454610b4c919061183c565b88610b579190611892565b905080600354610b67919061191d565b96506064876001610b7891906118c3565b610b829190611892565b95508587610b90919061191d565b945060008a73ffffffffffffffffffffffffffffffffffffffff1686604051610bb8906116be565b60006040518083038185875af1925050503d8060008114610bf5576040519150601f19603f3d011682016040523d82523d6000602084013e610bfa565b606091505b5050905080610c3e576040517f08c379a0000000000000000000000000000000000000000000000000000000008152600401610c3590611757565b60405180910390fd5b5050505050610d50565b600034600354610c58919061183c565b85610c639190611892565b905080600454610c73919061191d565b93506064846001610c8491906118c3565b610c8e9190611892565b92508284610c9c919061191d565b9150600260009054906101000a900473ffffffffffffffffffffffffffffffffffffffff1673ffffffffffffffffffffffffffffffffffffffff1663a9059cbb88846040518363ffffffff1660e01b8152600401610cfb9291906116ee565b602060405180830381600087803b158015610d1557600080fd5b505af1158015610d29573d6000803e3d6000fd5b505050506040513d601f19601f82011682018060405250810190610d4d91906114a8565b50505b8573ffffffffffffffffffffffffffffffffffffffff167f967ed1bc358366a7e3e3031a0fbee32b45feb1c201d99d020380f99d03d932d13487604051610d989291906117f7565b60405180910390a2610da8610ff9565b505050505050565b610db86112f9565b73ffffffffffffffffffffffffffffffffffffffff16610dd6610876565b73ffffffffffffffffffffffffffffffffffffffff1614610e2c576040517f08c379a0000000000000000000000000000000000000000000000000000000008152600401610e2390611777565b60405180910390fd5b600073ffffffffffffffffffffffffffffffffffffffff168173ffffffffffffffffffffffffffffffffffffffff161415610e9c576040517f08c379a0000000000000000000000000000000000000000000000000000000008152600401610e9390611717565b60405180910390fd5b610ea581611301565b50565b610eb06112f9565b73ffffffffffffffffffffffffffffffffffffffff16610ece610876565b73ffffffffffffffffffffffffffffffffffffffff1614610f24576040517f08c379a0000000000000000000000000000000000000000000000000000000008152600401610f1b90611777565b60405180910390fd5b600073ffffffffffffffffffffffffffffffffffffffff16600160009054906101000a900473ffffffffffffffffffffffffffffffffffffffff1673ffffffffffffffffffffffffffffffffffffffff1614610fb5576040517f08c379a0000000000000000000000000000000000000000000000000000000008152600401610fac906117b7565b60405180910390fd5b80600160006101000a81548173ffffffffffffffffffffffffffffffffffffffff021916908373ffffffffffffffffffffffffffffffffffffffff16021790555050565b60006401000000004261100c91906119bd565b90506000600560009054906101000a900463ffffffff168203905060008163ffffffff1611156111105747600381905550600260009054906101000a900473ffffffffffffffffffffffffffffffffffffffff1673ffffffffffffffffffffffffffffffffffffffff166370a08231306040518263ffffffff1660e01b815260040161109891906116d3565b60206040518083038186803b1580156110b057600080fd5b505afa1580156110c4573d6000803e3d6000fd5b505050506040513d601f19601f820116820180604052508101906110e89190611523565b60048190555081600560006101000a81548163ffffffff021916908363ffffffff1602179055505b5050565b60008183106111235781611125565b825b905092915050565b60008082141561114057600090506112f4565b6000829050600060019050700100000000000000000000000000000000821061117257608082901c9150604081901b90505b68010000000000000000821061119157604082901c9150602081901b90505b64010000000082106111ac57602082901c9150601081901b90505b6201000082106111c557601082901c9150600881901b90505b61010082106111dd57600882901c9150600481901b90505b601082106111f457600482901c9150600281901b90505b6008821061120457600181901b90505b600181856112129190611892565b8261121d919061183c565b901c90506001818561122f9190611892565b8261123a919061183c565b901c90506001818561124c9190611892565b82611257919061183c565b901c9050600181856112699190611892565b82611274919061183c565b901c9050600181856112869190611892565b82611291919061183c565b901c9050600181856112a39190611892565b826112ae919061183c565b901c9050600181856112c09190611892565b826112cb919061183c565b901c9050600081856112dd9190611892565b90508082106112ec57806112ee565b815b93505050505b919050565b600033905090565b60008060009054906101000a900473ffffffffffffffffffffffffffffffffffffffff169050816000806101000a81548173ffffffffffffffffffffffffffffffffffffffff021916908373ffffffffffffffffffffffffffffffffffffffff1602179055508173ffffffffffffffffffffffffffffffffffffffff168173ffffffffffffffffffffffffffffffffffffffff167f8be0079c531659141344cd1fd0a4f28419497f9722a3daafe3b4186f6b6457e060405160405180910390a35050565b6000813590506113d481611b94565b92915050565b6000815190506113e981611bab565b92915050565b6000813590506113fe81611bc2565b92915050565b60008135905061141381611bd9565b92915050565b60008135905061142881611bf0565b92915050565b60008151905061143d81611bf0565b92915050565b60006020828403121561145557600080fd5b6000611463848285016113c5565b91505092915050565b6000806040838503121561147f57600080fd5b600061148d858286016113c5565b925050602061149e85828601611419565b9150509250929050565b6000602082840312156114ba57600080fd5b60006114c8848285016113da565b91505092915050565b6000602082840312156114e357600080fd5b60006114f1848285016113ef565b91505092915050565b60006020828403121561150c57600080fd5b600061151a84828501611404565b91505092915050565b60006020828403121561153557600080fd5b60006115438482850161142e565b91505092915050565b6000806040838503121561155f57600080fd5b600061156d85828601611419565b925050602061157e858286016113c5565b9150509250929050565b61159181611951565b82525050565b60006115a460268361182b565b91506115af82611a4c565b604082019050919050565b60006115c7600f8361182b565b91506115d282611a9b565b602082019050919050565b60006115ea600f8361182b565b91506115f582611ac4565b602082019050919050565b600061160d60208361182b565b915061161882611aed565b602082019050919050565b600061163060108361182b565b915061163b82611b16565b602082019050919050565b6000611653600a8361182b565b915061165e82611b3f565b602082019050919050565b6000611676600083611820565b915061168182611b68565b600082019050919050565b600061169960138361182b565b91506116a482611b6b565b602082019050919050565b6116b8816119b3565b82525050565b60006116c982611669565b9150819050919050565b60006020820190506116e86000830184611588565b92915050565b60006040820190506117036000830185611588565b61171060208301846116af565b9392505050565b6000602082019050818103600083015261173081611597565b9050919050565b60006020820190508181036000830152611750816115ba565b9050919050565b60006020820190508181036000830152611770816115dd565b9050919050565b6000602082019050818103600083015261179081611600565b9050919050565b600060208201905081810360008301526117b081611623565b9050919050565b600060208201905081810360008301526117d081611646565b9050919050565b600060208201905081810360008301526117f08161168c565b9050919050565b600060408201905061180c60008301856116af565b61181960208301846116af565b9392505050565b600081905092915050565b600082825260208201905092915050565b6000611847826119b3565b9150611852836119b3565b9250827fffffffffffffffffffffffffffffffffffffffffffffffffffffffffffffffff03821115611887576118866119ee565b5b828201905092915050565b600061189d826119b3565b91506118a8836119b3565b9250826118b8576118b7611a1d565b5b828204905092915050565b60006118ce826119b3565b91506118d9836119b3565b9250817fffffffffffffffffffffffffffffffffffffffffffffffffffffffffffffffff0483118215151615611912576119116119ee565b5b828202905092915050565b6000611928826119b3565b9150611933836119b3565b925082821015611946576119456119ee565b5b828203905092915050565b600061195c82611993565b9050919050565b60008115159050919050565b600061197a82611951565b9050919050565b600061198c82611951565b9050919050565b600073ffffffffffffffffffffffffffffffffffffffff82169050919050565b6000819050919050565b60006119c8826119b3565b91506119d3836119b3565b9250826119e3576119e2611a1d565b5b828206905092915050565b7f4e487b7100000000000000000000000000000000000000000000000000000000600052601160045260246000fd5b7f4e487b7100000000000000000000000000000000000000000000000000000000600052601260045260246000fd5b7f4f776e61626c653a206e6577206f776e657220697320746865207a65726f206160008201527f6464726573730000000000000000000000000000000000000000000000000000602082015250565b7f4641494c45445f5452414e534645520000000000000000000000000000000000600082015250565b7f5452414e534645525f4641494c45440000000000000000000000000000000000600082015250565b7f4f776e61626c653a2063616c6c6572206973206e6f7420746865206f776e6572600082015250565b7f4449445f4e4f545f5452414e5346455200000000000000000000000000000000600082015250565b7f57524954455f4f4e434500000000000000000000000000000000000000000000600082015250565b50565b7f4e4f5f415641494c41424c455f544f4b454e5300000000000000000000000000600082015250565b611b9d81611951565b8114611ba857600080fd5b50565b611bb481611963565b8114611bbf57600080fd5b50565b611bcb8161196f565b8114611bd657600080fd5b50565b611be281611981565b8114611bed57600080fd5b50565b611bf9816119b3565b8114611c0457600080fd5b5056fea2646970667358221220122a1f4e3ca7705a15699855c8e17aea5dd8a7ebea16f7734c290da6198c6a5a64736f6c63430008040033",
  "linkReferences": {},
  "deployedLinkReferences": {}
}