{
  "_format": "hh-sol-artifact-1",
  "contractName": "LiquidityPool",
  "sourceName": "contracts/liquidity.sol",
  "abi": [
    {
      "inputs": [
        {
          "internalType": "address",
          "name": "_addressTokenB",
          "type": "address"
        },
        {
          "internalType": "uint256",
          "name": "_priceTokenEth",
          "type": "uint256"
        },
        {
          "internalType": "uint256",
          "name": "_priceTokenB",
          "type": "uint256"
        },
        {
          "internalType": "address",
          "name": "_lptoken",
          "type": "address"
        }
      ],
      "stateMutability": "nonpayable",
      "type": "constructor"
    },
    {
      "anonymous": false,
      "inputs": [
        {
          "indexed": true,
          "internalType": "address",
          "name": "owner",
          "type": "address"
        },
        {
          "indexed": true,
          "internalType": "address",
          "name": "spender",
          "type": "address"
        },
        {
          "indexed": false,
          "internalType": "uint256",
          "name": "value",
          "type": "uint256"
        }
      ],
      "name": "Approval",
      "type": "event"
    },
    {
      "anonymous": false,
      "inputs": [
        {
          "indexed": false,
          "internalType": "uint256",
          "name": "amountin",
          "type": "uint256"
        },
        {
          "indexed": false,
          "internalType": "uint256",
          "name": "amountout",
          "type": "uint256"
        }
      ],
      "name": "BuySPTToken",
      "type": "event"
    },
    {
      "anonymous": false,
      "inputs": [
        {
          "indexed": true,
          "internalType": "address",
          "name": "from",
          "type": "address"
        },
        {
          "indexed": false,
          "internalType": "uint256",
          "name": "amountTokenEth",
          "type": "uint256"
        },
        {
          "indexed": false,
          "internalType": "uint256",
          "name": "amountTokenB",
          "type": "uint256"
        }
      ],
      "name": "MintLPToken",
      "type": "event"
    },
    {
      "anonymous": false,
      "inputs": [
        {
          "indexed": false,
          "internalType": "uint256",
          "name": "amountin",
          "type": "uint256"
        },
        {
          "indexed": false,
          "internalType": "uint256",
          "name": "amountout",
          "type": "uint256"
        }
      ],
      "name": "SellSPTToken",
      "type": "event"
    },
    {
      "anonymous": false,
      "inputs": [
        {
          "indexed": false,
          "internalType": "uint256",
          "name": "reserveTokenEth",
          "type": "uint256"
        },
        {
          "indexed": false,
          "internalType": "uint256",
          "name": "reserveTokenB",
          "type": "uint256"
        }
      ],
      "name": "Sync",
      "type": "event"
    },
    {
      "anonymous": false,
      "inputs": [
        {
          "indexed": true,
          "internalType": "address",
          "name": "from",
          "type": "address"
        },
        {
          "indexed": true,
          "internalType": "address",
          "name": "to",
          "type": "address"
        },
        {
          "indexed": false,
          "internalType": "uint256",
          "name": "value",
          "type": "uint256"
        }
      ],
      "name": "Transfer",
      "type": "event"
    },
    {
      "inputs": [],
      "name": "addLiquidity",
      "outputs": [
        {
          "internalType": "bool",
          "name": "success",
          "type": "bool"
        }
      ],
      "stateMutability": "payable",
      "type": "function"
    },
    {
      "inputs": [],
      "name": "addressTokenB",
      "outputs": [
        {
          "internalType": "address",
          "name": "",
          "type": "address"
        }
      ],
      "stateMutability": "view",
      "type": "function"
    },
    {
      "inputs": [
        {
          "internalType": "address",
          "name": "owner",
          "type": "address"
        },
        {
          "internalType": "address",
          "name": "spender",
          "type": "address"
        }
      ],
      "name": "allowance",
      "outputs": [
        {
          "internalType": "uint256",
          "name": "",
          "type": "uint256"
        }
      ],
      "stateMutability": "view",
      "type": "function"
    },
    {
      "inputs": [
        {
          "internalType": "address",
          "name": "spender",
          "type": "address"
        },
        {
          "internalType": "uint256",
          "name": "amount",
          "type": "uint256"
        }
      ],
      "name": "approve",
      "outputs": [
        {
          "internalType": "bool",
          "name": "",
          "type": "bool"
        }
      ],
      "stateMutability": "nonpayable",
      "type": "function"
    },
    {
      "inputs": [
        {
          "internalType": "address",
          "name": "account",
          "type": "address"
        }
      ],
      "name": "balanceOf",
      "outputs": [
        {
          "internalType": "uint256",
          "name": "",
          "type": "uint256"
        }
      ],
      "stateMutability": "view",
      "type": "function"
    },
    {
      "inputs": [],
      "name": "buyspttoken",
      "outputs": [],
      "stateMutability": "payable",
      "type": "function"
    },
    {
      "inputs": [],
      "name": "decimals",
      "outputs": [
        {
          "internalType": "uint8",
          "name": "",
          "type": "uint8"
        }
      ],
      "stateMutability": "view",
      "type": "function"
    },
    {
      "inputs": [
        {
          "internalType": "address",
          "name": "spender",
          "type": "address"
        },
        {
          "internalType": "uint256",
          "name": "subtractedValue",
          "type": "uint256"
        }
      ],
      "name": "decreaseAllowance",
      "outputs": [
        {
          "internalType": "bool",
          "name": "",
          "type": "bool"
        }
      ],
      "stateMutability": "nonpayable",
      "type": "function"
    },
    {
      "inputs": [
        {
          "internalType": "uint256",
          "name": "amountIn",
          "type": "uint256"
        },
        {
          "internalType": "uint256",
          "name": "reserveIn",
          "type": "uint256"
        },
        {
          "internalType": "uint256",
          "name": "reserveOut",
          "type": "uint256"
        }
      ],
      "name": "getAmountOut",
      "outputs": [
        {
          "internalType": "uint256",
          "name": "amountOut",
          "type": "uint256"
        }
      ],
      "stateMutability": "pure",
      "type": "function"
    },
    {
      "inputs": [
        {
          "internalType": "address",
          "name": "spender",
          "type": "address"
        },
        {
          "internalType": "uint256",
          "name": "addedValue",
          "type": "uint256"
        }
      ],
      "name": "increaseAllowance",
      "outputs": [
        {
          "internalType": "bool",
          "name": "",
          "type": "bool"
        }
      ],
      "stateMutability": "nonpayable",
      "type": "function"
    },
    {
      "inputs": [],
      "name": "lp_token",
      "outputs": [
        {
          "internalType": "address",
          "name": "",
          "type": "address"
        }
      ],
      "stateMutability": "view",
      "type": "function"
    },
    {
      "inputs": [
        {
          "internalType": "address",
          "name": "to",
          "type": "address"
        },
        {
          "internalType": "uint256",
          "name": "amount",
          "type": "uint256"
        }
      ],
      "name": "mint",
      "outputs": [],
      "stateMutability": "nonpayable",
      "type": "function"
    },
    {
      "inputs": [],
      "name": "name",
      "outputs": [
        {
          "internalType": "string",
          "name": "",
          "type": "string"
        }
      ],
      "stateMutability": "view",
      "type": "function"
    },
    {
      "inputs": [],
      "name": "owner",
      "outputs": [
        {
          "internalType": "address",
          "name": "",
          "type": "address"
        }
      ],
      "stateMutability": "view",
      "type": "function"
    },
    {
      "inputs": [],
      "name": "priceTokenB",
      "outputs": [
        {
          "internalType": "uint256",
          "name": "",
          "type": "uint256"
        }
      ],
      "stateMutability": "view",
      "type": "function"
    },
    {
      "inputs": [],
      "name": "priceTokenEth",
      "outputs": [
        {
          "internalType": "uint256",
          "name": "",
          "type": "uint256"
        }
      ],
      "stateMutability": "view",
      "type": "function"
    },
    {
      "inputs": [],
      "name": "reserveTokenB",
      "outputs": [
        {
          "internalType": "uint256",
          "name": "",
          "type": "uint256"
        }
      ],
      "stateMutability": "view",
      "type": "function"
    },
    {
      "inputs": [],
      "name": "reserveTokenEth",
      "outputs": [
        {
          "internalType": "uint256",
          "name": "",
          "type": "uint256"
        }
      ],
      "stateMutability": "view",
      "type": "function"
    },
    {
      "inputs": [
        {
          "internalType": "uint256",
          "name": "amountIn",
          "type": "uint256"
        }
      ],
      "name": "sellSptToken",
      "outputs": [],
      "stateMutability": "nonpayable",
      "type": "function"
    },
    {
      "inputs": [],
      "name": "symbol",
      "outputs": [
        {
          "internalType": "string",
          "name": "",
          "type": "string"
        }
      ],
      "stateMutability": "view",
      "type": "function"
    },
    {
      "inputs": [],
      "name": "sync",
      "outputs": [],
      "stateMutability": "nonpayable",
      "type": "function"
    },
    {
      "inputs": [],
      "name": "totalSupply",
      "outputs": [
        {
          "internalType": "uint256",
          "name": "",
          "type": "uint256"
        }
      ],
      "stateMutability": "view",
      "type": "function"
    },
    {
      "inputs": [
        {
          "internalType": "address",
          "name": "recipient",
          "type": "address"
        },
        {
          "internalType": "uint256",
          "name": "amount",
          "type": "uint256"
        }
      ],
      "name": "transfer",
      "outputs": [
        {
          "internalType": "bool",
          "name": "",
          "type": "bool"
        }
      ],
      "stateMutability": "nonpayable",
      "type": "function"
    },
    {
      "inputs": [
        {
          "internalType": "address",
          "name": "sender",
          "type": "address"
        },
        {
          "internalType": "address",
          "name": "recipient",
          "type": "address"
        },
        {
          "internalType": "uint256",
          "name": "amount",
          "type": "uint256"
        }
      ],
      "name": "transferFrom",
      "outputs": [
        {
          "internalType": "bool",
          "name": "",
          "type": "bool"
        }
      ],
      "stateMutability": "nonpayable",
      "type": "function"
    }
  ],
  "bytecode": "0x60806040523480156200001157600080fd5b506040516200324e3803806200324e83398181016040528101906200003791906200042f565b6040518060400160405280600981526020017f53706f746f204c505400000000000000000000000000000000000000000000008152506040518060400160405280600481526020017f534c5054000000000000000000000000000000000000000000000000000000008152508160039080519060200190620000bb9291906200033a565b508060049080519060200190620000d49291906200033a565b50505080600560006101000a81548173ffffffffffffffffffffffffffffffffffffffff021916908373ffffffffffffffffffffffffffffffffffffffff16021790555083600660006101000a81548173ffffffffffffffffffffffffffffffffffffffff021916908373ffffffffffffffffffffffffffffffffffffffff16021790555033600760006101000a81548173ffffffffffffffffffffffffffffffffffffffff021916908373ffffffffffffffffffffffffffffffffffffffff16021790555082600b8190555081600c81905550600660009054906101000a900473ffffffffffffffffffffffffffffffffffffffff1673ffffffffffffffffffffffffffffffffffffffff1663095ea7b3306d04ee2d6d415b85acef81000000006040518363ffffffff1660e01b815260040162000215929190620004e9565b602060405180830381600087803b1580156200023057600080fd5b505af115801562000245573d6000803e3d6000fd5b505050506040513d601f19601f820116820180604052508101906200026b91906200049b565b50600560009054906101000a900473ffffffffffffffffffffffffffffffffffffffff1673ffffffffffffffffffffffffffffffffffffffff1663095ea7b3306d04ee2d6d415b85acef81000000006040518363ffffffff1660e01b8152600401620002d9929190620004e9565b602060405180830381600087803b158015620002f457600080fd5b505af115801562000309573d6000803e3d6000fd5b505050506040513d601f19601f820116820180604052508101906200032f91906200049b565b505050505062000627565b828054620003489062000574565b90600052602060002090601f0160209004810192826200036c5760008555620003b8565b82601f106200038757805160ff1916838001178555620003b8565b82800160010185558215620003b8579182015b82811115620003b75782518255916020019190600101906200039a565b5b509050620003c79190620003cb565b5090565b5b80821115620003e6576000816000905550600101620003cc565b5090565b600081519050620003fb81620005d9565b92915050565b6000815190506200041281620005f3565b92915050565b60008151905062000429816200060d565b92915050565b600080600080608085870312156200044657600080fd5b60006200045687828801620003ea565b9450506020620004698782880162000418565b93505060406200047c8782880162000418565b92505060606200048f87828801620003ea565b91505092959194509250565b600060208284031215620004ae57600080fd5b6000620004be8482850162000401565b91505092915050565b620004d28162000516565b82525050565b620004e38162000560565b82525050565b6000604082019050620005006000830185620004c7565b6200050f6020830184620004d8565b9392505050565b6000620005238262000536565b9050919050565b60008115159050919050565b600073ffffffffffffffffffffffffffffffffffffffff82169050919050565b6000819050919050565b60006200056d8262000556565b9050919050565b600060028204905060018216806200058d57607f821691505b60208210811415620005a457620005a3620005aa565b5b50919050565b7f4e487b7100000000000000000000000000000000000000000000000000000000600052602260045260246000fd5b620005e48162000516565b8114620005f057600080fd5b50565b620005fe816200052a565b81146200060a57600080fd5b50565b620006188162000556565b81146200062457600080fd5b50565b612c1780620006376000396000f3fe60806040526004361061014b5760003560e01c8063781b4f15116100b6578063a457c2d71161006f578063a457c2d71461048b578063a9059cbb146104c8578063dd62ed3e14610505578063e8078d9414610542578063f9c1d67714610560578063fff6cae91461058b5761014b565b8063781b4f15146103ac57806382c63066146103b657806382fc58e5146103e15780638da5cb5b1461040a5780638de6959b1461043557806395d89b41146104605761014b565b806323b872dd1161010857806323b872dd14610276578063313ce567146102b357806339509351146102de57806340c10f191461031b578063667ecb441461034457806370a082311461036f5761014b565b8063054d50d41461015057806306fdde031461018d578063095ea7b3146101b857806314c17f45146101f557806318160ddd1461022057806319b16aa61461024b575b600080fd5b34801561015c57600080fd5b5061017760048036038101906101729190611f44565b6105a2565b60405161018491906124e5565b60405180910390f35b34801561019957600080fd5b506101a26106a8565b6040516101af91906122e3565b60405180910390f35b3480156101c457600080fd5b506101df60048036038101906101da9190611e8d565b61073a565b6040516101ec91906122c8565b60405180910390f35b34801561020157600080fd5b5061020a610758565b60405161021791906124e5565b60405180910390f35b34801561022c57600080fd5b5061023561075e565b60405161024291906124e5565b60405180910390f35b34801561025757600080fd5b50610260610768565b60405161026d91906124e5565b60405180910390f35b34801561028257600080fd5b5061029d60048036038101906102989190611e3e565b61076e565b6040516102aa91906122c8565b60405180910390f35b3480156102bf57600080fd5b506102c8610866565b6040516102d59190612529565b60405180910390f35b3480156102ea57600080fd5b5061030560048036038101906103009190611e8d565b61086f565b60405161031291906122c8565b60405180910390f35b34801561032757600080fd5b50610342600480360381019061033d9190611e8d565b61091b565b005b34801561035057600080fd5b50610359610929565b60405161036691906124e5565b60405180910390f35b34801561037b57600080fd5b5061039660048036038101906103919190611dd9565b61092f565b6040516103a391906124e5565b60405180910390f35b6103b4610977565b005b3480156103c257600080fd5b506103cb610b70565b6040516103d89190612224565b60405180910390f35b3480156103ed57600080fd5b5061040860048036038101906104039190611ef2565b610b96565b005b34801561041657600080fd5b5061041f610d1f565b60405161042c9190612224565b60405180910390f35b34801561044157600080fd5b5061044a610d45565b60405161045791906124e5565b60405180910390f35b34801561046c57600080fd5b50610475610d4b565b60405161048291906122e3565b60405180910390f35b34801561049757600080fd5b506104b260048036038101906104ad9190611e8d565b610ddd565b6040516104bf91906122c8565b60405180910390f35b3480156104d457600080fd5b506104ef60048036038101906104ea9190611e8d565b610ec8565b6040516104fc91906122c8565b60405180910390f35b34801561051157600080fd5b5061052c60048036038101906105279190611e02565b610ee6565b60405161053991906124e5565b60405180910390f35b61054a610f6d565b60405161055791906122c8565b60405180910390f35b34801561056c57600080fd5b5061057561117b565b6040516105829190612224565b60405180910390f35b34801561059757600080fd5b506105a06111a1565b005b60008084116105e6576040517f08c379a00000000000000000000000000000000000000000000000000000000081526004016105dd90612485565b60405180910390fd5b6000831180156105f65750600082115b610635576040517f08c379a000000000000000000000000000000000000000000000000000000000815260040161062c906123e5565b60405180910390fd5b600061064c6103e58661125d90919063ffffffff16565b90506000610663848361125d90919063ffffffff16565b9050600061068e836106806103e88961125d90919063ffffffff16565b6112ca90919063ffffffff16565b9050808261069c91906125b6565b93505050509392505050565b6060600380546106b79061270f565b80601f01602080910402602001604051908101604052809291908181526020018280546106e39061270f565b80156107305780601f1061070557610100808354040283529160200191610730565b820191906000526020600020905b81548152906001019060200180831161071357829003601f168201915b5050505050905090565b600061074e610747611323565b848461132b565b6001905092915050565b600b5481565b6000600254905090565b60095481565b600061077b8484846114f6565b6000600160008673ffffffffffffffffffffffffffffffffffffffff1673ffffffffffffffffffffffffffffffffffffffff16815260200190815260200160002060006107c6611323565b73ffffffffffffffffffffffffffffffffffffffff1673ffffffffffffffffffffffffffffffffffffffff16815260200190815260200160002054905082811015610846576040517f08c379a000000000000000000000000000000000000000000000000000000000815260040161083d90612405565b60405180910390fd5b61085a85610852611323565b85840361132b565b60019150509392505050565b60006012905090565b600061091161087c611323565b84846001600061088a611323565b73ffffffffffffffffffffffffffffffffffffffff1673ffffffffffffffffffffffffffffffffffffffff16815260200190815260200160002060008873ffffffffffffffffffffffffffffffffffffffff1673ffffffffffffffffffffffffffffffffffffffff1681526020019081526020016000205461090c9190612560565b61132b565b6001905092915050565b6109258282611777565b5050565b60085481565b60008060008373ffffffffffffffffffffffffffffffffffffffff1673ffffffffffffffffffffffffffffffffffffffff168152602001908152602001600020549050919050565b6000349050600060085490506000600954905060006109978484846105a2565b9050600660009054906101000a900473ffffffffffffffffffffffffffffffffffffffff1673ffffffffffffffffffffffffffffffffffffffff1663095ea7b3306d04ee2d6d415b85acef81000000006040518363ffffffff1660e01b8152600401610a04929190612276565b602060405180830381600087803b158015610a1e57600080fd5b505af1158015610a32573d6000803e3d6000fd5b505050506040513d601f19601f82011682018060405250810190610a569190611ec9565b50600660009054906101000a900473ffffffffffffffffffffffffffffffffffffffff1673ffffffffffffffffffffffffffffffffffffffff166323b872dd3033846040518463ffffffff1660e01b8152600401610ab69392919061223f565b602060405180830381600087803b158015610ad057600080fd5b505af1158015610ae4573d6000803e3d6000fd5b505050506040513d601f19601f82011682018060405250810190610b089190611ec9565b5080600954610b179190612641565b60098190555034600854610b2b9190612560565b6008819055507f0b681acbf8f2a3cd70a326ce89b9a07a24df363803ed116a44be70fc09c3222e8482604051610b62929190612500565b60405180910390a150505050565b600560009054906101000a900473ffffffffffffffffffffffffffffffffffffffff1681565b60006009549050600060085490506000610bb18484846105a2565b9050600660009054906101000a900473ffffffffffffffffffffffffffffffffffffffff1673ffffffffffffffffffffffffffffffffffffffff1663095ea7b3306d04ee2d6d415b85acef81000000006040518363ffffffff1660e01b8152600401610c1e929190612276565b602060405180830381600087803b158015610c3857600080fd5b505af1158015610c4c573d6000803e3d6000fd5b505050506040513d601f19601f82011682018060405250810190610c709190611ec9565b503373ffffffffffffffffffffffffffffffffffffffff166108fc829081150290604051600060405180830381858888f19350505050158015610cb7573d6000803e3d6000fd5b5083600954610cc69190612560565b60098190555080600854610cda9190612641565b6008819055507fd401b6994134b4479b1cae665f9f116fcc8d597dc4da1b0ef7cfe4241bdab0dc8482604051610d11929190612500565b60405180910390a150505050565b600760009054906101000a900473ffffffffffffffffffffffffffffffffffffffff1681565b600c5481565b606060048054610d5a9061270f565b80601f0160208091040260200160405190810160405280929190818152602001828054610d869061270f565b8015610dd35780601f10610da857610100808354040283529160200191610dd3565b820191906000526020600020905b815481529060010190602001808311610db657829003601f168201915b5050505050905090565b60008060016000610dec611323565b73ffffffffffffffffffffffffffffffffffffffff1673ffffffffffffffffffffffffffffffffffffffff16815260200190815260200160002060008573ffffffffffffffffffffffffffffffffffffffff1673ffffffffffffffffffffffffffffffffffffffff16815260200190815260200160002054905082811015610ea9576040517f08c379a0000000000000000000000000000000000000000000000000000000008152600401610ea0906124a5565b60405180910390fd5b610ebd610eb4611323565b8585840361132b565b600191505092915050565b6000610edc610ed5611323565b84846114f6565b6001905092915050565b6000600160008473ffffffffffffffffffffffffffffffffffffffff1673ffffffffffffffffffffffffffffffffffffffff16815260200190815260200160002060008373ffffffffffffffffffffffffffffffffffffffff1673ffffffffffffffffffffffffffffffffffffffff16815260200190815260200160002054905092915050565b6000803490506000600c54600b5483610f8691906125e7565b610f9091906125b6565b9050600660009054906101000a900473ffffffffffffffffffffffffffffffffffffffff1673ffffffffffffffffffffffffffffffffffffffff1663095ea7b3306d04ee2d6d415b85acef81000000006040518363ffffffff1660e01b8152600401610ffd929190612276565b602060405180830381600087803b15801561101757600080fd5b505af115801561102b573d6000803e3d6000fd5b505050506040513d601f19601f8201168201806040525081019061104f9190611ec9565b50600660009054906101000a900473ffffffffffffffffffffffffffffffffffffffff1673ffffffffffffffffffffffffffffffffffffffff166323b872dd3330846040518463ffffffff1660e01b81526004016110af9392919061223f565b602060405180830381600087803b1580156110c957600080fd5b505af11580156110dd573d6000803e3d6000fd5b505050506040513d601f19601f820116820180604052508101906111019190611ec9565b611140576040517f08c379a000000000000000000000000000000000000000000000000000000000815260040161113790612325565b60405180910390fd5b6000600560009054906101000a900473ffffffffffffffffffffffffffffffffffffffff169050611170336118d7565b506001935050505090565b600660009054906101000a900473ffffffffffffffffffffffffffffffffffffffff1681565b61125b47600660009054906101000a900473ffffffffffffffffffffffffffffffffffffffff1673ffffffffffffffffffffffffffffffffffffffff166370a08231306040518263ffffffff1660e01b81526004016112009190612224565b60206040518083038186803b15801561121857600080fd5b505afa15801561122c573d6000803e3d6000fd5b505050506040513d601f19601f820116820180604052508101906112509190611f1b565b600854600954611c7b565b565b60008082148061128557508282838561127691906125e7565b92508261128391906125b6565b145b6112c4576040517f08c379a00000000000000000000000000000000000000000000000000000000081526004016112bb90612365565b60405180910390fd5b92915050565b60008282846112d99190612560565b915081101561131d576040517f08c379a0000000000000000000000000000000000000000000000000000000008152600401611314906123a5565b60405180910390fd5b92915050565b600033905090565b600073ffffffffffffffffffffffffffffffffffffffff168373ffffffffffffffffffffffffffffffffffffffff16141561139b576040517f08c379a000000000000000000000000000000000000000000000000000000000815260040161139290612465565b60405180910390fd5b600073ffffffffffffffffffffffffffffffffffffffff168273ffffffffffffffffffffffffffffffffffffffff16141561140b576040517f08c379a000000000000000000000000000000000000000000000000000000000815260040161140290612345565b60405180910390fd5b80600160008573ffffffffffffffffffffffffffffffffffffffff1673ffffffffffffffffffffffffffffffffffffffff16815260200190815260200160002060008473ffffffffffffffffffffffffffffffffffffffff1673ffffffffffffffffffffffffffffffffffffffff168152602001908152602001600020819055508173ffffffffffffffffffffffffffffffffffffffff168373ffffffffffffffffffffffffffffffffffffffff167f8c5be1e5ebec7d5bd14f71427d1e84f3dd0314c0f7b2291e5b200ac8c7c3b925836040516114e991906124e5565b60405180910390a3505050565b600073ffffffffffffffffffffffffffffffffffffffff168373ffffffffffffffffffffffffffffffffffffffff161415611566576040517f08c379a000000000000000000000000000000000000000000000000000000000815260040161155d90612445565b60405180910390fd5b600073ffffffffffffffffffffffffffffffffffffffff168273ffffffffffffffffffffffffffffffffffffffff1614156115d6576040517f08c379a00000000000000000000000000000000000000000000000000000000081526004016115cd90612305565b60405180910390fd5b6115e1838383611d7b565b60008060008573ffffffffffffffffffffffffffffffffffffffff1673ffffffffffffffffffffffffffffffffffffffff16815260200190815260200160002054905081811015611667576040517f08c379a000000000000000000000000000000000000000000000000000000000815260040161165e906123c5565b60405180910390fd5b8181036000808673ffffffffffffffffffffffffffffffffffffffff1673ffffffffffffffffffffffffffffffffffffffff16815260200190815260200160002081905550816000808573ffffffffffffffffffffffffffffffffffffffff1673ffffffffffffffffffffffffffffffffffffffff16815260200190815260200160002060008282546116fa9190612560565b925050819055508273ffffffffffffffffffffffffffffffffffffffff168473ffffffffffffffffffffffffffffffffffffffff167fddf252ad1be2c89b69c2b068fc378daa952ba7f163c4a11628f55a4df523b3ef8460405161175e91906124e5565b60405180910390a3611771848484611d80565b50505050565b600073ffffffffffffffffffffffffffffffffffffffff168273ffffffffffffffffffffffffffffffffffffffff1614156117e7576040517f08c379a00000000000000000000000000000000000000000000000000000000081526004016117de906124c5565b60405180910390fd5b6117f360008383611d7b565b80600260008282546118059190612560565b92505081905550806000808473ffffffffffffffffffffffffffffffffffffffff1673ffffffffffffffffffffffffffffffffffffffff168152602001908152602001600020600082825461185a9190612560565b925050819055508173ffffffffffffffffffffffffffffffffffffffff16600073ffffffffffffffffffffffffffffffffffffffff167fddf252ad1be2c89b69c2b068fc378daa952ba7f163c4a11628f55a4df523b3ef836040516118bf91906124e5565b60405180910390a36118d360008383611d80565b5050565b6000804790506000600660009054906101000a900473ffffffffffffffffffffffffffffffffffffffff1673ffffffffffffffffffffffffffffffffffffffff166370a08231306040518263ffffffff1660e01b815260040161193a9190612224565b60206040518083038186803b15801561195257600080fd5b505afa158015611966573d6000803e3d6000fd5b505050506040513d601f19601f8201168201806040525081019061198a9190611f1b565b90506000600854905060006009549050600082856119a89190612641565b9050600082856119b89190612641565b90506000600560009054906101000a900473ffffffffffffffffffffffffffffffffffffffff16905060008173ffffffffffffffffffffffffffffffffffffffff166318160ddd6040518163ffffffff1660e01b815260040160206040518083038186803b158015611a2957600080fd5b505afa158015611a3d573d6000803e3d6000fd5b505050506040513d601f19601f82011682018060405250810190611a619190611f1b565b90506000811415611a8a57828385611a7991906125e7565b611a8391906125b6565b9850611aa4565b828385611a9791906125e7565b611aa191906125b6565b98505b60008911611ae7576040517f08c379a0000000000000000000000000000000000000000000000000000000008152600401611ade90612385565b60405180910390fd5b600560009054906101000a900473ffffffffffffffffffffffffffffffffffffffff1673ffffffffffffffffffffffffffffffffffffffff1663095ea7b3306d04ee2d6d415b85acef81000000006040518363ffffffff1660e01b8152600401611b52929190612276565b602060405180830381600087803b158015611b6c57600080fd5b505af1158015611b80573d6000803e3d6000fd5b505050506040513d601f19601f82011682018060405250810190611ba49190611ec9565b508173ffffffffffffffffffffffffffffffffffffffff166340c10f198b8b6040518363ffffffff1660e01b8152600401611be092919061229f565b600060405180830381600087803b158015611bfa57600080fd5b505af1158015611c0e573d6000803e3d6000fd5b50505050611c1e88888888611c7b565b3373ffffffffffffffffffffffffffffffffffffffff167fc324c34388e433281d128336df982824b8e77c37ee8572eb94f5d58cf38b010e8585604051611c66929190612500565b60405180910390a25050505050505050919050565b60008410158015611c8d575060008310155b611ccc576040517f08c379a0000000000000000000000000000000000000000000000000000000008152600401611cc390612425565b60405180910390fd5b600082118015611cdc5750600081115b15611d2a578082611ced91906125b6565b600b6000828254611cfe9190612560565b925050819055508181611d1191906125b6565b600c6000828254611d229190612560565b925050819055505b83600881905550826009819055507fcf2aa50876cdfbb541206f89af0ee78d44a2abf8d328e37fa4917f982149848a600854600854604051611d6d929190612500565b60405180910390a150505050565b505050565b505050565b600081359050611d9481612b9c565b92915050565b600081519050611da981612bb3565b92915050565b600081359050611dbe81612bca565b92915050565b600081519050611dd381612bca565b92915050565b600060208284031215611deb57600080fd5b6000611df984828501611d85565b91505092915050565b60008060408385031215611e1557600080fd5b6000611e2385828601611d85565b9250506020611e3485828601611d85565b9150509250929050565b600080600060608486031215611e5357600080fd5b6000611e6186828701611d85565b9350506020611e7286828701611d85565b9250506040611e8386828701611daf565b9150509250925092565b60008060408385031215611ea057600080fd5b6000611eae85828601611d85565b9250506020611ebf85828601611daf565b9150509250929050565b600060208284031215611edb57600080fd5b6000611ee984828501611d9a565b91505092915050565b600060208284031215611f0457600080fd5b6000611f1284828501611daf565b91505092915050565b600060208284031215611f2d57600080fd5b6000611f3b84828501611dc4565b91505092915050565b600080600060608486031215611f5957600080fd5b6000611f6786828701611daf565b9350506020611f7886828701611daf565b9250506040611f8986828701611daf565b9150509250925092565b611f9c81612675565b82525050565b611fab81612687565b82525050565b611fba816126ca565b82525050565b6000611fcb82612544565b611fd5818561254f565b9350611fe58185602086016126dc565b611fee816127ce565b840191505092915050565b600061200660238361254f565b9150612011826127df565b604082019050919050565b600061202960178361254f565b91506120348261282e565b602082019050919050565b600061204c60228361254f565b915061205782612857565b604082019050919050565b600061206f60148361254f565b915061207a826128a6565b602082019050919050565b600061209260178361254f565b915061209d826128cf565b602082019050919050565b60006120b560148361254f565b91506120c0826128f8565b602082019050919050565b60006120d860268361254f565b91506120e382612921565b604082019050919050565b60006120fb60288361254f565b915061210682612970565b604082019050919050565b600061211e60288361254f565b9150612129826129bf565b604082019050919050565b600061214160108361254f565b915061214c82612a0e565b602082019050919050565b600061216460258361254f565b915061216f82612a37565b604082019050919050565b600061218760248361254f565b915061219282612a86565b604082019050919050565b60006121aa602b8361254f565b91506121b582612ad5565b604082019050919050565b60006121cd60258361254f565b91506121d882612b24565b604082019050919050565b60006121f0601f8361254f565b91506121fb82612b73565b602082019050919050565b61220f816126b3565b82525050565b61221e816126bd565b82525050565b60006020820190506122396000830184611f93565b92915050565b60006060820190506122546000830186611f93565b6122616020830185611f93565b61226e6040830184612206565b949350505050565b600060408201905061228b6000830185611f93565b6122986020830184611fb1565b9392505050565b60006040820190506122b46000830185611f93565b6122c16020830184612206565b9392505050565b60006020820190506122dd6000830184611fa2565b92915050565b600060208201905081810360008301526122fd8184611fc0565b905092915050565b6000602082019050818103600083015261231e81611ff9565b9050919050565b6000602082019050818103600083015261233e8161201c565b9050919050565b6000602082019050818103600083015261235e8161203f565b9050919050565b6000602082019050818103600083015261237e81612062565b9050919050565b6000602082019050818103600083015261239e81612085565b9050919050565b600060208201905081810360008301526123be816120a8565b9050919050565b600060208201905081810360008301526123de816120cb565b9050919050565b600060208201905081810360008301526123fe816120ee565b9050919050565b6000602082019050818103600083015261241e81612111565b9050919050565b6000602082019050818103600083015261243e81612134565b9050919050565b6000602082019050818103600083015261245e81612157565b9050919050565b6000602082019050818103600083015261247e8161217a565b9050919050565b6000602082019050818103600083015261249e8161219d565b9050919050565b600060208201905081810360008301526124be816121c0565b9050919050565b600060208201905081810360008301526124de816121e3565b9050919050565b60006020820190506124fa6000830184612206565b92915050565b60006040820190506125156000830185612206565b6125226020830184612206565b9392505050565b600060208201905061253e6000830184612215565b92915050565b600081519050919050565b600082825260208201905092915050565b600061256b826126b3565b9150612576836126b3565b9250827fffffffffffffffffffffffffffffffffffffffffffffffffffffffffffffffff038211156125ab576125aa612741565b5b828201905092915050565b60006125c1826126b3565b91506125cc836126b3565b9250826125dc576125db612770565b5b828204905092915050565b60006125f2826126b3565b91506125fd836126b3565b9250817fffffffffffffffffffffffffffffffffffffffffffffffffffffffffffffffff048311821515161561263657612635612741565b5b828202905092915050565b600061264c826126b3565b9150612657836126b3565b92508282101561266a57612669612741565b5b828203905092915050565b600061268082612693565b9050919050565b60008115159050919050565b600073ffffffffffffffffffffffffffffffffffffffff82169050919050565b6000819050919050565b600060ff82169050919050565b60006126d5826126b3565b9050919050565b60005b838110156126fa5780820151818401526020810190506126df565b83811115612709576000848401525b50505050565b6000600282049050600182168061272757607f821691505b6020821081141561273b5761273a61279f565b5b50919050565b7f4e487b7100000000000000000000000000000000000000000000000000000000600052601160045260246000fd5b7f4e487b7100000000000000000000000000000000000000000000000000000000600052601260045260246000fd5b7f4e487b7100000000000000000000000000000000000000000000000000000000600052602260045260246000fd5b6000601f19601f8301169050919050565b7f45524332303a207472616e7366657220746f20746865207a65726f206164647260008201527f6573730000000000000000000000000000000000000000000000000000000000602082015250565b7f5472616e666572206f6620746f6b656e206661696c6564000000000000000000600082015250565b7f45524332303a20617070726f766520746f20746865207a65726f20616464726560008201527f7373000000000000000000000000000000000000000000000000000000000000602082015250565b7f64732d6d6174682d6d756c2d6f766572666c6f77000000000000000000000000600082015250565b7f4c697175696469747920616464656420696e76616c6964000000000000000000600082015250565b7f64732d6d6174682d6164642d6f766572666c6f77000000000000000000000000600082015250565b7f45524332303a207472616e7366657220616d6f756e742065786365656473206260008201527f616c616e63650000000000000000000000000000000000000000000000000000602082015250565b7f556e697377617056324c6962726172793a20494e53554646494349454e545f4c60008201527f4951554944495459000000000000000000000000000000000000000000000000602082015250565b7f45524332303a207472616e7366657220616d6f756e742065786365656473206160008201527f6c6c6f77616e6365000000000000000000000000000000000000000000000000602082015250565b7f496e76616c69642062616c616e63657300000000000000000000000000000000600082015250565b7f45524332303a207472616e736665722066726f6d20746865207a65726f20616460008201527f6472657373000000000000000000000000000000000000000000000000000000602082015250565b7f45524332303a20617070726f76652066726f6d20746865207a65726f2061646460008201527f7265737300000000000000000000000000000000000000000000000000000000602082015250565b7f556e697377617056324c6962726172793a20494e53554646494349454e545f4960008201527f4e5055545f414d4f554e54000000000000000000000000000000000000000000602082015250565b7f45524332303a2064656372656173656420616c6c6f77616e63652062656c6f7760008201527f207a65726f000000000000000000000000000000000000000000000000000000602082015250565b7f45524332303a206d696e7420746f20746865207a65726f206164647265737300600082015250565b612ba581612675565b8114612bb057600080fd5b50565b612bbc81612687565b8114612bc757600080fd5b50565b612bd3816126b3565b8114612bde57600080fd5b5056fea2646970667358221220d47a21dc1b2bfcd5a3d9c5d6f68ab25c48fb20ff7ecbe443c7569b47b38afdd264736f6c63430008040033",
  "linkReferences": {},
  "deployedLinkReferences": {}
}