{
  "_format": "hh-sol-artifact-1",
  "contractName": "LiquidityPool",
  "sourceName": "contracts/liquidity.sol",
  "abi": [
    {
      "inputs": [
        {
          "internalType": "string",
          "name": "_name",
          "type": "string"
        },
        {
          "internalType": "string",
          "name": "_symbol",
          "type": "string"
        },
        {
          "internalType": "address",
          "name": "_addressTokenB",
          "type": "address"
        },
        {
          "internalType": "uint256",
          "name": "_priceTokenEth",
          "type": "uint256"
        },
        {
          "internalType": "uint256",
          "name": "_priceTokenB",
          "type": "uint256"
        }
      ],
      "stateMutability": "nonpayable",
      "type": "constructor"
    },
    {
      "anonymous": false,
      "inputs": [
        {
          "indexed": true,
          "internalType": "address",
          "name": "_owner",
          "type": "address"
        },
        {
          "indexed": true,
          "internalType": "address",
          "name": "_spender",
          "type": "address"
        },
        {
          "indexed": false,
          "internalType": "uint256",
          "name": "_value",
          "type": "uint256"
        }
      ],
      "name": "Approval",
      "type": "event"
    },
    {
      "anonymous": false,
      "inputs": [
        {
          "indexed": true,
          "internalType": "address",
          "name": "from",
          "type": "address"
        },
        {
          "indexed": false,
          "internalType": "uint256",
          "name": "value",
          "type": "uint256"
        }
      ],
      "name": "Burn",
      "type": "event"
    },
    {
      "anonymous": false,
      "inputs": [
        {
          "indexed": false,
          "internalType": "uint256",
          "name": "amountin",
          "type": "uint256"
        },
        {
          "indexed": false,
          "internalType": "uint256",
          "name": "amountout",
          "type": "uint256"
        }
      ],
      "name": "BuySPTToken",
      "type": "event"
    },
    {
      "anonymous": false,
      "inputs": [
        {
          "indexed": true,
          "internalType": "address",
          "name": "from",
          "type": "address"
        },
        {
          "indexed": false,
          "internalType": "uint256",
          "name": "value",
          "type": "uint256"
        }
      ],
      "name": "Mint",
      "type": "event"
    },
    {
      "anonymous": false,
      "inputs": [
        {
          "indexed": true,
          "internalType": "address",
          "name": "from",
          "type": "address"
        },
        {
          "indexed": false,
          "internalType": "uint256",
          "name": "amountTokenEth",
          "type": "uint256"
        },
        {
          "indexed": false,
          "internalType": "uint256",
          "name": "amountTokenB",
          "type": "uint256"
        }
      ],
      "name": "MintLPToken",
      "type": "event"
    },
    {
      "anonymous": false,
      "inputs": [
        {
          "indexed": false,
          "internalType": "uint256",
          "name": "amountin",
          "type": "uint256"
        },
        {
          "indexed": false,
          "internalType": "uint256",
          "name": "amountout",
          "type": "uint256"
        }
      ],
      "name": "SellSPTToken",
      "type": "event"
    },
    {
      "anonymous": false,
      "inputs": [
        {
          "indexed": false,
          "internalType": "uint256",
          "name": "reserveTokenEth",
          "type": "uint256"
        },
        {
          "indexed": false,
          "internalType": "uint256",
          "name": "reserveTokenB",
          "type": "uint256"
        }
      ],
      "name": "Sync",
      "type": "event"
    },
    {
      "anonymous": false,
      "inputs": [
        {
          "indexed": true,
          "internalType": "address",
          "name": "from",
          "type": "address"
        },
        {
          "indexed": true,
          "internalType": "address",
          "name": "to",
          "type": "address"
        },
        {
          "indexed": false,
          "internalType": "uint256",
          "name": "value",
          "type": "uint256"
        }
      ],
      "name": "Transfer",
      "type": "event"
    },
    {
      "inputs": [],
      "name": "addLiquidity",
      "outputs": [
        {
          "internalType": "bool",
          "name": "success",
          "type": "bool"
        }
      ],
      "stateMutability": "payable",
      "type": "function"
    },
    {
      "inputs": [],
      "name": "addressTokenB",
      "outputs": [
        {
          "internalType": "address",
          "name": "",
          "type": "address"
        }
      ],
      "stateMutability": "view",
      "type": "function"
    },
    {
      "inputs": [
        {
          "internalType": "address",
          "name": "",
          "type": "address"
        },
        {
          "internalType": "address",
          "name": "",
          "type": "address"
        }
      ],
      "name": "allowance",
      "outputs": [
        {
          "internalType": "uint256",
          "name": "",
          "type": "uint256"
        }
      ],
      "stateMutability": "view",
      "type": "function"
    },
    {
      "inputs": [
        {
          "internalType": "address",
          "name": "_spender",
          "type": "address"
        },
        {
          "internalType": "uint256",
          "name": "_value",
          "type": "uint256"
        }
      ],
      "name": "approve",
      "outputs": [
        {
          "internalType": "bool",
          "name": "success",
          "type": "bool"
        }
      ],
      "stateMutability": "nonpayable",
      "type": "function"
    },
    {
      "inputs": [
        {
          "internalType": "address",
          "name": "",
          "type": "address"
        }
      ],
      "name": "balanceOf",
      "outputs": [
        {
          "internalType": "uint256",
          "name": "",
          "type": "uint256"
        }
      ],
      "stateMutability": "view",
      "type": "function"
    },
    {
      "inputs": [
        {
          "internalType": "uint256",
          "name": "_value",
          "type": "uint256"
        }
      ],
      "name": "burn",
      "outputs": [
        {
          "internalType": "bool",
          "name": "success",
          "type": "bool"
        }
      ],
      "stateMutability": "nonpayable",
      "type": "function"
    },
    {
      "inputs": [],
      "name": "buyspttoken",
      "outputs": [],
      "stateMutability": "payable",
      "type": "function"
    },
    {
      "inputs": [
        {
          "internalType": "uint256",
          "name": "amountIn",
          "type": "uint256"
        },
        {
          "internalType": "uint256",
          "name": "reserveIn",
          "type": "uint256"
        },
        {
          "internalType": "uint256",
          "name": "reserveOut",
          "type": "uint256"
        }
      ],
      "name": "getAmountOut",
      "outputs": [
        {
          "internalType": "uint256",
          "name": "amountOut",
          "type": "uint256"
        }
      ],
      "stateMutability": "pure",
      "type": "function"
    },
    {
      "inputs": [],
      "name": "name",
      "outputs": [
        {
          "internalType": "string",
          "name": "",
          "type": "string"
        }
      ],
      "stateMutability": "view",
      "type": "function"
    },
    {
      "inputs": [],
      "name": "owner",
      "outputs": [
        {
          "internalType": "address",
          "name": "",
          "type": "address"
        }
      ],
      "stateMutability": "view",
      "type": "function"
    },
    {
      "inputs": [],
      "name": "priceTokenB",
      "outputs": [
        {
          "internalType": "uint256",
          "name": "",
          "type": "uint256"
        }
      ],
      "stateMutability": "view",
      "type": "function"
    },
    {
      "inputs": [],
      "name": "priceTokenEth",
      "outputs": [
        {
          "internalType": "uint256",
          "name": "",
          "type": "uint256"
        }
      ],
      "stateMutability": "view",
      "type": "function"
    },
    {
      "inputs": [],
      "name": "reserveTokenB",
      "outputs": [
        {
          "internalType": "uint256",
          "name": "",
          "type": "uint256"
        }
      ],
      "stateMutability": "view",
      "type": "function"
    },
    {
      "inputs": [],
      "name": "reserveTokenEth",
      "outputs": [
        {
          "internalType": "uint256",
          "name": "",
          "type": "uint256"
        }
      ],
      "stateMutability": "view",
      "type": "function"
    },
    {
      "inputs": [
        {
          "internalType": "uint256",
          "name": "amountIn",
          "type": "uint256"
        }
      ],
      "name": "sellSptToken",
      "outputs": [],
      "stateMutability": "nonpayable",
      "type": "function"
    },
    {
      "inputs": [],
      "name": "symbol",
      "outputs": [
        {
          "internalType": "string",
          "name": "",
          "type": "string"
        }
      ],
      "stateMutability": "view",
      "type": "function"
    },
    {
      "inputs": [],
      "name": "sync",
      "outputs": [],
      "stateMutability": "nonpayable",
      "type": "function"
    },
    {
      "inputs": [],
      "name": "totalSupply",
      "outputs": [
        {
          "internalType": "uint256",
          "name": "",
          "type": "uint256"
        }
      ],
      "stateMutability": "view",
      "type": "function"
    },
    {
      "inputs": [
        {
          "internalType": "address",
          "name": "_to",
          "type": "address"
        },
        {
          "internalType": "uint256",
          "name": "_value",
          "type": "uint256"
        }
      ],
      "name": "transfer",
      "outputs": [
        {
          "internalType": "bool",
          "name": "success",
          "type": "bool"
        }
      ],
      "stateMutability": "nonpayable",
      "type": "function"
    },
    {
      "inputs": [
        {
          "internalType": "address",
          "name": "_from",
          "type": "address"
        },
        {
          "internalType": "address",
          "name": "_to",
          "type": "address"
        },
        {
          "internalType": "uint256",
          "name": "_value",
          "type": "uint256"
        }
      ],
      "name": "transferFrom",
      "outputs": [
        {
          "internalType": "bool",
          "name": "success",
          "type": "bool"
        }
      ],
      "stateMutability": "nonpayable",
      "type": "function"
    }
  ],
  "bytecode": "0x60806040523480156200001157600080fd5b5060405162002a3638038062002a368339818101604052810190620000379190620003af565b6000858582600281905550600254600360003373ffffffffffffffffffffffffffffffffffffffff1673ffffffffffffffffffffffffffffffffffffffff168152602001908152602001600020819055508160009080519060200190620000a09291906200021c565b508060019080519060200190620000b99291906200021c565b5050505082600560006101000a81548173ffffffffffffffffffffffffffffffffffffffff021916908373ffffffffffffffffffffffffffffffffffffffff16021790555033600660006101000a81548173ffffffffffffffffffffffffffffffffffffffff021916908373ffffffffffffffffffffffffffffffffffffffff16021790555081600a8190555080600b81905550600560009054906101000a900473ffffffffffffffffffffffffffffffffffffffff1673ffffffffffffffffffffffffffffffffffffffff1663095ea7b3306d04ee2d6d415b85acef81000000006040518363ffffffff1660e01b8152600401620001ba92919062000485565b602060405180830381600087803b158015620001d557600080fd5b505af1158015620001ea573d6000803e3d6000fd5b505050506040513d601f19601f8201168201806040525081019062000210919062000383565b505050505050620006ce565b8280546200022a90620005a5565b90600052602060002090601f0160209004810192826200024e57600085556200029a565b82601f106200026957805160ff19168380011785556200029a565b828001600101855582156200029a579182015b82811115620002995782518255916020019190600101906200027c565b5b509050620002a99190620002ad565b5090565b5b80821115620002c8576000816000905550600101620002ae565b5090565b6000620002e3620002dd84620004db565b620004b2565b905082815260208101848484011115620002fc57600080fd5b620003098482856200056f565b509392505050565b600081519050620003228162000680565b92915050565b60008151905062000339816200069a565b92915050565b600082601f8301126200035157600080fd5b815162000363848260208601620002cc565b91505092915050565b6000815190506200037d81620006b4565b92915050565b6000602082840312156200039657600080fd5b6000620003a68482850162000328565b91505092915050565b600080600080600060a08688031215620003c857600080fd5b600086015167ffffffffffffffff811115620003e357600080fd5b620003f1888289016200033f565b955050602086015167ffffffffffffffff8111156200040f57600080fd5b6200041d888289016200033f565b9450506040620004308882890162000311565b935050606062000443888289016200036c565b925050608062000456888289016200036c565b9150509295509295909350565b6200046e8162000511565b82525050565b6200047f816200055b565b82525050565b60006040820190506200049c600083018562000463565b620004ab602083018462000474565b9392505050565b6000620004be620004d1565b9050620004cc8282620005db565b919050565b6000604051905090565b600067ffffffffffffffff821115620004f957620004f862000640565b5b62000504826200066f565b9050602081019050919050565b60006200051e8262000531565b9050919050565b60008115159050919050565b600073ffffffffffffffffffffffffffffffffffffffff82169050919050565b6000819050919050565b6000620005688262000551565b9050919050565b60005b838110156200058f57808201518184015260208101905062000572565b838111156200059f576000848401525b50505050565b60006002820490506001821680620005be57607f821691505b60208210811415620005d557620005d462000611565b5b50919050565b620005e6826200066f565b810181811067ffffffffffffffff8211171562000608576200060762000640565b5b80604052505050565b7f4e487b7100000000000000000000000000000000000000000000000000000000600052602260045260246000fd5b7f4e487b7100000000000000000000000000000000000000000000000000000000600052604160045260246000fd5b6000601f19601f8301169050919050565b6200068b8162000511565b81146200069757600080fd5b50565b620006a58162000525565b8114620006b157600080fd5b50565b620006bf8162000551565b8114620006cb57600080fd5b50565b61235880620006de6000396000f3fe60806040526004361061011f5760003560e01c8063781b4f15116100a0578063a9059cbb11610064578063a9059cbb146103e0578063dd62ed3e1461041d578063e8078d941461045a578063f9c1d67714610478578063fff6cae9146104a35761011f565b8063781b4f151461032c57806382fc58e5146103365780638da5cb5b1461035f5780638de6959b1461038a57806395d89b41146103b55761011f565b806319b16aa6116100e757806319b16aa61461021f57806323b872dd1461024a57806342966c6814610287578063667ecb44146102c457806370a08231146102ef5761011f565b8063054d50d41461012457806306fdde0314610161578063095ea7b31461018c57806314c17f45146101c957806318160ddd146101f4575b600080fd5b34801561013057600080fd5b5061014b60048036038101906101469190611ae3565b6104ba565b6040516101589190611e77565b60405180910390f35b34801561016d57600080fd5b506101766105c0565b6040516101839190611d55565b60405180910390f35b34801561019857600080fd5b506101b360048036038101906101ae9190611a2c565b61064e565b6040516101c09190611d3a565b60405180910390f35b3480156101d557600080fd5b506101de610740565b6040516101eb9190611e77565b60405180910390f35b34801561020057600080fd5b50610209610746565b6040516102169190611e77565b60405180910390f35b34801561022b57600080fd5b5061023461074c565b6040516102419190611e77565b60405180910390f35b34801561025657600080fd5b50610271600480360381019061026c91906119dd565b610752565b60405161027e9190611d3a565b60405180910390f35b34801561029357600080fd5b506102ae60048036038101906102a99190611a91565b6108bc565b6040516102bb9190611d3a565b60405180910390f35b3480156102d057600080fd5b506102d96109d0565b6040516102e69190611e77565b60405180910390f35b3480156102fb57600080fd5b5061031660048036038101906103119190611978565b6109d6565b6040516103239190611e77565b60405180910390f35b6103346109ee565b005b34801561034257600080fd5b5061035d60048036038101906103589190611a91565b610be7565b005b34801561036b57600080fd5b50610374610d70565b6040516103819190611cbf565b60405180910390f35b34801561039657600080fd5b5061039f610d96565b6040516103ac9190611e77565b60405180910390f35b3480156103c157600080fd5b506103ca610d9c565b6040516103d79190611d55565b60405180910390f35b3480156103ec57600080fd5b5061040760048036038101906104029190611a2c565b610e2a565b6040516104149190611d3a565b60405180910390f35b34801561042957600080fd5b50610444600480360381019061043f91906119a1565b610e41565b6040516104519190611e77565b60405180910390f35b610462610e66565b60405161046f9190611d3a565b60405180910390f35b34801561048457600080fd5b5061048d611052565b60405161049a9190611cbf565b60405180910390f35b3480156104af57600080fd5b506104b8611078565b005b60008084116104fe576040517f08c379a00000000000000000000000000000000000000000000000000000000081526004016104f590611e57565b60405180910390fd5b60008311801561050e5750600082115b61054d576040517f08c379a000000000000000000000000000000000000000000000000000000000815260040161054490611df7565b60405180910390fd5b60006105646103e58661113490919063ffffffff16565b9050600061057b848361113490919063ffffffff16565b905060006105a6836105986103e88961113490919063ffffffff16565b6111a190919063ffffffff16565b905080826105b49190611f2d565b93505050509392505050565b600080546105cd90612079565b80601f01602080910402602001604051908101604052809291908181526020018280546105f990612079565b80156106465780601f1061061b57610100808354040283529160200191610646565b820191906000526020600020905b81548152906001019060200180831161062957829003601f168201915b505050505081565b600081600460003373ffffffffffffffffffffffffffffffffffffffff1673ffffffffffffffffffffffffffffffffffffffff16815260200190815260200160002060008573ffffffffffffffffffffffffffffffffffffffff1673ffffffffffffffffffffffffffffffffffffffff168152602001908152602001600020819055508273ffffffffffffffffffffffffffffffffffffffff163373ffffffffffffffffffffffffffffffffffffffff167f8c5be1e5ebec7d5bd14f71427d1e84f3dd0314c0f7b2291e5b200ac8c7c3b9258460405161072e9190611e77565b60405180910390a36001905092915050565b600a5481565b60025481565b60085481565b6000600460008573ffffffffffffffffffffffffffffffffffffffff1673ffffffffffffffffffffffffffffffffffffffff16815260200190815260200160002060003373ffffffffffffffffffffffffffffffffffffffff1673ffffffffffffffffffffffffffffffffffffffff16815260200190815260200160002054821115610813576040517f08c379a000000000000000000000000000000000000000000000000000000000815260040161080a90611e17565b60405180910390fd5b81600460008673ffffffffffffffffffffffffffffffffffffffff1673ffffffffffffffffffffffffffffffffffffffff16815260200190815260200160002060003373ffffffffffffffffffffffffffffffffffffffff1673ffffffffffffffffffffffffffffffffffffffff168152602001908152602001600020600082825461089f9190611fb8565b925050819055506108b18484846111fa565b600190509392505050565b600081600360003373ffffffffffffffffffffffffffffffffffffffff1673ffffffffffffffffffffffffffffffffffffffff16815260200190815260200160002054101561090a57600080fd5b81600360003373ffffffffffffffffffffffffffffffffffffffff1673ffffffffffffffffffffffffffffffffffffffff16815260200190815260200160002060008282546109599190611fb8565b9250508190555081600260008282546109729190611fb8565b925050819055503373ffffffffffffffffffffffffffffffffffffffff167fcc16f5dbb4873280815c1ee09dbd06736cffcc184412cf7a71a0fdb75d397ca5836040516109bf9190611e77565b60405180910390a260019050919050565b60075481565b60036020528060005260406000206000915090505481565b600034905060006007549050600060085490506000610a0e8484846104ba565b9050600560009054906101000a900473ffffffffffffffffffffffffffffffffffffffff1673ffffffffffffffffffffffffffffffffffffffff1663095ea7b3306d04ee2d6d415b85acef81000000006040518363ffffffff1660e01b8152600401610a7b929190611d11565b602060405180830381600087803b158015610a9557600080fd5b505af1158015610aa9573d6000803e3d6000fd5b505050506040513d601f19601f82011682018060405250810190610acd9190611a68565b50600560009054906101000a900473ffffffffffffffffffffffffffffffffffffffff1673ffffffffffffffffffffffffffffffffffffffff166323b872dd3033846040518463ffffffff1660e01b8152600401610b2d93929190611cda565b602060405180830381600087803b158015610b4757600080fd5b505af1158015610b5b573d6000803e3d6000fd5b505050506040513d601f19601f82011682018060405250810190610b7f9190611a68565b5080600854610b8e9190611fb8565b60088190555034600754610ba29190611ed7565b6007819055507f0b681acbf8f2a3cd70a326ce89b9a07a24df363803ed116a44be70fc09c3222e8482604051610bd9929190611e92565b60405180910390a150505050565b60006008549050600060075490506000610c028484846104ba565b9050600560009054906101000a900473ffffffffffffffffffffffffffffffffffffffff1673ffffffffffffffffffffffffffffffffffffffff1663095ea7b3306d04ee2d6d415b85acef81000000006040518363ffffffff1660e01b8152600401610c6f929190611d11565b602060405180830381600087803b158015610c8957600080fd5b505af1158015610c9d573d6000803e3d6000fd5b505050506040513d601f19601f82011682018060405250810190610cc19190611a68565b503373ffffffffffffffffffffffffffffffffffffffff166108fc829081150290604051600060405180830381858888f19350505050158015610d08573d6000803e3d6000fd5b5083600854610d179190611ed7565b60088190555080600754610d2b9190611fb8565b6007819055507fd401b6994134b4479b1cae665f9f116fcc8d597dc4da1b0ef7cfe4241bdab0dc8482604051610d62929190611e92565b60405180910390a150505050565b600660009054906101000a900473ffffffffffffffffffffffffffffffffffffffff1681565b600b5481565b60018054610da990612079565b80601f0160208091040260200160405190810160405280929190818152602001828054610dd590612079565b8015610e225780601f10610df757610100808354040283529160200191610e22565b820191906000526020600020905b815481529060010190602001808311610e0557829003601f168201915b505050505081565b6000610e373384846111fa565b6001905092915050565b6004602052816000526040600020602052806000526040600020600091509150505481565b6000803490506000600b54600a5483610e7f9190611f5e565b610e899190611f2d565b9050600560009054906101000a900473ffffffffffffffffffffffffffffffffffffffff1673ffffffffffffffffffffffffffffffffffffffff1663095ea7b3306d04ee2d6d415b85acef81000000006040518363ffffffff1660e01b8152600401610ef6929190611d11565b602060405180830381600087803b158015610f1057600080fd5b505af1158015610f24573d6000803e3d6000fd5b505050506040513d601f19601f82011682018060405250810190610f489190611a68565b506000600560009054906101000a900473ffffffffffffffffffffffffffffffffffffffff1690508073ffffffffffffffffffffffffffffffffffffffff166323b872dd3330856040518463ffffffff1660e01b8152600401610fad93929190611cda565b602060405180830381600087803b158015610fc757600080fd5b505af1158015610fdb573d6000803e3d6000fd5b505050506040513d601f19601f82011682018060405250810190610fff9190611a68565b61103e576040517f08c379a000000000000000000000000000000000000000000000000000000000815260040161103590611d77565b60405180910390fd5b6110473361157a565b506001935050505090565b600560009054906101000a900473ffffffffffffffffffffffffffffffffffffffff1681565b61113247600560009054906101000a900473ffffffffffffffffffffffffffffffffffffffff1673ffffffffffffffffffffffffffffffffffffffff166370a08231306040518263ffffffff1660e01b81526004016110d79190611cbf565b60206040518083038186803b1580156110ef57600080fd5b505afa158015611103573d6000803e3d6000fd5b505050506040513d601f19601f820116820180604052508101906111279190611aba565b60075460085461175b565b565b60008082148061115c57508282838561114d9190611f5e565b92508261115a9190611f2d565b145b61119b576040517f08c379a000000000000000000000000000000000000000000000000000000000815260040161119290611d97565b60405180910390fd5b92915050565b60008282846111b09190611ed7565b91508110156111f4576040517f08c379a00000000000000000000000000000000000000000000000000000000081526004016111eb90611dd7565b60405180910390fd5b92915050565b600073ffffffffffffffffffffffffffffffffffffffff168273ffffffffffffffffffffffffffffffffffffffff16141561123457600080fd5b80600360008573ffffffffffffffffffffffffffffffffffffffff1673ffffffffffffffffffffffffffffffffffffffff16815260200190815260200160002054101561128057600080fd5b600360008373ffffffffffffffffffffffffffffffffffffffff1673ffffffffffffffffffffffffffffffffffffffff1681526020019081526020016000205481600360008573ffffffffffffffffffffffffffffffffffffffff1673ffffffffffffffffffffffffffffffffffffffff1681526020019081526020016000205461130b9190611ed7565b101561131657600080fd5b6000600360008473ffffffffffffffffffffffffffffffffffffffff1673ffffffffffffffffffffffffffffffffffffffff16815260200190815260200160002054600360008673ffffffffffffffffffffffffffffffffffffffff1673ffffffffffffffffffffffffffffffffffffffff168152602001908152602001600020546113a29190611ed7565b905081600360008673ffffffffffffffffffffffffffffffffffffffff1673ffffffffffffffffffffffffffffffffffffffff16815260200190815260200160002060008282546113f39190611fb8565b9250508190555081600360008573ffffffffffffffffffffffffffffffffffffffff1673ffffffffffffffffffffffffffffffffffffffff16815260200190815260200160002060008282546114499190611ed7565b925050819055508273ffffffffffffffffffffffffffffffffffffffff168473ffffffffffffffffffffffffffffffffffffffff167fddf252ad1be2c89b69c2b068fc378daa952ba7f163c4a11628f55a4df523b3ef846040516114ad9190611e77565b60405180910390a380600360008573ffffffffffffffffffffffffffffffffffffffff1673ffffffffffffffffffffffffffffffffffffffff16815260200190815260200160002054600360008773ffffffffffffffffffffffffffffffffffffffff1673ffffffffffffffffffffffffffffffffffffffff168152602001908152602001600020546115409190611ed7565b14611574577f4e487b7100000000000000000000000000000000000000000000000000000000600052600160045260246000fd5b50505050565b6000804790506000600560009054906101000a900473ffffffffffffffffffffffffffffffffffffffff1673ffffffffffffffffffffffffffffffffffffffff166370a08231306040518263ffffffff1660e01b81526004016115dd9190611cbf565b60206040518083038186803b1580156115f557600080fd5b505afa158015611609573d6000803e3d6000fd5b505050506040513d601f19601f8201168201806040525081019061162d9190611aba565b905060006007549050600060085490506000828561164b9190611fb8565b90506000828561165b9190611fb8565b905060006002549050600081141561168b5781828461167a9190611f5e565b6116849190611f2d565b97506116a5565b8182846116989190611f5e565b6116a29190611f2d565b97505b600088116116e8576040517f08c379a00000000000000000000000000000000000000000000000000000000081526004016116df90611db7565b60405180910390fd5b6116f2898961185b565b506116ff8787878761175b565b3373ffffffffffffffffffffffffffffffffffffffff167fc324c34388e433281d128336df982824b8e77c37ee8572eb94f5d58cf38b010e8484604051611747929190611e92565b60405180910390a250505050505050919050565b6000841015801561176d575060008310155b6117ac576040517f08c379a00000000000000000000000000000000000000000000000000000000081526004016117a390611e37565b60405180910390fd5b6000821180156117bc5750600081115b1561180a5780826117cd9190611f2d565b600a60008282546117de9190611ed7565b9250508190555081816117f19190611f2d565b600b60008282546118029190611ed7565b925050819055505b83600781905550826008819055507fcf2aa50876cdfbb541206f89af0ee78d44a2abf8d328e37fa4917f982149848a60075460075460405161184d929190611e92565b60405180910390a150505050565b600081600360008573ffffffffffffffffffffffffffffffffffffffff1673ffffffffffffffffffffffffffffffffffffffff16815260200190815260200160002060008282546118ac9190611ed7565b9250508190555081600260008282546118c59190611ed7565b925050819055503373ffffffffffffffffffffffffffffffffffffffff167f0f6798a560793a54c3bcfe86a93cde1e73087d944c0ea20544137d4121396885836040516119129190611e77565b60405180910390a26001905092915050565b600081359050611933816122dd565b92915050565b600081519050611948816122f4565b92915050565b60008135905061195d8161230b565b92915050565b6000815190506119728161230b565b92915050565b60006020828403121561198a57600080fd5b600061199884828501611924565b91505092915050565b600080604083850312156119b457600080fd5b60006119c285828601611924565b92505060206119d385828601611924565b9150509250929050565b6000806000606084860312156119f257600080fd5b6000611a0086828701611924565b9350506020611a1186828701611924565b9250506040611a228682870161194e565b9150509250925092565b60008060408385031215611a3f57600080fd5b6000611a4d85828601611924565b9250506020611a5e8582860161194e565b9150509250929050565b600060208284031215611a7a57600080fd5b6000611a8884828501611939565b91505092915050565b600060208284031215611aa357600080fd5b6000611ab18482850161194e565b91505092915050565b600060208284031215611acc57600080fd5b6000611ada84828501611963565b91505092915050565b600080600060608486031215611af857600080fd5b6000611b068682870161194e565b9350506020611b178682870161194e565b9250506040611b288682870161194e565b9150509250925092565b611b3b81611fec565b82525050565b611b4a81611ffe565b82525050565b611b5981612034565b82525050565b6000611b6a82611ebb565b611b748185611ec6565b9350611b84818560208601612046565b611b8d81612138565b840191505092915050565b6000611ba5601783611ec6565b9150611bb082612149565b602082019050919050565b6000611bc8601483611ec6565b9150611bd382612172565b602082019050919050565b6000611beb601783611ec6565b9150611bf68261219b565b602082019050919050565b6000611c0e601483611ec6565b9150611c19826121c4565b602082019050919050565b6000611c31602883611ec6565b9150611c3c826121ed565b604082019050919050565b6000611c54601183611ec6565b9150611c5f8261223c565b602082019050919050565b6000611c77601083611ec6565b9150611c8282612265565b602082019050919050565b6000611c9a602b83611ec6565b9150611ca58261228e565b604082019050919050565b611cb98161202a565b82525050565b6000602082019050611cd46000830184611b32565b92915050565b6000606082019050611cef6000830186611b32565b611cfc6020830185611b32565b611d096040830184611cb0565b949350505050565b6000604082019050611d266000830185611b32565b611d336020830184611b50565b9392505050565b6000602082019050611d4f6000830184611b41565b92915050565b60006020820190508181036000830152611d6f8184611b5f565b905092915050565b60006020820190508181036000830152611d9081611b98565b9050919050565b60006020820190508181036000830152611db081611bbb565b9050919050565b60006020820190508181036000830152611dd081611bde565b9050919050565b60006020820190508181036000830152611df081611c01565b9050919050565b60006020820190508181036000830152611e1081611c24565b9050919050565b60006020820190508181036000830152611e3081611c47565b9050919050565b60006020820190508181036000830152611e5081611c6a565b9050919050565b60006020820190508181036000830152611e7081611c8d565b9050919050565b6000602082019050611e8c6000830184611cb0565b92915050565b6000604082019050611ea76000830185611cb0565b611eb46020830184611cb0565b9392505050565b600081519050919050565b600082825260208201905092915050565b6000611ee28261202a565b9150611eed8361202a565b9250827fffffffffffffffffffffffffffffffffffffffffffffffffffffffffffffffff03821115611f2257611f216120ab565b5b828201905092915050565b6000611f388261202a565b9150611f438361202a565b925082611f5357611f526120da565b5b828204905092915050565b6000611f698261202a565b9150611f748361202a565b9250817fffffffffffffffffffffffffffffffffffffffffffffffffffffffffffffffff0483118215151615611fad57611fac6120ab565b5b828202905092915050565b6000611fc38261202a565b9150611fce8361202a565b925082821015611fe157611fe06120ab565b5b828203905092915050565b6000611ff78261200a565b9050919050565b60008115159050919050565b600073ffffffffffffffffffffffffffffffffffffffff82169050919050565b6000819050919050565b600061203f8261202a565b9050919050565b60005b83811015612064578082015181840152602081019050612049565b83811115612073576000848401525b50505050565b6000600282049050600182168061209157607f821691505b602082108114156120a5576120a4612109565b5b50919050565b7f4e487b7100000000000000000000000000000000000000000000000000000000600052601160045260246000fd5b7f4e487b7100000000000000000000000000000000000000000000000000000000600052601260045260246000fd5b7f4e487b7100000000000000000000000000000000000000000000000000000000600052602260045260246000fd5b6000601f19601f8301169050919050565b7f5472616e666572206f6620746f6b656e206661696c6564000000000000000000600082015250565b7f64732d6d6174682d6d756c2d6f766572666c6f77000000000000000000000000600082015250565b7f4c697175696469747920616464656420696e76616c6964000000000000000000600082015250565b7f64732d6d6174682d6164642d6f766572666c6f77000000000000000000000000600082015250565b7f556e697377617056324c6962726172793a20494e53554646494349454e545f4c60008201527f4951554944495459000000000000000000000000000000000000000000000000602082015250565b7f496e76616c696420616c6c6f77616e6365000000000000000000000000000000600082015250565b7f496e76616c69642062616c616e63657300000000000000000000000000000000600082015250565b7f556e697377617056324c6962726172793a20494e53554646494349454e545f4960008201527f4e5055545f414d4f554e54000000000000000000000000000000000000000000602082015250565b6122e681611fec565b81146122f157600080fd5b50565b6122fd81611ffe565b811461230857600080fd5b50565b6123148161202a565b811461231f57600080fd5b5056fea26469706673582212208a178d09e0525eed1e38ccaf617475d9ee7dde035f5fca9cc30ed7e457f3f40f64736f6c63430008040033",
  "linkReferences": {},
  "deployedLinkReferences": {}
}