{
  "_format": "hh-sol-artifact-1",
  "contractName": "LiquidityPool",
  "sourceName": "contracts/liquidity.sol",
  "abi": [
    {
      "inputs": [
        {
          "internalType": "string",
          "name": "_name",
          "type": "string"
        },
        {
          "internalType": "string",
          "name": "_symbol",
          "type": "string"
        },
        {
          "internalType": "address",
          "name": "_addressTokenB",
          "type": "address"
        },
        {
          "internalType": "uint256",
          "name": "_priceTokenEth",
          "type": "uint256"
        },
        {
          "internalType": "uint256",
          "name": "_priceTokenB",
          "type": "uint256"
        }
      ],
      "stateMutability": "nonpayable",
      "type": "constructor"
    },
    {
      "anonymous": false,
      "inputs": [
        {
          "indexed": true,
          "internalType": "address",
          "name": "_owner",
          "type": "address"
        },
        {
          "indexed": true,
          "internalType": "address",
          "name": "_spender",
          "type": "address"
        },
        {
          "indexed": false,
          "internalType": "uint256",
          "name": "_value",
          "type": "uint256"
        }
      ],
      "name": "Approval",
      "type": "event"
    },
    {
      "anonymous": false,
      "inputs": [
        {
          "indexed": true,
          "internalType": "address",
          "name": "from",
          "type": "address"
        },
        {
          "indexed": false,
          "internalType": "uint256",
          "name": "value",
          "type": "uint256"
        }
      ],
      "name": "Burn",
      "type": "event"
    },
    {
      "anonymous": false,
      "inputs": [
        {
          "indexed": false,
          "internalType": "uint256",
          "name": "amountin",
          "type": "uint256"
        },
        {
          "indexed": false,
          "internalType": "uint256",
          "name": "amountout",
          "type": "uint256"
        }
      ],
      "name": "BuySPTToken",
      "type": "event"
    },
    {
      "anonymous": false,
      "inputs": [
        {
          "indexed": true,
          "internalType": "address",
          "name": "from",
          "type": "address"
        },
        {
          "indexed": false,
          "internalType": "uint256",
          "name": "value",
          "type": "uint256"
        }
      ],
      "name": "Mint",
      "type": "event"
    },
    {
      "anonymous": false,
      "inputs": [
        {
          "indexed": true,
          "internalType": "address",
          "name": "from",
          "type": "address"
        },
        {
          "indexed": false,
          "internalType": "uint256",
          "name": "amountTokenEth",
          "type": "uint256"
        },
        {
          "indexed": false,
          "internalType": "uint256",
          "name": "amountTokenB",
          "type": "uint256"
        }
      ],
      "name": "MintLPToken",
      "type": "event"
    },
    {
      "anonymous": false,
      "inputs": [
        {
          "indexed": false,
          "internalType": "uint256",
          "name": "amountin",
          "type": "uint256"
        },
        {
          "indexed": false,
          "internalType": "uint256",
          "name": "amountout",
          "type": "uint256"
        }
      ],
      "name": "SellSPTToken",
      "type": "event"
    },
    {
      "anonymous": false,
      "inputs": [
        {
          "indexed": false,
          "internalType": "uint256",
          "name": "reserveTokenEth",
          "type": "uint256"
        },
        {
          "indexed": false,
          "internalType": "uint256",
          "name": "reserveTokenB",
          "type": "uint256"
        }
      ],
      "name": "Sync",
      "type": "event"
    },
    {
      "anonymous": false,
      "inputs": [
        {
          "indexed": true,
          "internalType": "address",
          "name": "from",
          "type": "address"
        },
        {
          "indexed": true,
          "internalType": "address",
          "name": "to",
          "type": "address"
        },
        {
          "indexed": false,
          "internalType": "uint256",
          "name": "value",
          "type": "uint256"
        }
      ],
      "name": "Transfer",
      "type": "event"
    },
    {
      "inputs": [],
      "name": "addLiquidity",
      "outputs": [
        {
          "internalType": "bool",
          "name": "success",
          "type": "bool"
        }
      ],
      "stateMutability": "payable",
      "type": "function"
    },
    {
      "inputs": [],
      "name": "addressTokenB",
      "outputs": [
        {
          "internalType": "address",
          "name": "",
          "type": "address"
        }
      ],
      "stateMutability": "view",
      "type": "function"
    },
    {
      "inputs": [
        {
          "internalType": "address",
          "name": "",
          "type": "address"
        },
        {
          "internalType": "address",
          "name": "",
          "type": "address"
        }
      ],
      "name": "allowance",
      "outputs": [
        {
          "internalType": "uint256",
          "name": "",
          "type": "uint256"
        }
      ],
      "stateMutability": "view",
      "type": "function"
    },
    {
      "inputs": [
        {
          "internalType": "address",
          "name": "_spender",
          "type": "address"
        },
        {
          "internalType": "uint256",
          "name": "_value",
          "type": "uint256"
        }
      ],
      "name": "approve",
      "outputs": [
        {
          "internalType": "bool",
          "name": "success",
          "type": "bool"
        }
      ],
      "stateMutability": "nonpayable",
      "type": "function"
    },
    {
      "inputs": [
        {
          "internalType": "address",
          "name": "",
          "type": "address"
        }
      ],
      "name": "balanceOf",
      "outputs": [
        {
          "internalType": "uint256",
          "name": "",
          "type": "uint256"
        }
      ],
      "stateMutability": "view",
      "type": "function"
    },
    {
      "inputs": [
        {
          "internalType": "uint256",
          "name": "_value",
          "type": "uint256"
        }
      ],
      "name": "burn",
      "outputs": [
        {
          "internalType": "bool",
          "name": "success",
          "type": "bool"
        }
      ],
      "stateMutability": "nonpayable",
      "type": "function"
    },
    {
      "inputs": [],
      "name": "buyspttoken",
      "outputs": [],
      "stateMutability": "payable",
      "type": "function"
    },
    {
      "inputs": [
        {
          "internalType": "uint256",
          "name": "amountIn",
          "type": "uint256"
        },
        {
          "internalType": "uint256",
          "name": "reserveIn",
          "type": "uint256"
        },
        {
          "internalType": "uint256",
          "name": "reserveOut",
          "type": "uint256"
        }
      ],
      "name": "getAmountOut",
      "outputs": [
        {
          "internalType": "uint256",
          "name": "amountOut",
          "type": "uint256"
        }
      ],
      "stateMutability": "pure",
      "type": "function"
    },
    {
      "inputs": [],
      "name": "name",
      "outputs": [
        {
          "internalType": "string",
          "name": "",
          "type": "string"
        }
      ],
      "stateMutability": "view",
      "type": "function"
    },
    {
      "inputs": [],
      "name": "owner",
      "outputs": [
        {
          "internalType": "address",
          "name": "",
          "type": "address"
        }
      ],
      "stateMutability": "view",
      "type": "function"
    },
    {
      "inputs": [],
      "name": "priceTokenB",
      "outputs": [
        {
          "internalType": "uint256",
          "name": "",
          "type": "uint256"
        }
      ],
      "stateMutability": "view",
      "type": "function"
    },
    {
      "inputs": [],
      "name": "priceTokenEth",
      "outputs": [
        {
          "internalType": "uint256",
          "name": "",
          "type": "uint256"
        }
      ],
      "stateMutability": "view",
      "type": "function"
    },
    {
      "inputs": [],
      "name": "reserveTokenB",
      "outputs": [
        {
          "internalType": "uint256",
          "name": "",
          "type": "uint256"
        }
      ],
      "stateMutability": "view",
      "type": "function"
    },
    {
      "inputs": [],
      "name": "reserveTokenEth",
      "outputs": [
        {
          "internalType": "uint256",
          "name": "",
          "type": "uint256"
        }
      ],
      "stateMutability": "view",
      "type": "function"
    },
    {
      "inputs": [
        {
          "internalType": "uint256",
          "name": "amountIn",
          "type": "uint256"
        }
      ],
      "name": "sellSptToken",
      "outputs": [],
      "stateMutability": "nonpayable",
      "type": "function"
    },
    {
      "inputs": [],
      "name": "symbol",
      "outputs": [
        {
          "internalType": "string",
          "name": "",
          "type": "string"
        }
      ],
      "stateMutability": "view",
      "type": "function"
    },
    {
      "inputs": [],
      "name": "sync",
      "outputs": [],
      "stateMutability": "nonpayable",
      "type": "function"
    },
    {
      "inputs": [],
      "name": "totalSupply",
      "outputs": [
        {
          "internalType": "uint256",
          "name": "",
          "type": "uint256"
        }
      ],
      "stateMutability": "view",
      "type": "function"
    },
    {
      "inputs": [
        {
          "internalType": "address",
          "name": "_to",
          "type": "address"
        },
        {
          "internalType": "uint256",
          "name": "_value",
          "type": "uint256"
        }
      ],
      "name": "transfer",
      "outputs": [
        {
          "internalType": "bool",
          "name": "success",
          "type": "bool"
        }
      ],
      "stateMutability": "nonpayable",
      "type": "function"
    },
    {
      "inputs": [
        {
          "internalType": "address",
          "name": "_from",
          "type": "address"
        },
        {
          "internalType": "address",
          "name": "_to",
          "type": "address"
        },
        {
          "internalType": "uint256",
          "name": "_value",
          "type": "uint256"
        }
      ],
      "name": "transferFrom",
      "outputs": [
        {
          "internalType": "bool",
          "name": "success",
          "type": "bool"
        }
      ],
      "stateMutability": "nonpayable",
      "type": "function"
    }
  ],
  "bytecode": "0x60806040523480156200001157600080fd5b5060405162002a1638038062002a168339818101604052810190620000379190620003a7565b6000858582600281905550600254600360003373ffffffffffffffffffffffffffffffffffffffff1673ffffffffffffffffffffffffffffffffffffffff168152602001908152602001600020819055508160009080519060200190620000a092919062000214565b508060019080519060200190620000b992919062000214565b5050505082600560006101000a81548173ffffffffffffffffffffffffffffffffffffffff021916908373ffffffffffffffffffffffffffffffffffffffff16021790555033600660006101000a81548173ffffffffffffffffffffffffffffffffffffffff021916908373ffffffffffffffffffffffffffffffffffffffff16021790555081600a8190555080600b81905550600560009054906101000a900473ffffffffffffffffffffffffffffffffffffffff1673ffffffffffffffffffffffffffffffffffffffff1663095ea7b3306502003a37f0006040518363ffffffff1660e01b8152600401620001b29291906200047d565b602060405180830381600087803b158015620001cd57600080fd5b505af1158015620001e2573d6000803e3d6000fd5b505050506040513d601f19601f820116820180604052508101906200020891906200037b565b505050505050620006c6565b82805462000222906200059d565b90600052602060002090601f01602090048101928262000246576000855562000292565b82601f106200026157805160ff191683800117855562000292565b8280016001018555821562000292579182015b828111156200029157825182559160200191906001019062000274565b5b509050620002a19190620002a5565b5090565b5b80821115620002c0576000816000905550600101620002a6565b5090565b6000620002db620002d584620004d3565b620004aa565b905082815260208101848484011115620002f457600080fd5b6200030184828562000567565b509392505050565b6000815190506200031a8162000678565b92915050565b600081519050620003318162000692565b92915050565b600082601f8301126200034957600080fd5b81516200035b848260208601620002c4565b91505092915050565b6000815190506200037581620006ac565b92915050565b6000602082840312156200038e57600080fd5b60006200039e8482850162000320565b91505092915050565b600080600080600060a08688031215620003c057600080fd5b600086015167ffffffffffffffff811115620003db57600080fd5b620003e98882890162000337565b955050602086015167ffffffffffffffff8111156200040757600080fd5b620004158882890162000337565b9450506040620004288882890162000309565b93505060606200043b8882890162000364565b92505060806200044e8882890162000364565b9150509295509295909350565b620004668162000509565b82525050565b620004778162000553565b82525050565b60006040820190506200049460008301856200045b565b620004a360208301846200046c565b9392505050565b6000620004b6620004c9565b9050620004c48282620005d3565b919050565b6000604051905090565b600067ffffffffffffffff821115620004f157620004f062000638565b5b620004fc8262000667565b9050602081019050919050565b6000620005168262000529565b9050919050565b60008115159050919050565b600073ffffffffffffffffffffffffffffffffffffffff82169050919050565b6000819050919050565b6000620005608262000549565b9050919050565b60005b83811015620005875780820151818401526020810190506200056a565b8381111562000597576000848401525b50505050565b60006002820490506001821680620005b657607f821691505b60208210811415620005cd57620005cc62000609565b5b50919050565b620005de8262000667565b810181811067ffffffffffffffff821117156200060057620005ff62000638565b5b80604052505050565b7f4e487b7100000000000000000000000000000000000000000000000000000000600052602260045260246000fd5b7f4e487b7100000000000000000000000000000000000000000000000000000000600052604160045260246000fd5b6000601f19601f8301169050919050565b620006838162000509565b81146200068f57600080fd5b50565b6200069d816200051d565b8114620006a957600080fd5b50565b620006b78162000549565b8114620006c357600080fd5b50565b61234080620006d66000396000f3fe60806040526004361061011f5760003560e01c8063781b4f15116100a0578063a9059cbb11610064578063a9059cbb146103e0578063dd62ed3e1461041d578063e8078d941461045a578063f9c1d67714610478578063fff6cae9146104a35761011f565b8063781b4f151461032c57806382fc58e5146103365780638da5cb5b1461035f5780638de6959b1461038a57806395d89b41146103b55761011f565b806319b16aa6116100e757806319b16aa61461021f57806323b872dd1461024a57806342966c6814610287578063667ecb44146102c457806370a08231146102ef5761011f565b8063054d50d41461012457806306fdde0314610161578063095ea7b31461018c57806314c17f45146101c957806318160ddd146101f4575b600080fd5b34801561013057600080fd5b5061014b60048036038101906101469190611acb565b6104ba565b6040516101589190611e5f565b60405180910390f35b34801561016d57600080fd5b506101766105c0565b6040516101839190611d3d565b60405180910390f35b34801561019857600080fd5b506101b360048036038101906101ae9190611a14565b61064e565b6040516101c09190611d22565b60405180910390f35b3480156101d557600080fd5b506101de610740565b6040516101eb9190611e5f565b60405180910390f35b34801561020057600080fd5b50610209610746565b6040516102169190611e5f565b60405180910390f35b34801561022b57600080fd5b5061023461074c565b6040516102419190611e5f565b60405180910390f35b34801561025657600080fd5b50610271600480360381019061026c91906119c5565b610752565b60405161027e9190611d22565b60405180910390f35b34801561029357600080fd5b506102ae60048036038101906102a99190611a79565b6108bc565b6040516102bb9190611d22565b60405180910390f35b3480156102d057600080fd5b506102d96109d0565b6040516102e69190611e5f565b60405180910390f35b3480156102fb57600080fd5b5061031660048036038101906103119190611960565b6109d6565b6040516103239190611e5f565b60405180910390f35b6103346109ee565b005b34801561034257600080fd5b5061035d60048036038101906103589190611a79565b610bdf565b005b34801561036b57600080fd5b50610374610d60565b6040516103819190611ca7565b60405180910390f35b34801561039657600080fd5b5061039f610d86565b6040516103ac9190611e5f565b60405180910390f35b3480156103c157600080fd5b506103ca610d8c565b6040516103d79190611d3d565b60405180910390f35b3480156103ec57600080fd5b5061040760048036038101906104029190611a14565b610e1a565b6040516104149190611d22565b60405180910390f35b34801561042957600080fd5b50610444600480360381019061043f9190611989565b610e31565b6040516104519190611e5f565b60405180910390f35b610462610e56565b60405161046f9190611d22565b60405180910390f35b34801561048457600080fd5b5061048d61103a565b60405161049a9190611ca7565b60405180910390f35b3480156104af57600080fd5b506104b8611060565b005b60008084116104fe576040517f08c379a00000000000000000000000000000000000000000000000000000000081526004016104f590611e3f565b60405180910390fd5b60008311801561050e5750600082115b61054d576040517f08c379a000000000000000000000000000000000000000000000000000000000815260040161054490611ddf565b60405180910390fd5b60006105646103e58661111c90919063ffffffff16565b9050600061057b848361111c90919063ffffffff16565b905060006105a6836105986103e88961111c90919063ffffffff16565b61118990919063ffffffff16565b905080826105b49190611f15565b93505050509392505050565b600080546105cd90612061565b80601f01602080910402602001604051908101604052809291908181526020018280546105f990612061565b80156106465780601f1061061b57610100808354040283529160200191610646565b820191906000526020600020905b81548152906001019060200180831161062957829003601f168201915b505050505081565b600081600460003373ffffffffffffffffffffffffffffffffffffffff1673ffffffffffffffffffffffffffffffffffffffff16815260200190815260200160002060008573ffffffffffffffffffffffffffffffffffffffff1673ffffffffffffffffffffffffffffffffffffffff168152602001908152602001600020819055508273ffffffffffffffffffffffffffffffffffffffff163373ffffffffffffffffffffffffffffffffffffffff167f8c5be1e5ebec7d5bd14f71427d1e84f3dd0314c0f7b2291e5b200ac8c7c3b9258460405161072e9190611e5f565b60405180910390a36001905092915050565b600a5481565b60025481565b60085481565b6000600460008573ffffffffffffffffffffffffffffffffffffffff1673ffffffffffffffffffffffffffffffffffffffff16815260200190815260200160002060003373ffffffffffffffffffffffffffffffffffffffff1673ffffffffffffffffffffffffffffffffffffffff16815260200190815260200160002054821115610813576040517f08c379a000000000000000000000000000000000000000000000000000000000815260040161080a90611dff565b60405180910390fd5b81600460008673ffffffffffffffffffffffffffffffffffffffff1673ffffffffffffffffffffffffffffffffffffffff16815260200190815260200160002060003373ffffffffffffffffffffffffffffffffffffffff1673ffffffffffffffffffffffffffffffffffffffff168152602001908152602001600020600082825461089f9190611fa0565b925050819055506108b18484846111e2565b600190509392505050565b600081600360003373ffffffffffffffffffffffffffffffffffffffff1673ffffffffffffffffffffffffffffffffffffffff16815260200190815260200160002054101561090a57600080fd5b81600360003373ffffffffffffffffffffffffffffffffffffffff1673ffffffffffffffffffffffffffffffffffffffff16815260200190815260200160002060008282546109599190611fa0565b9250508190555081600260008282546109729190611fa0565b925050819055503373ffffffffffffffffffffffffffffffffffffffff167fcc16f5dbb4873280815c1ee09dbd06736cffcc184412cf7a71a0fdb75d397ca5836040516109bf9190611e5f565b60405180910390a260019050919050565b60075481565b60036020528060005260406000206000915090505481565b600034905060006007549050600060085490506000610a0e8484846104ba565b9050600560009054906101000a900473ffffffffffffffffffffffffffffffffffffffff1673ffffffffffffffffffffffffffffffffffffffff1663095ea7b3306502003a37f0006040518363ffffffff1660e01b8152600401610a73929190611cf9565b602060405180830381600087803b158015610a8d57600080fd5b505af1158015610aa1573d6000803e3d6000fd5b505050506040513d601f19601f82011682018060405250810190610ac59190611a50565b50600560009054906101000a900473ffffffffffffffffffffffffffffffffffffffff1673ffffffffffffffffffffffffffffffffffffffff166323b872dd3033846040518463ffffffff1660e01b8152600401610b2593929190611cc2565b602060405180830381600087803b158015610b3f57600080fd5b505af1158015610b53573d6000803e3d6000fd5b505050506040513d601f19601f82011682018060405250810190610b779190611a50565b5080600854610b869190611fa0565b60088190555034600754610b9a9190611ebf565b6007819055507f0b681acbf8f2a3cd70a326ce89b9a07a24df363803ed116a44be70fc09c3222e8482604051610bd1929190611e7a565b60405180910390a150505050565b60006008549050600060075490506000610bfa8484846104ba565b9050600560009054906101000a900473ffffffffffffffffffffffffffffffffffffffff1673ffffffffffffffffffffffffffffffffffffffff1663095ea7b3306502003a37f0006040518363ffffffff1660e01b8152600401610c5f929190611cf9565b602060405180830381600087803b158015610c7957600080fd5b505af1158015610c8d573d6000803e3d6000fd5b505050506040513d601f19601f82011682018060405250810190610cb19190611a50565b503373ffffffffffffffffffffffffffffffffffffffff166108fc829081150290604051600060405180830381858888f19350505050158015610cf8573d6000803e3d6000fd5b5083600854610d079190611ebf565b60088190555080600754610d1b9190611fa0565b6007819055507fd401b6994134b4479b1cae665f9f116fcc8d597dc4da1b0ef7cfe4241bdab0dc8482604051610d52929190611e7a565b60405180910390a150505050565b600660009054906101000a900473ffffffffffffffffffffffffffffffffffffffff1681565b600b5481565b60018054610d9990612061565b80601f0160208091040260200160405190810160405280929190818152602001828054610dc590612061565b8015610e125780601f10610de757610100808354040283529160200191610e12565b820191906000526020600020905b815481529060010190602001808311610df557829003601f168201915b505050505081565b6000610e273384846111e2565b6001905092915050565b6004602052816000526040600020602052806000526040600020600091509150505481565b6000803490506000600b54600a5483610e6f9190611f46565b610e799190611f15565b9050600560009054906101000a900473ffffffffffffffffffffffffffffffffffffffff1673ffffffffffffffffffffffffffffffffffffffff1663095ea7b3306502003a37f0006040518363ffffffff1660e01b8152600401610ede929190611cf9565b602060405180830381600087803b158015610ef857600080fd5b505af1158015610f0c573d6000803e3d6000fd5b505050506040513d601f19601f82011682018060405250810190610f309190611a50565b506000600560009054906101000a900473ffffffffffffffffffffffffffffffffffffffff1690508073ffffffffffffffffffffffffffffffffffffffff166323b872dd3330856040518463ffffffff1660e01b8152600401610f9593929190611cc2565b602060405180830381600087803b158015610faf57600080fd5b505af1158015610fc3573d6000803e3d6000fd5b505050506040513d601f19601f82011682018060405250810190610fe79190611a50565b611026576040517f08c379a000000000000000000000000000000000000000000000000000000000815260040161101d90611d5f565b60405180910390fd5b61102f33611562565b506001935050505090565b600560009054906101000a900473ffffffffffffffffffffffffffffffffffffffff1681565b61111a47600560009054906101000a900473ffffffffffffffffffffffffffffffffffffffff1673ffffffffffffffffffffffffffffffffffffffff166370a08231306040518263ffffffff1660e01b81526004016110bf9190611ca7565b60206040518083038186803b1580156110d757600080fd5b505afa1580156110eb573d6000803e3d6000fd5b505050506040513d601f19601f8201168201806040525081019061110f9190611aa2565b600754600854611743565b565b6000808214806111445750828283856111359190611f46565b9250826111429190611f15565b145b611183576040517f08c379a000000000000000000000000000000000000000000000000000000000815260040161117a90611d7f565b60405180910390fd5b92915050565b60008282846111989190611ebf565b91508110156111dc576040517f08c379a00000000000000000000000000000000000000000000000000000000081526004016111d390611dbf565b60405180910390fd5b92915050565b600073ffffffffffffffffffffffffffffffffffffffff168273ffffffffffffffffffffffffffffffffffffffff16141561121c57600080fd5b80600360008573ffffffffffffffffffffffffffffffffffffffff1673ffffffffffffffffffffffffffffffffffffffff16815260200190815260200160002054101561126857600080fd5b600360008373ffffffffffffffffffffffffffffffffffffffff1673ffffffffffffffffffffffffffffffffffffffff1681526020019081526020016000205481600360008573ffffffffffffffffffffffffffffffffffffffff1673ffffffffffffffffffffffffffffffffffffffff168152602001908152602001600020546112f39190611ebf565b10156112fe57600080fd5b6000600360008473ffffffffffffffffffffffffffffffffffffffff1673ffffffffffffffffffffffffffffffffffffffff16815260200190815260200160002054600360008673ffffffffffffffffffffffffffffffffffffffff1673ffffffffffffffffffffffffffffffffffffffff1681526020019081526020016000205461138a9190611ebf565b905081600360008673ffffffffffffffffffffffffffffffffffffffff1673ffffffffffffffffffffffffffffffffffffffff16815260200190815260200160002060008282546113db9190611fa0565b9250508190555081600360008573ffffffffffffffffffffffffffffffffffffffff1673ffffffffffffffffffffffffffffffffffffffff16815260200190815260200160002060008282546114319190611ebf565b925050819055508273ffffffffffffffffffffffffffffffffffffffff168473ffffffffffffffffffffffffffffffffffffffff167fddf252ad1be2c89b69c2b068fc378daa952ba7f163c4a11628f55a4df523b3ef846040516114959190611e5f565b60405180910390a380600360008573ffffffffffffffffffffffffffffffffffffffff1673ffffffffffffffffffffffffffffffffffffffff16815260200190815260200160002054600360008773ffffffffffffffffffffffffffffffffffffffff1673ffffffffffffffffffffffffffffffffffffffff168152602001908152602001600020546115289190611ebf565b1461155c577f4e487b7100000000000000000000000000000000000000000000000000000000600052600160045260246000fd5b50505050565b6000804790506000600560009054906101000a900473ffffffffffffffffffffffffffffffffffffffff1673ffffffffffffffffffffffffffffffffffffffff166370a08231306040518263ffffffff1660e01b81526004016115c59190611ca7565b60206040518083038186803b1580156115dd57600080fd5b505afa1580156115f1573d6000803e3d6000fd5b505050506040513d601f19601f820116820180604052508101906116159190611aa2565b90506000600754905060006008549050600082856116339190611fa0565b9050600082856116439190611fa0565b9050600060025490506000811415611673578182846116629190611f46565b61166c9190611f15565b975061168d565b8182846116809190611f46565b61168a9190611f15565b97505b600088116116d0576040517f08c379a00000000000000000000000000000000000000000000000000000000081526004016116c790611d9f565b60405180910390fd5b6116da8989611843565b506116e787878787611743565b3373ffffffffffffffffffffffffffffffffffffffff167fc324c34388e433281d128336df982824b8e77c37ee8572eb94f5d58cf38b010e848460405161172f929190611e7a565b60405180910390a250505050505050919050565b60008410158015611755575060008310155b611794576040517f08c379a000000000000000000000000000000000000000000000000000000000815260040161178b90611e1f565b60405180910390fd5b6000821180156117a45750600081115b156117f25780826117b59190611f15565b600a60008282546117c69190611ebf565b9250508190555081816117d99190611f15565b600b60008282546117ea9190611ebf565b925050819055505b83600781905550826008819055507fcf2aa50876cdfbb541206f89af0ee78d44a2abf8d328e37fa4917f982149848a600754600754604051611835929190611e7a565b60405180910390a150505050565b600081600360008573ffffffffffffffffffffffffffffffffffffffff1673ffffffffffffffffffffffffffffffffffffffff16815260200190815260200160002060008282546118949190611ebf565b9250508190555081600260008282546118ad9190611ebf565b925050819055503373ffffffffffffffffffffffffffffffffffffffff167f0f6798a560793a54c3bcfe86a93cde1e73087d944c0ea20544137d4121396885836040516118fa9190611e5f565b60405180910390a26001905092915050565b60008135905061191b816122c5565b92915050565b600081519050611930816122dc565b92915050565b600081359050611945816122f3565b92915050565b60008151905061195a816122f3565b92915050565b60006020828403121561197257600080fd5b60006119808482850161190c565b91505092915050565b6000806040838503121561199c57600080fd5b60006119aa8582860161190c565b92505060206119bb8582860161190c565b9150509250929050565b6000806000606084860312156119da57600080fd5b60006119e88682870161190c565b93505060206119f98682870161190c565b9250506040611a0a86828701611936565b9150509250925092565b60008060408385031215611a2757600080fd5b6000611a358582860161190c565b9250506020611a4685828601611936565b9150509250929050565b600060208284031215611a6257600080fd5b6000611a7084828501611921565b91505092915050565b600060208284031215611a8b57600080fd5b6000611a9984828501611936565b91505092915050565b600060208284031215611ab457600080fd5b6000611ac28482850161194b565b91505092915050565b600080600060608486031215611ae057600080fd5b6000611aee86828701611936565b9350506020611aff86828701611936565b9250506040611b1086828701611936565b9150509250925092565b611b2381611fd4565b82525050565b611b3281611fe6565b82525050565b611b418161201c565b82525050565b6000611b5282611ea3565b611b5c8185611eae565b9350611b6c81856020860161202e565b611b7581612120565b840191505092915050565b6000611b8d601783611eae565b9150611b9882612131565b602082019050919050565b6000611bb0601483611eae565b9150611bbb8261215a565b602082019050919050565b6000611bd3601783611eae565b9150611bde82612183565b602082019050919050565b6000611bf6601483611eae565b9150611c01826121ac565b602082019050919050565b6000611c19602883611eae565b9150611c24826121d5565b604082019050919050565b6000611c3c601183611eae565b9150611c4782612224565b602082019050919050565b6000611c5f601083611eae565b9150611c6a8261224d565b602082019050919050565b6000611c82602b83611eae565b9150611c8d82612276565b604082019050919050565b611ca181612012565b82525050565b6000602082019050611cbc6000830184611b1a565b92915050565b6000606082019050611cd76000830186611b1a565b611ce46020830185611b1a565b611cf16040830184611c98565b949350505050565b6000604082019050611d0e6000830185611b1a565b611d1b6020830184611b38565b9392505050565b6000602082019050611d376000830184611b29565b92915050565b60006020820190508181036000830152611d578184611b47565b905092915050565b60006020820190508181036000830152611d7881611b80565b9050919050565b60006020820190508181036000830152611d9881611ba3565b9050919050565b60006020820190508181036000830152611db881611bc6565b9050919050565b60006020820190508181036000830152611dd881611be9565b9050919050565b60006020820190508181036000830152611df881611c0c565b9050919050565b60006020820190508181036000830152611e1881611c2f565b9050919050565b60006020820190508181036000830152611e3881611c52565b9050919050565b60006020820190508181036000830152611e5881611c75565b9050919050565b6000602082019050611e746000830184611c98565b92915050565b6000604082019050611e8f6000830185611c98565b611e9c6020830184611c98565b9392505050565b600081519050919050565b600082825260208201905092915050565b6000611eca82612012565b9150611ed583612012565b9250827fffffffffffffffffffffffffffffffffffffffffffffffffffffffffffffffff03821115611f0a57611f09612093565b5b828201905092915050565b6000611f2082612012565b9150611f2b83612012565b925082611f3b57611f3a6120c2565b5b828204905092915050565b6000611f5182612012565b9150611f5c83612012565b9250817fffffffffffffffffffffffffffffffffffffffffffffffffffffffffffffffff0483118215151615611f9557611f94612093565b5b828202905092915050565b6000611fab82612012565b9150611fb683612012565b925082821015611fc957611fc8612093565b5b828203905092915050565b6000611fdf82611ff2565b9050919050565b60008115159050919050565b600073ffffffffffffffffffffffffffffffffffffffff82169050919050565b6000819050919050565b600061202782612012565b9050919050565b60005b8381101561204c578082015181840152602081019050612031565b8381111561205b576000848401525b50505050565b6000600282049050600182168061207957607f821691505b6020821081141561208d5761208c6120f1565b5b50919050565b7f4e487b7100000000000000000000000000000000000000000000000000000000600052601160045260246000fd5b7f4e487b7100000000000000000000000000000000000000000000000000000000600052601260045260246000fd5b7f4e487b7100000000000000000000000000000000000000000000000000000000600052602260045260246000fd5b6000601f19601f8301169050919050565b7f5472616e666572206f6620746f6b656e206661696c6564000000000000000000600082015250565b7f64732d6d6174682d6d756c2d6f766572666c6f77000000000000000000000000600082015250565b7f4c697175696469747920616464656420696e76616c6964000000000000000000600082015250565b7f64732d6d6174682d6164642d6f766572666c6f77000000000000000000000000600082015250565b7f556e697377617056324c6962726172793a20494e53554646494349454e545f4c60008201527f4951554944495459000000000000000000000000000000000000000000000000602082015250565b7f496e76616c696420616c6c6f77616e6365000000000000000000000000000000600082015250565b7f496e76616c69642062616c616e63657300000000000000000000000000000000600082015250565b7f556e697377617056324c6962726172793a20494e53554646494349454e545f4960008201527f4e5055545f414d4f554e54000000000000000000000000000000000000000000602082015250565b6122ce81611fd4565b81146122d957600080fd5b50565b6122e581611fe6565b81146122f057600080fd5b50565b6122fc81612012565b811461230757600080fd5b5056fea264697066735822122010e9d5f48c2155acdac4a28d67e7a52fbb048ad5183b56ccc22acdbdfd191a1664736f6c63430008040033",
  "linkReferences": {},
  "deployedLinkReferences": {}
}