{
  "_format": "hh-sol-artifact-1",
  "contractName": "SpotoToken",
  "sourceName": "contracts/SpotoToken.sol",
  "abi": [
    {
      "inputs": [],
      "stateMutability": "nonpayable",
      "type": "constructor"
    },
    {
      "anonymous": false,
      "inputs": [
        {
          "indexed": true,
          "internalType": "address",
          "name": "owner",
          "type": "address"
        },
        {
          "indexed": true,
          "internalType": "address",
          "name": "spender",
          "type": "address"
        },
        {
          "indexed": false,
          "internalType": "uint256",
          "name": "value",
          "type": "uint256"
        }
      ],
      "name": "Approval",
      "type": "event"
    },
    {
      "anonymous": false,
      "inputs": [
        {
          "indexed": true,
          "internalType": "address",
          "name": "previousOwner",
          "type": "address"
        },
        {
          "indexed": true,
          "internalType": "address",
          "name": "newOwner",
          "type": "address"
        }
      ],
      "name": "OwnershipTransferred",
      "type": "event"
    },
    {
      "anonymous": false,
      "inputs": [
        {
          "indexed": false,
          "internalType": "uint256",
          "name": "id",
          "type": "uint256"
        }
      ],
      "name": "Snapshot",
      "type": "event"
    },
    {
      "anonymous": false,
      "inputs": [
        {
          "indexed": true,
          "internalType": "address",
          "name": "from",
          "type": "address"
        },
        {
          "indexed": true,
          "internalType": "address",
          "name": "to",
          "type": "address"
        },
        {
          "indexed": false,
          "internalType": "uint256",
          "name": "value",
          "type": "uint256"
        }
      ],
      "name": "Transfer",
      "type": "event"
    },
    {
      "inputs": [
        {
          "internalType": "address",
          "name": "owner",
          "type": "address"
        },
        {
          "internalType": "address",
          "name": "spender",
          "type": "address"
        }
      ],
      "name": "allowance",
      "outputs": [
        {
          "internalType": "uint256",
          "name": "",
          "type": "uint256"
        }
      ],
      "stateMutability": "view",
      "type": "function"
    },
    {
      "inputs": [
        {
          "internalType": "address",
          "name": "spender",
          "type": "address"
        },
        {
          "internalType": "uint256",
          "name": "amount",
          "type": "uint256"
        }
      ],
      "name": "approve",
      "outputs": [
        {
          "internalType": "bool",
          "name": "",
          "type": "bool"
        }
      ],
      "stateMutability": "nonpayable",
      "type": "function"
    },
    {
      "inputs": [
        {
          "internalType": "address",
          "name": "account",
          "type": "address"
        }
      ],
      "name": "balanceOf",
      "outputs": [
        {
          "internalType": "uint256",
          "name": "",
          "type": "uint256"
        }
      ],
      "stateMutability": "view",
      "type": "function"
    },
    {
      "inputs": [
        {
          "internalType": "address",
          "name": "account",
          "type": "address"
        },
        {
          "internalType": "uint256",
          "name": "snapshotId",
          "type": "uint256"
        }
      ],
      "name": "balanceOfAt",
      "outputs": [
        {
          "internalType": "uint256",
          "name": "",
          "type": "uint256"
        }
      ],
      "stateMutability": "view",
      "type": "function"
    },
    {
      "inputs": [
        {
          "internalType": "uint256",
          "name": "amount",
          "type": "uint256"
        }
      ],
      "name": "burn",
      "outputs": [],
      "stateMutability": "nonpayable",
      "type": "function"
    },
    {
      "inputs": [
        {
          "internalType": "address",
          "name": "account",
          "type": "address"
        },
        {
          "internalType": "uint256",
          "name": "amount",
          "type": "uint256"
        }
      ],
      "name": "burnFrom",
      "outputs": [],
      "stateMutability": "nonpayable",
      "type": "function"
    },
    {
      "inputs": [],
      "name": "decimals",
      "outputs": [
        {
          "internalType": "uint8",
          "name": "",
          "type": "uint8"
        }
      ],
      "stateMutability": "view",
      "type": "function"
    },
    {
      "inputs": [
        {
          "internalType": "address",
          "name": "spender",
          "type": "address"
        },
        {
          "internalType": "uint256",
          "name": "subtractedValue",
          "type": "uint256"
        }
      ],
      "name": "decreaseAllowance",
      "outputs": [
        {
          "internalType": "bool",
          "name": "",
          "type": "bool"
        }
      ],
      "stateMutability": "nonpayable",
      "type": "function"
    },
    {
      "inputs": [
        {
          "internalType": "address",
          "name": "spender",
          "type": "address"
        },
        {
          "internalType": "uint256",
          "name": "addedValue",
          "type": "uint256"
        }
      ],
      "name": "increaseAllowance",
      "outputs": [
        {
          "internalType": "bool",
          "name": "",
          "type": "bool"
        }
      ],
      "stateMutability": "nonpayable",
      "type": "function"
    },
    {
      "inputs": [
        {
          "internalType": "address",
          "name": "to",
          "type": "address"
        },
        {
          "internalType": "uint256",
          "name": "amount",
          "type": "uint256"
        }
      ],
      "name": "mint",
      "outputs": [],
      "stateMutability": "nonpayable",
      "type": "function"
    },
    {
      "inputs": [],
      "name": "name",
      "outputs": [
        {
          "internalType": "string",
          "name": "",
          "type": "string"
        }
      ],
      "stateMutability": "view",
      "type": "function"
    },
    {
      "inputs": [],
      "name": "owner",
      "outputs": [
        {
          "internalType": "address",
          "name": "",
          "type": "address"
        }
      ],
      "stateMutability": "view",
      "type": "function"
    },
    {
      "inputs": [],
      "name": "renounceOwnership",
      "outputs": [],
      "stateMutability": "nonpayable",
      "type": "function"
    },
    {
      "inputs": [],
      "name": "snapshot",
      "outputs": [],
      "stateMutability": "nonpayable",
      "type": "function"
    },
    {
      "inputs": [],
      "name": "symbol",
      "outputs": [
        {
          "internalType": "string",
          "name": "",
          "type": "string"
        }
      ],
      "stateMutability": "view",
      "type": "function"
    },
    {
      "inputs": [],
      "name": "totalSupply",
      "outputs": [
        {
          "internalType": "uint256",
          "name": "",
          "type": "uint256"
        }
      ],
      "stateMutability": "view",
      "type": "function"
    },
    {
      "inputs": [
        {
          "internalType": "uint256",
          "name": "snapshotId",
          "type": "uint256"
        }
      ],
      "name": "totalSupplyAt",
      "outputs": [
        {
          "internalType": "uint256",
          "name": "",
          "type": "uint256"
        }
      ],
      "stateMutability": "view",
      "type": "function"
    },
    {
      "inputs": [
        {
          "internalType": "address",
          "name": "recipient",
          "type": "address"
        },
        {
          "internalType": "uint256",
          "name": "amount",
          "type": "uint256"
        }
      ],
      "name": "transfer",
      "outputs": [
        {
          "internalType": "bool",
          "name": "",
          "type": "bool"
        }
      ],
      "stateMutability": "nonpayable",
      "type": "function"
    },
    {
      "inputs": [
        {
          "internalType": "address",
          "name": "sender",
          "type": "address"
        },
        {
          "internalType": "address",
          "name": "recipient",
          "type": "address"
        },
        {
          "internalType": "uint256",
          "name": "amount",
          "type": "uint256"
        }
      ],
      "name": "transferFrom",
      "outputs": [
        {
          "internalType": "bool",
          "name": "",
          "type": "bool"
        }
      ],
      "stateMutability": "nonpayable",
      "type": "function"
    },
    {
      "inputs": [
        {
          "internalType": "address",
          "name": "newOwner",
          "type": "address"
        }
      ],
      "name": "transferOwnership",
      "outputs": [],
      "stateMutability": "nonpayable",
      "type": "function"
    }
  ],
  "bytecode": "0x60806040523480156200001157600080fd5b506040518060400160405280600a81526020017f53706f746f546f6b656e000000000000000000000000000000000000000000008152506040518060400160405280600381526020017f535054000000000000000000000000000000000000000000000000000000000081525081600390805190602001906200009692919062000693565b508060049080519060200190620000af92919062000693565b505050620000d2620000c66200011860201b60201c565b6200012060201b60201c565b6200011233620000e7620001e660201b60201c565b600a620000f5919062000883565b631dcd6500620001069190620009c0565b620001ef60201b60201c565b62000b3d565b600033905090565b6000600960009054906101000a900473ffffffffffffffffffffffffffffffffffffffff16905081600960006101000a81548173ffffffffffffffffffffffffffffffffffffffff021916908373ffffffffffffffffffffffffffffffffffffffff1602179055508173ffffffffffffffffffffffffffffffffffffffff168173ffffffffffffffffffffffffffffffffffffffff167f8be0079c531659141344cd1fd0a4f28419497f9722a3daafe3b4186f6b6457e060405160405180910390a35050565b60006012905090565b600073ffffffffffffffffffffffffffffffffffffffff168273ffffffffffffffffffffffffffffffffffffffff16141562000262576040517f08c379a000000000000000000000000000000000000000000000000000000000815260040162000259906200077b565b60405180910390fd5b62000276600083836200036860201b60201c565b80600260008282546200028a9190620007cb565b92505081905550806000808473ffffffffffffffffffffffffffffffffffffffff1673ffffffffffffffffffffffffffffffffffffffff1681526020019081526020016000206000828254620002e19190620007cb565b925050819055508173ffffffffffffffffffffffffffffffffffffffff16600073ffffffffffffffffffffffffffffffffffffffff167fddf252ad1be2c89b69c2b068fc378daa952ba7f163c4a11628f55a4df523b3ef836040516200034891906200079d565b60405180910390a362000364600083836200038560201b60201c565b5050565b620003808383836200038a60201b62000cb71760201c565b505050565b505050565b620003a28383836200048560201b62000d711760201c565b600073ffffffffffffffffffffffffffffffffffffffff168373ffffffffffffffffffffffffffffffffffffffff161415620003ff57620003e9826200048a60201b60201c565b620003f9620004ed60201b60201c565b62000480565b600073ffffffffffffffffffffffffffffffffffffffff168273ffffffffffffffffffffffffffffffffffffffff1614156200045c5762000446836200048a60201b60201c565b62000456620004ed60201b60201c565b6200047f565b6200046d836200048a60201b60201c565b6200047e826200048a60201b60201c565b5b5b505050565b505050565b620004ea600560008373ffffffffffffffffffffffffffffffffffffffff1673ffffffffffffffffffffffffffffffffffffffff168152602001908152602001600020620004de836200051160201b60201c565b6200055960201b60201c565b50565b6200050f600662000503620005e560201b60201c565b6200055960201b60201c565b565b60008060008373ffffffffffffffffffffffffffffffffffffffff1673ffffffffffffffffffffffffffffffffffffffff168152602001908152602001600020549050919050565b60006200056b620005ef60201b60201c565b90508062000582846000016200060d60201b60201c565b1015620005e05782600001819080600181540180825580915050600190039060005260206000200160009091909190915055826001018290806001815401808255809150506001900390600052602060002001600090919091909150555b505050565b6000600254905090565b60006200060860086200068560201b62000d761760201c565b905090565b6000808280549050141562000626576000905062000680565b81600183805490506200063a919062000a21565b8154811062000672577f4e487b7100000000000000000000000000000000000000000000000000000000600052603260045260246000fd5b906000526020600020015490505b919050565b600081600001549050919050565b828054620006a19062000a73565b90600052602060002090601f016020900481019282620006c5576000855562000711565b82601f10620006e057805160ff191683800117855562000711565b8280016001018555821562000711579182015b8281111562000710578251825591602001919060010190620006f3565b5b50905062000720919062000724565b5090565b5b808211156200073f57600081600090555060010162000725565b5090565b600062000752601f83620007ba565b91506200075f8262000b14565b602082019050919050565b620007758162000a5c565b82525050565b60006020820190508181036000830152620007968162000743565b9050919050565b6000602082019050620007b460008301846200076a565b92915050565b600082825260208201905092915050565b6000620007d88262000a5c565b9150620007e58362000a5c565b9250827fffffffffffffffffffffffffffffffffffffffffffffffffffffffffffffffff038211156200081d576200081c62000aa9565b5b828201905092915050565b6000808291508390505b60018511156200087a5780860481111562000852576200085162000aa9565b5b6001851615620008625780820291505b8081029050620008728562000b07565b945062000832565b94509492505050565b6000620008908262000a5c565b91506200089d8362000a66565b9250620008cc7fffffffffffffffffffffffffffffffffffffffffffffffffffffffffffffffff8484620008d4565b905092915050565b600082620008e65760019050620009b9565b81620008f65760009050620009b9565b81600181146200090f57600281146200091a5762000950565b6001915050620009b9565b60ff8411156200092f576200092e62000aa9565b5b8360020a91508482111562000949576200094862000aa9565b5b50620009b9565b5060208310610133831016604e8410600b84101617156200098a5782820a90508381111562000984576200098362000aa9565b5b620009b9565b62000999848484600162000828565b92509050818404811115620009b357620009b262000aa9565b5b81810290505b9392505050565b6000620009cd8262000a5c565b9150620009da8362000a5c565b9250817fffffffffffffffffffffffffffffffffffffffffffffffffffffffffffffffff048311821515161562000a165762000a1562000aa9565b5b828202905092915050565b600062000a2e8262000a5c565b915062000a3b8362000a5c565b92508282101562000a515762000a5062000aa9565b5b828203905092915050565b6000819050919050565b600060ff82169050919050565b6000600282049050600182168062000a8c57607f821691505b6020821081141562000aa35762000aa262000ad8565b5b50919050565b7f4e487b7100000000000000000000000000000000000000000000000000000000600052601160045260246000fd5b7f4e487b7100000000000000000000000000000000000000000000000000000000600052602260045260246000fd5b60008160011c9050919050565b7f45524332303a206d696e7420746f20746865207a65726f206164647265737300600082015250565b6126f38062000b4d6000396000f3fe608060405234801561001057600080fd5b506004361061012c5760003560e01c8063715018a6116100ad578063981b24d011610071578063981b24d01461031f578063a457c2d71461034f578063a9059cbb1461037f578063dd62ed3e146103af578063f2fde38b146103df5761012c565b8063715018a6146102b357806379cc6790146102bd5780638da5cb5b146102d957806395d89b41146102f75780639711715a146103155761012c565b806339509351116100f457806339509351146101eb57806340c10f191461021b57806342966c68146102375780634ee2cd7e1461025357806370a08231146102835761012c565b806306fdde0314610131578063095ea7b31461014f57806318160ddd1461017f57806323b872dd1461019d578063313ce567146101cd575b600080fd5b6101396103fb565b6040516101469190611e1f565b60405180910390f35b61016960048036038101906101649190611b02565b61048d565b6040516101769190611e04565b60405180910390f35b6101876104ab565b6040516101949190612021565b60405180910390f35b6101b760048036038101906101b29190611ab3565b6104b5565b6040516101c49190611e04565b60405180910390f35b6101d56105ad565b6040516101e2919061203c565b60405180910390f35b61020560048036038101906102009190611b02565b6105b6565b6040516102129190611e04565b60405180910390f35b61023560048036038101906102309190611b02565b610662565b005b610251600480360381019061024c9190611b3e565b6106ec565b005b61026d60048036038101906102689190611b02565b610700565b60405161027a9190612021565b60405180910390f35b61029d60048036038101906102989190611a4e565b610770565b6040516102aa9190612021565b60405180910390f35b6102bb6107b8565b005b6102d760048036038101906102d29190611b02565b610840565b005b6102e16108bb565b6040516102ee9190611de9565b60405180910390f35b6102ff6108e5565b60405161030c9190611e1f565b60405180910390f35b61031d610977565b005b61033960048036038101906103349190611b3e565b6109fe565b6040516103469190612021565b60405180910390f35b61036960048036038101906103649190611b02565b610a2f565b6040516103769190611e04565b60405180910390f35b61039960048036038101906103949190611b02565b610b1a565b6040516103a69190611e04565b60405180910390f35b6103c960048036038101906103c49190611a77565b610b38565b6040516103d69190612021565b60405180910390f35b6103f960048036038101906103f49190611a4e565b610bbf565b005b60606003805461040a906121b6565b80601f0160208091040260200160405190810160405280929190818152602001828054610436906121b6565b80156104835780601f1061045857610100808354040283529160200191610483565b820191906000526020600020905b81548152906001019060200180831161046657829003601f168201915b5050505050905090565b60006104a161049a610d84565b8484610d8c565b6001905092915050565b6000600254905090565b60006104c2848484610f57565b6000600160008673ffffffffffffffffffffffffffffffffffffffff1673ffffffffffffffffffffffffffffffffffffffff168152602001908152602001600020600061050d610d84565b73ffffffffffffffffffffffffffffffffffffffff1673ffffffffffffffffffffffffffffffffffffffff1681526020019081526020016000205490508281101561058d576040517f08c379a000000000000000000000000000000000000000000000000000000000815260040161058490611f01565b60405180910390fd5b6105a185610599610d84565b858403610d8c565b60019150509392505050565b60006012905090565b60006106586105c3610d84565b8484600160006105d1610d84565b73ffffffffffffffffffffffffffffffffffffffff1673ffffffffffffffffffffffffffffffffffffffff16815260200190815260200160002060008873ffffffffffffffffffffffffffffffffffffffff1673ffffffffffffffffffffffffffffffffffffffff168152602001908152602001600020546106539190612073565b610d8c565b6001905092915050565b61066a610d84565b73ffffffffffffffffffffffffffffffffffffffff166106886108bb565b73ffffffffffffffffffffffffffffffffffffffff16146106de576040517f08c379a00000000000000000000000000000000000000000000000000000000081526004016106d590611f21565b60405180910390fd5b6106e882826111d8565b5050565b6106fd6106f7610d84565b82611338565b50565b600080600061074d84600560008873ffffffffffffffffffffffffffffffffffffffff1673ffffffffffffffffffffffffffffffffffffffff16815260200190815260200160002061150f565b91509150816107645761075f85610770565b610766565b805b9250505092915050565b60008060008373ffffffffffffffffffffffffffffffffffffffff1673ffffffffffffffffffffffffffffffffffffffff168152602001908152602001600020549050919050565b6107c0610d84565b73ffffffffffffffffffffffffffffffffffffffff166107de6108bb565b73ffffffffffffffffffffffffffffffffffffffff1614610834576040517f08c379a000000000000000000000000000000000000000000000000000000000815260040161082b90611f21565b60405180910390fd5b61083e600061162b565b565b60006108538361084e610d84565b610b38565b905081811015610898576040517f08c379a000000000000000000000000000000000000000000000000000000000815260040161088f90611f41565b60405180910390fd5b6108ac836108a4610d84565b848403610d8c565b6108b68383611338565b505050565b6000600960009054906101000a900473ffffffffffffffffffffffffffffffffffffffff16905090565b6060600480546108f4906121b6565b80601f0160208091040260200160405190810160405280929190818152602001828054610920906121b6565b801561096d5780601f106109425761010080835404028352916020019161096d565b820191906000526020600020905b81548152906001019060200180831161095057829003601f168201915b5050505050905090565b61097f610d84565b73ffffffffffffffffffffffffffffffffffffffff1661099d6108bb565b73ffffffffffffffffffffffffffffffffffffffff16146109f3576040517f08c379a00000000000000000000000000000000000000000000000000000000081526004016109ea90611f21565b60405180910390fd5b6109fb6116f1565b50565b6000806000610a0e84600661150f565b9150915081610a2457610a1f6104ab565b610a26565b805b92505050919050565b60008060016000610a3e610d84565b73ffffffffffffffffffffffffffffffffffffffff1673ffffffffffffffffffffffffffffffffffffffff16815260200190815260200160002060008573ffffffffffffffffffffffffffffffffffffffff1673ffffffffffffffffffffffffffffffffffffffff16815260200190815260200160002054905082811015610afb576040517f08c379a0000000000000000000000000000000000000000000000000000000008152600401610af290611fe1565b60405180910390fd5b610b0f610b06610d84565b85858403610d8c565b600191505092915050565b6000610b2e610b27610d84565b8484610f57565b6001905092915050565b6000600160008473ffffffffffffffffffffffffffffffffffffffff1673ffffffffffffffffffffffffffffffffffffffff16815260200190815260200160002060008373ffffffffffffffffffffffffffffffffffffffff1673ffffffffffffffffffffffffffffffffffffffff16815260200190815260200160002054905092915050565b610bc7610d84565b73ffffffffffffffffffffffffffffffffffffffff16610be56108bb565b73ffffffffffffffffffffffffffffffffffffffff1614610c3b576040517f08c379a0000000000000000000000000000000000000000000000000000000008152600401610c3290611f21565b60405180910390fd5b600073ffffffffffffffffffffffffffffffffffffffff168173ffffffffffffffffffffffffffffffffffffffff161415610cab576040517f08c379a0000000000000000000000000000000000000000000000000000000008152600401610ca290611ea1565b60405180910390fd5b610cb48161162b565b50565b610cc2838383610d71565b600073ffffffffffffffffffffffffffffffffffffffff168373ffffffffffffffffffffffffffffffffffffffff161415610d0d57610d0082611747565b610d0861179a565b610d6c565b600073ffffffffffffffffffffffffffffffffffffffff168273ffffffffffffffffffffffffffffffffffffffff161415610d5857610d4b83611747565b610d5361179a565b610d6b565b610d6183611747565b610d6a82611747565b5b5b505050565b505050565b600081600001549050919050565b600033905090565b600073ffffffffffffffffffffffffffffffffffffffff168373ffffffffffffffffffffffffffffffffffffffff161415610dfc576040517f08c379a0000000000000000000000000000000000000000000000000000000008152600401610df390611fa1565b60405180910390fd5b600073ffffffffffffffffffffffffffffffffffffffff168273ffffffffffffffffffffffffffffffffffffffff161415610e6c576040517f08c379a0000000000000000000000000000000000000000000000000000000008152600401610e6390611ec1565b60405180910390fd5b80600160008573ffffffffffffffffffffffffffffffffffffffff1673ffffffffffffffffffffffffffffffffffffffff16815260200190815260200160002060008473ffffffffffffffffffffffffffffffffffffffff1673ffffffffffffffffffffffffffffffffffffffff168152602001908152602001600020819055508173ffffffffffffffffffffffffffffffffffffffff168373ffffffffffffffffffffffffffffffffffffffff167f8c5be1e5ebec7d5bd14f71427d1e84f3dd0314c0f7b2291e5b200ac8c7c3b92583604051610f4a9190612021565b60405180910390a3505050565b600073ffffffffffffffffffffffffffffffffffffffff168373ffffffffffffffffffffffffffffffffffffffff161415610fc7576040517f08c379a0000000000000000000000000000000000000000000000000000000008152600401610fbe90611f81565b60405180910390fd5b600073ffffffffffffffffffffffffffffffffffffffff168273ffffffffffffffffffffffffffffffffffffffff161415611037576040517f08c379a000000000000000000000000000000000000000000000000000000000815260040161102e90611e61565b60405180910390fd5b6110428383836117ae565b60008060008573ffffffffffffffffffffffffffffffffffffffff1673ffffffffffffffffffffffffffffffffffffffff168152602001908152602001600020549050818110156110c8576040517f08c379a00000000000000000000000000000000000000000000000000000000081526004016110bf90611ee1565b60405180910390fd5b8181036000808673ffffffffffffffffffffffffffffffffffffffff1673ffffffffffffffffffffffffffffffffffffffff16815260200190815260200160002081905550816000808573ffffffffffffffffffffffffffffffffffffffff1673ffffffffffffffffffffffffffffffffffffffff168152602001908152602001600020600082825461115b9190612073565b925050819055508273ffffffffffffffffffffffffffffffffffffffff168473ffffffffffffffffffffffffffffffffffffffff167fddf252ad1be2c89b69c2b068fc378daa952ba7f163c4a11628f55a4df523b3ef846040516111bf9190612021565b60405180910390a36111d28484846117be565b50505050565b600073ffffffffffffffffffffffffffffffffffffffff168273ffffffffffffffffffffffffffffffffffffffff161415611248576040517f08c379a000000000000000000000000000000000000000000000000000000000815260040161123f90612001565b60405180910390fd5b611254600083836117ae565b80600260008282546112669190612073565b92505081905550806000808473ffffffffffffffffffffffffffffffffffffffff1673ffffffffffffffffffffffffffffffffffffffff16815260200190815260200160002060008282546112bb9190612073565b925050819055508173ffffffffffffffffffffffffffffffffffffffff16600073ffffffffffffffffffffffffffffffffffffffff167fddf252ad1be2c89b69c2b068fc378daa952ba7f163c4a11628f55a4df523b3ef836040516113209190612021565b60405180910390a3611334600083836117be565b5050565b600073ffffffffffffffffffffffffffffffffffffffff168273ffffffffffffffffffffffffffffffffffffffff1614156113a8576040517f08c379a000000000000000000000000000000000000000000000000000000000815260040161139f90611f61565b60405180910390fd5b6113b4826000836117ae565b60008060008473ffffffffffffffffffffffffffffffffffffffff1673ffffffffffffffffffffffffffffffffffffffff1681526020019081526020016000205490508181101561143a576040517f08c379a000000000000000000000000000000000000000000000000000000000815260040161143190611e81565b60405180910390fd5b8181036000808573ffffffffffffffffffffffffffffffffffffffff1673ffffffffffffffffffffffffffffffffffffffff16815260200190815260200160002081905550816002600082825461149191906120fa565b92505081905550600073ffffffffffffffffffffffffffffffffffffffff168373ffffffffffffffffffffffffffffffffffffffff167fddf252ad1be2c89b69c2b068fc378daa952ba7f163c4a11628f55a4df523b3ef846040516114f69190612021565b60405180910390a361150a836000846117be565b505050565b60008060008411611555576040517f08c379a000000000000000000000000000000000000000000000000000000000815260040161154c90611fc1565b60405180910390fd5b61155d6117c3565b84111561159f576040517f08c379a000000000000000000000000000000000000000000000000000000000815260040161159690611e41565b60405180910390fd5b60006115b785856000016117d490919063ffffffff16565b905083600001805490508114156115d5576000809250925050611624565b6001846001018281548110611613577f4e487b7100000000000000000000000000000000000000000000000000000000600052603260045260246000fd5b906000526020600020015492509250505b9250929050565b6000600960009054906101000a900473ffffffffffffffffffffffffffffffffffffffff16905081600960006101000a81548173ffffffffffffffffffffffffffffffffffffffff021916908373ffffffffffffffffffffffffffffffffffffffff1602179055508173ffffffffffffffffffffffffffffffffffffffff168173ffffffffffffffffffffffffffffffffffffffff167f8be0079c531659141344cd1fd0a4f28419497f9722a3daafe3b4186f6b6457e060405160405180910390a35050565b60006116fd60086118fa565b60006117076117c3565b90507f8030e83b04d87bef53480e26263266d6ca66863aa8506aca6f2559d18aa1cb67816040516117389190612021565b60405180910390a18091505090565b611797600560008373ffffffffffffffffffffffffffffffffffffffff1673ffffffffffffffffffffffffffffffffffffffff16815260200190815260200160002061179283610770565b611910565b50565b6117ac60066117a76104ab565b611910565b565b6117b9838383610cb7565b505050565b505050565b60006117cf6008610d76565b905090565b600080838054905014156117eb57600090506118f4565b600080848054905090505b8082101561187557600061180a838361198b565b905084868281548110611846577f4e487b7100000000000000000000000000000000000000000000000000000000600052603260045260246000fd5b9060005260206000200154111561185f5780915061186f565b60018161186c9190612073565b92505b506117f6565b6000821180156118d35750838560018461188f91906120fa565b815481106118c6577f4e487b7100000000000000000000000000000000000000000000000000000000600052603260045260246000fd5b9060005260206000200154145b156118ee576001826118e591906120fa565b925050506118f4565b81925050505b92915050565b6001816000016000828254019250508190555050565b600061191a6117c3565b905080611929846000016119b1565b10156119865782600001819080600181540180825580915050600190039060005260206000200160009091909190915055826001018290806001815401808255809150506001900390600052602060002001600090919091909150555b505050565b6000600282841861199c91906120c9565b8284166119a99190612073565b905092915050565b600080828054905014156119c85760009050611a1f565b81600183805490506119da91906120fa565b81548110611a11577f4e487b7100000000000000000000000000000000000000000000000000000000600052603260045260246000fd5b906000526020600020015490505b919050565b600081359050611a338161268f565b92915050565b600081359050611a48816126a6565b92915050565b600060208284031215611a6057600080fd5b6000611a6e84828501611a24565b91505092915050565b60008060408385031215611a8a57600080fd5b6000611a9885828601611a24565b9250506020611aa985828601611a24565b9150509250929050565b600080600060608486031215611ac857600080fd5b6000611ad686828701611a24565b9350506020611ae786828701611a24565b9250506040611af886828701611a39565b9150509250925092565b60008060408385031215611b1557600080fd5b6000611b2385828601611a24565b9250506020611b3485828601611a39565b9150509250929050565b600060208284031215611b5057600080fd5b6000611b5e84828501611a39565b91505092915050565b611b708161212e565b82525050565b611b7f81612140565b82525050565b6000611b9082612057565b611b9a8185612062565b9350611baa818560208601612183565b611bb381612275565b840191505092915050565b6000611bcb601d83612062565b9150611bd682612286565b602082019050919050565b6000611bee602383612062565b9150611bf9826122af565b604082019050919050565b6000611c11602283612062565b9150611c1c826122fe565b604082019050919050565b6000611c34602683612062565b9150611c3f8261234d565b604082019050919050565b6000611c57602283612062565b9150611c628261239c565b604082019050919050565b6000611c7a602683612062565b9150611c85826123eb565b604082019050919050565b6000611c9d602883612062565b9150611ca88261243a565b604082019050919050565b6000611cc0602083612062565b9150611ccb82612489565b602082019050919050565b6000611ce3602483612062565b9150611cee826124b2565b604082019050919050565b6000611d06602183612062565b9150611d1182612501565b604082019050919050565b6000611d29602583612062565b9150611d3482612550565b604082019050919050565b6000611d4c602483612062565b9150611d578261259f565b604082019050919050565b6000611d6f601683612062565b9150611d7a826125ee565b602082019050919050565b6000611d92602583612062565b9150611d9d82612617565b604082019050919050565b6000611db5601f83612062565b9150611dc082612666565b602082019050919050565b611dd48161216c565b82525050565b611de381612176565b82525050565b6000602082019050611dfe6000830184611b67565b92915050565b6000602082019050611e196000830184611b76565b92915050565b60006020820190508181036000830152611e398184611b85565b905092915050565b60006020820190508181036000830152611e5a81611bbe565b9050919050565b60006020820190508181036000830152611e7a81611be1565b9050919050565b60006020820190508181036000830152611e9a81611c04565b9050919050565b60006020820190508181036000830152611eba81611c27565b9050919050565b60006020820190508181036000830152611eda81611c4a565b9050919050565b60006020820190508181036000830152611efa81611c6d565b9050919050565b60006020820190508181036000830152611f1a81611c90565b9050919050565b60006020820190508181036000830152611f3a81611cb3565b9050919050565b60006020820190508181036000830152611f5a81611cd6565b9050919050565b60006020820190508181036000830152611f7a81611cf9565b9050919050565b60006020820190508181036000830152611f9a81611d1c565b9050919050565b60006020820190508181036000830152611fba81611d3f565b9050919050565b60006020820190508181036000830152611fda81611d62565b9050919050565b60006020820190508181036000830152611ffa81611d85565b9050919050565b6000602082019050818103600083015261201a81611da8565b9050919050565b60006020820190506120366000830184611dcb565b92915050565b60006020820190506120516000830184611dda565b92915050565b600081519050919050565b600082825260208201905092915050565b600061207e8261216c565b91506120898361216c565b9250827fffffffffffffffffffffffffffffffffffffffffffffffffffffffffffffffff038211156120be576120bd6121e8565b5b828201905092915050565b60006120d48261216c565b91506120df8361216c565b9250826120ef576120ee612217565b5b828204905092915050565b60006121058261216c565b91506121108361216c565b925082821015612123576121226121e8565b5b828203905092915050565b60006121398261214c565b9050919050565b60008115159050919050565b600073ffffffffffffffffffffffffffffffffffffffff82169050919050565b6000819050919050565b600060ff82169050919050565b60005b838110156121a1578082015181840152602081019050612186565b838111156121b0576000848401525b50505050565b600060028204905060018216806121ce57607f821691505b602082108114156121e2576121e1612246565b5b50919050565b7f4e487b7100000000000000000000000000000000000000000000000000000000600052601160045260246000fd5b7f4e487b7100000000000000000000000000000000000000000000000000000000600052601260045260246000fd5b7f4e487b7100000000000000000000000000000000000000000000000000000000600052602260045260246000fd5b6000601f19601f8301169050919050565b7f4552433230536e617073686f743a206e6f6e6578697374656e74206964000000600082015250565b7f45524332303a207472616e7366657220746f20746865207a65726f206164647260008201527f6573730000000000000000000000000000000000000000000000000000000000602082015250565b7f45524332303a206275726e20616d6f756e7420657863656564732062616c616e60008201527f6365000000000000000000000000000000000000000000000000000000000000602082015250565b7f4f776e61626c653a206e6577206f776e657220697320746865207a65726f206160008201527f6464726573730000000000000000000000000000000000000000000000000000602082015250565b7f45524332303a20617070726f766520746f20746865207a65726f20616464726560008201527f7373000000000000000000000000000000000000000000000000000000000000602082015250565b7f45524332303a207472616e7366657220616d6f756e742065786365656473206260008201527f616c616e63650000000000000000000000000000000000000000000000000000602082015250565b7f45524332303a207472616e7366657220616d6f756e742065786365656473206160008201527f6c6c6f77616e6365000000000000000000000000000000000000000000000000602082015250565b7f4f776e61626c653a2063616c6c6572206973206e6f7420746865206f776e6572600082015250565b7f45524332303a206275726e20616d6f756e74206578636565647320616c6c6f7760008201527f616e636500000000000000000000000000000000000000000000000000000000602082015250565b7f45524332303a206275726e2066726f6d20746865207a65726f2061646472657360008201527f7300000000000000000000000000000000000000000000000000000000000000602082015250565b7f45524332303a207472616e736665722066726f6d20746865207a65726f20616460008201527f6472657373000000000000000000000000000000000000000000000000000000602082015250565b7f45524332303a20617070726f76652066726f6d20746865207a65726f2061646460008201527f7265737300000000000000000000000000000000000000000000000000000000602082015250565b7f4552433230536e617073686f743a206964206973203000000000000000000000600082015250565b7f45524332303a2064656372656173656420616c6c6f77616e63652062656c6f7760008201527f207a65726f000000000000000000000000000000000000000000000000000000602082015250565b7f45524332303a206d696e7420746f20746865207a65726f206164647265737300600082015250565b6126988161212e565b81146126a357600080fd5b50565b6126af8161216c565b81146126ba57600080fd5b5056fea264697066735822122082778eb9297191d04cd3dbe652011ddc8d8d9ea2cb8ff6ff1b40297f1278debf64736f6c63430008040033",
  "linkReferences": {},
  "deployedLinkReferences": {}
}